:020000022000DC
:1060000000000120756302005D6302000DD80200EC
:106010006163020063630200656302000000000028
:1060200000000000000000000000000067630200A4
:1060300069630200000000006B6302006D630200F0
:10604000119402006F630200C19A0200B19E020027
:106050006F6302006F630200D59902006F63020054
:106060006F63020011A402006F6302006F630200FD
:106070006F630200919C02006F6302006F63020075
:106080006F630200216D02006F6302006F63020004
:10609000496D02006F630200F53103006F63020077
:1060A0006F6302006F6302006F6302006F630200A0
:1060B0006F6302006F630200000000000000000038
:1060C0006F6302006F6302006F6302006F63020080
:1060D00049A602006F6302006F6302000000000027
:1060E00000000000000000000000000000000000B0
:1060F00000000000000000000000000000000000A0
:10610000000000000000000000000000000000008F
:10611000000000000000000000000000000000007F
:10612000000000000000000000000000000000006F
:10613000000000000000000000000000000000005F
:10614000000000000000000000000000000000004F
:10615000000000000000000000000000000000003F
:10616000000000000000000000000000000000002F
:10617000000000000000000000000000000000001F
:10618000000000000000000000000000000000000F
:1061900000000000000000000000000000000000FF
:1061A00000000000000000000000000000000000EF
:1061B00000000000000000000000000000000000DF
:1061C00000000000000000000000000000000000CF
:1061D00000000000000000000000000000000000BF
:1061E00000000000000000000000000000000000AF
:1061F000000000000000000000000000000000009F
:10620000354936480A1A02D0072291438D4634494F
:1062100034480A1A06D00722914381F309880222E2
:1062200082F3148830483149314A00F044F831484B
:106230003149324A00F03FF831483249324A00F0E1
:106240003AF832483249334A00F035F83248334997
:10625000334A00F030F833483349344A00F02BF821
:1062600033483449344A00F026F83448344900228F
:1062700000F02CF833483449002200F027F8334866
:106280003349091A082902DB002202604160314AC1
:1062900090471F481F49884205D00268043003B464
:1062A000904703BCF7E700208646EC46002000211B
:1062B000294A9047FEE7884207D0521A05D0037852
:1062C00001300B700131013AF9D17047884202D098
:1062D00002700130FAE7704700000120F0D800207A
:1062E0000000012000000120609D0300E42B00203D
:1062F000202C0020D0630200D0630200C86003009D
:10630000609D0300E42B0020E42B00208861030043
:1063100088610300886103008861030088610300CD
:10632000886103008861030088610300609D0300A9
:106330009C9D0300202C0020202C0020202C0020DD
:106340005C4800205C4800205C4800205C4800203D
:106350005C6800209D630200DDC50200FEE7FEE7E9
:10636000FEE7FEE7FEE7FEE7FEE7FEE7FEE7FEE705
:1063700000F002B8FFF7FCBF0F484FF00701884359
:1063800085460E4880470E48016841F4700101605F
:10639000BFF34F8FBFF36F8FFFF732BF09480A4932
:1063A0000A4A884207D0521A05D0037801300B7090
:1063B0000131013AF9D1704700000120CDD502002A
:1063C00088ED00E074610300D02B0020E42B002056
:1063D000032801D90020704708B504F03FF908BD33
:1063E000032824D8012A06D001290CD0022910D074
:1063F000B1B107207047012901D00022F4E700F174
:106400000E02D2B2F0E700EB40000A4B1A54002013
:10641000704700EB4000074B184442700020704763
:1064200000EB4000034B18448270002070470720A7
:10643000704700BF202C002008B50122002108462B
:10644000FFF7CEFF10B10346072812D10722022121
:106450000120FFF7C5FF034608B1072809D1042230
:1064600002210020FFF7BCFF034610B1072800D12E
:106470000023184608BD08B5012202210020FFF7BD
:10648000AFFF10B10346072812D1072202210120D5
:10649000FFF7A6FF034608B1072809D10A22002109
:1064A0000846FFF79DFF034610B1072800D10023DF
:1064B000184608BD08B50388102B02D0112B12D046
:1064C00008BD114B1B6823B10F4A136801331360D9
:1064D000F6E7FFF7B1FF0028F6D00C4B1B68002B46
:1064E000F2D09847F0E7084A1368013B1360002B8D
:1064F000E6D1FFF7C0FF0028E2D0044B1B68002B59
:10650000DED09847DCE700BF302C00202C2C002088
:1065100010B504460120FFF75BFF10B10223237082
:1065200010BD0020FFF754FF10B10B232370F7E7D5
:1065300000232370F4E7000008B5074B186011B181
:106540000846FFF7E5FF054B1B680BB1002008BDAF
:10655000FFF791FFFBE700BF2C2C0020302C002020
:1065600008B505F027FB08BD08B50021084605F071
:10657000E1FA08BD10F1360F09D058B110F1380F0B
:1065800002D048F21650704748F21150704748F256
:10659000145070470020704708B50846114602F0B5
:1065A00075FE002008BD000010B582B0041D00205B
:1065B00002F0C2FD08B102B010BD204604F0A6FFF3
:1065C0000022009213460349204604F0FBFFFFF728
:1065D000D1FFF0E79965020008B5043004F09DFF93
:1065E00002F0DEFD002008BD08B5043005F088F893
:1065F000FFF7C0FF08BD08B511461A46043004F085
:1066000099FFFFF7B7FF08BD82B001238DF807306F
:106610009DF80730134B186059609A6044F20103EB
:10662000984213D044F20203984207D10D4BDA602E
:10663000DA6812689A61DA685268DA6172B69DF8AF
:106640000730002BFBD162B602B07047054B1A61D0
:106650001A6992685A611A6912689A611A695268CD
:10666000DA61EBE7342C002000B583B00290009192
:10667000019244F2010071466A4600F003F803B04B
:1066800000BD000008B572B6044BD3F8F03013F02B
:10669000010F00D000BEFFF7B7FF08BD00ED00E01E
:1066A0002D4B1B888B4201D2092070472DE9F04108
:1066B00082B005460C46164600238DF807300DF1D2
:1066C000070000F0DDFB254B1A78D2B2244B197875
:1066D000CBB224480088814224D20133DBB29A42F3
:1066E00024D01F4B1F781A78D3B290421CD90133A3
:1066F000DBB21B4A13709DF8070000F0F5FB4FF664
:10670000FF739F4226D04FEAC708174B1B6803EB65
:10671000C70243F8376005B15CB90020908002B031
:10672000BDE8F0810023DAE70023E2E74FF6FF77C8
:10673000E1E70E4B1B68084A10882246294607FBF2
:1067400000300CF09BFF084B1B689844A8F80440ED
:106750000020E4E70420E2E7602C0020642C002005
:10676000542C0020622C00205C2C0020582C00208F
:10677000034BC3F80805034BC02283F8112370476D
:106780000010014000E100E010B50B4B4FF48032E7
:10679000C3F84423C3F80423084A4FF40031C2F875
:1067A0008011116001241C604FF43C60044B2343B2
:1067B0009847044B1C7010BD0010014000E100E040
:1067C00090610300752D002070B5104B4FF400321E
:1067D000C3F88020BFF34F8FBFF36F8F0C4D4FF482
:1067E0008033C5F84833C5F8083301266E60094C7C
:1067F00034434FF43C60A047AE600025064B1D605B
:106800004FF43C60A047054B1D7070BD00E100E0F7
:106810000010014090610300842D0020752D0020A0
:1068200010B4114B1C684CB1026823689A4218D806
:106830009B1A2360C4610C4B18600FE018600DE0D8
:10684000521A1C46DB6913B119689142F8D313B18F
:106850001968891A19600260C361E0615DF8044B30
:1068600070472346EFE700BF882D002070B5184B16
:106870001E683446354601E02546E4690CB1844281
:10688000FAD114B3A5420CD02168E369EB6113B1CE
:106890001A680A441A600E4B1868801B18BF012042
:1068A00070BDF3690A4A1360002BEDD10123094A38
:1068B0009360094A00211160084A13704FF43C604C
:1068C000074B43F001039847DEE70020E8E700BFED
:1068D000882D002000100140842D0020742D002000
:1068E00090610300024B4FF40032C3F8002170475F
:1068F00000E100E0024B4FF48012C3F80021704722
:1069000000E100E008B543698069984708BD0000D0
:106910001B4B1868002832D070B51A4BD3F80445C9
:10692000194B1B68E41A24F07F44002500E0304630
:1069300068B10368A3420AD8E41A1D44C669037CFF
:10694000002BF4D000230374FFF7DCFFEFE70F4BBD
:106950001A780F4B1B789A4207D00D4B1A780D4BC3
:1069600043F82250FFF7C6FF70BD0133DBB2084A7F
:106970001370022BF1D1134600221A70EDE7704715
:10698000882D002000100140842D0020802D002043
:10699000812D0020782D0020114B1B78114A127890
:1069A000934218D00133DBB20D4A1370022B0ED084
:1069B0000B4B1A780C4B53F8223003600B4A1168CA
:1069C0000B44136023F07F4313600120704713468C
:1069D00000221A70ECE7002303601846704700BFDE
:1069E000802D0020812D0020782D0020842D002076
:1069F0004FF0000C124B1B6803B330B407E0241AAD
:106A00001C6030BC70470E4B1B68002BF9D01C6813
:106A10008442F4D8001BA44400241C60084CDD69A7
:106A20002560DC68002CEED00CEB010525F07F45DD
:106A30005D609C601468DC611360E4E7704700BF30
:106A4000882D0020F8B50546404B1F68002658E009
:106A50003F4A11784B1CDBB213709278934227D0D7
:106A600001EB41033A4A02EBC3039C681B79022BFA
:106A700022D0032B2FD0012B43D1237C002B40D1DC
:106A8000334A01EB410302EBC303D8686060186925
:106A9000A0605B69E36001EB410102EBC1018B691E
:106AA000A3612C4B1B78002B30D0002363602DE0BA
:106AB000274B00221A70D3E72046FFF7D7FE034684
:106AC00000B93346002222741E461AE000221A74CE
:106AD000DA691E4B1A601D4B1B68002BF6D110E0C3
:106AE000521A22F07F42A36893421CD99A1A22605C
:106AF00000236360A36001222274E3612046FFF754
:106B00008FFE9DB1002DA3D02C46ED696168124B1C
:106B10001A688B1A23F07F4310488342E0D8A2689A
:106B200013442360E4E700232360E1E7084B1A786D
:106B30005B789A42E6D12EB9044B1B68BB4203D066
:106B4000012000E00120F8BD0020FCE7882D002096
:106B5000682C0020742D0020842D0020FEFF7F0073
:106B6000F8B51C4B1B688BB31F681B4BD3F804553F
:106B70001A4B1C682E1B26F07F460336184B1B78D9
:106B80000BB3B7422CBFE419A41924F07F44124B75
:106B9000C3F84045D3F804355B1B23F07F43033330
:106BA000641B24F07F44A3420CD90B4BD3F804257B
:106BB000C3F840254FF43C600A4B43F0010398476B
:106BC000FFF790FEF8BDFFF7DFFDDAE7FFF7FCFD0A
:106BD000F8E700BF882D002000100140842D002020
:106BE000752D00209061030070B582B000230193E1
:106BF0000D4B1E680D4B1D686846FFF7CDFE044621
:106C000060B90198FFF71EFF00B914B12846FFF7DD
:106C1000A7FF074B00221A7002B070BD01AA3146CF
:106C20000098FFF7E5FEECE7842D0020882D00207A
:106C3000742D0020014B5870704700BF682C002055
:106C40000B4A53780133DBB292789A420CD0084A4F
:106C500012789A420AD003700548437803EB430345
:106C600000EBC300043070470023F0E700207047BA
:106C7000682C00202DE9F04182B007460E46904670
:106C80001D4600248DF806400DF1060000F0F8F8CE
:106C90000DF10700FFF7D4FFB8B10123037047607F
:106CA0000C4BD3F804358360C660C0F81080456192
:106CB0009DF80700FFF7BEFF9DF8060000F014F9ED
:106CC0002CB1204602B0BDE8F0810424F4E7FFF7C0
:106CD00011FEF6E70010014030B583B004460D46C2
:106CE00000238DF806300DF1060000F0C9F80DF113
:106CF0000700FFF7A5FF70B1057044609DF807001D
:106D0000FFF798FF00249DF8060000F0EDF824B18D
:106D1000204603B030BD0424F5E7FFF7EBFDF7E7AD
:106D200008B5084B0022C3F84021C3F84421C3F83A
:106D30004821C3F84C21C3F80021C3F80421FFF710
:106D4000E7FD08BD0010014008B5FFF74DFF08BD85
:106D500010B5FFF739FD0F4B00241C705C700B223F
:106D60009A700D4B1C600D4B1C700D4B1C700D4B25
:106D70004FF48012C3F88021C02183F814131A60E5
:106D80002046FFF7F5FC084BD3F80425074B1A60A3
:106D9000204610BD682C0020882D0020802D00206A
:106DA000812D002000E100E000100140842D002032
:106DB000094B9B7843B14AB150B10368187C48B97C
:106DC000187459745A61704708207047072070473B
:106DD0000720704708207047682C002008B513462C
:106DE0000D4A927882B188B1A1F1050C0B4A944505
:106DF0000ED8426972B1427C012A03D00022FFF70B
:106E000039FF08BD0A46FAE70820FAE70820F8E744
:106E10000720F6E70820F4E7682C0020FAFFFF00BF
:106E200008B5094B9B7843B148B143694BB1002386
:106E300003740221FFF750FF08BD0820FCE708207B
:106E4000FAE70820F8E700BF682C0020014BD3F8D0
:106E50000405704700100140401A20F07F40704741
:106E6000EFF30583C3F308033BB9EFF3148313F087
:106E7000010F0CBF01200020704701207047000067
:106E800038B50446FFF7ECFF01281CD1EFF3108260
:106E900072B6114B9B68DBB90F4901238B600F4B16
:106EA000D3F880000E4D28400860C3F88050D3F816
:106EB000840048604FF0FF31C3F884100023237032
:106EC00002B962B638BD0749432005F055FBDDE73E
:106ED00001232370F4E700BF8C2D002000E100E0C7
:106EE000FC06FFBD9861030010B50446FFF7B8FF2C
:106EF000012811D10B4B9B686BB164B9EFF3108182
:106F000072B6084B1868084A106058685060002232
:106F10009A6001B962B610BD0449512005F02CFBFE
:106F2000E8E700BF8C2D002000E100E0986103003D
:106F300038B50546002402E0284698470134032C62
:106F400005D8034B53F82430002BF5D1F6E738BDB4
:106F5000A42D00200378013B052B34D8DFE803F093
:106F600003061120293100230B70704701230B7099
:106F700003898B818388CB81C3688B6000230B746A
:106F8000704702230B7003898B818388CB81C36890
:106F90008B60837D062B14BF002301230B74704785
:106FA00003230B70C3888B810389CB81C3688B60FB
:106FB000704704230B70C3888B810023CB818B60C7
:106FC000704705230B707047884207D20368B3F1FE
:106FD000FF3F01D00120704700207047002070471C
:106FE0004388033300EB8300704738B504460D46F1
:106FF000FFF7F6FF85420CD3A2884FF6FF739A4243
:1070000009D023884BB1A368B3F1FF3F07D000201C
:1070100038BD0220FCE70120FAE70120F8E7012053
:10702000F6E7000060B10A4AD26882420AD8084AEC
:107030001269824208D310F0030F07D10120704774
:1070400000207047002070470020704700207047E4
:10705000D02B002060B10168094A91420AD14368EF
:10706000084A934208D00132934207D10120704769
:1070700003207047032070470020704703207047AB
:10708000DEC0ADDEFE011EF10368B3F1FF3F04D0A8
:107090000A4A93420ED1012300E00123B3F5806F29
:1070A00006D250F82320B2F1FF3F05D10133F5E7B6
:1070B000012070470020704700207047DEC0ADDE21
:1070C000094A00EB800C02EB8C0CBCF808300B4436
:1070D000BCF80A0010FA83F080B2B0F5806F8CBF64
:1070E00000200120704700BFD82D00200023012B75
:1070F00019D810B403E001339BB2012B0ED803EB77
:1071000083020A4C04EB820252688A42F3D202F5EF
:1071100080528A42EFD90380002001E048F20960E2
:107120005DF8044B704748F209607047D82D002085
:10713000F8B50D46174600F5805600F10804022305
:107140000B800DE00FB101223A70022B1CD0638836
:107150002A88134403332B802046FFF741FF04465F
:1071600031462046FFF730FF88B131462046FFF711
:107170003CFF03460028E5D1A368054A1268934204
:10718000E5D9034A1360E2E74FF480632B80F8BD32
:10719000D02D00208B7D022B04D9CB88028913448B
:1071A00003330381CA8843899B1A033B4381704799
:1071B000F8B5033086B240F2FE339E4221D80D4628
:1071C000002401E00134A4B2012C17D804EB84039D
:1071D0000D4A12F82330002BF4D131462046FFF738
:1071E0006FFF0028EED02C80074B04EB840203EBEA
:1071F0008202508930445081002001E048F206604C
:10720000F8BD48F20860FBE7D82D0020054A01EBE5
:10721000810C02EB8C0CBCF80A301B1A033BACF857
:107220000A307047D82D0020F8B50E4600EB8000DC
:10723000134B03EB8000446804F580550868A0B147
:10724000FFF7CEFE044629462046FFF7BDFE07465F
:1072500098B129462046FFF7C8FE012807D002282A
:107260000AD00028EFD1346007E00834EBE720466D
:10727000FFF7B6FE0446E6E700273846F8BD00BF34
:10728000D82D002030B583B005460C464068FFF786
:10729000C9FE20B12A89174B1B899A4218D00023B6
:1072A00023802388012B23D80023019301A9208860
:1072B000FFF7BAFF0146B8B1019B2A68986890426F
:1072C000F4D16B600B4B1B892B81084603B030BD9A
:1072D0002A6869688B689A42E1D12046FFF706FF69
:1072E000B0FA80F14909F0E7238801332380D8E719
:1072F0000021EAE7BC2D0020F8B51C461F4B1B7887
:10730000002B34D005460F461646002A32D03CB931
:1073100048F2046027E000232360A3880133A380A0
:10732000A388012B20D803EB8303154A12F82330DE
:10733000002BF2D12146A088FFF776FF0028EAD083
:1073400023681DB199882A889142F3D11FB1198809
:107350003A889142EED19B68336023687360094B91
:107360001B8933810020F8BD48F20960FBE748F231
:107370000160F8E748F20460F5E700BFB42D002093
:10738000D82D0020BC2D00202DE9F041884617465D
:107390001E4600EB80001D4B03EB8000456805F1A5
:1073A000080405F5805529462046FFF70DFE58B321
:1073B00029462046FFF719FE01280DD0022818D0D3
:1073C0000028F0D1B8F800300133A8F8003020468A
:1073D000FFF706FE0446E6E73B8801333B806388FF
:1073E00032881344033333802046FFF7F9FD044607
:1073F000D9E73B8801333B802C1B358805EBA4047F
:107400003480069B01221A70BDE8F081D82D00203F
:107410002DE9F0470024A1464FF0030825462746F2
:1074200053E03046FFF730FEC8B1424A126882B1DD
:10743000414B05EB850103EB8100022203F821207B
:10744000466002813D4B5D800135ADB247F00107DA
:1074500039E0384A1660022191808146F6E708F14A
:10746000FF381FFA88F8344A05EB850302EB8303E3
:107470005E6005EB8503032102F823100135ADB2F0
:1074800021E0B9F1000F0FD02B4B05EB850103EB89
:107490008100022203F82120264909684160028107
:1074A000264B5D800135ADB2DFF888A0514641F82A
:1074B000046B00223046FFF73BFEBAF80430022B83
:1074C0002DD008231F430134A4B2022C29D81C4B11
:1074D000DE6806EB04363046FFF7BCFD0128D0D04D
:1074E00003289ED00028EED1134905EB85039A00AE
:1074F00001EB8303002088545E6005EB8502920057
:10750000103205EB85039B0008330A4419443046CA
:10751000FFF70EFE47F002070135ADB2D3E70423B3
:10752000D0E7B8F1010F02D9F8B2BDE8F087002723
:10753000FAE700BFA02E0020D82D0020BC2D00208F
:10754000D02B00200B4A1389013313810023538071
:1075500013730CE003EB83018A0007498A5CB2FADB
:1075600082F25209034919448A7201339BB2012BFA
:10757000F0D97047BC2D0020D82D002000B58646DC
:10758000002301E001339BB2012B1BD80F4A1A44A0
:10759000927A002AF6D00D4A1A440021917203EB28
:1075A00083020B4901EB8202D268002AEAD103EB85
:1075B000830C01EB8C0C9CF810000028E2D0AEF894
:1075C000003000E000205DF804FB00BFBC2D00206F
:1075D000D82D0020044B5B685B880333034A9188F5
:1075E00011FA83F393807047BC2D0020A02E002059
:1075F00030B40E4804680E4B5B880E4903EB830CD5
:107600004FEA8C020A44556805605460B0F804C023
:10761000A2F808C00222828003EB830303FA02F27D
:10762000114400230B7430BC704700BFA02E002013
:10763000BC2D0020D82D002008B5124B1B78072B3D
:107640000AD8DFE803F00409090A1016161AFFF732
:1076500079FF0C4B01221A7008BDFFF7BBFF094BE5
:1076600002221A70F8E7FFF7C3FF064B06221A70D2
:10767000F2E7044B07221A70EEE7024B01221A7060
:10768000EAE700BFBC2D00200023D3F8F80FB0F1CB
:10769000FF3F07D04FF080531A695B69B0F1FF3F9D
:1076A00004D070474FF010235869F3E703FB02F052
:1076B000F7E7000008B5FFF7E7FF034B1861A0F5F7
:1076C0004050D86008BD00BFD02B002008B501464F
:1076D000014800F088FE08BD8C2E002008B5064B3E
:1076E00005221A70054902238B80002301220968B4
:1076F000034800F0ADFF08BDBC2D0020A02E0020E7
:10770000D02B002008B50D4B5B8803EB83010C4A9E
:1077100002EB8102D26872B9084A0421117003EBAE
:107720008303074901EB83010023012249680548CF
:1077300000F08EFF08BDFFF7D1FFFBE7BC2D002056
:10774000D82D0020D02B002000B583B0002300935B
:107750000823044A04490968044800F039FF03B0CB
:107760005DF804FB8C620300A02E0020D02B0020CB
:1077700008B5044B07221A7000225A60FFF7E4FF95
:1077800008BD00BFBC2D002000B583B0014600231A
:1077900000930823034A044800F01AFF03B05DF881
:1077A00004FB00BF84620300D02B0020F8B530B981
:1077B0000B79032B61D8DFE803F0081E3944324B04
:1077C00000225A604FF4064005E001230B71FFF7D9
:1077D000BBFF002851D1F8BD0B4600EB80029200A0
:1077E0000021995400EB800003EB80004068FFF714
:1077F000CBFF012310E00023012B0AD8184603EB2E
:107800008302224911F82220022AE5D001339BB2DB
:10781000F2E7002348F20E60002BDAD11A4B012266
:107820001A7000225A6041F61D50D4E700230B71F4
:10783000174902228A8001220968164800F008FFD1
:10784000C7E700250D71124C2068FFF79DFF124B12
:107850005B8826680D4903EB830201EB82025768BF
:1078600027605660B4F804C0A2F808C00222A280C3
:1078700003EB83039340CD54ABE7034B00225A60E4
:1078800048F20D60A7E700BFB42D0020D82D0020DE
:10789000A02E0020D02B0020BC2D002008B5064BC8
:1078A00006221A705B8803EB83039A00034B134490
:1078B0005868FFF769FF08BDBC2D0020D82D0020B7
:1078C00000B583B002238375002300930423C218FC
:1078D000044800F07DFE10B903B05DF804FB48F2E7
:1078E0000D60F9E7D02B002000B583B0036973B1B8
:1078F0000323837500230093042300F10C02083155
:10790000054800F065FE20B903B05DF804FB0123D3
:10791000EFE748F20D60F7E7D02B002000B583B009
:1079200001238375C388002200929B0002690C31F9
:10793000044800F04DFE10B903B05DF804FB48F2B6
:107940000D60F9E7D02B002000B583B00378032B3E
:107950000ED00623837500230093042300F1080250
:107960001944064800F034FE20B903B05DF804FB6A
:107970000523EFE748F20D60F7E700BFD02B0020AA
:1079800010B582B00C46002300930423084A014638
:10799000084800F01DFE40B904EB8404064901EBE1
:1079A00084040123237402B010BD48F20D60FAE78D
:1079B00080620300D02B0020D82D002070B50C462B
:1079C0008B8A03EB83022D4E06EB8206A8B92B4A65
:1079D00003EB830102EB8101496803EB830302EBB4
:1079E00083031D8901EB8505A37D062B0BD8DFE8FA
:1079F00003F0162E22280D343E003046FFF7CAFB56
:107A00004FF4064515E048F20E650EE01C480023D1
:107A10004360A36903601B49FFF734FC50B3294658
:107A20002046FFF74DFF05461DB121463046FFF7C2
:107A3000B1FB284670BD29462046FFF755FF054695
:107A4000F2E729462046FFF769FF0546ECE729469D
:107A50002046FFF779FF0546E6E70623A375094BA5
:107A60001988074B5868FFF78BFF0546DCE741F69E
:107A70001D55DAE748F20965DBE700BFD82D002085
:107A8000982D0020AC2E002010B584B004460023B1
:107A9000009301930293C36800930DF10E016846B1
:107AA000FFF7F0FB18B948F2096004B010BD019867
:107AB0008388E38003882381BDF80E10FFF760FF01
:107AC000F3E7000000B583B00B4842680B4B196820
:107AD000B3F804C0538803339BB24FF0030E80F811
:107AE00000E0002000909B0001EB8C01044800F0B6
:107AF0006FFD03B05DF804FBBC2D0020A02E00201C
:107B0000D02B002008B5064B191D5888FFF78CFBB9
:107B100010B1FFF7D7FF08BDFFF7F4FDFBE700BF8B
:107B2000BC2D002008B50748FFF728FD10B1FFF76E
:107B3000E9FF08BD044B00221A705A805A6041F6D2
:107B40001D50F6E7BE2D0020BC2D002030BB08B52F
:107B5000154B1B7B6BB1144B00221A73124B1B7815
:107B6000013B062B1DD8DFE803F0070A0D101C139C
:107B70001600FFF761FDF1E7FFF7D4FF08BDFFF73F
:107B8000C1FFFBE7FFF79EFFF8E7FFF7BBFDF5E757
:107B9000FFF784FEF2E7FFF7EBFDEFE74FF4064057
:107BA000704748F20E60E9E7BC2D002010B584B0A4
:107BB0000B4B01AA00210630FFF79EFB40B9084B92
:107BC00099880298FFF7DCFE0446204604B010BDF9
:107BD00004460822002102480BF079FDF5E700BFBA
:107BE000B02E0020C8B908B50B79012B0BD0022BA1
:107BF00016D013B148F20E6008BD02230B7108467F
:107C0000FFF742FFF8E70846FFF7D0FF48F20963A5
:107C10009842F1D141F61D50EEE74FF4064070470F
:107C200041F61D50E8E7000008B50146014800F0A4
:107C3000E6FB08BD8C2E002008B5084B1B683BB145
:107C40000121064800F08BFC003818BF012008BD58
:107C500003494FF4247004F08FFCF1E79C2E0020C0
:107C60001462030010B586B004462CE02E48FFF7DE
:107C70002DFD2E4B18602AE02D4940F29E5004F055
:107C80007BFC28E02046FFF791FD002849D0002327
:107C90000193029303930493059341F61D53984275
:107CA0003DD00290214C01A92068FFF753F901A8AB
:107CB000FFF73EF9002323601B48FFF7B5FFFFF7EE
:107CC000BBFF70B30024194B1B68002BCED0174BA1
:107CD0001B68002BD0D0154B19680B78013B052B86
:107CE0001AD801A252F823F0857C0200017D02001F
:107CF000017D0200097D0200097D0200117D020064
:107D00002046FFF75BFEC0E72046FFF76BFFBCE7AE
:107D10002046FFF71BFFB8E748F20E60B7E70020E8
:107D2000BFE706B010BD00BFCC2D0020D42D002031
:107D30001462030008B54068FFF794FF08BD000017
:107D400008B50121014800F0FFFB08BDD02D00203F
:107D500008B5FFF7AFFC00220249034800F02BFCF6
:107D600008BD00BFA0620300D02B002008B51C2373
:107D70008C220249024800F001FB08BD002E0020C1
:107D80008C2E002010B50146044800F015FB044677
:107D90001C2200210BF09BFC204610BD8C2E0020E5
:107DA00008B50146014800F013FB08BD8C2E0020E9
:107DB00008B50121034800F0BCFB00B108BDFFF786
:107DC00051FFFBE79C2E00202DE9F04383B00C46C9
:107DD0003849097800295DD005469846002C5CD0CA
:107DE00021884FF6FF7399425AD06388002B5AD0EE
:107DF000676817F0030759D1002A33D01388ADF80C
:107E00000630B2F802906846FFF7BCFF064600282D
:107E100033D080F8008000238375BDF8063083825C
:107E200063680361FFF78CFFF06023883381638808
:107E3000B380A6F80690B8F1030F26D00023738113
:107E40006846FFF7ADFF3DB100236B60F2682A6022
:107E5000AB72194B1B892B81FFF7AAFF384603B081
:107E6000BDE8F083B4F808900DF106014846FFF72D
:107E70009FF90028C7D00746F0E7BDF8061048462E
:107E8000FFF7C4F948F20767E8E70423B3752B68E6
:107E9000B361D3E748F20167E0E748F20467DDE742
:107EA00048F20367DAE748F20367D7E748F2026768
:107EB000D4E700BFB42D0020BC2D0020094A126871
:107EC000042A0BD008B5034606480168064A42F862
:107ED0002130012100F038FB002008BD48F20B6082
:107EE000704700BFA82E0020A42D002030B587B019
:107EF000002301930293039304930593294B1B786A
:107F00002BB9294800F036FB40B1002403E001A85A
:107F1000FFF70EF80024204607B030BDFFF718FF2A
:107F200004460028F7D1FFF721FFFFF771FA054655
:107F300002282DD0062811D068B36846FFF722FF2B
:107F400060B301220270013D0A2D12D8DFE805F06E
:107F50000F110F111D111D11171A1700114B0122BE
:107F60001A7000225A6001A8FEF7E2FFD3E7002250
:107F700002716846FFF714FFFFF71AFFCBE70322F1
:107F80000271F6E702220271F3E701220271F0E7C3
:107F900048F20A64BFE748F20A64BCE748F20764A3
:107FA000B9E700BFB42D0020B82D002010B370B584
:107FB00082B00C46054601B30DF10601FFF762F9E8
:107FC00018B948F2096002B070BD6E68BDF806309D
:107FD00003EB830080000830094B18440121043072
:107FE00000F0B2FA26606B680C3363600123AB7259
:107FF0000020E8E748F20460704748F20460E2E7D6
:10800000D82D0020F8B110B582B004460DF106015C
:10801000FFF738F9D0B1BDF8063003EB8301104A01
:1080200002EB8102D268AAB1A27AB2B10C4A02EB89
:108030008101C968013903EB830302EB8303D96033
:108040000020A07204E048F20460704748F2096022
:1080500002B010BD48F20560FAE748F20560F7E7A4
:10806000D82D002008B502230022FFF7ADFE08BD81
:1080700028B108B503230022FFF7A6FE08BD48F289
:1080800004607047114B1B78BBB110B582B0044639
:108090004FF6FF73984213D001A8FFF773FE90B11B
:1080A0000522027001220271C48001A8FFF778FE48
:1080B000FFF77EFE002002B010BD48F2016070475D
:1080C00048F20360F7E748F20760F4E7B42D0020B8
:1080D0000F4B1B78B3B100B583B001A8FFF752FE78
:1080E00098B10622027001A8FFF75AFE094B1B78CF
:1080F00013B1084B01221A73FFF75AFE002003B098
:108100005DF804FB48F20160704748F20760F6E74B
:10811000B42D0020BC2D002000B583B0ADF80600C2
:10812000ADF8041001A90DF10600FFF7E5F803B062
:108130005DF804FB00B583B01346ADF806000A46AF
:108140000DF106010020FFF7D7F803B05DF804FB3E
:1081500000B583B01346ADF806000A4600210DF1C4
:108160000600FFF7C9F803B05DF804FB20B131B198
:1081700003680B600020704748F20460704748F2C3
:10818000046070472B4B1B78002B4CD0F0B583B0AC
:10819000044600284AD0122200210BF098FA03234B
:1081A000238000260FE02388013B23801CE004F19C
:1081B0001003009304F10E03A21D211D3046FFF7AA
:1081C000E3F80136B6B2012E2AD8374606EB86030D
:1081D000194A02EB83031D895A891544ADB25868C8
:1081E000FEF738FF0328DED0134B07EB870203EBC3
:1081F0008202D26861880A44628007EB870703EB3A
:1082000087077B8922891344238163892B446381F7
:10821000C5F58065ADB2A389AB42C8D2A581C6E7DA
:10822000002003B0F0BD48F20160704748F20460DE
:10823000F7E700BFB42D0020D82D0020BFF34F8FEB
:108240000549CA6802F4E062044B1343CB60BFF3F4
:108250004F8F00BFFDE700BF00ED00E00400FA050E
:1082600008B5094B9A6ADB6A002300E00133192B39
:10827000FCD9054BD3F8F03013F0010F00D000BE4D
:10828000FFF7DCFF08BD00BF00ED00E082B050E862
:10829000013F1FFA83FCC28994448289944528BF18
:1082A000ACEB020C0289944502BFBFF32F8F002074
:1082B00007E0CCEA030C40E801C2002AE7D14FF006
:1082C00001008DF807000093009B0B609DF80700EC
:1082D00002B0704750E8012FC2EA024240E8012391
:1082E000002BF7D1704782B050E8023F1FFAA3FC81
:1082F000C288944502BFBFF32F8F00200EE0C289D1
:1083000094448289944528BFACEB020CC3EA0C4C20
:1083100040E802C2002AE7D14FF001008DF80700C3
:108320000093009B0B609DF8070002B0704750E877
:10833000022FC2EA224240E80223002BF7D1704705
:1083400082B050E8022FC188B2EB324F4FF00003E9
:1083500017BF92B241EA014142EA014104E042689A
:10836000B2EB324F08BF012340E80212002AE8D1E5
:108370008DF807309DF8070002B0704781B110B446
:108380000C46B2FBF3F103FB112189B251B9046031
:10839000416081608281C38108465DF8044B70476B
:1083A0000E2070470920F8E708B5FFF7C9FF08B1AC
:1083B000002008BD1120FCE738B505460C46FFF744
:1083C00065FF18B128682388184438BD0020FCE7F1
:1083D00008B50A884B889A4201D0002008BDFFF7F3
:1083E00079FF0120FAE738B505460C46FFF77BFF19
:1083F00018B128686388184438BD0020FCE708B528
:108400000A884B889A4201D0002008BDFFF78FFFF1
:108410000120FAE708B54B0901F01F01012202FA19
:1084200001F100EB830000F06EF808BD10B54B09B8
:1084300001F01F040121A14000EB830000F058F877
:10844000E04000F0010010BD08B54A0901F01F012D
:10845000012303FA01F1C94300EB820000F05EF84A
:1084600008BD4B0950F8230001F01F01C84000F07F
:10847000010070472DE9F04106460F46002518E03F
:10848000202300E020231F2B12D803EB4514A74222
:108490000ED921463046FFF7C9FFE0B1D8F80030C9
:1084A000DB4393FAA3F3002BECD0B3FA83F3EAE7B0
:1084B00001357B1E5B090133AB420BD906EB850806
:1084C00056F82530DB4393FAA3F3002BD8D0B3FA48
:1084D00083F3D8E73C462046BDE8F081034653E8E5
:1084E000000F0A4643E8002C9CF0000FF7D17047BC
:1084F000034653E8000F40EA010243E8002C9CF0D9
:10850000000FF6D17047034653E8002F42EA0100FE
:1085100043E8000C9CF0000FF6D17047034653E887
:10852000002F02EA010043E8000C9CF0000FF6D196
:108530007047034653E8000F00EB010243E8002CAC
:108540009CF0000FF6D17047034653E8002F02EB72
:10855000010043E8000C9CF0000FF6D17047034681
:1085600053E8002FA2EB010043E8000C9CF0000F41
:10857000F6D1704708B50121FFF7BAFF08BDC368FF
:108580008B4206D8114401390369994203D900206E
:108590007047002070470120704710F0030F0CBF98
:1085A00001200020704743681B68013B0B420CBF51
:1085B00001200020704738B108B50B4611462BB199
:1085C00003601B68984708BD0E2070470E20FAE72D
:1085D00070B32DE9F04182B00F4616461C460546A1
:1085E00042B3D0F80080B8F1000F25D033B3436810
:1085F0005A68B4FBF2F302FB13430BBB0846FFF7C8
:10860000CCFFF8B13046FFF7C8FFE8B12246394643
:108610002846FFF7B4FFC8B1D8F80C80089B009338
:108620002346324639462846C04702B0BDE8F081AD
:108630000E2070470E20F8E70820F6E70920F4E73F
:108640000920F2E71020F0E71020EEE71020ECE719
:10865000E0B12DE9F041884614461F4605460668FC
:10866000B6B1BAB1FFF79FFFB0B16B681A6804FBEF
:1086700002F241462846FFF782FF78B136693B4651
:10868000224641462846B047BDE8F0810E2070479B
:108690000820F9E70920F7E71020F5E71020F3E7B5
:1086A00029DF704728DF704703689B68002B29D0BB
:1086B00000B587B0002300930193029303930493C2
:1086C0000593019183680593037943B1012B10D081
:1086D00003689B686846984707B05DF804FB012370
:1086E0008DF8003003690293C368039343690493D0
:1086F000EEE702238DF80030C3681B030293436941
:108700000493E5E7704710B542698369D21AB2F560
:10871000805F28BF4FF4805292080469C168012A23
:1087200038BF012219441819FFF7BAFF10BD08B568
:10873000C26800691044FFF7B5FF08BD114B002265
:10874000DA6003791BB1012B0FD0104670474269E4
:108750008369D11AB1F5805F94BF5B1803F580532C
:1087600083619A4209D00020704703690133036195
:108770004269934203D000207047012070470120D6
:10878000704700BF542F0020064AD3680133D360DE
:10879000082B01D80020704713460022DA60012020
:1087A000704700BF542F00200846704700207047D4
:1087B000024B187A003818BF01207047542F002050
:1087C000034B01225A74187AB0FA80F040097047BE
:1087D000542F002008B502490248FFF710FE08BDDB
:1087E000682F0020442F002008B505490548FFF7F1
:1087F000FAFD054B1860003818BF012008BD00BF06
:10880000682F0020442F00206C2F002008B51A4B41
:108810001B7AA3B1184B02221A72184B18680379FD
:10882000ABB1012B1CD00321144B1868FFF73CFFA0
:10883000114B00221A725A60FFF7CCFF08BDFFF7F8
:10884000D3FF0028E6D10C4B00225A60F6E7FFF771
:108850005AFF40B11128E6D1074B01221A72EDE709
:10886000FFF765FFF5E7044B1B7C002BE6D10021E9
:10887000022000F005F8E1E7542F00206C2F0020C3
:10888000831E012B2DD810B50446164B1B7A53B10D
:10889000022B03D1022807D0032818D0114B5B7C90
:1088A000E3B9FFF7B3FF10BD0F4B1868FFF746FFA2
:1088B0000028F3D00B4B00221A720B4B1868022CC5
:1088C0000AD00D21FFF7F0FEFFF784FFE6E7064B25
:1088D0001868FFF759FFEBE71146F3E70AF05AFC77
:1088E000E1E77047542F00206C2F0020012802D0B0
:1088F000032800D0704708B5054B00225A740128A0
:1089000014BF002001201874FFF780FF08BD00BFCE
:10891000542F002008B50548FFF72CFE10B9044B72
:108920005B7C03B108BDFFF771FFFBE7582F002008
:10893000542F00202DE9F04182B0074688461646A4
:108940001D4601A90E48FFF737FDB0B104461C22B1
:1089500000210AF0BCFE012323712760A5604FEAC5
:108960001831E160666101A90548FFF731FDFFF7A5
:10897000D1FF002002B0BDE8F0810420FAE700BF7B
:10898000442F00202DE9F04383B080460F469146E6
:108990001E4601A90F48FFF70FFDC0B104461C2277
:1089A00000210AF094FE00252571C4F800800A9B7E
:1089B000A3602761C4F80C90666101A90548FFF720
:1089C00007FDFFF7A7FF284603B0BDE8F0830420AA
:1089D000FAE700BF442F002008B510461A460AF0F7
:1089E0004DFE002008BD000008B5142200210448F7
:1089F0000AF06DFE0348FFF7D7FC002008BD00BF5A
:108A0000542F0020442F002008B5094B436009482B
:108A1000FFF7B0FD08B1002008BD0AF0CFFB054B01
:108A200018741C238C2204490448FFF7A7FCF2E7C2
:108A300094620300542F0020B82E0020442F002001
:108A400041DF704710B50024054B1C70054B1C60BE
:108A5000BFF35F8F0449054800F08AF9204610BD36
:108A6000782F00207C2F00203C630300702F002013
:108A700010B582B000238DF807300DF10700FEF726
:108A8000FFF9F1EE104A24F09F03E1EE103ABFF334
:108A90005F8F124B4022C3F884219DF80700FEF738
:108AA00023FA14F0070F07D10AF088FB48B920BF5A
:108AB00040BF20BF02B010BD09497D2003F05CFD1E
:108AC000F2E7FFF7BDFF0028F4D00228F2D00449F6
:108AD0004FF4B07003F050FDECE700BF00E100E0A0
:108AE000C062030002681368526839B1934203D828
:108AF00080680130801A7047981A7047934201D8F5
:108B0000D01A704780680130C01A70472DE9F041D3
:108B100004468846154603681F680021FFF7E2FFF8
:108B20006168E26807FB0211A8420DD305FB02F25F
:108B300040460AF0A3FD3D44A3689D4200D90025AC
:108B400023681D60BDE8F081064600FB02F73A4647
:108B500040460AF093FDAD1BE26805FB02F2616836
:108B600008EB07000AF08AFD23681D60EAE70000B1
:108B700070B5054660B12B681E685C686DB1AB6866
:108B80009C420FD2601C864214BF0020012070BDA1
:108B90000549982003F0F0FCEDE70349832003F03A
:108BA000EBFCECE70020EEE7486303002DE9F0431F
:108BB00083B00D460446C8B1EDB100238DF80730EF
:108BC0000DF10700FEF75CF92046FFF7D1FF814663
:108BD00010B1237C002B65D12768D7F804807E680C
:108BE00074B1A3689E4210D201360FE03349A3202E
:108BF00003F0C2FCE0E73149A42003F0BDFCDCE750
:108C00002E49832003F0B8FCEBE700267E60B9F123
:108C1000000F09D1E268531E072B37D8DFE803F0B5
:108C2000142436293636362E27683E6824B1A368C8
:108C30009E4206D2013605E02049832003F09CFCC9
:108C4000F5E700263E60E5E763682A7803F8082028
:108C500022681168536899421FD85B1A916899423B
:108C600022D29360002420E063682A8823F8182029
:108C7000EEE763682A6843F82820E9E7636803EBB6
:108C8000C803D5E90001C3E90001E1E760682946AE
:108C900008FB02000AF0F2FCDAE7A0680130411A92
:108CA0000B44DBE7042400E000249DF80700FEF7F6
:108CB0001BF9204603B0BDE8F08300BF4863030002
:108CC00070B582B00D461446064620B14DB174B958
:108CD000204602B070BD16494FF4EC7003F04CFC16
:108CE000F4E7134940F2D91003F046FCEFE7002304
:108CF0008DF807300DF10700FEF7C2F833681968E8
:108D00005B68994208D85B1A9C420AD905249DF8F1
:108D10000700FEF7E9F8DBE7B2680132521A1344A4
:108D2000F2E7224629463046FFF7F0FE0024EEE740
:108D30004863030030B583B0054688B100248DF840
:108D400007400DF10700FEF79BF80C22214628682A
:108D50000AF0BDFC9DF80700FEF7C6F803B030BD71
:108D600002494FF4047003F007FCE7E7486303008F
:108D700038B50C46054638B15CB12C6023686B6091
:108D8000626893420AD038BD0649502003F0F4FBD4
:108D9000F2E70449512003F0EFFBEEE700236B609C
:108DA000F1E700BFBC63030010B5044658B1236867
:108DB00073B1636833B1226891680B446360526891
:108DC00093420AD010BD0649632003F0D5FBEEE7BD
:108DD0000349642003F0D0FBEBE700236360F1E775
:108DE000BC6303000268134600E01B6813B18B42AA
:108DF000FBD101E00A60016070470346006808B1DA
:108E000002681A607047000008B50AF0D7F920B967
:108E1000074BD3F800342BB108BD06497B2003F083
:108E2000ABFBF5E700F0CEFA034B00229A70F3E7B4
:108E3000000001404C640300802F002000B1704707
:108E400008B5064B01225A7002E04368002098479B
:108E50000348FFF7D2FF0028F7D108BD802F00207C
:108E6000882F002010B5044610B1012C0DD010BD84
:108E70000C4B01225A7002E04368002098470A48D0
:108E8000FFF7BBFF0028F7D1EFE7064B01229A70EE
:108E900002E04368012098470448FFF7AEFF00282E
:108EA000F7D1E4E7802F0020882F0020902F0020AA
:108EB00010B5104B1B784BB185240F4BD3F8003401
:108EC00013B10C4B01229A70204610BD094B0022B1
:108ED0009A605A601A61DA60084800F017FA04468E
:108EE0000AF06CF918B1034B01221A70E5E700F0A3
:108EF00025FAF8E7802F002000000140658E02006F
:108F000010B582B00446224B1B78D3B1204B9B781E
:108F1000E3B114B163680120984700238DF807304E
:108F20000DF10700FDF7ACFF194AD3680133D36098
:108F30009DF80700FDF7D8FF154BDB680BB302B0B7
:108F400010BD1449F62003F017FBDFE700238DF86E
:108F500007300DF10700FDF793FF1CB121460E48C5
:108F6000FFF740FF0A4BDB6843B1094AD36801337E
:108F7000D3609DF80700FDF7B7FFDDE700F002FAC8
:108F8000F3E704494FF4897003F0F6FAD7E700BF1E
:108F9000802F00204C640300902F002000B583B088
:108FA000144B1B78B3B1134BDB68CBB100238DF8A6
:108FB00007300DF10700FDF763FF0E4BDA68013A49
:108FC000DA60DB6893B19DF80700FDF78DFF03B011
:108FD0005DF804FB084940F2171003F0CDFAE2E710
:108FE00005494FF48C7003F0C7FADFE7FFF70CFF79
:108FF000E9E700BF802F00204C64030000B583B078
:1090000001280ED0032824D010B103B05DF804FB72
:10901000174B0122C3F88020BFF34F8FBFF36F8F30
:10902000F3E700238DF807300DF10700FDF728FF67
:10903000104B1B7853B10F4BDA680132DA60012212
:109040009A709DF80700FDF74FFFDEE7FFF730FF4E
:10905000F1E7084B1B7823B100F070F9FFF79EFF92
:10906000D3E7054940F2522003F086FAF4E700BF47
:1090700000E100E0802F00204C64030031DF7047E6
:1090800010B584B08DF8070000238DF80F300DF176
:109090000F00FDF7F5FE0AF091F828B19DF80F00DA
:1090A000FDF722FF04B010BD064C0DF1070120466C
:1090B000FFF77CFD2046FFF75BFD0028EED000F0B7
:1090C000ADFDEBE72861030000B583B020B10328B4
:1090D0000BD003B05DF804FB134B1B78012BF8D1C8
:1090E00000F09CFD00F0B0FDF3E700238DF80730A1
:1090F0000DF10700FDF7C4FE0B4B1B78012B04D0CC
:109100009DF80700FDF7F0FEE3E70849084800F086
:1091100013FD10B900F062FDF2E7064940F20710B6
:1091200003F02AFAF6E700BFE42F00208190020046
:10913000E52F0020C464030010B582B0144B1B78E7
:1091400023BBB0B10288124BA3F8012000238DF895
:1091500007300DF10700FDF793FE0AF02FF850B924
:109160000C490D4800F0E8FC044660B900F036FDFB
:1091700002E00A48E6E70024054B01221A709DF838
:109180000700FDF7B1FE204602B010BD8524FAE7C6
:10919000E42F002081900200E52F002038650300B5
:1091A00000B583B0124B1B78012B16D100238DF82C
:1091B00007300DF10700FDF763FE09F0FFFF88B1EE
:1091C0009DF80700FDF790FE0A48FFF7B3FD084B36
:1091D00000221A7003B05DF804FB0749902003F0E9
:1091E000CBF9E3E700F01AFD00F02EFDE8E700BF41
:1091F000E42F002028610300C4640300F0B583B0AD
:1092000006460F461E4B1B78012B01D100240FE0B0
:109210001C49B72003F0B0F9F8E73A4631461A483E
:10922000FFF74EFD044600F0D9FC0DE0022C1BD1E7
:1092300000238DF807300DF10700FDF721FE09F03E
:10924000BDFF05460028E8D09DF80700FDF74CFE5D
:10925000002DEBD039463046FFF710FF044642F2AE
:1092600007039842E2D105240CB1052C02D1204617
:1092700003B0F0BD0349D12003F07EF9F7E700BF4A
:10928000E42F0020C46403002861030070B5054684
:109290000E460C4B1B78012B10D00B49E02003F03D
:1092A0006BF90BE03446402E28BF4024E1B228463B
:1092B000FFF7A4FF0028F9D1361B2544002EF1D179
:1092C00070BD00BFE42F0020C46403000D4BD3F831
:1092D000FC1041F08072C3F8FC20A3F55D431868D0
:1092E00040F001021A605A68074B5B689B1AB3F59D
:1092F0000A5FF9D3044B186003F55D43C3F8FC1013
:10930000704700BF00ED00E0001000E010B504461B
:1093100048B1084B1B795BB9064B1C6001221A71DE
:109320000020587110BD0449A42003F025F9F0E78E
:109330008520F7E7E82F00203C65030008B50D4BBA
:109340001B7953B10C4B1B6813F0010F0AD04FF07F
:1093500080430A4AC3F8182508BD0949BD2003F017
:109360000BF9EFE7044BC02283F8002301221A60B7
:10937000EDE700BFE82F002000E100E0010003005E
:109380003C65030010B582B00C4B1B798BB14FF0DC
:1093900080440023C4F80431D4F804310193019BC4
:1093A0000223C4F80433FFF791FF0123A36002B046
:1093B00010BD0349EA2003F0DFF8E8E7E82F0020BA
:1093C0003C65030000B583B00F4B1B79BBB14FF078
:1093D00080430222C3F808230022C3F80421D3F8F3
:1093E00004210192019A0122DA604FF08043D3F800
:1093F000183413F4803FF8D103B05DF804FB03493F
:10940000F72003F0B9F8E2E7E82F00203C650300FD
:1094100000B583B04FF08043D3F800319BB14FF0DB
:1094200080430022C3F80021D3F800210092009A63
:109430000122C3F80823104B5B7923B90E4B5A71F4
:109440001B68002098474FF08043D3F804317BB16C
:109450004FF080430022C3F80421D3F80421019285
:10946000019A0222C3F80823034B1B680120984786
:1094700003B05DF804FB00BFE82F0020034B03445A
:1094800093F9500000F03F00704700BFF02F00201C
:10949000034B034493F95000C0F38110704700BFA1
:1094A000F02F002010B58646144622B1002324B1C7
:1094B0004FF0080C05E00823F9E74FF00C0C00E032
:1094C0000133634513D20B4A52F82320B2F1FF3F18
:1094D000F6D158B2074A02EB0E0C8CF8300042F875
:1094E000231034B9083B134483F850E001E04FF0F7
:1094F000FF3010BDF02F0020064B4FF0FF3243F835
:109500002020072804D908381844FF2380F8503059
:10951000704700BFF02F00208446002308E04FF082
:10952000A042D2F820154CF8041BC2F820150133D4
:10953000002BF4D000230BB10020704750F82320FB
:109540000AB90133F7E70120704700002DE9F8431D
:10955000064691E04FF0FF333DE049494FF4F67085
:1095600003F00AF83DE04FF0030946E04FF0FF3307
:1095700046E043494FF4F67002F0FEFF46E04FF03C
:10958000FF3356E03E494FF4F67002F0F5FF56E027
:10959000B8F1010F66D14146204698470135032DA9
:1095A00066D8384B2B4493F95030B3F1FF3FF5D0D8
:1095B0002846FFF763FF0446C20800F007010123B5
:1095C0008B40B25C1342E9D02846FFF761FF80462A
:1095D0006309BFD0002304F01F02D34013F0010F32
:1095E000BBD004F5E0734FF0A04252F82370C7F3EC
:1095F0000147022FB7D04FF002096309B6D000230C
:1096000004F01F02D34013F0010FB2D04FF0A0437B
:1096100004F5E07253F8221021F4403143F822108F
:1096200053F8221041EA094143F822106309A6D0F9
:10963000002304F01F02D34013F0010FA2D0012336
:10964000A3404FF0A042C2F820350E4B1A1992F9F0
:10965000302053F82230002BA0D0B8F1030F9AD05D
:10966000022F95D0032F99D1B8F1020F96D192E72E
:109670003046FFF751FF08B1002590E7BDE8F883B9
:10968000B0650300F02F002010B582B0224B93F894
:109690005840002C3DD1234604E04FF0FF3207E054
:1096A0000133DBB21F2B14D818465A09F5D000221B
:1096B00003F01F01CA4012F0010FF1D0164A024414
:1096C000FF2182F83010EBE72046FFF715FF013449
:1096D000E4B20B2CF8D9104C0422002104F1540000
:1096E00009F0F5FF0D4BC02283F8062340221A60D3
:1096F0000B4B0020C3F87C01D3F87C210192019A26
:109700004FF00042C3F80423012384F8583002B01C
:1097100010BD0820FBE700BFF02F002000E100E0B3
:1097200000600040034B93F85800003818BF012038
:10973000704700BFF02F0020F8B504460D461646CE
:1097400043090ED0002304F01F02D34013F0010F91
:109750000AD0484B234493F93030002B0ADB082011
:10976000F8BD4FF0FF33EEE743494FF40C7002F0C1
:1097700003FFEEE7AA78C2F3400231462046FFF726
:1097800091FE0646B0F1FF3F71D0AB7813F0040FA5
:109790001FD113F0010F35D063092AD0002304F044
:1097A0001F02D34013F0010F26D04FF0A04204F562
:1097B000E07152F8213023F0020342F82130E3082F
:1097C00004F007012D48012202FA01F1C25C0A43AC
:1097D000C254AB7813F0020F2FD1083E2A78254BE4
:1097E0001E4496F8503043EA821386F85030002029
:1097F000B6E74FF0FF33D2E721494FF4F67002F09D
:10980000BBFED2E76F7863090ED0002304F01F027D
:10981000D34013F0010F0AD0BF0004F5E0734FF0FE
:10982000A04242F82370CAE74FF0FF33EEE7144935
:109830004FF4F67002F0A0FEEEE72B78114906F522
:10984000A27651F8262022F4473222F4407241F8E1
:10985000262051F82620240204F4F8541B0403F4B3
:1098600040331C43144341F82640002078E704208D
:1098700076E700BFF02F0020E065030044300020B1
:10988000B06503000060004030B583B004460D466B
:10989000430936D0002304F01F02D34013F0010F18
:1098A00032D0484B234493F93030002B32DB454B08
:1098B000234493F93000072859DD0838FFF7E8FD05
:1098C000054603282CD0012846D00325630945D03E
:1098D000002304F01F02D34013F0010F41D04FF0DA
:1098E000A04304F5E07453F8242022F4403243F8F6
:1098F000242053F8240040EA054543F8245003B0DF
:1099000030BD4FF0FF33C6E72F494FF4187002F017
:1099100033FEC6E72C4940F2612002F02DFEC6E777
:10992000630910D0002304F01F02D34013F0010F8D
:109930000CD04FF0A043D3F81035E34013F0010FE3
:10994000C4D10225C2E74FF0FF33ECE71F494FF4C3
:10995000F67002F011FEECE70225B7E74FF0FF3397
:10996000B7E71A494FF4F67002F006FEB7E7C3B244
:10997000072BC4D800F140039BB29B009BB2144953
:1099800000F5A27C51F82C2042F0010241F82C2075
:1099900003F1804303F5C04300221A601B68019362
:1099A000019B002DABD0074B1C4494F9302053F899
:1099B0002230002BA3D0012303FA00F0C1F80403E6
:1099C0009DE700BFF02F0020E0650300B0650300B5
:1099D0000060004070B584B00025039501204FF46D
:1099E0008073294603E0400004339BB2013107290C
:1099F00012D803F1804202F5C0421468012CF2D162
:109A0000274CD4F804432042EDD00024146012689F
:109A10000192019A0543E6E7214BD3F87C31012BF3
:109A200006D015F0FF0F33D1002D34DB04B070BD2C
:109A30001B4A0023C2F87C31D2F87C210292029AA0
:109A400045F0004503A808E04FF0A042D2F82015E9
:109A500040F8041BC2F820150133002BF4D0E0E7D6
:109A600076000134072CDFD83542F9D00C4B04F5D1
:109A7000A27253F82200C0F3042053F82210C1F35D
:109A80000141084B53F82430002BE9D09847E7E711
:109A900001260024E6E703A8FFF758FDC6E700BF4C
:109AA00000600040F02F0020034B984201D1034892
:109AB00070470020704700BF002000404C3000205D
:109AC00008B5064B1B681BB1044B1B68984708BDC3
:109AD0000349512002F050FDF6E700BF4C30002052
:109AE0005466030070B582B00C460546B8B12846EE
:109AF000FFF7DAFF0546B8B100238DF807300DF106
:109B00000700FDF7BDF92E7916B92C6001232B71E2
:109B10009DF80700FDF7E8F94EB9002005E005497A
:109B2000772002F029FDE2E7002002B070BD11208D
:109B3000FBE700BF5466030038B50C460546002815
:109B40002FD0002C32D01F4B1B78002B38D11E4B4E
:109B50001C602B7813F0010F06D01C4AD2F8043594
:109B600043F00103C2F80435184AD2F8003223F05A
:109B70000103C2F800326C78A31EDBB2012B03D9BB
:109B8000631FDBB2022B16D86401E4B2104B83F8DA
:109B90000D434FF400521A600A4B01221A70002044
:109BA00038BD0C493E2002F0E7FCCAE709493F20D6
:109BB00002F0E2FCC7E708496B2002F0DDFCE3E7B6
:109BC0008520EDE7583000205430002000D00040C0
:109BD00000E100E0CC6603004067030000B583B0FD
:109BE0000B4B1B78012B0ED10A4B0022C3F800212E
:109BF000D3F800210192019A0122C3F804231A60CC
:109C000003B05DF804FB0449562002F0B5FCEBE715
:109C10005830002000D00040CC66030008B5074B48
:109C20001B78012B05D1064B0122C3F808235A608B
:109C300008BD04495E2002F09FFCF4E75830002084
:109C400000D00040CC66030008B50D4B1B78012BFB
:109C500011D10C4B0122C3F808235A600A4B4FF470
:109C60000052C3F88020BFF34F8FBFF36F8F044BB8
:109C700000221A7008BD0549652002F07DFCE8E766
:109C80005830002000D0004000E100E0CC66030026
:109C900000B583B0084B0022C3F80021D3F800219F
:109CA0000192019AD3F80805044B1B68C0B298478B
:109CB00003B05DF804FB00BF00D00040543000202A
:109CC00010B582B08446106820B100F06044B4F151
:109CD000005F34D1946824B104F06044B4F1005FB3
:109CE0002DD15468CCF84405CCF848459068D2682A
:109CF000CCF83405CCF838250022CCF81821DCF853
:109D000018210192019A13F0010F1DD00122CCF805
:109D1000502513F0020F1BD00122CCF8402513F080
:109D2000080F02D10122CCF810200A68A2B113F06A
:109D3000040050D04023CCF80833002002E0002378
:109D40004B77102002B010BD0022CCF85025E0E780
:109D50000022CCF84025E2E7DCF81831002BFBD0DC
:109D6000CC7FFF2C3BD08B7FD3B163090FD0002376
:109D700004F01F02D34013F0010F0BD0012303FAAC
:109D800004F44FF0A043C3F80C450020DAE74FF08D
:109D9000FF33EDE713494FF4F67002F0EDFBEDE70A
:109DA00063090FD0002304F01F02D34013F0010F0A
:109DB0000BD0012303FA04F44FF0A043C3F8084585
:109DC0000020BFE74FF0FF33EDE706494FF4F67090
:109DD00002F0D2FBEDE74023CCF80433B2E70020D9
:109DE000B0E700BFB065030038B50446C57FFF2D5E
:109DF00011D0837F0BB36B0916D0002305F01F022F
:109E0000D34013F0010F12D0012303FA05F54FF0F0
:109E1000A043C3F80C55002363772372204650F803
:109E2000083B6168984738BD4FF0FF33E6E71049BB
:109E30004FF4F67002F0A0FBE6E76B090ED00023AA
:109E400005F01F02D34013F0010F0AD0012303FADB
:109E500005F54FF0A043C3F80855DCE74FF0FF339A
:109E6000EEE703494FF4F67002F086FBEEE700BF21
:109E7000B0650300D0F81831B3B110B582B00C460C
:109E80000023C0F81831D0F818310193019B0B68FA
:109E900023B12046FFF7A8FF02B010BD034940F2EE
:109EA000972002F069FBF4E7704700BF706703007A
:109EB00008B502490248FFF7DDFF08BD5C3000200D
:109EC000003000402DE9F84F0646914698460D4671
:109ED000002900F0F380347904EBC403C94901EB95
:109EE00083010B7F002B40F0BB813768C6493846A1
:109EF000FFF7F8FD8246002840F0B581C14B04EB26
:109F0000C40203EB820143F82290C1F804802B7B4A
:109F1000012B40F2D88095F800805FEA581300F0DA
:109F2000EF80034608F01F02D34013F0010F00F04A
:109F3000EA80012303FA08F34FF0A042C2F8083583
:109F400095F800805FEA581300F0E380534608F06C
:109F50001F02D34013F0010F00F0DE8008F5E07817
:109F60004FF0A043012243F8282095F80180B8F172
:109F7000FF0F40F0D7804FF0FF3995F80280B8F11D
:109F8000FF0F40F005814FF0FF3BA97804EBC403BD
:109F90009C4A02EB830383F8201095F8038083F832
:109FA0001F80B8F1FF0F32D02B79002B00F0158104
:109FB0005FEA581300F00881534608F01F02D340AF
:109FC00013F0010F00F00381012303FA08F34FF0AF
:109FD000A042C2F80C3595F803805FEA581300F0F0
:109FE0002181534608F01F02D34013F0010F00F007
:109FF0001C8108F5E0734FF0A042032142F82310C2
:10A00000297904EBC4037F4A02EB830399772B7809
:10A01000C7F80835C7F80C95C7F810B5AB68C7F88E
:10A0200024352A7B6B7B003B18BF0123022A00F0FA
:10A030000581032A00F00581012A00F0FC80C7F8A1
:10A040005435AB79C7F8C0350723C7F8003504EBA2
:10A05000C4036C4A52F8233023B3376847F30737F9
:10A060006D79AB1EDBB2012B04D96B1FDBB2022B67
:10A0700000F2EA80002FC0F2EC806D01EDB207F132
:10A08000604707F5614787F80053336843F30733A8
:10A09000002B07DB03F01F015B0901228A405B49AB
:10A0A00041F82320574B04EBC40203EB820200214A
:10A0B0005177012313775046BDE8F88F5449AD20FE
:10A0C00002F05AFA07E795F800805FEA58130ED0BD
:10A0D000034608F01F02D34013F0010F0AD00123FA
:10A0E00003FA08F34FF0A042C2F80C3528E74FF00E
:10A0F000FF33EEE747494FF4F67002F03DFAEEE722
:10A100004FF0FF330EE743494FF4F67002F034FA94
:10A110000FE74FF0FF331AE73E494FF4F67002F0B5
:10A120002BFA1BE7C1465FEA58131FD0534608F0CD
:10A130001F02D34013F0010F1BD0012303FA08F3D1
:10A140004FF0A042C2F80C355FEA581317D05346BF
:10A1500008F01F02D34013F0010F13D008F5E07888
:10A160004FF0A043032243F8282006E74FF0FF33C7
:10A17000DDE728494FF4F67002F0FEF9DDE74FF015
:10A18000FF33E5E723494FF4F67002F0F5F9E5E710
:10A19000C3465FEA58130ED0534608F01F02D3405F
:10A1A00013F0010F0AD008F5E0784FF0A0430C221D
:10A1B00043F82820E9E64FF0FF33EEE715494FF466
:10A1C000F67002F0D9F9EEE74FF0FF33F5E61149EA
:10A1D0004FF4F67002F0D0F9F6E65FEA58130ED0AD
:10A1E000534608F01F02D34013F0010F14D001238F
:10A1F00003FA08F34FF0A042C2F80835EBE64FF03F
:10A20000FF33EEE75C300020B19E020000E100E089
:10A2100070670300B065030014494FF4F67002F054
:10A22000ABF9E4E74FF0FF33DCE610494FF4F6708A
:10A2300002F0A2F9DDE643F0020300E743F0040375
:10A24000FDE643F00603FAE609496B2002F094F9B3
:10A2500010E707F00F076D01EDB2064BDD5514E76F
:10A260004FF0080A27E74FF0110A24E7B065030012
:10A270004067030014ED00E02DE9F84306460D4663
:10A280009046047904EBC4034C4F07EB83073B7FF4
:10A29000002B55D02B68002B58D0AB68002B5ED01C
:10A2A00033792BB9EB68FF2B02D86B68FF2B04D9ED
:10A2B00043494FF40C7002F05FF904EBC4033F4ACA
:10A2C00002EB83035B7F002B76D104EBC40352F8CF
:10A2D000233043B118F0140F05D104EBC40302EB93
:10A2E000830301225A7704EBC40C344B03EB8C0C30
:10A2F0000CF10C0E95E80F008EE80F009CF81F90F3
:10A30000B9F1FF0F14D09CF81E30002B39D05FEA52
:10A3100059132DD0002309F01F02D34013F0010F71
:10A3200029D0012303FA09F34FF0A042C2F80835FF
:10A3300043462A4639463068FFF7C2FCBDE8F88339
:10A340001F4940F22D2002F017F9A3E76B68002B9C
:10A35000A3D01B4940F22E2002F00EF99DE7EB68D6
:10A36000002B9DD0164940F22F2002F005F997E707
:10A370004FF0FF33CFE713494FF4F67002F0FCF8CB
:10A38000CFE75FEA59130ED0002309F01F02D34034
:10A3900013F0010F0AD0012303FA09F34FF0A04292
:10A3A000C2F80C35C4E74FF0FF33EEE705494FF430
:10A3B000F67002F0E1F8EEE71120BFE75C30002014
:10A3C00070670300B0650300F0B583B005460F4623
:10A3D0001646002401E00134E4B2B44215D2A000D4
:10A3E00000F5A0704FF48033A3402A58002AF2D021
:10A3F000D5F804231342EED000232B502B580193A1
:10A40000019B3B6879689847E5E703B0F0BD000021
:10A4100008B5042202490348FFF7D6FF08BD00BF74
:10A4200080300020009000402DE9F04385B00746C1
:10A43000894690464FF4A0744FF48036002503E01F
:10A4400076000434A4B20135454511D2D7F804335F
:10A450001E42F5D03B59002BF2D000233B513B5913
:10A460000193019B184B53F82930E8B29847E7E76E
:10A47000D7F8043313F0010F0ED0D7F800315BB1D9
:10A480000023C7F80031D7F800310293029B0E4B2E
:10A4900053F8293004209847D7F8043313F0020FFB
:10A4A0000ED0D7F804315BB10023C7F80431D7F8D8
:10A4B00004310393039B044B53F82930052098473C
:10A4C00005B0BDE8F08300BF90300020F8B5044629
:10A4D00015460E46002940D0002D43D063792E4A00
:10A4E00042F8235003EB43032C4AD35C002B50D19A
:10A4F00094F90470B578AB1EDBB2012B03D96B1F46
:10A50000DBB2022B33D8002F36DB6D01EDB207F141
:10A51000604303F5614383F8005394F90430002B42
:10A5200007DB03F01F015B0901228A401C4941F847
:10A53000232027683588B5F5805F24D2C7F80855F1
:10A5400063793079154A03EB4303D1184870F078EA
:10A5500088700121D1540020F8BD1249512002F029
:10A560000BF8B9E70F49522002F006F8B6E70E499A
:10A570006B2002F001F8C6E707F00F036D01EDB2A2
:10A580000A4AD554C9E70A494FF4BE7001F0F4FFF6
:10A59000D4E70820E0E700BF903000208C30002096
:10A5A00000E100E0E46703004067030014ED00E011
:10A5B0005868030010B50446437903EB4303094A86
:10A5C000D35C012B09D1236801221A60637903EB64
:10A5D0004303044A0221D15410BD0349822001F0F3
:10A5E000CBFFF0E78C300020E467030082B0036803
:10A5F0000022C3F80021D3F800310193019B0368C6
:10A600000122C3F8442311B10368C3F8042302B044
:10A61000704702680123C2F848330268C2F8083361
:10A62000704782B003680022C3F80421D3F80431D4
:10A630000193019B03680222C3F8442311B103680C
:10A64000C3F8042302B0704708B504220021024871
:10A65000FFF7EAFE08BD00BF0040024010B5044607
:10A66000032815D8114B1C5D630916D0002304F094
:10A670001F02D34013F0010F12D04FF0A043D3F8C4
:10A680001035E34013F0010F0CBF0120002010BD76
:10A690000749AC2001F070FFE4E74FF0FF33E6E735
:10A6A00004494FF4F67001F067FFE6E7F068030035
:10A6B00088680300B065030008B54FF48C72002170
:10A6C00009F005F808BD28B108B54FF48C7101F008
:10A6D00021F808BD70470000C02A10D0B2F5807F75
:10A6E00010D0802A02D06FF01F0070470A23036049
:10A6F00030B500F1080343604FF0000C19E00C2363
:10A700000360F5E70E230360F2E711F82C4001EB3C
:10A710008C0E9EF8015044EA05249EF8025044EA4B
:10A7200005449EF8035044EA056443F82C400CF1BC
:10A73000010CBCEB521FE8D302680C2A5CD00E2A35
:10A7400000F0A4800A2A28D0002030BD1A685049A1
:10A7500051F824104A40D968C1F307254D48455D9A
:10A760006A40C1F30745455D82EA05220D0E455D4D
:10A7700082EA0542CDB2405D82EA00621A61586801
:10A7800042405A61986842409A614A40DA61013415
:10A790001033092CDAD90020D7E70024F9E71A682A
:10A7A0003B4951F820104A405969C1F30725394CFB
:10A7B000655D6A40C1F30745655D82EA05220D0EBD
:10A7C000655D82EA0542CDB2645D82EA04629A6107
:10A7D0005C686240DA619C6862401A62DC686240D0
:10A7E0005A621C6962409A624A40DA620130183348
:10A7F0000728D4D90020A8E70020F9E71A682448E0
:10A8000050F821004240D869C0F30724214D2C5D47
:10A810006240C0F307442C5D82EA0422040E2C5DE2
:10A8200082EA0442C4B22C5D82EA04621A625C6865
:10A8300062405A629C6862409A62DC686240DA62F6
:10A840001C695FFA82FC15F80CC084EA0C04C2F3A0
:10A85000072C15F80CC084EA0C24C2F3074C15F839
:10A860000CC084EA0C44120EAA5C84EA02621A63E9
:10A870005C6962405A639C6962409A634240DA6351
:10A88000013120330629B9D900205EE70021F9E71C
:10A89000F4790300F46803002DE9F04F8DB00192C4
:10A8A00045680B950B784A7843EA02238A7843EA95
:10A8B0000243CA7843EA02630A932C1D0B942A6868
:10A8C00053400A930B794A7943EA02238A7943EA8F
:10A8D0000243CA7943EA0263099305F108020B9225
:10A8E0006D686B4009930B7A4D7A43EA05238D7AA4
:10A8F00043EA0543CD7A43EA0563089304F108056A
:10A900000B956468634008930B7B4C7B43EA0423FC
:10A910008C7B43EA0443C97B43EA0163079302F15A
:10A9200008050B9552685340079303685B10013B81
:10A930009A46FDE00B9A131D0B931168DDF828C0B1
:10A940005FFA8CF0E94E56F820004140099FC7F3AA
:10A950000720E74D55F8200041400898C0F3074014
:10A96000E44C54F820004140DDF81CE04FEA1E683A
:10A97000E14850F8288081EA0801069102F10809AF
:10A98000CDF82C90D2F80480FAB256F8222088EA4A
:10A99000020B089AC2F3072855F828808BEA0802B0
:10A9A000CEF3074854F8288082EA08024FEA1C6870
:10A9B00050F8288082EA0802059203F10808CDF8D1
:10A9C0002C80D3F804B0089BDBB256F823308BEA16
:10A9D0000303CEF3072B55F82BB083EA0B03CCF31C
:10A9E000074B54F82BB083EA0B034FEA176B50F870
:10A9F0002BB083EA0B03049309F1080BCDF82CB0BC
:10AA0000D9F804905FFA8EFE56F82EE089EA0E0E11
:10AA1000CCF3072C55F82C908EEA090EC7F30747A4
:10AA200054F827708EEA0709089F4FEA176C50F810
:10AA30002CE089EA0E07039708F1080CCDF82CC02A
:10AA4000D8F804E05FFA81F856F828808EEA080EFC
:10AA5000C2F3072855F828808EEA080EC3F307488A
:10AA600054F828808EEA080E4FEA176850F82880BC
:10AA70008EEA080ECDF828E00BF1080ECDF82CE098
:10AA8000DBF804805FFA82F956F8299088EA090811
:10AA9000C3F3072955F8299088EA0908C7F307493D
:10AAA00054F8299088EA09084FEA116950F829906A
:10AAB00088EA0908CDF824800BF10C08CDF82C8029
:10AAC000DBF808C05FFA83F956F829908CEA090C84
:10AAD000C7F3072955F829908CEA090CC1F30749F7
:10AAE00054F829908CEA090C4FEA126950F8299021
:10AAF0008CEA090CCDF820C00EF10808CDF82C80A6
:10AB0000DEF804C0FFB256F827608CEA0606C1F3EF
:10AB1000072155F821107140C2F3074254F8222052
:10AB20004A401B0E50F82330534007930AF1FF3A76
:10AB3000BAF1000F3FF7FEAEDDF82C8008F10403F8
:10AB40000B93D8F800200A9CE1B2DFF8A0E15EF890
:10AB5000211051400998C0F30722DFF894C15CF836
:10AB600022205140DDF820B0CBF30742614F57F867
:10AB700022205140079D2A0E5F4E56F82220514058
:10AB8000069108F10809CDF82C90D8F80480C2B2DB
:10AB90005EF8222088EA0202CBF307285CF82880BE
:10ABA00082EA0802C5F3074857F8288082EA0802BB
:10ABB0004FEA146856F8288082EA0802059203F1E9
:10ABC0000808CDF82C80D3F804A05FFA8BF35EF868
:10ABD00023308AEA0303C5F3072A5CF82AA083EA34
:10ABE0000A03C4F3074A57F82AA083EA0A034FEA84
:10ABF000106A56F82AA083EA0A03049309F1080AA6
:10AC0000CDF82CA0D9F80490EDB25EF8255089EA71
:10AC10000509C4F307245CF8244089EA040CC0F356
:10AC2000074057F820008CEA000C4FEA1B6B56F8DF
:10AC30002B008CEA000CCDF80CC008F108050B9530
:10AC4000D8F80470CCB22D48045D6740C2F30724E5
:10AC5000045D87EA0427C3F30744045D87EA0447D9
:10AC60004FEA1C64045D87EA04670A9708F10C0444
:10AC70000B94D8F808605FFA82FE10F80EE086EABE
:10AC80000E06C3F3072E10F80EE086EA0E26CCF36C
:10AC9000074E10F80EE086EA0E464FEA116E10F8E5
:10ACA0000EE086EA0E66099608F1100ECDF82CE04B
:10ACB000D8F80C505FFA83F810F8088085EA080588
:10ACC000CCF3072810F8088085EA0825C1F3074867
:10ACD00010F8088085EA08454FEA126810F80880E5
:10ACE00085EA0865089504F1080E09E0F469030097
:10ACF000F46D0300F4710300F4750300F4680300BD
:10AD0000CDF82CE064685FFA8CFC10F80CC084EA83
:10AD10000C04C1F30721415C84EA0124C2F3074219
:10AD2000825C84EA02441B0EC35C84EA03630793DB
:10AD300001990F70C7F307224A70C7F307428A7060
:10AD4000380EC87008460E71C6F307224A71C6F362
:10AD500007428A71310EC1710572C5F30722427232
:10AD6000C5F3074282722A0EC2720373C3F307222D
:10AD70004273C3F3074282731B0EC37304210AA8F4
:10AD800000F0C8FC042109A800F0C4FC042108A8B4
:10AD900000F0C0FC042107A800F0BCFC042106A8B8
:10ADA00000F0B8FC042105A800F0B4FC042104A8BC
:10ADB00000F0B0FC042103A800F0ACFC04210BA8B7
:10ADC00000F0A8FC00200DB0BDE8F08F2DE9F04F99
:10ADD0008DB0019245680B950B784A7843EA0223BF
:10ADE0008A7843EA0243CA7843EA02630A932C1D35
:10ADF0000B942A6853400A930B794A7943EA022359
:10AE00008A7943EA0243CA7943EA0263099305F166
:10AE100008020B926D686B4009930B7A4D7A43EAF6
:10AE200005238D7A43EA0543CD7A43EA0563089307
:10AE300004F108050B956468634008930B7B4C7B19
:10AE400043EA04238C7B43EA0443C97B43EA01635E
:10AE5000079302F108050B95526853400793036866
:10AE60005B10013B9A4603E10B9A111D0B9113688D
:10AE70000A98C0B2E74E56F820004340DDF81CE0C7
:10AE8000CEF30720E44D55F820004340DDF820C004
:10AE9000CCF30740E14C54F820004340099F4FEAAF
:10AEA0001768DF4850F8288083EA0800069002F10E
:10AEB0000809CDF82C90D2F80480FAB256F8222076
:10AEC00088EA02020A9BC3F3072855F8288082EA21
:10AED0000802CEF3074854F8288082EA08024FEAB5
:10AEE0001C68CF4B53F8288082EA0802059201F1D2
:10AEF0000808CDF82C80D1F804B05FFA8CF156F830
:10AF000021108BEA0101C7F3072B55F82BB081EA1A
:10AF10000B010A9BC3F3074B54F82BB081EA0B01DA
:10AF20004FEA1E6BBE4B53F82BB081EA0B01049124
:10AF300009F1080BCDF82CB0D9F804905FFA8EFE19
:10AF400056F82EE089EA0E0ECCF3072C55F82C901B
:10AF50008EEA090EC7F3074754F827708EEA0707F1
:10AF60000A9B4FEA136CAE4B53F82CE087EA0E07AE
:10AF7000039708F1080CCDF82CC0D8F804E05FFA6C
:10AF800080F856F828808EEA080EC7F3072855F88F
:10AF900028808EEA080EC1F3074854F828808EEA0C
:10AFA000080E4FEA126853F828808EEA080ECDF892
:10AFB00028E00BF1080ECDF82CE0DBF804805FFAF6
:10AFC00082F956F8299088EA09080346C0F3072950
:10AFD00055F8299088EA0908C7F3074954F82990D9
:10AFE00088EA09084FEA11698D4850F8299088EAE3
:10AFF0000908CDF824800BF10C08CDF82C80DBF883
:10B0000008C05FFA81F956F829908CEA090CC2F35E
:10B01000072955F829908CEA090CC3F3074954F81D
:10B0200029908CEA090C4FEA17697D4850F829905D
:10B030008CEA090CCDF820C00EF10808CDF82C8060
:10B04000DEF804C0FFB256F827608CEA0606C1F3AA
:10B05000072155F821107140C2F3074254F822200D
:10B060004A401B0E50F82330534007930AF1FF3A31
:10B07000BAF1000F3FF7F8AE0B9A111D0B91136850
:10B08000DDF828B05FFA8BF0DFF888E15EF8200089
:10B090004340079DC5F30720DFF87CC15CF8200022
:10B0A0004340089CC4F307405C4F57F820004340DE
:10B0B00009984FEA10685A4E56F8288083EA080328
:10B0C000069302F10809CDF82C90D2F80480C2B2A0
:10B0D0005EF8222088EA0202CBF307285CF8288079
:10B0E00082EA0802C5F3074857F8288082EA080276
:10B0F0004FEA146856F8288082EA0802059201F1A6
:10B100000808CDF82C80D1F804A0E1B25EF8211037
:10B110008AEA0101C0F3072A5CF82AA081EA0A0141
:10B12000CBF3074A57F82AA081EA0A014FEA156AC9
:10B1300056F82AA081EA0A01049109F1080ACDF81B
:10B140002CA0D9F80490EDB25EF8255089EA0509E3
:10B15000C4F307245CF8244089EA040CC0F30740D8
:10B1600057F820008CEA000C4FEA1B6B56F82B00B6
:10B170008CEA000CCDF80CC008F108050B95D8F846
:10B180000470DCB22748045D6740CCF30724045DFB
:10B1900087EA0427C1F30744045D87EA0447140ED5
:10B1A000045D87EA04670A9708F10C040B94D8F849
:10B1B00008605FFA82FE10F80EE086EA0E06C3F31E
:10B1C000072E10F80EE086EA0E26CCF3074E10F894
:10B1D0000EE086EA0E464FEA116E10F80EE086EA9F
:10B1E0000E66099608F1100ECDF82CE0D8F80C5038
:10B1F0005FFA81F810F8088085EA0805C2F307288D
:10B2000010F8088085EA0825C3F3074810F808807D
:10B210000AE000BF1C7B03001C7F03001C830300AB
:10B220001C8703001C7A030085EA08454FEA1C6866
:10B2300010F8088085EA0865089504F1080ECDF835
:10B240002CE064685FFA8CFC10F80CC084EA0C04F3
:10B25000C1F30721415C84EA0124C2F30742825C06
:10B2600084EA02441B0EC35C84EA036307930199DA
:10B270000F70C7F307224A70C7F307428A70380E6F
:10B28000C87008460E71C6F307224A71C6F307421A
:10B290008A71310EC1710572C5F307224272C5F37E
:10B2A000074282722A0EC2720373C3F307224273EB
:10B2B000C3F3074282731B0EC37304210AA800F074
:10B2C00029FA042109A800F025FA042108A800F0B1
:10B2D00021FA042107A800F01DFA042106A800F0B5
:10B2E00019FA042105A800F015FA042104A800F0B9
:10B2F00011FA042103A800F00DFA04210BA800F0B4
:10B3000009FA00200DB0BDE8F08F00BF08B58C46EB
:10B3100011461A46BCF1010F02D0FFF757FD08BDD8
:10B32000FFF7BAFAFBE72DE9F043ADF53F7DB2F543
:10B33000C07F00F29F8080460D4616464FF4D072C3
:10B34000002156A808F0C3F96846FFF7B5F9330E97
:10B350008DF86831330C8DF86931330A8DF86A3114
:10B360008DF86B6120238DF86F315CAC3246294635
:10B37000204608F083F98023A3551936002302E004
:10B380004AAAD35401330F2BFADD80224AA968461A
:10B39000FFF7A2F9074600284DD18146B9F11F0FEA
:10B3A0002DDC1022002146A808F091F9354656AC54
:10B3B00013E0E25C46A9C85C4240CA5401330F2B3B
:10B3C000F7DD1034102D94BF6D1B103D46AB1A46AF
:10B3D00001216846FFF79AFF60BB0DB13B46EEE7DF
:10B3E000102246A94EAB03EB090008F047F99DF87F
:10B3F0005B3101338DF85B3109F11009CEE7802212
:10B400004EA96846FFF768F90746A0B904464546C5
:10B410001F2C10DC52AB1A4601216846FFF776FF5D
:10B42000074640B9102252A9284608F027F91035DE
:10B430001034EDE707466846FFF745F94FF4D07141
:10B4400056A800F067F920214EA800F063F91021FA
:10B450004AA800F05FF9102146A800F05BF927B96F
:10B4600038460DF53F7DBDE8F0832021404600F0D1
:10B4700051F9F5E76FF03707F2E72DE9F04188B0B1
:10B4800004460D4620220021684608F020F90027D6
:10B490006E460AE033462246012104F12000FFF700
:10B4A00035FF804618BB103610371F2F0ADC1022DC
:10B4B000002AEFDD013AA35C0133DBB2A354002B79
:10B4C000F6D0E7E7002308E0EA5C08A9194411F880
:10B4D000200C424001F8202C01331F2BF4DD802288
:10B4E000694604F12000FFF7F7F8804638B12021C3
:10B4F000684600F00FF9404608B0BDE8F081102220
:10B500000DEB0201204608F0B9F8F0E708B54FF45A
:10B51000A072002108F0DBF808BD50B110B5044658
:10B520002030FFF7D0F84FF4A071204600F0F2F879
:10B5300010BD7047F0B5E1B08369B3F5C07F38D86E
:10B5400004460E461546C3F5C073934234D34FF4F8
:10B55000C0720021684608F0BAF8D4F83831A26900
:10B560006946D4F83C01984748BBA76906B175B94C
:10B570003A4669466846FFF7D6FE054678B14FF46D
:10B58000C071684600F0C6F8284661B0F0BD2A4692
:10B5900031460DEB070008F071F82F44E8E76946E3
:10B5A0002046FFF76AFF05460028E8D10123236102
:10B5B000E5E76FF03705E7E76FF03705E4E76FF091
:10B5C0003305E1E72DE9F04184B004460E46154607
:10B5D0001F4610220021684608F079F804F120087F
:10B5E0004046FFF769F8C4F83861C4F83C51A369D4
:10B5F0000BB92023A3614FF6F073E3618022694603
:10B600004046FFF769F810B104B0BDE8F0810A9A2E
:10B6100039462046FFF78EFFF6E72DE9F0418CB062
:10B62000DDF84880B2F5806F64D804460F461546B1
:10B630001E46B8F5807F60D82022002104A808F0BB
:10B6400046F82269E3699A4201DC63693BB14246EC
:10B6500031462046FFF76EFF064628B346E0B8F1B4
:10B66000000F21D04246314604A8FFF75CFE064693
:10B67000A0BB04A92046FFF700FF0646A0B12DE0BD
:10B680006B462246012104F12000FFF73FFE0646EB
:10B6900020BB2E46102D28BF10263246694638465C
:10B6A00007F0ECFF3744AD1B7DB14FF0100CBCF13F
:10B6B000000FE5DD0CF1FF3C14F80C300133DBB278
:10B6C00004F80C30002BF2D0DAE704A92046FFF78B
:10B6D000D4FE064610B9236901332361202104A852
:10B6E00000F018F81021684600F014F830460CB04D
:10B6F000BDE8F0816FF03506F8E76FF03706F5E743
:10B7000000B583B000230093FFF787FF03B05DF817
:10B7100004FB000031B108B50A46034B1B68002149
:10B72000984708BD704700BFE42B0020034620B1B6
:10B7300031B1002008604B60704748F210507047EC
:10B7400048F21350704720B103688B4204D10020A7
:10B75000704748F21050704748F24050704730B17F
:10B7600041B10B68934207D30A600020704748F24A
:10B77000135070470020704748F21450704718B1BA
:10B78000914204D10020704748F21050704748F2AF
:10B79000115070472DE9F04100AF80460C46154628
:10B7A0001E4611462046FFF7C1FF10B1BD46BDE859
:10B7B000F08131462046FFF7B9FF0028F6D1237902
:10B7C000104A52F82340104A32F81330BCB1B8F195
:10B7D000000F0AD0324629464046A0470028E5D14E
:10B7E0000A4B2B60063B3360E0E7002BF2D00733B7
:10B7F000DB086A46A2EBC3039D46E846EAE748F247
:10B800000350D3E7248B03001C8B03007652464D74
:10B81000F8B504460F4615461E46FFF787FF034658
:10B8200090B9A27931462846FFF7A9FF034658B9D7
:10B830002279084B53F8223043B1294638469847BD
:10B84000034608B9044A3A601846F8BD48F2035363
:10B85000FAE700BF308B03007052464DF8B506463C
:10B860000D4614460E49FFF76EFF034608B1184611
:10B87000F8BD7768BA7921462846FFF770FF03467E
:10B880000028F4D13A79074B53F8223023B12946E6
:10B89000304698470346EAE748F20353E7E700BF1C
:10B8A0007052464D3C8B030030B51D4628B144799B
:10B8B00001B3AAB948F213501BE01C46F8E711F88F
:10B8C0000C0011F80E3002F80C3002F80E000CF1EA
:10B8D000010C0EF1FF3EF445F1D92D1B2144224409
:10B8E000A54204D304F1FF3E4FF0000CF3E725B965
:10B8F000284630BD48F21050FBE748F21150F8E7F7
:10B900002DE9F84300AF06460C4690461D462149F6
:10B910002046FFF718FF014618B10846BD46BDE8AE
:10B92000F8831D494046FFF70EFF01460028F4D179
:10B93000D4F80490D8F80430994502D048F2415127
:10B94000EBE799F80520396A2846FFF708FF01461A
:10B950000028E2D199F80430104A52F82390104A96
:10B9600032F81330B9F1000F11D036B12B464246F0
:10B9700021463046C8470146CFE7002BF6D00733B3
:10B98000DB086A46A2EBC3039D466E46EEE748F22B
:10B990000351C2E77652464D7052464D488B030024
:10B9A000508B030038B50D4D0D4BED1AED080D4BC6
:10B9B00001221A70002400E00134AC4207D2084B87
:10B9C00053F83430984703460028F5D003E0054B80
:10B9D00002221A700023184638BD00BF74610300AC
:10B9E0006C61030094300020074B1B78DBB2022B04
:10B9F00008D0054B1B78DBB2012B01D0002070472B
:10BA000001207047012070479430002000239342AA
:10BA100011D200B510F803E011F803C0E64505D1D6
:10BA200001339342F6D301205DF804FB01D90120D4
:10BA3000FAE70020F8E70120704770B50646154682
:10BA40001C461A46FFF7E2FF20B12246314628463F
:10BA5000FFF7DCFF70BD84460023184601E0083084
:10BA600001338B4204D21CF80320002AF7D000E0F7
:10BA7000FF220023072B06D8520032F0FF0102D12B
:10BA800001300133F6E770472DE9F84F0446884648
:10BA900017461E469DF828A019461046FFF7DBFF03
:10BAA00084B305468EB3B8F1000F33D0AFB332463E
:10BAB00041463846FFF7AAFF48B948F2175926E031
:10BAC00033463A4641462046FFF7B7FFF8B953469A
:10BAD0003246214612480068FAF786FD8146B0B921
