:020000022000DC
:1060000000000120756302005D63020065E4020088
:106010006163020063630200656302000000000028
:1060200000000000000000000000000067630200A4
:1060300069630200000000006B6302006D630200F0
:10604000C99C02006F630200D9A30200ADA6020042
:106050006F6302006F630200F1A202006F6302002F
:106060006F63020035AD02006F6302006F630200D0
:106070006F630200B5A502006F6302006F63020048
:106080006F630200C17502006F6302006F6302005C
:10609000E97502006F630200493C03006F63020070
:1060A0006F6302006F6302006F6302006F630200A0
:1060B0006F6302006F630200000000000000000038
:1060C0006F6302006F6302006F6302006F63020080
:1060D0006DAF02006F6302006F63020000000000FA
:1060E00000000000000000000000000000000000B0
:1060F00000000000000000000000000000000000A0
:10610000000000000000000000000000000000008F
:10611000000000000000000000000000000000007F
:10612000000000000000000000000000000000006F
:10613000000000000000000000000000000000005F
:10614000000000000000000000000000000000004F
:10615000000000000000000000000000000000003F
:10616000000000000000000000000000000000002F
:10617000000000000000000000000000000000001F
:10618000000000000000000000000000000000000F
:1061900000000000000000000000000000000000FF
:1061A00000000000000000000000000000000000EF
:1061B00000000000000000000000000000000000DF
:1061C00000000000000000000000000000000000CF
:1061D00000000000000000000000000000000000BF
:1061E00000000000000000000000000000000000AF
:1061F000000000000000000000000000000000009F
:10620000354936480A1A02D0072291438D4634494F
:1062100034480A1A06D00722914381F309880222E2
:1062200082F3148830483149314A00F044F831484B
:106230003149324A00F03FF831483249324A00F0E1
:106240003AF832483249334A00F035F83248334997
:10625000334A00F030F833483349344A00F02BF821
:1062600033483449344A00F026F83448344900228F
:1062700000F02CF833483449002200F027F8334866
:106280003349091A082902DB002202604160314AC1
:1062900090471F481F49884205D00268043003B464
:1062A000904703BCF7E700208646EC46002000211B
:1062B000294A9047FEE7884207D0521A05D0037852
:1062C00001300B700131013AF9D17047884202D098
:1062D00002700130FAE7704700000120F0D800207A
:1062E000000001200000012050A80300E42B002042
:1062F000202C0020D0630200D0630200106B03004A
:1063000050A80300E42B0020E42B0020D06B0300F6
:10631000D06B0300D06B0300D06B0300D06B030085
:10632000D06B0300D06B0300D06B030050A80300B8
:106330008CA80300202C0020202C0020202C0020E2
:10634000FC480020FC480020FC480020FC480020BD
:10635000FC6800209D6302003DD20200FEE7FEE7DC
:10636000FEE7FEE7FEE7FEE7FEE7FEE7FEE7FEE705
:1063700000F002B8FFF7FCBF0F484FF00701884359
:1063800085460E4880470E48016841F4700101605F
:10639000BFF34F8FBFF36F8FFFF732BF09480A4932
:1063A0000A4A884207D0521A05D0037801300B7090
:1063B0000131013AF9D17047000001202DE20200BD
:1063C00088ED00E0BC6B0300D02B0020E42B002004
:1063D00008B5022004F0B8FE08BD000010B5084B57
:1063E0001B7853B1002400E00134032C07D8022CA1
:1063F000FAD0204604F042FEF6E704F069FE10BD34
:10640000212C002038B50446BF4B1B78E3B9172C6C
:1064100000F28481DFE814F01E00280028005400F8
:106420008000A300CE00DB00E200EF00FC000901C9
:1064300016011C011C011C011C011C014D01530112
:106440005C01650171017101AF4B00221A70FFF709
:10645000C5FFDCE7FFF7C2FFAC4801F031F90546A4
:10646000AB4B1C70284638BD002004F0AFFDE8B1EE
:10647000002004F003FE022C15D04FF47A63A44AE6
:1064800014700024590CD8034FF47A72002310F5CD
:10649000FA7061410DF07CFD014622469B4801F0F7
:1064A000EDF80546DEE74FF4E163E8E7002004F08D
:1064B000BBFD022C02D04FF4C873E0E7C823DEE72F
:1064C000002004F083FDE8B1002004F0D7FD032C88
:1064D00015D04FF47A638E4A14700024590CD803F7
:1064E0004FF47A72002310F5FA7061410DF050FDFF
:1064F00001462246854801F0C1F80546B2E74FF44F
:106500004873E8E7002004F08FFD032C02D04FF41D
:10651000C873E0E7C823DEE7002004F057FDC0B1F0
:10652000002004F0ABFD4FF47A63794A1470002424
:10653000590CD8034FF47A72002310F5FA706141B8
:106540000DF026FD01462246704801F097F80546F9
:1065500088E7002004F068FD4FF4C873E5E70020E9
:1065600004F034FDE0B1002004F088FD052C15D0C6
:106570004FF47A63664A14700024590CD8034FF420
:106580007A72002310F5FA7061410DF001FD0146A9
:1065900022465E4801F072F8054663E7C823E9E742
:1065A000002004F041FD052C02D04FF4C873E1E750
:1065B000C823DFE7002004F0C7FD554B1C70002204
:1065C00040F6CD41514801F059F805464AE7002010
:1065D00004F02AFD4E4B1C70002543E701204A4B76
:1065E000187004F0B1FD002240F6CD41474801F09B
:1065F00045F8054636E70120434B187004F0A4FD2A
:1066000000224FF48041414801F038F8054629E75F
:1066100001203D4B187004F097FD002240F6CD415B
:106620003A4801F02BF805461CE70120364B18705C
:1066300004F08AFD00224FF48041344801F01EF836
:1066400005460FE704F076FD314B1C70002509E785
:10665000304801F035F80546D4F1110422D008BBCA
:10666000012C06D8022004F0DFFC2B4B01221A700B
:10667000F8E6A4B2C82303FB04F4E317D90341EA04
:106680005441E0034FF47A72002310F5FA7041F19F
:1066900000010DF07DFC014600221E4800F0EEFFD7
:1066A0000546DFE7022004F0E9FC1B4B00221A70CC
:1066B000D8E6FFF793FE164B1C700025D2E6FFF7D5
:1066C0008DFE002004F0B0FC114B1C700025C9E6C3
:1066D000FFF784FE012004F0A7FC0D4B1C70002581
:1066E000C0E6FFF77BFE002004F09EFC012004F0D2
:1066F0009BFC074B1C700025B4E604F01BFD044B0B
:106700001C700025AEE600BF942C0020642C0020F5
:106710009C2C0020242C0020212C00200025A1E608
:1067200008B5054B1B6813F0010F00D108BD034BE2
:106730001878FFF767FEF9E7902C00209C2C0020CA
:1067400070B506460D4604F05FFD032805D80446E3
:10675000012D03D0022D30D015B370BD1A4A00EBC5
:106760004003D118D55C4B787BB904EB4402164B3F
:1067700013449A78154B1A55002DEED0144B1B6814
:10678000002BEAD028469847E7E7124A4FF4004129
:10679000114800F073FF0028E7D10E4B1E70E4E7AC
:1067A0000D4800F08DFF094B1A5D04EB4404064BC5
:1067B0001C44A578AA42D0D1DEE700EB4004024B8E
:1067C0001C446578D8E700BF842C0020A02C002052
:1067D000982C0020202C0020442C002008B50221F9
:1067E0000078FFF7ADFF08BD032801D906207047E8
:1067F00038B5F1B1032504F017FD044643091AD05A
:10680000002304F01F02D34013F0010F16D04FF005
:10681000A04304F5E07053F8202022F4403243F8FE
:10682000202053F8202042EA054243F8202000208F
:1068300038BD0025DFE74FF0FF33E2E702494FF4B0
:10684000F67006F0C9FCE2E7D06B0300032801D91B
:106850000020704708B504F0A9FC08BD08B5024641
:10686000044B186810F0010000D108BD1046FFF776
:10687000C9FDFAE7902C0020032824D8012A06D06D
:1068800001290CD0022910D0B1B10720704701298D
:1068900001D00022F4E700F10E02D2B2F0E700EBE3
:1068A00040000A4B1A540020704700EB4000074B91
:1068B000184442700020704700EB4000034B18441E
:1068C0008270002070470720704700BF842C002092
:1068D00070B50646224B1860224B196010F0020476
:1068E0001AD116F0010F26D1204670BD01221146A3
:1068F0002846FFF7C1FF04460135032D01D8002CBF
:10690000F4D064B19CB1002CEBD1174A0021174898
:1069100000F09EFE0446E4E700252C46EDE740F239
:1069200066620421124800F04FFA0446EAE700F0DC
:10693000A3FA0446E7E7012004F086FC44B1002CEA
:10694000D2D10C4A01210C4800F082FE0446CBE76C
:106950000A4A00210A4800F07BFE0446EFE700BF28
:10696000902C0020982C0020DD670200246C03008E
:10697000006C0300D1630200206C03002167020059
:10698000286C030008B50121FFF72EFF08BD08B5EC
:10699000012200210846FFF76FFF10B103460728C8
:1069A00012D1072202210120FFF766FF034608B13A
:1069B000072809D1042202210020FFF75DFF0346CA
:1069C00010B1072800D10023184608BD08B50122E0
:1069D00002210020FFF750FF10B10346072812D113
:1069E000072202210120FFF747FF034608B10728CD
:1069F00009D10A2200210846FFF73EFF034610B1E5
:106A0000072800D10023184608BD000008B50388F8
:106A1000102B02D0112B12D008BD114B1B6823B1D3
:106A20000F4A136801331360F6E7FFF7B0FF002841
:106A3000F6D00C4B1B68002BF2D09847F0E7084AC1
:106A40001368013B1360002BE6D1FFF7BFFF00285E
:106A5000E2D0044B1B68002BDED09847DCE700BF78
:106A6000A82C0020A42C002010B504460120FFF71C
:106A7000EDFE10B10223237010BD0020FFF7E6FEEB
:106A800010B10B232370F7E700232370F4E708B558
:106A90000020FFF777FF10B10346062807D1012039
:106AA000FFF770FF034610B1062800D100231846F7
:106AB00008BD000008B5074B186011B10846FFF784
:106AC000D3FF054B1B680BB1002008BDFFF77EFF0D
:106AD000FBE700BFA42C0020A82C002008B505F07F
:106AE00037FE08BD08B50021084605F0F1FD08BDD8
:106AF00010F1360F09D058B110F1380F02D048F21A
:106B00001650704748F21150704748F214507047C1
:106B10000020704708B50846114603F00FF8002022
:106B200008BD000010B582B0041D002002F05CFF1B
:106B300008B102B010BD204605F0C3FA0022009251
:106B400013460349204605F018FBFFF7D1FFF0E795
:106B5000156B020008B5043005F0BAFA02F078FFB0
:106B6000002008BD08B5043005F0A0FBFFF7C0FF0A
:106B700008BD08B511461A46043005F0B6FAFFF70D
:106B8000B7FF08BD4308054AD35C10F0010F01D0E0
:106B90001809704703F00F00704700BFE02C002079
:106BA00010B410F001020CD00F230AB10901C9B2D0
:106BB0004008054A145C2340194311545DF8044B06
:106BC0007047F023F1E700BFE02C002008B5014634
:106BD00000230A4A12789A4209DD094A126802EB38
:106BE000C30012F833208A4206D00133F1E7054989
:106BF000882006F0F1FA002008BD00BFAC2C002070
:106C0000F02C00202C6C030038B504460D46FFF72D
:106C1000DDFF20B1436813B129462046984738BDAF
:106C200008B5044B196800224908034800F026FD06
:106C300008BD00BFB02C0020B42C002010B5C0B29D
:106C4000FFF7C4FF0446007803F020FB6378012BB4
:106C500014BF00230123834200D010BD034BD3E9AE
:106C600000231343F9D1FFF7DBFFF6E7D82C002010
:106C700030B583B004460D46FFF784FF04282ED8B4
:106C8000DFE800F003272F3E450045B301212046F1
:106C9000FFF786FF00238DF807300DF1070000F0A5
:106CA0003FFD0122A4F12003C4F1200102FA03F305
:106CB00022FA01F10B4302FA04F42C490A684868ED
:106CC000144303430C604B609DF8070000F05CFD2B
:106CD00005E005B1022529462046FFF761FF03B014
:106CE00030BD45B103212046FFF75AFF0121204660
:106CF000FFF78AFFF3E701212046FFF751FFEEE798
:106D0000002DECD104212046FFF74AFFE7E725B12B
:106D100003212046FFF744FFE1E700212046FFF76B
:106D20003FFF00212046FFF76FFF00238DF807305B
:106D30000DF1070000F0F4FC0120A4F12003C4F1E0
:106D4000200200FA03F320FA02F21343A040074A9C
:106D50001468516824EA000021EA030310605360BC
:106D60009DF8070000F010FDB9E700BFD82C002007
:106D700070B50024114B1B78A34216DD104B1D6823
:106D800005EBC40615F8340003F080FA7378012B84
:106D900014BF00230123834214BF0021012115F8F1
:106DA0003400FFF765FF0134E4E7064BD3E9002325
:106DB000134300D170BDFFF733FFFBE7AC2C00207D
:106DC000F02C0020D82C0020092A41D970B582B0BF
:106DD00006460D46144603F001F918B903F0AEF863
:106DE000034690BB1C4B1E601C4B1D701C4B1C6053
:106DF000102200211B480DF08EF91B4B00200021B2
:106E0000C3E900016C1EE4B2CDB106EBC40203235A
:106E10008DF804309DF8063003F0FC036FF3820315
:106E20008DF8063093788DF80530104A01A916F8D0
:106E3000340003F0DDF8034638B92546E2E70C4A92
:106E400000210C4800F004FC0346184602B070BD57
:106E500007231846704700BFF02C0020AC2C002000
:106E6000B02C0020E02C0020D82C00203D6C02002B
:106E7000716D0200A46C030010B50C4B1B686BB164
:106E800000240B4B1B78A3420ED9084B1B68012131
:106E900013F8340003F054F90134F2E7054940F2E5
:106EA000351006F099F9EBE7002010BDF02C00201A
:106EB000AC2C00202C6C030082B001238DF807302D
:106EC0009DF80730134B186059609A6044F2010333
:106ED000984213D044F20203984207D10D4BDA6076
:106EE000DA6812689A61DA685268DA6172B69DF8F7
:106EF0000730002BFBD162B602B07047054B1A6118
:106F00001A6992685A611A6912689A611A69526814
:106F1000DA61EBE7F42C002000B583B00290009119
:106F2000019244F2010071466A4600F003F803B092
:106F300000BD000008B572B6044B1B6813F0010FCA
:106F400000D000BEFFF7B8FF08BD00BFF0ED00E0C5
:106F50002D4B1B888B4201D2092070472DE9F0414F
:106F600082B005460C46164600238DF807300DF119
:106F7000070000F0D5FB254B1A78D2B2244B1978C4
:106F8000CBB224480088814224D20133DBB29A423A
:106F900024D01F4B1F781A78D3B290421CD90133EA
:106FA000DBB21B4A13709DF8070000F0EDFB4FF6B3
:106FB000FF739F4226D04FEAC708174B1B6803EBAD
:106FC000C70243F8376005B15CB90020908002B079
:106FD000BDE8F0810023DAE70023E2E74FF6FF7710
:106FE000E1E70E4B1B68084A10882246294607FB3A
:106FF00000300DF067F8084B1B689844A8F804406F
:107000000020E4E70420E2E7202D0020242D0020CA
:10701000142D0020222D00201C2D0020182D0020D2
:10702000034BC3F80805034BC02283F811237047B4
:107030000010014000E100E010B50B4B4FF480322E
:10704000C3F84423C3F80423084A4FF40031C2F8BC
:107050008011116001241C604FF43C60044B2343F9
:107060009847044B1C7010BD0010014000E100E087
:10707000B06C0300352E002070B5104B4FF4003279
:10708000C3F88020BFF34F8FBFF36F8F0C4D4FF4C9
:107090008033C5F84833C5F8083301266E60094CC3
:1070A00034434FF43C60A047AE600025064B1D60A2
:1070B0004FF43C60A047054B1D7070BD00E100E03F
:1070C00000100140B06C0300442E0020352E00203B
:1070D00010B4114B1C685CB1026823689A4218D83E
:1070E0009A1A2260C4610C4B18605DF8044B70471B
:1070F0001860FAE7521A1C46DB6913B1196891420D
:10710000F8D313B11968891A19600260C361E0618C
:10711000EBE72346F1E700BF482E002070B5184B7F
:107120001E683446354624B1844202D02546E469BF
:10713000F9E714B3A5420CD02168E369EB6113B100
:107140001A680A441A600E4B1868801B18BF012089
:1071500070BDF3690A4A1360002BEDD10123094A7F
:107160009360094A00211160084A13704FF43C6093
:10717000074B43F001039847DEE70020E8E700BF34
:10718000482E002000100140442E0020342E002004
:10719000B06C0300024B4FF40032C3F8002170477B
:1071A00000E100E0024B4FF48012C3F80021704769
:1071B00000E100E008B543698069984708BD000018
:1071C0001B4B1868002832D070B51A4BD3F8044511
:1071D000194B1B68E41A24F07F44002504E00023C7
:1071E0000374FFF7E7FF304648B10368A34206D8AF
:1071F000E41A1D44C669037C002BF4D0EFE70F4B63
:107200001A780F4B1B789A4207D00D4B1A780D4B0A
:1072100043F82250FFF7C6FF70BD0133DBB2084AC6
:107220001370022BF1D1134600221A70EDE770475C
:10723000482E002000100140442E0020402E002047
:10724000412E0020382E0020104B1B78104A127857
:10725000934217D00133DBB20C4A1370022B0DD0CE
:107260000A4B1A780B4B53F8223003600A4A116814
:107270000B4423F07F431360012070471346002224
:107280001A70EDE70023036018467047402E002077
:10729000412E0020382E0020442E002070B40025FE
:1072A0000E4B1B68BBB11C68844212D8001B2544DE
:1072B00000241C60DE69094C2660DC68002CEFD0DD
:1072C0006E1826F07F465E609C601468DC61136077
:1072D000E6E7241A1C6070BC704700BF482E0020EF
:1072E000F8B50546404B1F68002658E03F4A117824
:1072F0004B1CDBB213709278934227D001EB410311
:107300003A4A02EBC3039C681B79022B22D0032B61
:107310002FD0012B43D1237C002B40D1334A01EBEA
:10732000410302EBC303D86860601869A0605B6921
:10733000E36001EB410102EBC1018B69A3612C4BBE
:107340001B78002B30D0002363602DE0274B0022F8
:107350001A70D3E72046FFF7E1FE034600B9334633
:10736000002222741E461AE000221A74DA691E4BAB
:107370001A601D4B1B68002BF6D110E0521A22F048
:107380007F42A36893421CD99A1A2260002363604B
:10739000A36001222274E3612046FFF799FE9DB1AC
:1073A000002DA3D02C46ED696168124B1A688B1A28
:1073B00023F07F4310488342E0D8A268134423603F
:1073C000E4E700232360E1E7084B1A785B789A42F0
:1073D000E6D12EB9044B1B68BB4203D0012000E06C
:1073E0000120F8BD0020FCE7482E0020282D0020B9
:1073F000342E0020442E0020FEFF7F00F8B51C4BE9
:107400001B688BB31F681B4BD3F804551A4B1C68C1
:107410002E1B26F07F460336184B1B780BB3B74262
:107420002CBFE419A41924F07F44124BC3F8404543
:10743000D3F804355B1B23F07F430333641B24F034
:107440007F44A3420CD90B4BD3F80425C3F8402545
:107450004FF43C600A4B43F001039847FFF79AFE54
:10746000F8BDFFF7E9FDDAE7FFF706FEF8E700BF32
:10747000482E002000100140442E0020352E002010
:10748000B06C030070B582B0002301930D4B1E68F1
:107490000D4B1D686846FFF7D7FE044660B901989A
:1074A000FFF71EFF00B914B12846FFF7A7FF074BEF
:1074B00000221A7002B070BD01AA31460098FFF791
:1074C000EDFEECE7442E0020482E0020342E002054
:1074D000014B5870704700BF282D00200B4A53788D
:1074E0000133DBB292789A420CD0084A12789A4261
:1074F0000AD003700548437803EB430300EBC30055
:10750000043070470023F0E700207047282D00204A
:107510002DE9F04182B007460E4690461D460024F4
:107520008DF806400DF1060000F0FAF80DF10700A5
:10753000FFF7D4FFC0B10123037047600D4BD3F8B0
:1075400004358360C660C0F8108045619DF807006F
:10755000FFF7BEFF00249DF8060000F015F92CB1DE
:10756000204602B0BDE8F0810424F4E7FFF71AFEDC
:10757000F6E700BF0010014030B583B004460D4669
:1075800000238DF806300DF1060000F0C9F80DF16A
:107590000700FFF7A3FF70B1057044609DF8070076
:1075A000FFF796FF00249DF8060000F0EDF824B1E7
:1075B000204603B030BD0424F5E7FFF7F3FDF7E7FD
:1075C00008B5084B0022C3F84021C3F84421C3F892
:1075D0004821C3F84C21C3F80021C3F80421FFF768
:1075E000EFFD08BD0010014008B5FFF74BFF08BDD7
:1075F00010B5FFF741FD0F4B00241C705C700B228F
:107600009A700D4B1C600D4B1C700D4B1C700D4B7C
:107610004FF48012C3F88021C02183F814131A603C
:107620002046FFF7FDFC084BD3F80425074B1A60F2
:10763000204610BD282D0020482E0020402E00207E
:10764000412E002000E100E000100140442E002007
:10765000094B9B7843B14AB150B10368187C48B9D3
:10766000187459745A617047082070470720704792
:107670000720704708207047282D002013460E4A27
:10768000927882B188B110B54C1F0C4A94420ED842
:10769000426972B1427C012A03D00022FFF738FF11
:1076A00010BD0A46FAE708207047082070470720F7
:1076B000F6E70820F4E700BF282D0020FAFFFF00BE
:1076C00008B5094B9B7843B148B143694BB10023DE
:1076D00003740221FFF750FF08BD0820FCE70820D3
:1076E000FAE70820F8E700BF282D0020014BD3F867
:1076F0000405704700100140401A20F07F40704799
:10770000EFF30583C3F308033BB9EFF3148313F0DE
:10771000010F0CBF012000207047012070470000BE
:1077200038B50446FFF7ECFF01281CD1EFF31082B7
:1077300072B6114B9B68DBB90F4901238B600F4B6D
:10774000D3F880000E4D28400860C3F88050D3F86D
:10775000840048604FF0FF31C3F884100023237089
:1077600002B962B638BD0749432005F035FDDDE7B3
:1077700001232370F4E700BF4C2E002000E100E05D
:10778000FC06FFBDB86C030010B50446FFF7B8FF58
:10779000012811D10B4B9B686BB164B9EFF31081D9
:1077A00072B6084B1868084A10605868506000228A
:1077B0009A6001B962B610BD0449512005F00CFD74
:1077C000E8E700BF4C2E002000E100E0B86C0300A9
:1077D00038B50546002400E00134032C07D8044BDB
:1077E00053F82430002BF7D028469847F4E738BDEB
:1077F000642E00200378013B052B34D8DFE803F02A
:1078000003061120293100230B70704701230B70F0
:1078100003898B818388CB81C3688B6000230B74C1
:10782000704702230B7003898B818388CB81C368E7
:107830008B60837D062B14BF002301230B747047DC
:1078400003230B70C3888B810389CB81C3688B6052
:10785000704704230B70C3888B810023CB818B601E
:10786000704705230B707047884207D20368B3F155
:10787000FF3F01D001207047002070470020704773
:107880004388033300EB8300704738B504460D4648
:10789000FFF7F6FF85420CD3A2884FF6FF739A429A
:1078A00009D023884BB1A368B3F1FF3F07D0002074
:1078B00038BD0220FCE70120FAE70120F8E70120AB
:1078C000F6E7000060B10A4AD26882420AD8084A44
:1078D0001269824208D310F0030F07D101207047CC
:1078E000002070470020704700207047002070473C
:1078F000D02B002060B10168094A91420AD1436847
:10790000084A934208D00132934207D101207047C0
:107910000320704703207047002070470320704702
:10792000DEC0ADDEFE011EF10368B3F1FF3F04D0FF
:107930000A4A93420ED1012300E00123B3F5806F80
:1079400006D250F82320B2F1FF3F05D10133F5E70D
:10795000012070470020704700207047DEC0ADDE78
:1079600010B4094A00EB800402EB840423890B4421
:10797000608910FA83F080B2B0F5806F8CBF002070
:1079800001205DF8044B7047982E00200023012B46
:1079900019D810B403E001339BB2012B0ED803EBCE
:1079A00083020A4C04EB820252688A42F3D202F547
:1079B00080528A42EFD90380002001E048F209603A
:1079C0005DF8044B704748F209607047982E00201C
:1079D000F8B50D46174600F5805600F1080402235D
:1079E0000B800DE00FB101223A70022B1CD063888E
:1079F0002A88134403332B802046FFF741FF0446B7
:107A000031462046FFF730FF88B131462046FFF768
:107A10003CFF03460028E5D1A368054A126893425B
:107A2000E5D9034A1360E2E74FF480632B80F8BD89
:107A3000902E00208B7D022B04D9CB880289134421
:107A400003330381CA8843899B1A033B43817047F0
:107A5000F8B5033086B240F2FE339E4221D80D467F
:107A6000002401E00134A4B2012C17D804EB8403F4
:107A70000D4A12F82330002BF4D131462046FFF78F
:107A80006FFF0028EED02C80074B04EB840203EB41
:107A90008202508930445081002001E048F20660A3
:107AA000F8BD48F20860FBE7982E002010B4064AA3
:107AB00001EB810402EB840463891B1A033B63819D
:107AC0005DF8044B704700BF982E0020F8B50E46B5
:107AD00000EB8000134B03EB8000446804F58055F5
:107AE0000868A0B1FFF7CCFE044629462046FFF700
:107AF000BBFE074698B129462046FFF7C6FE01287F
:107B000007D002280AD00028EFD1346007E00834FB
:107B1000EBE72046FFF7B4FE0446E6E700273846C9
:107B2000F8BD00BF982E002070B582B006460D4605
:107B30004068FFF7C7FE20B13289174B1B899A4274
:107B400018D000232B802B88012B23D800230193EE
:107B500001A92888FFF7BAFF0146B8B1019B9C68CC
:107B600032689442F4D173600B4B1B893381084611
:107B700002B070BD326871688B689A42E1D12846C4
:107B8000FFF704FFB0FA80F14909F0E72B880133D1
:107B90002B80D8E70021EAE77C2E0020F8B51C46B0
:107BA0001F4B1B78002B34D005460F461646002A83
:107BB00032D03CB948F2046027E000232360A38858
:107BC0000133A380A388012B20D803EB8303154A3C
:107BD00012F82330002BF2D12146A088FFF776FF60
:107BE0000028EAD023681DB199882A889142F3D1F0
:107BF0001FB119883A889142EED19B68336023689F
:107C00007360094B1B8933810020F8BD48F209607D
:107C1000FBE748F20160F8E748F20460F5E700BFCF
:107C2000742E0020982E00207C2E00202DE9F0419B
:107C3000884617461E4600EB80001D4B03EB800074
:107C4000456805F1080405F5805529462046FFF7EB
:107C50000BFE58B329462046FFF717FE01280DD02A
:107C6000022818D00028F0D1B8F800300133A8F865
:107C700000302046FFF704FE0446E6E73B88013368
:107C80003B80638832881344033333802046FFF7F8
:107C9000F7FD0446D9E73B8801333B802C1B358830
:107CA00005EBA4043480069B01221A70BDE8F08124
:107CB000982E00202DE9F0470024A1464FF003083C
:107CC0002546274653E03046FFF72EFEC8B1424A0C
:107CD000126882B1414B05EB850103EB8100022262
:107CE00003F82120466002813D4B5D800135ADB235
:107CF00047F0010739E0384A166002219180814639
:107D0000F6E708F1FF381FFA88F8344A05EB8503D7
:107D100002EB83035E6005EB8503032102F8231069
:107D20000135ADB221E0B9F1000F0FD02B4B05EBBF
:107D3000850103EB8100022203F82120264909680E
:107D400041600281264B5D800135ADB2DFF888A02D
:107D5000514641F8046B00223046FFF739FEBAF86D
:107D60000430022B2DD008231F430134A4B2022C6F
:107D700029D81C4BDE6806EB04363046FFF7BAFD07
:107D80000128D0D003289ED00028EED1134905EB5E
:107D900085039A0001EB8303002088545E6005EBA5
:107DA00085029200103205EB85039B0008330A44DC
:107DB00019443046FFF70CFE47F002070135ADB21B
:107DC000D3E70423D0E7B8F1010F02D9F8B2BDE838
:107DD000F0870027FAE700BF602F0020982E0020D0
:107DE0007C2E0020D02B00200B4A138901331381F5
:107DF0000023538013730CE003EB83018A000749CF
:107E00008A5CB2FA82F25209034919448A72013338
:107E10009BB2012BF0D970477C2E0020982E0020B9
:107E200030B40546002301E001339BB2012B19D881
:107E30000E4A1A44927A002AF6D00C4A1A440021BB
:107E4000917203EB83020A4901EB8202D268002A95
:107E5000EAD103EB830401EB8404207C0028E3D007
:107E60002B8000E0002030BC704700BF7C2E00203B
:107E7000982E0020044B5B685B880333034A91888B
:107E800011FA83F3938070477C2E0020602F00202E
:107E900030B40C4805680C4B5B880C4903EB830439
:107EA000A2000A4454680460556084881481022248
:107EB000828003EB830303FA02F2114400230B7464
:107EC00030BC7047602F00207C2E0020982E0020B0
:107ED00008B5124B1B78072B0AD8DFE803F004091A
:107EE000090A1016161AFFF77FFF0C4B01221A70B1
:107EF00008BDFFF7BFFF094B02221A70F8E7FFF732
:107F0000C7FF064B06221A70F2E7044B07221A70CD
:107F1000EEE7024B01221A70EAE700BF7C2E002038
:107F200040F6F8731868B0F1FF3F07D04FF0805368
:107F30001A695B69B0F1FF3F03D07047024B1868C4
:107F4000F4E703FB02F0F8E71410001008B5FFF7A0
:107F5000E7FF034B1861A0F54050D86008BD00BF93
:107F6000D02B002008B50146014800F083FE08BD73
:107F70004C2F002008B5064B05221A700549022334
:107F80008B80002301220968034800F0BDFF08BD73
:107F90007C2E0020602F0020D02B002008B50D4B38
:107FA0005B8803EB83010C4A02EB8102D26872B951
:107FB000084A0421117003EB8303074901EB830195
:107FC000002301224968054800F09EFF08BDFFF725
:107FD000D1FFFBE77C2E0020982E0020D02B002024
:107FE00000B583B0002300930823044A04490968BC
:107FF000044800F049FF03B05DF804FBAC6D0300DA
:10800000602F0020D02B002008B5044B07221A70E7
:1080100000225A60FFF7E4FF08BD00BF7C2E00205D
:1080200000B583B00146002300930823034A0448A7
:1080300000F02AFF03B05DF804FB00BFA46D03004D
:10804000D02B0020F8B530B90B79032B5FD8DFE8CF
:1080500003F0081E3944314B00225A604FF40640A9
:1080600005E001230B71FFF7BBFF00284FD1F8BDDE
:108070000B4600EB800292000021995400EB800037
:1080800003EB80004068FFF7CBFF012310E00023E3
:10809000012B0AD8184603EB8302214911F822204C
:1080A000022AE5D001339BB2F2E7002348F20E60CA
:1080B000002BDAD1194B01221A7000225A6041F6C6
:1080C0001D50D4E700230B71164902228A80012239
:1080D0000968154800F018FFC7E700250D71114C1D
:1080E0002068FFF79DFF114B5B8826680C4903EB66
:1080F000830201EB8202576827605660A6881681CA
:108100000222A28003EB83039340CD54ADE7034BDF
:1081100000225A6048F20D60A9E700BF742E0020CB
:10812000982E0020602F0020D02B00207C2E0020D5
:1081300008B5064B06221A705B8803EB83039A008E
:10814000034B13445868FFF76BFF08BD7C2E0020DB
:10815000982E002000B583B002238375002300937E
:108160000423C218044800F08FFE10B903B05DF874
:1081700004FB48F20D60F9E7D02B002000B583B076
:10818000036973B10323837500230093042300F173
:108190000C020831054800F077FE20B903B05DF805
:1081A00004FB0123EFE748F20D60F7E7D02B002036
:1081B00000B583B001238375C388002200929B0021
:1081C00002690C31044800F05FFE10B903B05DF89D
:1081D00004FB48F20D60F9E7D02B002000B583B016
:1081E0000378032B0ED0062383750023009304230A
:1081F00000F108021944064800F046FE20B903B019
:108200005DF804FB0523EFE748F20D60F7E700BFD8
:10821000D02B002010B582B00C460023009304231D
:10822000084A0146084800F02FFE40B904EB8404D8
:10823000064901EB84040123237402B010BD48F207
:108240000D60FAE7A06D0300D02B0020982E0020CF
:1082500070B50C468B8A03EB83022D4E06EB82062B
:10826000A8B92B4A03EB830102EB8101496803EBB8
:10827000830302EB83031D8901EB8505A37D062B98
:108280000BD8DFE803F0162E22280D343E003046CE
:10829000FFF7D0FB4FF4064515E048F20E650EE0FF
:1082A0001C4800234360A36903601B49FFF73CFCA3
:1082B00050B329462046FFF74DFF05461DB1214624
:1082C0003046FFF7B7FB284670BD29462046FFF72A
:1082D00055FF0546F2E729462046FFF769FF0546A8
:1082E000ECE729462046FFF779FF0546E6E7062337
:1082F000A375094B1988074B5868FFF78BFF054694
:10830000DCE741F61D55DAE748F20965DBE700BF17
:10831000982E0020582E00206C2F002010B584B01D
:108320000446002301930293C36800930DF10E01EC
:108330006846FFF7F9FB18B948F2096004B010BDB0
:1083400001988388E38003882381BDF80E10FFF72E
:1083500061FFF3E730B583B009484268094B1968FB
:108360009C88538803339BB203250570002000903E
:108370009B0001EB8401044800F086FD03B030BD92
:108380007C2E0020602F0020D02B002008B5064B4B
:10839000191D5888FFF79AFB10B1FFF7DBFF08BDE6
:1083A000FFF7FCFDFBE700BF7C2E002008B5074867
:1083B000FFF736FD10B1FFF7E9FF08BD044B0022BF
:1083C0001A705A805A6041F61D50F6E77E2E002042
:1083D0007C2E002030BB08B5154B1B7B6BB1144BBA
:1083E00000221A73124B1B78013B062B1DD8DFE8C5
:1083F00003F0070A0D101C131600FFF769FDF1E7E3
:10840000FFF7D4FF08BDFFF7C1FFFBE7FFF7A2FFAF
:10841000F8E7FFF7C3FDF5E7FFF78AFEF2E7FFF79E
:10842000F3FDEFE74FF40640704748F20E60E9E7CE
:108430007C2E002010B584B00B4B01AA0021063021
:10844000FFF7ACFB40B9084B99880298FFF7E2FEB2
:108450000446204604B010BD04460822002102480C
:108460000BF059FEF5E700BF702F0020C8B908B522
:108470000B79012B0BD0022B16D013B148F20E60F2
:1084800008BD02230B710846FFF748FFF8E70846CE
:10849000FFF7D0FF48F209639842F1D141F61D5031
:1084A000EEE74FF40640704741F61D50E8E7000044
:1084B00008B50146014800F0E9FB08BD4C2F00203B
:1084C00008B5084B1B683BB10121064800F0A0FC31
:1084D000003818BF012008BD03494FF4247004F090
:1084E0007BFEF1E75C2F0020346D030010B586B0F1
:1084F00004462BE02E48FFF735FD2E4B186029E08F
:108500002D4940F29E5004F067FE27E02046FFF719
:1085100099FD002849D00023019303930493059308
:1085200041F61D5398423ED00290224C01A920688A
:10853000FFF760F901A8FFF74BF9002323601C48FF
:10854000FFF7B6FFFFF7BCFF78B30024194B1B6899
:10855000002BCFD0174B1B68002BD1D0154B1968BF
:108560000B78013B052B1BD801A252F823F000BF6A
:108570000D8502008985020089850200918502002F
:1085800091850200998502002046FFF761FEC0E751
:108590002046FFF76BFFBCE72046FFF71BFFB8E75D
:1085A00048F20E60B7E70020BEE706B010BD00BF7E
:1085B0008C2E0020942E0020346D030008B54068F6
:1085C000FFF794FF08BD000008B50121014800F045
:1085D00011FC08BD902E002008B5FFF7B7FC002263
:1085E0000249034800F043FC08BD00BFC06D030012
:1085F000D02B002008B51C238C220249024800F031
:1086000004FB08BDC02E00204C2F002010B50146F1
:10861000044800F018FB04461C2200210BF07BFDEF
:10862000204610BD4C2F002008B50146014800F03F
:1086300016FB08BD4C2F002008B50121034800F0AF
:10864000CBFB00B108BDFFF751FFFBE75C2F00201B
:108650002DE9F04383B00C463849097800295DD0F4
:1086600005469846002C5CD021884FF6FF7399424E
:108670005AD06388002B5AD0676817F0030759D186
:10868000002A33D01388ADF80630B2F8029068465D
:10869000FFF7BCFF0646002833D080F80080002397
:1086A0008375BDF80630838263680361FFF78CFF32
:1086B000F060238833816388B380A6F80690B8F110
:1086C000030F26D0002373816846FFF7ADFF3DB14D
:1086D00000236B60F2682A60AB72194B1B892B81F7
:1086E000FFF7AAFF384603B0BDE8F083B4F808905E
:1086F0000DF106014846FFF7ABF90028C7D0074641
:10870000F0E7BDF806104846FFF7D0F948F20767D2
:10871000E8E70423B3752B68B361D3E748F2016738
:10872000E0E748F20467DDE748F20367DAE748F27A
:108730000367D7E748F20267D4E700BF742E002032
:108740007C2E0020094A1268042A0BD008B5034683
:1087500006480168064A42F82130012100F04AFB30
:10876000002008BD48F20B60704700BF682F002052
:10877000642E002030B587B0002301930293039349
:1087800004930593294B1B782BB9294800F04EFB25
:1087900040B1002403E001A8FFF71AF800242046A6
:1087A00007B030BDFFF718FF04460028F7D1FFF7E8
:1087B00021FFFFF77FFA054602282DD0062811D0A9
:1087C00068B36846FFF722FF60B301220270013DE3
:1087D0000A2D12D8DFE805F00F110F111D111D1120
:1087E000171A1700114B01221A7000225A6001A8B3
:1087F000FEF7EEFFD3E7002202716846FFF714FF91
:10880000FFF71AFFCBE703220271F6E7022202719B
:10881000F3E701220271F0E748F20A64BFE748F289
:108820000A64BCE748F20764B9E700BF742E002071
:10883000782E002010B370B582B00C46054601B307
:108840000DF10601FFF770F918B948F2096002B09E
:1088500070BD6E68BDF8063003EB83008000083001
:10886000094B18440121043000F0C4FA26606B68FB
:108870000C3363600123AB720020E8E748F2046028
:10888000704748F20460E2E7982E0020F8B110B576
:1088900082B004460DF10601FFF746F9D0B1BDF8EC
:1088A000063003EB8301104A02EB8102D268AAB1C1
:1088B000A27AB2B10C4A02EB8101C968013903EB1B
:1088C000830302EB8303D9600020A07204E048F226
:1088D0000460704748F2096002B010BD48F20560BC
:1088E000FAE748F20560F7E7982E002008B5022362
:1088F0000022FFF7ADFE08BD28B110B5032300220A
:10890000FFF7A6FE10BD48F204607047114B1B78BC
:10891000BBB110B582B004464FF6FF73984213D036
:1089200001A8FFF773FE90B10522027001220271C7
:10893000C48001A8FFF778FEFFF77EFE002002B09A
:1089400010BD48F20160704748F20360F7E748F253
:108950000760F4E7742E00200F4B1B78B3B100B50D
:1089600083B001A8FFF752FE98B10622027001A859
:10897000FFF75AFE094B1B7813B1084B01221A73FB
:10898000FFF75AFE002003B05DF804FB48F20160D7
:10899000704748F20760F6E7742E00207C2E002016
:1089A00000B583B0ADF80600ADF8041001A90DF1D3
:1089B0000600FFF7F3F803B05DF804FB00B583B0E1
:1089C0001346ADF806000A460DF106010020FFF738
:1089D000E5F803B05DF804FB00B583B01346ADF8CD
:1089E00006000A4600210DF10600FFF7D7F803B094
:1089F0005DF804FB20B131B103680B6000207047C3
:108A000048F20460704748F2046070472B4B1B78B3
:108A1000002B4CD0F0B583B0044600284AD0122277
:108A200000210BF078FB0323238000260FE023882E
:108A3000013B23801CE004F11003009304F10E03BA
:108A4000A21D211D3046FFF7F1F80136B6B2012E06
:108A50002AD8374606EB8603194A02EB83031D89A1
:108A60005A891544ADB25868FEF744FF0328DED09A
:108A7000134B07EB870203EB8202D26861880A443A
:108A8000628007EB870703EB87077B892289134402
:108A9000238163892B446381C5F58065ADB2A389C9
:108AA000AB42C8D2A581C6E7002003B0F0BD48F2B2
:108AB0000160704748F20460F7E700BF742E0020A1
:108AC000982E0020BFF34F8F0549CA6802F4E06278
:108AD000044B1343CB60BFF34F8F00BFFDE700BFD4
:108AE00000ED00E00400FA0508B5084B9A6ADB6A5D
:108AF000002300E00133192BFCD9054B1B6813F050
:108B0000010F00D000BEFFF7DDFF08BD00ED00E063
:108B1000F0ED00E010B483B050E8013F9CB2C28990
:108B200014448289944228BFA41A0289944202BF45
:108B3000BFF32F8F002007E0C4EA030440E801429E
:108B4000002AE9D14FF001008DF807000093009B47
:108B50000B609DF8070003B05DF8044B704750E8C8
:108B6000012FC2EA024240E80123002BF7D17047EF
:108B700010B483B050E8023F1FFAA3F4C2889442B5
:108B800002BFBFF32F8F00200DE0C28914448289F9
:108B9000944228BFA41AC3EA044440E80242002ACF
:108BA000E8D14FF001008DF807000093009B0B60A7
:108BB0009DF8070003B05DF8044B704750E8022FA2
:108BC000C2EA224240E80223002BF7D1704782B06C
:108BD00050E8022FC188B2EB324F4FF0000317BFAD
:108BE00092B241EA014142EA014104E04268B2EB3B
:108BF000324F08BF012340E80212002AE8D18DF865
:108C000007309DF8070002B0704781B110B40C46E0
:108C1000B2FBF3F103FB112189B251B90460416049
:108C200081608281C38108465DF8044B70470E2045
:108C300070470920F8E708B5FFF7C9FF08B1002021
:108C400008BD1120FCE738B505460C46FFF762FF6A
:108C500018B128682388184438BD0020FCE708B5FF
:108C60000A884B889A4201D0002008BDFFF777FFA1
:108C70000120FAE738B505460C46FFF779FF18B131
:108C800028686388184438BD0020FCE708B50A88C6
:108C90004B889A4201D0002008BDFFF78FFF0120CA
:108CA000FAE708B54B0901F01F01012202FA01F1B0
:108CB00000EB830000F074F808BD10B54B0901F01B
:108CC0001F040121A14000EB830000F05BF8E040AD
:108CD00000F0010010BD08B54A0901F01F01012391
:108CE00003FA01F1C94300EB820000F067F808BD08
:108CF0004B0950F8230001F01F01C84000F00100AB
:108D000070472DE9F04106460F46002518E0202364
:108D100001E0B3FA83F31F2B11D803EB4514A742EC
:108D20000DD921463046FFF7C8FFD8B1D8F800303A
:108D3000DB4393FAA3F3002BEBD12023EBE70135C0
:108D40007B1E5B090133AB420BD906EB850856F855
:108D50002530DB4393FAA3F3002BD8D0B3FA83F387
:108D6000D9E73C462046BDE8F08110B4034653E8FD
:108D7000000F0A4643E8002494F0000FF7D15DF895
:108D8000044B704710B4034653E8000F40EA010259
:108D900043E8002494F0000FF6D15DF8044B7047CF
:108DA00010B4034653E8002F42EA010043E80004F0
:108DB00094F0000FF6D15DF8044B704710B40346F1
:108DC00053E8002F02EA010043E8000494F0000F8A
:108DD000F6D15DF8044B704710B4034653E8000F1A
:108DE00000EB010243E8002494F0000FF6D15DF897
:108DF000044B704710B4034653E8002F02EB010008
:108E000043E8000494F0000FF6D15DF8044B70477E
:108E100010B4034653E8002FA2EB010043E800041E
:108E200094F0000FF6D15DF8044B704708B50121AE
:108E3000FFF7A8FF08BDC3688B4206D8114401396B
:108E40000369994203D90020704700207047012030
:108E5000704710F0030F0CBF0120002070474368DB
:108E60001B68013B0B420CBF01200020704738B14A
:108E700008B50B4611462BB103601B68984708BD27
:108E80000E2070470E20FAE770B32DE9F04182B052
:108E90000F4616461C46054642B3D0F80080B8F18E
:108EA000000F25D033B343685A68B4FBF2F302FBDA
:108EB00013430BBB0846FFF7CCFFF8B13046FFF772
:108EC000C8FFE8B1224639462846FFF7B4FFC8B1CB
:108ED000D8F80C80089B0093234632463946284632
:108EE000C04702B0BDE8F0810E2070470E20F8E7C1
:108EF0000820F6E70920F4E70920F2E71020F0E760
:108F00001020EEE71020ECE7E0B12DE9F0418846B3
:108F100014461F4605460668B6B1BAB1FFF79FFF73
:108F2000B0B16B681A6804FB02F241462846FFF7AD
:108F300082FF78B136693B46224641462846B04713
:108F4000BDE8F0810E2070470820F9E70920F7E717
:108F50001020F5E71020F3E729DF704728DF70477E
:108F600003689B683BB300B587B00023009302936E
:108F700003930493019183680593037943B1012B13
:108F800010D003689B686846984707B05DF804FBFB
:108F900001238DF8003003690293C368039343698A
:108FA0000493EEE702238DF80030C3681B0302939D
:108FB00043690493E5E7704710B542698369D21AA3
:108FC000B2F5805F28BF4FF4805292080469C168EF
:108FD000012A38BF012219441819FFF7BDFF10BD3F
:108FE00008B5C26800691044FFF7B8FF08BD00006B
:108FF000114B0022DA6003791BB1012B0FD0104610
:10900000704742698369D11AB1F5805F94BF5B18DC
:1090100003F5805383619A4209D0002070470369A9
:10902000013303614269934203D00020704701205D
:1090300070470120704700BF14300020064AD368F3
:109040000133D360082B01D800207047134600225B
:10905000DA600120704700BF1430002008467047D6
:1090600000207047024B187A003818BF0120704763
:1090700014300020034B01225A74187AB0FA80F0A1
:10908000400970471430002008B502490248FFF734
:10909000FDFD08BD283000200430002008B505493A
:1090A0000548FFF7E7FD054B1860003818BF0120A1
:1090B00008BD00BF28300020043000202C300020E4
:1090C00008B51A4B1B7AA3B1184B02221A72184B1F
:1090D00018680379ABB1012B1CD00321144B18681D
:1090E000FFF73EFF114B00221A725A60FFF7CCFFC8
:1090F00008BDFFF7D3FF0028E6D10C4B00225A60D1
:10910000F6E7FFF759FF40B11128E6D1074B0122DE
:109110001A72EDE7FFF764FFF5E7044B1B7C002BA9
:10912000E6D10021022000F005F8E1E7143000202C
:109130002C300020831E012B2DD810B50446164B71
:109140001B7A53B1022B03D1022807D0032818D071
:10915000114B5B7CE3B9FFF7B3FF10BD0F4B1868F1
:10916000FFF746FF0028F3D00B4B00221A720B4B7F
:109170001868022C0AD00D21FFF7F2FEFFF784FFDA
:10918000E6E7064B1868FFF759FFEBE71146F3E7F0
:109190000AF02CFDE1E77047143000202C3000204D
:1091A000012802D0032800D0704708B5054B0022E3
:1091B0005A74012814BF002001201874FFF780FFA3
:1091C00008BD00BF1430002008B50548FFF72EFE8B
:1091D00010B9044B5B7C03B108BDFFF771FFFBE7DF
:1091E00018300020143000202DE9F04182B00746ED
:1091F000884616461D4601A90E48FFF724FDB0B16A
:1092000004461C2200210AF086FF012323712760F7
:10921000A5604FEA1831E160666101A90548FFF7D2
:109220001EFDFFF7D1FF002002B0BDE8F081042051
:10923000FAE700BF043000202DE9F04383B08046F8
:109240000F4691461E4601A90F48FFF7FCFCC0B12E
:1092500004461C2200210AF05EFF00252571C4F897
:1092600000800A9BA3602761C4F80C90666101A985
:109270000548FFF7F4FCFFF7A7FF284603B0BDE859
:10928000F0830420FAE700BF0430002008B5104640
:109290001A460AF017FF002008BD000008B5142286
:1092A000002104480AF037FF0348FFF7C4FC002000
:1092B00008BD00BF143000200430002008B5094B61
:1092C00043600948FFF7B2FD08B1002008BD0AF06D
:1092D000A1FC054B18741C238C2204490448FFF799
:1092E00094FCF2E7B46D030014300020782F0020C6
:1092F0000430002041DF704710B50024054B1C707E
:10930000054B1C60BFF35F8F0449054800F08AF9E4
:10931000204610BD383000203C3000205C6E030039
:109320003030002010B582B000238DF807300DF1E9
:109330000700FEF7F5F9F1EE104A24F09F03E1EE85
:10934000103ABFF35F8F124B4022C3F884219DF87F
:109350000700FEF719FA14F0070F07D10AF05AFCBC
:1093600048B920BF40BF20BF02B010BD09497D20D1
:1093700003F032FFF2E7FFF7BDFF0028F4D0022828
:10938000F2D004494FF4B07003F026FFECE700BFC1
:1093900000E100E0E06D030002681368526839B133
:1093A000934203D880680130801A7047981A70473A
:1093B000934201D8D01A704780680130C01A7047B4
:1093C0002DE9F04104468846154603681F680021D0
:1093D000FFF7E2FF6168E26807FB0211A8420DD3C4
:1093E00005FB02F240460AF06DFE3D44A3689D4233
:1093F00000D9002523681D60BDE8F081064600FB0A
:1094000002F73A4640460AF05DFEAD1BE26805FBF6
:1094100002F2616808EB07000AF054FE23681D6041
:10942000EAE7000070B5054660B12B681E685C680D
:109430006DB1AB689C420FD2601C864214BF002005
:10944000012070BD0549982003F0C6FEEDE70349F1
:10945000832003F0C1FEECE70020EEE7686E030016
:109460002DE9F04383B00D46044600282FD0002D8F
:1094700032D000238DF807300DF10700FEF750F9C8
:109480002046FFF7CFFF814610B1237C002B6BD124
:109490002768D7F804807E681CB3A3689E4225D253
:1094A00001367E60B9F1000F07D027683E68FCB135
:1094B000A3689E4221D201363E60E268531E072B0C
:1094C00046D8DFE803F01C3345384545453D28497B
:1094D000A32003F081FECAE72549A42003F07CFE07
:1094E000C7E72349832003F077FED6E70026D8E7B5
:1094F0001F49832003F070FEDAE70026DCE763688B
:109500002A7803F80820226811685368994226D8FF
:109510005B1A9168994229D2936000249DF8070054
:10952000FEF732F9204603B0BDE8F08363682A886D
:1095300023F81820E7E763682A6843F82820E2E761
:10954000636803EBC803D5E90001C3E90001DAE76A
:109550006068294608FB02000AF0B4FDD3E7A06862
:109560000130411A0B44D4E70424D7E70024D5E79F
:10957000686E030070B582B00D461446064620B1F1
:109580004DB174B9204602B070BD16494FF4EC706D
:1095900003F022FEF4E7134940F2D91003F01CFE59
:1095A000EFE700238DF807300DF10700FEF7B8F85C
:1095B000336819685B68994208D85B1A9C420AD9DB
:1095C00005249DF80700FEF7DFF8DBE7B2680132FB
:1095D000521A1344F2E7224629463046FFF7F0FEBE
:1095E0000024EEE7686E030030B583B0054688B10D
:1095F00000248DF807400DF10700FEF791F80C22CA
:10960000214628680AF087FD9DF80700FEF7BCF8A0
:1096100003B030BD02494FF4047003F0DDFDE7E70D
:10962000686E030038B50C46054638B15CB12C6055
:1096300023686B60626893420AD038BD06495020A7
:1096400003F0CAFDF2E70449512003F0C5FDEEE73F
:1096500000236B60F1E700BFDC6E030010B5044629
:1096600058B1236873B1636833B1226891680B44C1
:109670006360526893420AD010BD0649632003F02C
:10968000ABFDEEE70349642003F0A6FDEBE7002302
:109690006360F1E7DC6E0300026813461BB18B4286
:1096A00003D01B68FAE70A60016070470346006850
:1096B00008B102681A60704708B50AF0ABFA20B921
:1096C000074BD3F800342BB108BD06497B2003F0CB
:1096D00083FDF5E700F0CEFA034B00229A70F3E722
:1096E000000001406C6F03004030002000B1704763
:1096F00008B5064B01225A700548FFF7D7FF18B18D
:10970000436800209847F7E708BD00BF40300020BD
:109710004830002010B5044610B1012C0CD010BD0B
:109720000C4B01225A700C48FFF7C0FF0028F4D000
:10973000436800209847F6E7064B01229A7002E042
:109740004368012098470548FFF7B0FF0028F7D18C
:10975000E5E700BF403000204830002050300020B6
:1097600010B5104B1B784BB185240F4BD3F8003448
:1097700013B10C4B01229A70204610BD094B0022F8
:109780009A605A601A61DA60084800F013FA0446D9
:109790000AF040FA18B1034B01221A70E5E700F015
:1097A00021FAF8E740300020000001401597020040
:1097B00010B582B00446224B1B78D3B1204B9B7866
:1097C000E3B114B163680120984700238DF8073096
:1097D0000DF10700FDF7A4FF194AD3680133D360E8
:1097E0009DF80700FDF7D0FF154BDB680BB302B007
:1097F00010BD1449F62003F0EFFCDFE700238DF8DD
:1098000007300DF10700FDF78BFF1CB121460E4814
:10981000FFF742FF0A4BDB6843B1094AD3680133C3
:10982000D3609DF80700FDF7AFFFDDE700F0FCF91E
:10983000F3E704494FF4897003F0CEFCD7E700BF8B
:10984000403000206C6F03005030002000B583B022
:10985000144B1B78B3B1134BDB68CBB100238DF8ED
:1098600007300DF10700FDF75BFF0E4BDA68013A98
:10987000DA60DB6893B19DF80700FDF785FF03B060
:109880005DF804FB084940F2171003F0A5FCE2E77D
:1098900005494FF48C7003F09FFCDFE7FFF70CFFE6
:1098A000E9E700BF403000206C6F030000B583B0D3
:1098B00001280ED0032824D010B103B05DF804FBBA
:1098C000174B0122C3F88020BFF34F8FBFF36F8F78
:1098D000F3E700238DF807300DF10700FDF720FFB7
:1098E000104B1B7853B10F4BDA680132DA6001225A
:1098F0009A709DF80700FDF747FFDEE7FFF730FF9E
:10990000F1E7084B1B7823B100F06CF9FFF79EFFDD
:10991000D3E7054940F2522003F05EFCF4E700BFB4
:1099200000E100E0403000206C6F030031DF704741
:1099300010B584B08DF8070000238DF80F300DF1BD
:109940000F00FDF7EDFE0AF065F928B19DF80F0054
:10995000FDF71AFF04B010BD064C0DF107012046BB
:10996000FFF77EFD2046FFF75DFD0028EED000F0FA
:10997000E3FDEBE7706B030000B583B020B1032873
:109980000BD003B05DF804FB134B1B78012BF8D10F
:1099900000F0D2FD00F0E8FDF3E700238DF807307A
:1099A0000DF10700FDF7BCFE0B4B1B78012B04D01B
:1099B0009DF80700FDF7E8FEE3E70849084800F0D6
:1099C00047FD10B900F096FDF2E7064940F2071096
:1099D00003F002FCF6E700BFA4300020319902003A
:1099E000A5300020E46F030010B582B0144B1B7843
:1099F00023BBB0B10288124BA3F8012000238DF8DD
:109A000007300DF10700FDF78BFE0AF003F950B99E
:109A10000C490D4800F01CFD044660B900F06AFDD9
:109A200002E00A48E6E70024054B01221A709DF87F
:109A30000700FDF7A9FE204602B010BD8524FAE715
:109A4000A430002031990200A53000205870030096
:109A500000B583B0124B1B78012B16D100238DF873
:109A600007300DF10700FDF75BFE0AF0D3F888B16F
:109A70009DF80700FDF788FE0A48FFF7B5FD084B83
:109A800000221A7003B05DF804FB0749902003F030
:109A9000A3FBE3E700F050FD00F066FDE8E700BF40
:109AA000A4300020706B0300E46F0300F0B583B0B6
:109AB00006460F461E4B1B78012B01D100240FE0F8
:109AC0001C49B72003F088FBF8E73A4631461A48AC
:109AD000FFF750FD044600F00DFD0DE0022C1BD1F8
:109AE00000238DF807300DF10700FDF719FE0AF08D
:109AF00091F805460028E8D09DF80700FDF744FEE0
:109B0000002DEBD039463046FFF710FF044642F2F5
:109B100007039842E2D105240CB1052C02D120465E
:109B200003B0F0BD0349D12003F056FBF7E700BFB7
:109B3000A4300020E46F0300706B030070B505468D
:109B40000E460C4B1B78012B10D00B49E02003F084
:109B500043FB0BE03446402E28BF4024E1B22846A8
:109B6000FFF7A4FF0028F9D1361B2544002EF1D1C0
:109B700070BD00BFA4300020E46F03000B4BD96818
:109B800041F08072DA600A4B186840F001021A60F6
:109B90005A68074B5B689B1AB3F50A5FF9D3044B0D
:109BA000186003F55D43F033D9607047F0ED00E0D5
:109BB000001000E010B5044648B1084B1B795BB9B2
:109BC000064B1C6001221A710020587110BD044917
:109BD000A42003F001FBF0E78520F7E7A830002080
:109BE0005C70030008B50D4B1B7953B10C4B1B681F
:109BF00013F0010F0AD04FF080430122C3F818255B
:109C000008BD0849BD2003F0E7FAEFE7044BC02286
:109C100083F8002301221A60EDE700BFA83000207E
:109C200000E100E05C70030000B583B00D4B1B79D0
:109C300093B10D4B00221A601B680193019B4FF0FA
:109C400080430222C3F80423FFF798FF074B012249
:109C50001A6003B05DF804FB0549EA2003F0BCFA82
:109C6000E7E700BFA83000200401004008000040E2
:109C70005C70030000B583B0104B1B79C3B14FF08B
:109C800080430222C3F8082303F5827300221A607E
:109C90001B680193019B0A4B01221A604FF080431D
:109CA000D3F8183413F4803FF8D103B05DF804FB07
:109CB0000449F72003F090FAE1E700BFA830002044
:109CC0000C0000405C70030000B583B0154B1B68AE
:109CD00093B1144B00221A601B680093009B4FF055
:109CE00080430122C3F808230F4B5B7923B90E4B45
:109CF0005A711B68002098470C4B1B6873B10B4BC3
:109D000000221A601B680193019B4FF080430222DE
:109D1000C3F80823044B1B680120984703B05DF883
:109D200004FB00BF00010040A830002004010040F7
:109D3000034B034493F9500000F03F00704700BF0D
:109D4000B0300020034B034493F95000C0F381105E
:109D5000704700BFB030002070B40646154662B1AF
:109D6000002365B10824A34218D20E4A52F82320DA
:109D7000B2F1FF3F05D00133F5E70823F1E70C24EA
:109D8000F1E758B2074A941984F8300042F82310DA
:109D900035B9083B134483F8506001E04FF0FF30C1
:109DA00070BC7047B0300020064B4FF0FF3243F8D4
:109DB0002020072804D908381844FF2380F85030A1
:109DC000704700BFB030002010B4044600234BB9E8
:109DD0004FF0A042D2F8201544F8041BC2F8201519
:109DE0000133F4E700231BB100205DF8044B7047FA
:109DF00050F823200AB90133F5E70120F5E7000008
:109E00002DE9F843064691E04FF0FF333DE0494924
:109E10004FF4F67003F0E0F93DE04FF0030946E03F
:109E20004FF0FF3346E043494FF4F67003F0D4F9A6
:109E300046E04FF0FF3356E03E494FF4F67003F032
:109E4000CBF956E0B8F1010F66D14146204698475C
:109E50000135032D66D8384B2B4493F95030B3F1BC
:109E6000FF3FF5D02846FFF763FF0446C20800F025
:109E7000070101238B40B25C1342E9D02846FFF76B
:109E800061FF80466309BFD0002304F01F02D34066
:109E900013F0010FBBD004F5E0734FF0A04252F86D
:109EA0002370C7F30147022FB7D04FF002096309AF
:109EB000B6D0002304F01F02D34013F0010FB2D03C
:109EC0004FF0A04304F5E07253F8221021F4403122
:109ED00043F8221053F8221041EA094143F82210B6
:109EE0006309A6D0002304F01F02D34013F0010F32
:109EF000A2D00123A3404FF0A042C2F820350E4B60
:109F00001A1992F9302053F82230002BA0D0B8F162
:109F1000030F9AD0022F95D0032F99D1B8F1020FD9
:109F200096D192E73046FFF74FFF08B1002590E742
:109F3000BDE8F883D06B0300B030002010B582B0CC
:109F4000224B93F85840002C3DD1234604E04FF0BB
:109F5000FF3207E00133DBB21F2B0FD818465A0936
:109F6000F5D0002203F01F01CA4012F0010FF1D01A
:109F7000164A0244FF2182F83010EBE70B2C05D87B
:109F80002046FFF711FF0134E4B2F7E70F4C04223B
:109F9000002104F154000AF0BEF80D4BC02283F8F2
:109FA000062340221A600B4B002018601B680193A7
:109FB000019B094B4FF00042C3F80423012384F8AE
:109FC000583002B010BD0820FBE700BFB0300020C1
:109FD00000E100E07C61004000600040034B93F82A
:109FE0005800003818BF0120704700BFB030002073
:109FF000F8B504460D46164643090ED0002304F07A
:10A000001F02D34013F0010F0AD0484B234493F9A9
:10A010003030002B0ADB0820F8BD4FF0FF33EEE7AD
:10A0200043494FF40C7003F0D7F8EEE7AA78C2F377
:10A03000400231462046FFF78FFE0646B0F1FF3F53
:10A0400071D0AB7813F0040F1FD113F0010F43D080
:10A05000630938D0002304F01F02D34013F0010F2E
:10A0600034D04FF0A04204F5E07152F8213023F0D3
:10A07000020342F82130E30804F007012D480122D1
:10A0800002FA01F1C25C0A43C254AB7813F0020F2A
:10A090003DD02B78284906F5A27651F8262022F4E7
:10A0A000473222F4407241F8262051F8262024023B
:10A0B00004F4F8541B0403F440331C43144341F8E4
:10A0C00026400020A8E74FF0FF33C4E71B494FF4B8
:10A0D000F67003F081F8C4E76F7863090ED00023AF
:10A0E00004F01F02D34013F0010F0AD0BF0004F5A3
:10A0F000E0734FF0A04242F82370BCE74FF0FF330B
:10A10000EEE70E494FF4F67003F066F8EEE7083E0E
:10A110002A78064B1E4496F8503043EA821386F89C
:10A120005030002078E7042076E700BFB0300020F0
:10A13000D07003000431002000600040D06B0300A9
:10A1400070B582B004460D46430936D0002304F0B2
:10A150001F02D34013F0010F32D0484B234493F930
:10A160003030002B32DB454B234493F93000072875
:10A1700059DD0838FFF7E6FD054603282CD00128F5
:10A1800046D00325630945D0002304F01F02D340C5
:10A1900013F0010F41D04FF0A04304F5E07453F8E1
:10A1A000242022F4403243F8242053F8240040EACB
:10A1B000054543F8245002B070BD4FF0FF33C6E7A9
:10A1C0002F494FF4187003F007F8C6E72C4940F206
:10A1D000612003F001F8C6E7630910D0002304F002
:10A1E0001F02D34013F0010F0CD04FF0A043D3F85F
:10A1F0001035E34013F0010FC4D10225C2E74FF040
:10A20000FF33ECE71F494FF4F67002F0E5FFECE78F
:10A210000225B7E74FF0FF33B7E71A494FF4F6705E
:10A2200002F0DAFFB7E7C3B2072BC4D800F140034E
:10A230009BB29B009BB2144900F5A27651F82620F0
:10A2400042F0010241F8262003F1804303F5C043A8
:10A2500000221A601B680193019B002DABD0074BB5
:10A260001C4494F9302053F82230002BA3D0012352
:10A2700003FA00F0C1F804039DE700BFB0300020EE
:10A28000D0700300D06B03000060004010B504469E
:10A29000430917D0002304F01F02D34013F0010F2D
:10A2A00013D0630917D0002304F01F02D34013F02A
:10A2B000010F13D04FF0A043D3F81005E04000F099
:10A2C000010010BD4FF0FF33E5E7074940F2AF2032
:10A2D00002F082FFE5E74FF0FF33E5E703494FF473
:10A2E000F67002F079FFE5E7D0700300D06B030051
:10A2F00070B584B00025039501204FF48073294682
:10A3000003E0400004339BB20131072912D803F166
:10A31000804202F5C0421468012CF2D1254CD4F8D9
:10A3200004432042EDD00024146012680192019A87
:10A330000543E6E7204B1B68012B06D015F0FF0F05
:10A3400031D1002D32DB04B070BD1B4A00231360F5
:10A3500012680292029A45F0004503A808E04FF007
:10A36000A042D2F8201540F8041BC2F82015013392
:10A37000002BF4D0E2E776000134072CE1D8354217
:10A38000F9D00C4B04F5A27253F82200C0F304205C
:10A3900053F82210C1F30141084B53F82430002B2D
:10A3A000E9D09847E7E701260024E6E703A8FFF78E
:10A3B00027FDC8E7006000407C610040B03000200D
:10A3C000034B984201D1034870470020704700BFFB
:10A3D000002000400C31002008B5064B1B681BB163
:10A3E000044B1B68984708BD0349512002F0F4FE56
:10A3F000F6E700BF0C3100204471030070B582B055
:10A400000C460546B8B12846FFF7DAFF0546B8B155
:10A4100000238DF807300DF10700FDF781F92E7943
:10A4200016B92C6001232B719DF80700FDF7ACF9DC
:10A430004EB9002005E00549772002F0CDFEE2E7A5
:10A44000002002B070BD1120FBE700BF4471030083
:10A4500038B50C46054600282FD0002C32D01F4BB3
:10A460001B78002B38D11E4B1C602B7813F0010F8A
:10A4700006D01C4AD2F8043543F00103C2F8043573
:10A48000184AD2F8003223F00103C2F800326C7887
:10A49000A31EDBB2012B03D9631FDBB2022B16D83C
:10A4A0006401E4B2104B83F80D434FF400521A607C
:10A4B0000A4B01221A70002038BD0C493E2002F0E0
:10A4C0008BFECAE709493F2002F086FEC7E708492C
:10A4D0006B2002F081FEE3E78520EDE718310020D4
:10A4E0001431002000D0004000E100E0BC71030006
:10A4F0003072030000B583B00B4B1B78012B0DD1DC
:10A500000A4B00221A601B680193019B084B012231
:10A51000C3F804231A6003B05DF804FB0549562014
:10A5200002F05AFEECE700BF1831002000D10040D5
:10A5300000D00040BC71030008B5084B1B78012B0C
:10A5400006D10123064AC2F808330432136008BD5D
:10A5500004495E2002F040FEF3E700BF18310020FE
:10A5600000D00040BC71030008B50E4B1B78012BD6
:10A5700012D101230C4AC2F80833043213600B4B8A
:10A580004FF40052C3F88020BFF34F8FBFF36F8F9B
:10A59000044B00221A7008BD0549652002F01CFE1C
:10A5A000E7E700BF1831002000D0004000E100E0E4
:10A5B000BC71030000B583B0074B00221A601B6812
:10A5C0000193019B054BD3F80805054B1B68C0B2EE
:10A5D000984703B05DF804FB00D1004000D0004074
:10A5E0001431002038B50446C57FFF2D11D0837F7C
:10A5F0000BB36B0916D0002305F01F02D34013F0F4
:10A60000010F12D0012303FA05F54FF0A043C3F860
:10A610000C55002363772372204650F8083B61688D
:10A62000984738BD4FF0FF33E6E710494FF4F67016
:10A6300002F0D2FDE6E76B090ED0002305F01F0201
:10A64000D34013F0010F0AD0012303FA05F54FF0B0
:10A65000A043C3F80855DCE74FF0FF33EEE70349AA
:10A660004FF4F67002F0B8FDEEE700BFD06B0300C8
:10A67000D0F81831B3B110B582B00C460023C0F841
:10A680001831D0F818310193019B0B6823B1204693
:10A69000FFF7A8FF02B010BD034940F2972002F077
:10A6A0009BFDF4E7704700BF6072030008B50249E4
:10A6B0000248FFF7DDFF08BD1C31002000300040DC
:10A6C00030B583B00446106820B100F06045B5F1A4
:10A6D000005F33D1956825B105F06045B5F1005FA5
:10A6E0002CD15568C4F84405C4F848559068D26820
:10A6F000C4F83405C4F838250022C4F81821D4F869
:10A7000018210192019A13F0010F1CD00122C4F804
:10A71000502513F0020F1AD00122C4F8402513F07F
:10A72000080F01D1012222610A68A2B113F00400CE
:10A7300050D04023C4F80833002002E000234B77B8
:10A74000102003B030BD0022C4F85025E1E70022FC
:10A75000C4F84025E3E7D4F81831002BFBD0CC7FB8
:10A76000FF2C3BD08B7FD3B163090FD0002304F0C3
:10A770001F02D34013F0010F0BD0012303FA04F49E
:10A780004FF0A043C3F80C450020DAE74FF0FF3349
:10A79000EDE713494FF4F67002F01EFDEDE7630993
:10A7A0000FD0002304F01F02D34013F0010F0BD091
:10A7B000012303FA04F44FF0A043C3F80845002036
:10A7C000BFE74FF0FF33EDE705494FF4F67002F0B5
:10A7D00003FDEDE74023C4F80433B2E70020B0E7FF
:10A7E000D06B03002DE9F84F0646914698460D467A
:10A7F000002900F0F580347904EBC403D54901EB5E
:10A8000083010B7F002B40F0BE813768D249384668
:10A81000FFF7F4FD8246002840F0B881CD4B04EBF1
:10A82000C40203EB820143F82290C1F804802B7B21
:10A83000012B40F2DA8095F800805FEA581300F0AF
:10A84000F180034608F01F02D34013F0010F00F01F
:10A85000EC80012303FA08F34FF0A042C2F8083558
:10A8600095F800805FEA581300F0E580534608F041
:10A870001F02D34013F0010F00F0E08008F5E078EC
:10A880004FF0A043012243F8282095F80180B8F149
:10A89000FF0F40F0D9804FF0FF3995F80280B8F1F2
:10A8A000FF0F40F007814FF0FF3BA97804EBC40392
:10A8B000A84A02EB830383F8201095F8038083F8FD
:10A8C0001F80B8F1FF0F32D02B79002B00F01781D9
:10A8D0005FEA581300F00A81534608F01F02D34084
:10A8E00013F0010F00F00581012303FA08F34FF084
:10A8F000A042C2F80C3595F803805FEA581300F0C7
:10A900001981534608F01F02D34013F0010F00F0E5
:10A91000148108F5E0734FF0A042032142F82310A0
:10A92000297904EBC4038B4A02EB830399772B78D4
:10A93000C7F80835C7F80C95C7F810B5AB68C7F865
:10A9400024352A7B6B7B003B18BF0123022A00F0D1
:10A95000FD80032A00F00881012A00F0F480C7F886
:10A960005435AB79C7F8C0350723C7F8003504EB79
:10A97000C403784A52F8233033B3376847F30737B4
:10A980006D79AB1EDBB2012B04D96B1FDBB2022B3E
:10A9900000F2ED80002FC0F2EF806D01EDB207F103
:10A9A000604707F5614787F8005333681A0B43F394
:10A9B0000733002B08DB02F01F025B09012101FABB
:10A9C00002F2664941F82320624B04EBC40203EB18
:10A9D000820200215177012313775046BDE8F88F9A
:10A9E0005F49AD2002F0F8FB05E795F800805FEACB
:10A9F00058130ED0034608F01F02D34013F0010F86
:10AA00000AD0012303FA08F34FF0A042C2F80C3534
:10AA100026E74FF0FF33EEE752494FF4F67002F0AD
:10AA2000DBFBEEE74FF0FF330CE74E494FF4F670D7
:10AA300002F0D2FB0DE74FF0FF3318E749494FF41E
:10AA4000F67002F0C9FB19E7C1465FEA58131FD040
:10AA5000534608F01F02D34013F0010F1BD001230F
:10AA600003FA08F34FF0A042C2F80C355FEA58131E
:10AA700017D0534608F01F02D34013F0010F13D034
:10AA800008F5E0784FF0A043032243F8282004E7BC
:10AA90004FF0FF33DDE733494FF4F67002F09CFBD3
:10AAA000DDE74FF0FF33E5E72E494FF4F67002F093
:10AAB00093FBE5E7C3465FEA58130ED0534608F010
:10AAC0001F02D34013F0010F0AD008F5E0784FF0D1
:10AAD000A0430C2243F82820E7E64FF0FF33EEE7CF
:10AAE00020494FF4F67002F077FBEEE74FF0FF33AA
:10AAF000F3E61C494FF4F67002F06EFBF4E65FEAF1
:10AB000058130ED0534608F01F02D34013F0010F24
:10AB10000AD0012303FA08F34FF0A042C2F8083527
:10AB2000E9E64FF0FF33EEE70E494FF4F67002F01E
:10AB300053FBEEE74FF0FF33E4E60A494FF4F670BB
:10AB400002F04AFBE5E643F0020308E743F00403A2
:10AB500005E700BF1C310020ADA6020000E100E0C7
:10AB600060720300D06B030043F00603F7E6094967
:10AB70006B2002F031FB0DE707F00F076D01EDB21E
:10AB8000054BDD5511E74FF0080A26E74FF0110A93
:10AB900023E700BF3072030014ED00E02DE9F84315
:10ABA00006460D469046047904EBC4034C4F07EB70
:10ABB00083073B7F002B55D02B68002B58D0AB6808
:10ABC000002B5ED033792BB9EB68FF2B02D86B6872
:10ABD000FF2B04D943494FF40C7002F0FDFA04EB4B
:10ABE000C4033F4A02EB83035B7F002B76D104EB67
:10ABF000C40352F8233043B118F0140F05D104EB0D
:10AC0000C40302EB830301225A7704EBC40C344BD8
:10AC100003EB8C0C0CF10C0E95E80F008EE80F0086
:10AC20009CF81F90B9F1FF0F14D09CF81E30002B38
:10AC300039D05FEA59132DD0002309F01F02D34009
:10AC400013F0010F29D0012303FA09F34FF0A042BA
:10AC5000C2F8083543462A4639463068FFF730FDCA
:10AC6000BDE8F8831F4940F22D2002F0B5FAA3E7B2
:10AC70006B68002BA3D01B4940F22E2002F0ACFAE7
:10AC80009DE7EB68002B9DD0164940F22F2002F083
:10AC9000A3FA97E74FF0FF33CFE713494FF4F6706D
:10ACA00002F09AFACFE75FEA59130ED0002309F0B9
:10ACB0001F02D34013F0010F0AD0012303FA09F356
:10ACC0004FF0A042C2F80C35C4E74FF0FF33EEE777
:10ACD00005494FF4F67002F07FFAEEE71120BFE766
:10ACE0001C31002060720300D06B0300F0B583B00C
:10ACF00005460F461646002401E00134E4B2B44292
:10AD000015D2A00000F5A0704FF48033A3402A585C
:10AD1000002AF2D0D5F804231342EED000232B50A2
:10AD20002B580193019B3B6879689847E5E703B08E
:10AD3000F0BD000008B5042202490348FFF7D6FF22
:10AD400008BD00BF40310020009000402DE9F043D5
:10AD500085B00746894690464FF4A0744FF480367C
:10AD6000002503E076000434A4B20135454511D234
:10AD7000D7F804331E42F5D03B59002BF2D0002304
:10AD80003B513B590193019B184B53F82930E8B2D2
:10AD90009847E7E7D7F8043313F0010F0ED0D7F840
:10ADA00000315BB10023C7F80031D7F800310293BE
:10ADB000029B0E4B53F8293004209847D7F80433F0
:10ADC00013F0020F0ED0D7F804315BB10023C7F89F
:10ADD0000431D7F804310393039B044B53F8293013
:10ADE0000520984705B0BDE8F08300BF5031002032
:10ADF000F8B5044615460E46002940D0002D43D034
:10AE000063792E4A42F8235003EB43032C4AD35C68
:10AE1000002B50D194F90470B578AB1EDBB2012B36
:10AE200003D96B1FDBB2022B33D8002F36DB6D0149
:10AE3000EDB207F1604303F5614383F8005394F9E1
:10AE40000430002B07DB03F01F015B0901228A405D
:10AE50001C4941F8232027683588B5F5805F24D246
:10AE6000C7F8085563793079154A03EB4303D118C5
:10AE70004870F07888700121D1540020F8BD124943
:10AE8000512002F0A9F9B9E70F49522002F0A4F9C4
:10AE9000B6E70E496B2002F09FF9C6E707F00F03F3
:10AEA0006D01EDB20A4AD554C9E70A494FF4BE70A4
:10AEB00002F092F9D4E70820E0E700BF503100200B
:10AEC0004C31002000E100E0D47203003072030036
:10AED00014ED00E04873030010B50446437903EB1A
:10AEE0004303094AD35C012B09D1236801221A606C
:10AEF000637903EB4303044A0221D15410BD034993
:10AF0000822002F069F9F0E74C310020D47203008E
:10AF100082B003680022C3F80021D3F80031019306
:10AF2000019B03680122C3F8442311B10368C3F8ED
:10AF3000042302B0704702680123C2F84833026854
:10AF4000C2F80833704782B003680022C3F80421B6
:10AF5000D3F804310193019B03680222C3F8442310
:10AF600011B10368C3F8042302B0704708B5042286
:10AF700000210248FFF7EAFE08BD00BF0040024082
:10AF800038B500250FE04FF0FF3304F01F02D34027
:10AF900013F0010F0FD004F5E0744FF0A0430C2222
:10AFA00043F824200135032D0BD8064B5C5D630963
:10AFB000E9D00023E9E704494FF4F67002F00CF9F8
:10AFC000E9E738BDE0730300D06B030010B5044619
:10AFD000032815D8114B1C5D630916D0002304F01B
:10AFE0001F02D34013F0010F12D04FF0A043D3F84B
:10AFF0000435E34013F0010F0CBF0120002010BD09
:10B0000007493A2002F0E8F8E4E74FF0FF33E6E7BB
:10B0100004494FF4F67002F0DFF8E6E7E47303004A
:10B0200078730300D06B030010B50446032811D8D1
:10B030000F4B1C5D630912D0002304F01F02D340A4
:10B0400013F0010F0ED00123A3404FF0A042C2F82D
:10B050000C3510BD0749412002F0BEF8E8E74FF07B
:10B06000FF33EAE704494FF4F67002F0B5F8EAE777
:10B07000E473030078730300D06B030010B504463B
:10B08000032811D80F4B1C5D630912D0002304F074
:10B090001F02D34013F0010F0ED00123A3404FF045
:10B0A000A042C2F8083510BD0749472002F094F8C5
:10B0B000E8E74FF0FF33EAE704494FF4F67002F097
:10B0C0008BF8EAE7E473030078730300D06B0300A6
:10B0D00010B5002403E02046FFF7D0FF0134032C15
:10B0E000F9D910BD38B500250FE04FF0FF3304F05B
:10B0F0001F02D34013F0010F0FD004F5E0744FF09E
:10B10000A043032243F824200135032D0BD8074B1D
:10B110005C5D6309E9D00023E9E705494FF4F67067
:10B1200002F05AF8E9E7FFF7D3FF38BDE4730300F4
:10B13000D06B030010B5002403E02046FFF774FF36
:10B140000134032CF9D910BD10B50446032818D8D2
:10B15000134B1C5D630919D0002304F01F02D34078
:10B1600013F0010F15D04FF0A041D1F804350122A2
:10B17000A24022EA0300C1F808051340C1F80C35CB
:10B1800010BD08495F2002F027F8E1E74FF0FF33D8
:10B19000E3E705494FF4F67002F01EF8E3E700BF5D
:10B1A000E473030078730300D06B030010B504460A
:10B1B000032815D8114B1C5D630916D0002304F039
:10B1C0001F02D34013F0010F12D04FF0A043D3F869
:10B1D0001035E34013F0010F0CBF0120002010BD1B
:10B1E0000749AC2001F0F8FFE4E74FF0FF33E6E752
:10B1F00004494FF4F67001F0EFFFE6E7E073030057
:10B2000078730300D06B030002460020032805D8A2
:10B21000044B1B5C934203D00130F7E74FF0FF3043
:10B22000704700BFE073030010B50446032802D83E
:10B23000034B185D10BD0349CB2001F0CDFFF7E7AC
:10B24000E07303007873030010B5044610F0010F9B
:10B2500003D114F0020F03D110BDFFF743FFF8E74D
:10B26000FFF78EFEF8E708B54FF48C72002108F066
:10B2700052FF08BD28B108B54FF48C7101F020F8D9
:10B2800008BD7047C02A0FD0B2F5807F0FD0802A4A
:10B2900002D06FF01F0070470A230360F0B400F182
:10B2A00008034360002515E00C230360F6E70E2336
:10B2B0000360F3E711F8254001EB8506777844EA4F
:10B2C0000724B77844EA0744F67844EA066443F86A
:10B2D00025400135B5EB521FECD302680C2A5DD036
:10B2E0000E2A00F0A0800A2A02D00020F0BC70478D
:10B2F0000024092C23D81A684C4951F824104A40DC
:10B30000D968C1F307254A48455D6A40C1F307453E
:10B31000455D82EA05220D0E455D82EA0542CDB209
:10B32000405D82EA00621A61586842405A6198683A
:10B3300042409A614A40DA6101341033D9E7002073
:10B34000D4E71A68394951F820104A405969C1F3C5
:10B350000725374C655D6A40C1F30745655D82EAA4
:10B3600005220D0E655D82EA0542CDB2645D82EA7A
:10B3700004629A615C686240DA619C6862401A62A9
:10B38000DC6862405A621C6962409A624A40DA6232
:10B39000013018330728D4D90020A7E70020F9E7A7
:10B3A0001A68224850F821004240D869C0F30724A7
:10B3B0001F4D2C5D6240C0F307442C5D82EA0422DD
:10B3C000040E2C5D82EA0442C4B22C5D82EA04625F
:10B3D0001A625C6862405A629C6862409A62DC68E9
:10B3E0006240DA621C69D6B2AE5D7440C2F30726D1
:10B3F000AE5D84EA0624C2F30746AE5D84EA0644E5
:10B40000120EAA5C84EA02621A635C6962405A63A3
:10B410009C6962409A634240DA6301312033062915
:10B42000BED9002062E70021F9E700BFE8840300ED
:10B43000E87303002DE9F04F8DB0019245680B7859
:10B440004A7843EA02238A7843EA0243CA7843EA05
:10B4500002630A932C1D0B942A6853400A930B79BC
:10B460004A7943EA02238A7943EA0243CA7943EAE2
:10B470000263099305F108020B926D686B40099312
:10B480000B7A4D7A43EA05238D7A43EA0543CD7A58
:10B4900043EA0563089304F108050B95646863406B
:10B4A00008930B7B4C7B43EA04238C7B43EA0443E5
:10B4B000C97B43EA0163079302F108050B955268C3
:10B4C0005340079303685B10013B9A46BAF1000FA3
:10B4D00040F308810B9A131D0B931168DDF828C007
:10B4E0005FFA8CF07B4E56F820004140099FC7F36D
:10B4F0000720794D55F8200041400898C0F30740D7
:10B50000764C54F820004140DDF81CE04FEA1E68FC
:10B51000734850F8288081EA0801069102F1080971
:10B52000CDF82C90D2F80480FAB256F8222088EA9E
:10B53000020B089AC2F3072855F828808BEA080204
:10B54000CEF3074854F8288082EA08024FEA1C68C4
:10B5500050F8288082EA0802059203F10808CDF825
:10B560002C80D3F804B0089BDBB256F823308BEA6A
:10B570000303CEF3072B55F82BB083EA0B03CCF370
:10B58000074B54F82BB083EA0B034FEA176B50F8C4
:10B590002BB083EA0B03049309F1080BCDF82CB010
:10B5A000D9F804905FFA8EFE56F82EE089EA0E096B
:10B5B000CCF3072C55F82CE089EA0E09C7F30747AE
:10B5C00054F8277089EA0709089F4FEA176C50F86A
:10B5D0002CE089EA0E07039708F1080CCDF82CC07F
:10B5E000D8F804E05FFA81F856F828808EEA080E51
:10B5F000C2F3072855F828808EEA080EC3F30748DF
:10B6000054F828808EEA080E4FEA176850F8288010
:10B610008EEA080ECDF828E00BF1080ECDF82CE0EC
:10B62000DBF804805FFA82F956F8299088EA090865
:10B63000C3F3072955F8299088EA0908C7F3074991
:10B6400054F8299088EA09084FEA116950F82990BE
:10B6500088EA0908CDF824800BF10C08CDF82C807D
:10B66000DBF808C05FFA83F956F829908CEA090CD8
:10B67000C7F3072955F829908CEA090CC1F307494B
:10B6800054F829908CEA090C4FEA126950F8299075
:10B690008CEA090CCDF820C00EF10808CDF82C80FA
:10B6A000DEF804C0FFB256F827608CEA0606C1F344
:10B6B000072155F821107140C2F3074254F82220A7
:10B6C0004A401B0E50F82330534007930AF1FF3ACB
:10B6D000FCE600BFE8740300E8780300E87C0300A0
:10B6E000E8800300DDF82C8008F104030B93D8F800
:10B6F00000200A9CE1B2DFF878E25EF821105140A8
:10B700000998C0F30722DFF86CC25CF82220514090
:10B71000DDF820B0CBF30742924F57F8222051407A
:10B72000079D2A0E904E56F822205140069108F1AE
:10B730000809CDF82C90D8F80480C2B25EF8222017
:10B7400088EA0202CBF307285CF8288082EA080224
:10B75000C5F3074857F8288082EA08024FEA1468C0
:10B7600056F8288082EA0802059203F10808CDF80D
:10B770002C80D3F804A05FFA8BF35EF823308AEABA
:10B780000303C5F3072A5CF82AA083EA0A03C4F37B
:10B79000074A57F82AA083EA0A034FEA106A56F8C4
:10B7A0002AA083EA0A03049309F1080ACDF82CA021
:10B7B000D9F80490EDB25EF8255089EA0509C4F382
:10B7C00007245CF8244089EA040CC0F3074057F8CA
:10B7D00020008CEA000C4FEA1B6B56F82B008CEA19
:10B7E000000CCDF80CC008F108050B95D8F80470D2
:10B7F000CCB25E48045D6740C2F30724045D87EA6B
:10B800000427C3F30744045D87EA04474FEA1C6436
:10B81000045D87EA04670A9708F10C040B94D8F8D2
:10B8200008605FFA82FE10F80EE086EA0E06C3F3A7
:10B83000072E10F80EE086EA0E26CCF3074E10F81D
:10B840000EE086EA0E464FEA116E10F80EE086EA28
:10B850000E66099608F1100ECDF82CE0D8F80C50C1
:10B860005FFA83F810F8088085EA0805CCF307280A
:10B8700010F8088085EA0825C1F3074810F8088009
:10B8800085EA08454FEA126810F8088085EA0865DD
:10B89000089504F1080ECDF82CE064685FFA8CFC82
:10B8A00010F80CC084EA0C04C1F30721415C84EA5F
:10B8B0000124C2F30742825C84EA02441B0EC35C8B
:10B8C00084EA0363079301990F70C7F307224A7054
:10B8D000C7F307428A70380EC87008460E71C6F367
:10B8E00007224A71C6F307428A71310EC17105728F
:10B8F000C5F307224272C5F3074282722A0EC27252
:10B900000373C3F307224273C3F3074282731B0E10
:10B91000C37304210AA800F0D3FC042109A800F095
:10B92000CFFC042108A800F0CBFC042107A800F0FC
:10B93000C7FC042106A800F0C3FC042105A800F000
:10B94000BFFC042104A800F0BBFC042103A800F004
:10B95000B7FC04210BA800F0B3FC00200DB0BDE83B
:10B96000F08F00BFE87C0300E8800300E873030069
:10B97000E8740300E87803002DE9F04F8DB00192E0
:10B9800045680B784A7843EA02238A7843EA0243FF
:10B99000CA7843EA02630A932C1D0B942A68534029
:10B9A0000A930B794A7943EA02238A7943EA0243EC
:10B9B000CA7943EA0263099305F108020B926D68A4
:10B9C0006B4009930B7A4D7A43EA05238D7A43EA5B
:10B9D0000543CD7A43EA0563089304F108050B9506
:10B9E0006468634008930B7B4C7B43EA04238C7BA5
:10B9F00043EA0443C97B43EA0163079302F1080564
:10BA00000B9552685340079303685B10013B9A46BD
:10BA1000BAF1000F40F30E810B9A111D0B911368C0
:10BA20000A98C0B27F4E56F820004340DDF81CE073
:10BA3000CEF307207C4D55F820004340DDF820C0B0
:10BA4000CCF30740794C54F820004340099F4FEA5B
:10BA50001768774850F8288083EA0800069002F1BA
:10BA60000809CDF82C90D2F80480FAB256F82220BA
:10BA700088EA02020A9BC3F3072855F8288082EA65
:10BA80000802CEF3074854F8288082EA08024FEAF9
:10BA90001C68674B53F8288082EA0802059201F17E
:10BAA0000808CDF82C80D1F804B05FFA8CF156F874
:10BAB00021108BEA0101C7F3072B55F82BB081EA5F
:10BAC0000B010A9BC3F3074B54F82BB081EA0B011F
:10BAD0004FEA1E6B564B53F82BB081EA0B010491D1
