:020000022000DC
:1060000000000120756302005D630200B9D6020042
:106010006163020063630200656302000000000028
:1060200000000000000000000000000067630200A4
:1060300069630200000000006B6302006D630200F0
:106040001D9402006F630200C99A02009D9D020028
:106050006F6302006F630200E19902006F63020048
:106060006F63020025A402006F6302006F630200E9
:106070006F630200A59C02006F6302006F63020061
:106080006F630200116D02006F6302006F63020014
:10609000396D02006F630200512A03006F63020032
:1060A0006F6302006F6302006F6302006F630200A0
:1060B0006F6302006F630200000000000000000038
:1060C0006F6302006F6302006F6302006F63020080
:1060D0005DA602006F6302006F6302000000000013
:1060E00000000000000000000000000000000000B0
:1060F00000000000000000000000000000000000A0
:10610000000000000000000000000000000000008F
:10611000000000000000000000000000000000007F
:10612000000000000000000000000000000000006F
:10613000000000000000000000000000000000005F
:10614000000000000000000000000000000000004F
:10615000000000000000000000000000000000003F
:10616000000000000000000000000000000000002F
:10617000000000000000000000000000000000001F
:10618000000000000000000000000000000000000F
:1061900000000000000000000000000000000000FF
:1061A00000000000000000000000000000000000EF
:1061B00000000000000000000000000000000000DF
:1061C00000000000000000000000000000000000CF
:1061D00000000000000000000000000000000000BF
:1061E00000000000000000000000000000000000AF
:1061F000000000000000000000000000000000009F
:10620000354936480A1A02D0072291438D4634494F
:1062100034480A1A06D00722914381F309880222E2
:1062200082F3148830483149314A00F044F831484B
:106230003149324A00F03FF831483249324A00F0E1
:106240003AF832483249334A00F035F83248334997
:10625000334A00F030F833483349344A00F02BF821
:1062600033483449344A00F026F83448344900228F
:1062700000F02CF833483449002200F027F8334866
:106280003349091A082902DB002202604160314AC1
:1062900090471F481F49884205D00268043003B464
:1062A000904703BCF7E700208646EC46002000211B
:1062B000294A9047FEE7884207D0521A05D0037852
:1062C00001300B700131013AF9D17047884202D098
:1062D00002700130FAE7704700000120F0D800207A
:1062E0000000012000000120A0950300E42B002005
:1062F0001C2C0020D0630200D06302001859030058
:10630000A0950300E42B0020E42B0020D0590300CB
:10631000D0590300D0590300D0590300D0590300CD
:10632000D0590300D0590300D0590300A0950300B1
:10633000D89503001C2C00201C2C00201C2C0020B5
:10634000044800200448002004480020044800209D
:10635000046800209D63020099C40200FEE7FEE786
:10636000FEE7FEE7FEE7FEE7FEE7FEE7FEE7FEE705
:1063700000F002B8FFF7FCBF0F484FF00701884359
:1063800085460E4880470E48016841F4700101605F
:10639000BFF34F8FBFF36F8FFFF732BF09480A4932
:1063A0000A4A884207D0521A05D0037801300B7090
:1063B0000131013AF9D170470000012081D4020077
:1063C00088ED00E0BC590300D02B0020E42B002016
:1063D000032801D90020704708B504F049F908BD29
:1063E000032824D8012A06D001290CD0022910D074
:1063F000B1B107207047012901D00022F4E700F174
:106400000E02D2B2F0E700EB40000A4B1A54002013
:10641000704700EB4000074B184442700020704763
:1064200000EB4000034B18448270002070470720A7
:10643000704700BF1C2C002008B50122002108462F
:10644000FFF7CEFF10B10346072812D10722022121
:106450000120FFF7C5FF034608B1072809D1042230
:1064600002210020FFF7BCFF034610B1072800D12E
:106470000023184608BD08B5012202210020FFF7BD
:10648000AFFF10B10346072812D1072202210120D5
:10649000FFF7A6FF034608B1072809D10A22002109
:1064A0000846FFF79DFF034610B1072800D10023DF
:1064B000184608BD08B50388102B02D0112B12D046
:1064C00008BD114B1B6823B10F4A136801331360D9
:1064D000F6E7FFF7B1FF0028F6D00C4B1B68002B46
:1064E000F2D09847F0E7084A1368013B1360002B8D
:1064F000E6D1FFF7C0FF0028E2D0044B1B68002B59
:10650000DED09847DCE700BF2C2C0020282C002090
:1065100010B504460120FFF75BFF10B10223237082
:1065200010BD0020FFF754FF10B10B232370F7E7D5
:1065300000232370F4E7000008B5074B186011B181
:106540000846FFF7E5FF054B1B680BB1002008BDAF
:10655000FFF791FFFBE700BF282C00202C2C002028
:1065600008B505F029FB08BD08B50021084605F06F
:10657000E3FA08BD10F1360F09D058B110F1380F09
:1065800002D048F21650704748F21150704748F256
:10659000145070470020704708B50846114602F0B5
:1065A00075FE002008BD000010B582B0041D00205B
:1065B00002F0C2FD08B102B010BD204604F0B5FFE4
:1065C0000022009213460349204605F00AF8FFF71F
:1065D000D1FFF0E79965020008B5043004F0ACFF84
:1065E00002F0DEFD002008BD08B5043005F092F889
:1065F000FFF7C0FF08BD08B511461A46043004F085
:10660000A8FFFFF7B7FF08BD82B001238DF8073060
:106610009DF80730134B186059609A6044F20103EB
:10662000984213D044F20203984207D10D4BDA602E
:10663000DA6812689A61DA685268DA6172B69DF8AF
:106640000730002BFBD162B602B07047054B1A61D0
:106650001A6992685A611A6912689A611A695268CD
:10666000DA61EBE7302C002000B583B00290009196
:10667000019244F2010071466A4600F003F803B04B
:1066800000BD000008B572B6044B1B6813F0010F83
:1066900000D000BEFFF7B8FF08BD00BFF0ED00E07E
:1066A0002D4B1B888B4201D2092070472DE9F04108
:1066B00082B005460C46164600238DF807300DF1D2
:1066C000070000F0D5FB254B1A78D2B2244B19787D
:1066D000CBB224480088814224D20133DBB29A42F3
:1066E00024D01F4B1F781A78D3B290421CD90133A3
:1066F000DBB21B4A13709DF8070000F0EDFB4FF66C
:10670000FF739F4226D04FEAC708174B1B6803EB65
:10671000C70243F8376005B15CB90020908002B031
:10672000BDE8F0810023DAE70023E2E74FF6FF77C8
:10673000E1E70E4B1B68084A10882246294607FBF2
:1067400000300CF0C3FB084B1B689844A8F80440C9
:106750000020E4E70420E2E75C2C0020602C00200D
:10676000502C00205E2C0020582C0020542C00209F
:10677000034BC3F80805034BC02283F8112370476D
:106780000010014000E100E010B50B4B4FF48032E7
:10679000C3F84423C3F80423084A4FF40031C2F875
:1067A0008011116001241C604FF43C60044B2343B2
:1067B0009847044B1C7010BD0010014000E100E040
:1067C000D0590300712D002070B5104B4FF40032EA
:1067D000C3F88020BFF34F8FBFF36F8F0C4D4FF482
:1067E0008033C5F84833C5F8083301266E60094C7C
:1067F00034434FF43C60A047AE600025064B1D605B
:106800004FF43C60A047054B1D7070BD00E100E0F7
:1068100000100140D0590300802D0020712D002070
:1068200010B4114B1C685CB1026823689A4218D8F6
:106830009A1A2260C4610C4B18605DF8044B7047D3
:106840001860FAE7521A1C46DB6913B119689142C5
:10685000F8D313B11968891A19600260C361E06145
:10686000EBE72346F1E700BF842D002070B5184BFD
:106870001E683446354624B1844202D02546E46978
:10688000F9E714B3A5420CD02168E369EB6113B1B9
:106890001A680A441A600E4B1868801B18BF012042
:1068A00070BDF3690A4A1360002BEDD10123094A38
:1068B0009360094A00211160084A13704FF43C604C
:1068C000074B43F001039847DEE70020E8E700BFED
:1068D000842D002000100140802D0020702D00200C
:1068E000D0590300024B4FF40032C3F80021704727
:1068F00000E100E0024B4FF48012C3F80021704722
:1069000000E100E008B543698069984708BD0000D0
:106910001B4B1868002832D070B51A4BD3F80445C9
:10692000194B1B68E41A24F07F44002504E000237F
:106930000374FFF7E7FF304648B10368A34206D867
:10694000E41A1D44C669037C002BF4D0EFE70F4B1B
:106950001A780F4B1B789A4207D00D4B1A780D4BC3
:1069600043F82250FFF7C6FF70BD0133DBB2084A7F
:106970001370022BF1D1134600221A70EDE7704715
:10698000842D002000100140802D00207C2D00204F
:106990007D2D0020742D0020104B1B78104A12789A
:1069A000934217D00133DBB20C4A1370022B0DD087
:1069B0000A4B1A780B4B53F8223003600A4A1168CD
:1069C0000B4423F07F4313600120704713460022DD
:1069D0001A70EDE700230360184670477C2D0020F5
:1069E0007D2D0020742D0020802D002070B4002506
:1069F0000E4B1B68BBB11C68844212D8001B254497
:106A000000241C60DE69094C2660DC68002CEFD095
:106A10006E1826F07F465E609C601468DC6113602F
:106A2000E6E7241A1C6070BC704700BF842D00206C
:106A3000F8B50546404B1F68002658E03F4A1178DC
:106A40004B1CDBB213709278934227D001EB4103C9
:106A50003A4A02EBC3039C681B79022B22D0032B1A
:106A60002FD0012B43D1237C002B40D1334A01EBA3
:106A7000410302EBC303D86860601869A0605B69DA
:106A8000E36001EB410102EBC1018B69A3612C4B77
:106A90001B78002B30D0002363602DE0274B0022B1
:106AA0001A70D3E72046FFF7E1FE034600B93346EC
:106AB000002222741E461AE000221A74DA691E4B64
:106AC0001A601D4B1B68002BF6D110E0521A22F001
:106AD0007F42A36893421CD99A1A22600023636004
:106AE000A36001222274E3612046FFF799FE9DB165
:106AF000002DA3D02C46ED696168124B1A688B1AE1
:106B000023F07F4310488342E0D8A26813442360F7
:106B1000E4E700232360E1E7084B1A785B789A42A8
:106B2000E6D12EB9044B1B68BB4203D0012000E024
:106B30000120F8BD0020FCE7842D0020642C0020FB
:106B4000702D0020802D0020FEFF7F00F8B51C4B2B
:106B50001B688BB31F681B4BD3F804551A4B1C687A
:106B60002E1B26F07F460336184B1B780BB3B7421B
:106B70002CBFE419A41924F07F44124BC3F84045FC
:106B8000D3F804355B1B23F07F430333641B24F0ED
:106B90007F44A3420CD90B4BD3F80425C3F84025FE
:106BA0004FF43C600A4B43F001039847FFF79AFE0D
:106BB000F8BDFFF7E9FDDAE7FFF706FEF8E700BFEB
:106BC000842D002000100140802D0020712D002018
:106BD000D059030070B582B0002301930D4B1E689D
:106BE0000D4B1D686846FFF7D7FE044660B9019853
:106BF000FFF71EFF00B914B12846FFF7A7FF074BA8
:106C000000221A7002B070BD01AA31460098FFF749
:106C1000EDFEECE7802D0020842D0020702D00205B
:106C2000014B5870704700BF642C00200B4A53780A
:106C30000133DBB292789A420CD0084A12789A4219
:106C40000AD003700548437803EB430300EBC3000D
:106C5000043070470023F0E700207047642C0020C8
:106C60002DE9F04182B007460E4690461D460024AD
:106C70008DF806400DF1060000F0FAF80DF107005E
:106C8000FFF7D4FFC0B10123037047600D4BD3F869
:106C900004358360C660C0F8108045619DF8070028
:106CA000FFF7BEFF00249DF8060000F015F92CB197
:106CB000204602B0BDE8F0810424F4E7FFF71AFE95
:106CC000F6E700BF0010014030B583B004460D4622
:106CD00000238DF806300DF1060000F0C9F80DF123
:106CE0000700FFF7A3FF70B1057044609DF807002F
:106CF000FFF796FF00249DF8060000F0EDF824B1A0
:106D0000204603B030BD0424F5E7FFF7F3FDF7E7B5
:106D100008B5084B0022C3F84021C3F84421C3F84A
:106D20004821C3F84C21C3F80021C3F80421FFF720
:106D3000EFFD08BD0010014008B5FFF74BFF08BD8F
:106D400010B5FFF741FD0F4B00241C705C700B2247
:106D50009A700D4B1C600D4B1C700D4B1C700D4B35
:106D60004FF48012C3F88021C02183F814131A60F5
:106D70002046FFF7FDFC084BD3F80425074B1A60AB
:106D8000204610BD642C0020842D00207C2D002086
:106D90007D2D002000E100E000100140802D00204A
:106DA000094B9B7843B14AB150B10368187C48B98C
:106DB000187459745A61704708207047072070474B
:106DC0000720704708207047642C002013460E4AA5
:106DD000927882B188B110B54C1F0C4A94420ED8FB
:106DE000426972B1427C012A03D00022FFF738FFCA
:106DF00010BD0A46FAE708207047082070470720B0
:106E0000F6E70820F4E700BF642C0020FAFFFF003B
:106E100008B5094B9B7843B148B143694BB1002396
:106E200003740221FFF750FF08BD0820FCE708208B
:106E3000FAE70820F8E700BF642C0020014BD3F8E4
:106E40000405704700100140401A20F07F40704751
:106E5000EFF30583C3F308033BB9EFF3148313F097
:106E6000010F0CBF01200020704701207047000077
:106E700038B50446FFF7ECFF01281CD1EFF3108270
:106E800072B6114B9B68DBB90F4901238B600F4B26
:106E9000D3F880000E4D28400860C3F88050D3F826
:106EA000840048604FF0FF31C3F884100023237042
:106EB00002B962B638BD0749432005F0BBFADDE7E9
:106EC00001232370F4E700BF882D002000E100E0DB
:106ED000FC06FFBDD859030010B50446FFF7B8FF04
:106EE000012811D10B4B9B686BB164B9EFF3108192
:106EF00072B6084B1868084A106058685060002243
:106F00009A6001B962B610BD0449512005F092FAA9
:106F1000E8E700BF882D002000E100E0D859030019
:106F200038B50546002400E00134032C07D8044B93
:106F300053F82430002BF7D028469847F4E738BDA3
:106F4000A02D00200378013B052B34D8DFE803F0A7
:106F500003061120293100230B70704701230B70A9
:106F600003898B818388CB81C3688B6000230B747A
:106F7000704702230B7003898B818388CB81C368A0
:106F80008B60837D062B14BF002301230B74704795
:106F900003230B70C3888B810389CB81C3688B600B
:106FA000704704230B70C3888B810023CB818B60D7
:106FB000704705230B707047884207D20368B3F10E
:106FC000FF3F01D00120704700207047002070472C
:106FD0004388033300EB8300704738B504460D4601
:106FE000FFF7F6FF85420CD3A2884FF6FF739A4253
:106FF00009D023884BB1A368B3F1FF3F07D000202D
:1070000038BD0220FCE70120FAE70120F8E7012063
:10701000F6E7000060B10A4AD26882420AD8084AFC
:107020001269824208D310F0030F07D10120704784
:1070300000207047002070470020704700207047F4
:10704000D02B002060B10168094A91420AD14368FF
:10705000084A934208D00132934207D10120704779
:1070600003207047032070470020704703207047BB
:10707000DEC0ADDEFE011EF10368B3F1FF3F04D0B8
:107080000A4A93420ED1012300E00123B3F5806F39
:1070900006D250F82320B2F1FF3F05D10133F5E7C6
:1070A000012070470020704700207047DEC0ADDE31
:1070B00010B4094A00EB800402EB840423890B44DA
:1070C000608910FA83F080B2B0F5806F8CBF002029
:1070D00001205DF8044B7047D42D00200023012BC4
:1070E00019D810B403E001339BB2012B0ED803EB87
:1070F00083020A4C04EB820252688A42F3D202F500
:1071000080528A42EFD90380002001E048F20960F2
:107110005DF8044B704748F209607047D42D002099
:10712000F8B50D46174600F5805600F10804022315
:107130000B800DE00FB101223A70022B1CD0638846
:107140002A88134403332B802046FFF741FF04466F
:1071500031462046FFF730FF88B131462046FFF721
:107160003CFF03460028E5D1A368054A1268934214
:10717000E5D9034A1360E2E74FF480632B80F8BD42
:10718000CC2D00208B7D022B04D9CB88028913449F
:1071900003330381CA8843899B1A033B43817047A9
:1071A000F8B5033086B240F2FE339E4221D80D4638
:1071B000002401E00134A4B2012C17D804EB8403AD
:1071C0000D4A12F82330002BF4D131462046FFF748
:1071D0006FFF0028EED02C80074B04EB840203EBFA
:1071E0008202508930445081002001E048F206605C
:1071F000F8BD48F20860FBE7D42D002010B4064A21
:1072000001EB810402EB840463891B1A033B638155
:107210005DF8044B704700BFD42D0020F8B50E4632
:1072200000EB8000134B03EB8000446804F58055AD
:107230000868A0B1FFF7CCFE044629462046FFF7B8
:10724000BBFE074698B129462046FFF7C6FE012837
:1072500007D002280AD00028EFD1346007E00834B4
:10726000EBE72046FFF7B4FE0446E6E70027384682
:10727000F8BD00BFD42D002070B582B006460D4683
:107280004068FFF7C7FE20B13289174B1B899A422D
:1072900018D000232B802B88012B23D800230193A7
:1072A00001A92888FFF7BAFF0146B8B1019B9C6885
:1072B00032689442F4D173600B4B1B8933810846CA
:1072C00002B070BD326871688B689A42E1D128467D
:1072D000FFF704FFB0FA80F14909F0E72B8801338A
:1072E0002B80D8E70021EAE7B82D0020F8B51C462E
:1072F0001F4B1B78002B34D005460F461646002A3C
:1073000032D03CB948F2046027E000232360A38810
:107310000133A380A388012B20D803EB8303154AF4
:1073200012F82330002BF2D12146A088FFF776FF18
:107330000028EAD023681DB199882A889142F3D1A8
:107340001FB119883A889142EED19B683360236857
:107350007360094B1B8933810020F8BD48F2096036
:10736000FBE748F20160F8E748F20460F5E700BF88
:10737000B02D0020D42D0020B82D00202DE9F041A3
:10738000884617461E4600EB80001D4B03EB80002D
:10739000456805F1080405F5805529462046FFF7A4
:1073A0000BFE58B329462046FFF717FE01280DD0E3
:1073B000022818D00028F0D1B8F800300133A8F81E
:1073C00000302046FFF704FE0446E6E73B88013321
:1073D0003B80638832881344033333802046FFF7B1
:1073E000F7FD0446D9E73B8801333B802C1B3588E9
:1073F00005EBA4043480069B01221A70BDE8F081DD
:10740000D42D00202DE9F0470024A1464FF00308B9
:107410002546274653E03046FFF72EFEC8B1424AC4
:10742000126882B1414B05EB850103EB810002221A
:1074300003F82120466002813D4B5D800135ADB2ED
:1074400047F0010739E0384A1660022191808146F1
:10745000F6E708F1FF381FFA88F8344A05EB850390
:1074600002EB83035E6005EB8503032102F8231022
:107470000135ADB221E0B9F1000F0FD02B4B05EB78
:10748000850103EB8100022203F8212026490968C7
:1074900041600281264B5D800135ADB2DFF888A0E6
:1074A000514641F8046B00223046FFF739FEBAF826
:1074B0000430022B2DD008231F430134A4B2022C28
:1074C00029D81C4BDE6806EB04363046FFF7BAFDC0
:1074D0000128D0D003289ED00028EED1134905EB17
:1074E00085039A0001EB8303002088545E6005EB5E
:1074F00085029200103205EB85039B0008330A4495
:1075000019443046FFF70CFE47F002070135ADB2D3
:10751000D3E70423D0E7B8F1010F02D9F8B2BDE8F0
:10752000F0870027FAE700BF9C2E0020D42D002012
:10753000B82D0020D02B00200B4A13890133138172
:107540000023538013730CE003EB83018A00074987
:107550008A5CB2FA82F25209034919448A720133F1
:107560009BB2012BF0D97047B82D0020D42D0020FC
:1075700030B40546002301E001339BB2012B19D83A
:107580000E4A1A44927A002AF6D00C4A1A44002174
:10759000917203EB83020A4901EB8202D268002A4E
:1075A000EAD103EB830401EB8404207C0028E3D0C0
:1075B0002B8000E0002030BC704700BFB82D0020B9
:1075C000D42D0020044B5B685B880333034A918809
:1075D00011FA83F393807047B82D00209C2E002071
:1075E00030B40C4805680C4B5B880C4903EB8304F2
:1075F000A2000A4454680460556084881481022201
:10760000828003EB830303FA02F2114400230B741C
:1076100030BC70479C2E0020B82D0020D42D0020B7
:1076200008B5124B1B78072B0AD8DFE803F00409D2
:10763000090A1016161AFFF77FFF0C4B01221A7069
:1076400008BDFFF7BFFF094B02221A70F8E7FFF7EA
:10765000C7FF064B06221A70F2E7044B07221A7086
:10766000EEE7024B01221A70EAE700BFB82D0020B6
:1076700040F6F8731868B0F1FF3F07D04FF0805321
:107680001A695B69B0F1FF3F03D07047024B18687D
:10769000F4E703FB02F0F8E71410001008B5FFF759
:1076A000E7FF034B1861A0F54050D86008BD00BF4C
:1076B000D02B002008B50146014800F083FE08BD2C
:1076C000882E002008B5064B05221A7005490223B2
:1076D0008B80002301220968034800F0BDFF08BD2C
:1076E000B82D00209C2E0020D02B002008B50D4B7B
:1076F0005B8803EB83010C4A02EB8102D26872B90A
:10770000084A0421117003EB8303074901EB83014D
:10771000002301224968054800F09EFF08BDFFF7DD
:10772000D1FFFBE7B82D0020D42D0020D02B002066
:1077300000B583B0002300930823044A0449096874
:10774000044800F049FF03B05DF804FBCC5A030085
:107750009C2E0020D02B002008B5044B07221A7065
:1077600000225A60FFF7E4FF08BD00BFB82D0020DB
:1077700000B583B00146002300930823034A044860
:1077800000F02AFF03B05DF804FB00BFC45A0300F9
:10779000D02B0020F8B530B90B79032B5FD8DFE888
:1077A00003F0081E3944314B00225A604FF4064062
:1077B00005E001230B71FFF7BBFF00284FD1F8BD97
:1077C0000B4600EB800292000021995400EB8000F0
:1077D00003EB80004068FFF7CBFF012310E000239C
:1077E000012B0AD8184603EB8302214911F8222005
:1077F000022AE5D001339BB2F2E7002348F20E6083
:10780000002BDAD1194B01221A7000225A6041F67E
:107810001D50D4E700230B71164902228A800122F1
:107820000968154800F018FFC7E700250D71114CD5
:107830002068FFF79DFF114B5B8826680C4903EB1E
:10784000830201EB8202576827605660A688168182
:107850000222A28003EB83039340CD54ADE7034B98
:1078600000225A6048F20D60A9E700BFB02D002049
:10787000D42D00209C2E0020D02B0020B82D0020DD
:1078800008B5064B06221A705B8803EB83039A0047
:10789000034B13445868FFF76BFF08BDB82D002059
:1078A000D42D002000B583B00223837500230093FC
:1078B0000423C218044800F08FFE10B903B05DF82D
:1078C00004FB48F20D60F9E7D02B002000B583B02F
:1078D000036973B10323837500230093042300F12C
:1078E0000C020831054800F077FE20B903B05DF8BE
:1078F00004FB0123EFE748F20D60F7E7D02B0020EF
:1079000000B583B001238375C388002200929B00D9
:1079100002690C31044800F05FFE10B903B05DF855
:1079200004FB48F20D60F9E7D02B002000B583B0CE
:107930000378032B0ED006238375002300930423C2
:1079400000F108021944064800F046FE20B903B0D1
:107950005DF804FB0523EFE748F20D60F7E700BF91
:10796000D02B002010B582B00C46002300930423D6
:10797000084A0146084800F02FFE40B904EB840491
:10798000064901EB84040123237402B010BD48F2C0
:107990000D60FAE7C05A0300D02B0020D42D002040
:1079A00070B50C468B8A03EB83022D4E06EB8206E4
:1079B000A8B92B4A03EB830102EB8101496803EB71
:1079C000830302EB83031D8901EB8505A37D062B51
:1079D0000BD8DFE803F0162E22280D343E00304687
:1079E000FFF7D0FB4FF4064515E048F20E650EE0B8
:1079F0001C4800234360A36903601B49FFF73CFC5C
:107A000050B329462046FFF74DFF05461DB12146DC
:107A10003046FFF7B7FB284670BD29462046FFF7E2
:107A200055FF0546F2E729462046FFF769FF054660
:107A3000ECE729462046FFF779FF0546E6E70623EF
:107A4000A375094B1988074B5868FFF78BFF05464C
:107A5000DCE741F61D55DAE748F20965DBE700BFD0
:107A6000D42D0020942D0020A82E002010B584B025
:107A70000446002301930293C36800930DF10E01A5
:107A80006846FFF7F9FB18B948F2096004B010BD69
:107A900001988388E38003882381BDF80E10FFF7E7
:107AA00061FFF3E730B583B009484268094B1968B4
:107AB0009C88538803339BB20325057000200090F7
:107AC0009B0001EB8401044800F086FD03B030BD4B
:107AD000B82D00209C2E0020D02B002008B5064B8E
:107AE000191D5888FFF79AFB10B1FFF7DBFF08BD9F
:107AF000FFF7FCFDFBE700BFB82D002008B50748E5
:107B0000FFF736FD10B1FFF7E9FF08BD044B002277
:107B10001A705A805A6041F61D50F6E7BA2D0020BF
:107B2000B82D002030BB08B5154B1B7B6BB1144B37
:107B300000221A73124B1B78013B062B1DD8DFE87D
:107B400003F0070A0D101C131600FFF769FDF1E79B
:107B5000FFF7D4FF08BDFFF7C1FFFBE7FFF7A2FF68
:107B6000F8E7FFF7C3FDF5E7FFF78AFEF2E7FFF757
:107B7000F3FDEFE74FF40640704748F20E60E9E787
:107B8000B82D002010B584B00B4B01AA002106309F
:107B9000FFF7ACFB40B9084B99880298FFF7E2FE6B
:107BA0000446204604B010BD0446082200210248C5
:107BB0000BF0B5F9F5E700BFAC2E0020C8B908B549
:107BC0000B79012B0BD0022B16D013B148F20E60AB
:107BD00008BD02230B710846FFF748FFF8E7084687
:107BE000FFF7D0FF48F209639842F1D141F61D50EA
:107BF000EEE74FF40640704741F61D50E8E70000FD
:107C000008B50146014800F0E9FB08BD882E0020B8
:107C100008B5084B1B683BB10121064800F0A0FCE9
:107C2000003818BF012008BD03494FF4247004F048
:107C300001FCF1E7982E0020545A030010B586B0DD
:107C400004462BE02E48FFF735FD2E4B186029E047
:107C50002D4940F29E5004F0EDFB27E02046FFF74F
:107C600099FD002849D000230193039304930593C1
:107C700041F61D5398423ED00290224C01A9206843
:107C8000FFF760F901A8FFF74BF9002323601C48B8
:107C9000FFF7B6FFFFF7BCFF78B30024194B1B6852
:107CA000002BCFD0174B1B68002BD1D0154B196878
:107CB0000B78013B052B1BD801A252F823F000BF23
:107CC0005D7C0200D97C0200D97C0200E17C0200CC
:107CD000E17C0200E97C02002046FFF761FEC0E77C
:107CE0002046FFF76BFFBCE72046FFF71BFFB8E716
:107CF00048F20E60B7E70020BEE706B010BD00BF37
:107D0000C82D0020D02D0020545A030008B540682B
:107D1000FFF794FF08BD000008B50121014800F0FD
:107D200011FC08BDCC2D002008B5FFF7B7FC0022E0
:107D30000249034800F043FC08BD00BFE05A0300BD
:107D4000D02B002008B51C238C220249024800F0E9
:107D500004FB08BDFC2D0020882E002010B5014634
:107D6000044800F018FB04461C2200210BF0D7F851
:107D7000204610BD882E002008B50146014800F0BD
:107D800016FB08BD882E002008B50121034800F02D
:107D9000CBFB00B108BDFFF751FFFBE7982E002099
:107DA0002DE9F04383B00C463849097800295DD0AD
:107DB00005469846002C5CD021884FF6FF73994207
:107DC0005AD06388002B5AD0676817F0030759D13F
:107DD000002A33D01388ADF80630B2F80290684616
:107DE000FFF7BCFF0646002833D080F80080002350
:107DF0008375BDF80630838263680361FFF78CFFEB
:107E0000F060238833816388B380A6F80690B8F1C8
:107E1000030F26D0002373816846FFF7ADFF3DB105
:107E200000236B60F2682A60AB72194B1B892B81AF
:107E3000FFF7AAFF384603B0BDE8F083B4F8089016
:107E40000DF106014846FFF7ABF90028C7D00746F9
:107E5000F0E7BDF806104846FFF7D0F948F207678B
:107E6000E8E70423B3752B68B361D3E748F20167F1
:107E7000E0E748F20467DDE748F20367DAE748F233
:107E80000367D7E748F20267D4E700BFB02D0020B0
:107E9000B82D0020094A1268042A0BD008B5034601
:107EA00006480168064A42F82130012100F04AFBE9
:107EB000002008BD48F20B60704700BFA42E0020D0
:107EC000A02D002030B587B00023019302930393C7
:107ED00004930593294B1B782BB9294800F04EFBDE
:107EE00040B1002403E001A8FFF71AF8002420465F
:107EF00007B030BDFFF718FF04460028F7D1FFF7A1
:107F000021FFFFF77FFA054602282DD0062811D061
:107F100068B36846FFF722FF60B301220270013D9B
:107F20000A2D12D8DFE805F00F110F111D111D11D8
:107F3000171A1700114B01221A7000225A6001A86B
:107F4000FEF7EEFFD3E7002202716846FFF714FF49
:107F5000FFF71AFFCBE703220271F6E70222027154
:107F6000F3E701220271F0E748F20A64BFE748F242
:107F70000A64BCE748F20764B9E700BFB02D0020EF
:107F8000B42D002010B370B582B00C46054601B385
:107F90000DF10601FFF770F918B948F2096002B057
:107FA00070BD6E68BDF8063003EB830080000830BA
:107FB000094B18440121043000F0C4FA26606B68B4
:107FC0000C3363600123AB720020E8E748F20460E1
:107FD000704748F20460E2E7D42D0020F8B110B5F4
:107FE00082B004460DF10601FFF746F9D0B1BDF8A5
:107FF000063003EB8301104A02EB8102D268AAB17A
:10800000A27AB2B10C4A02EB8101C968013903EBD3
:10801000830302EB8303D9600020A07204E048F2DE
:108020000460704748F2096002B010BD48F2056074
:10803000FAE748F20560F7E7D42D002008B50223DF
:108040000022FFF7ADFE08BD28B110B503230022C2
:10805000FFF7A6FE10BD48F204607047114B1B7875
:10806000BBB110B582B004464FF6FF73984213D0EF
:1080700001A8FFF773FE90B1052202700122027180
:10808000C48001A8FFF778FEFFF77EFE002002B053
:1080900010BD48F20160704748F20360F7E748F20C
:1080A0000760F4E7B02D00200F4B1B78B3B100B58B
:1080B00083B001A8FFF752FE98B10622027001A812
:1080C000FFF75AFE094B1B7813B1084B01221A73B4
:1080D000FFF75AFE002003B05DF804FB48F2016090
:1080E000704748F20760F6E7B02D0020B82D002059
:1080F00000B583B0ADF80600ADF8041001A90DF18C
:108100000600FFF7F3F803B05DF804FB00B583B099
:108110001346ADF806000A460DF106010020FFF7F0
:10812000E5F803B05DF804FB00B583B01346ADF885
:1081300006000A4600210DF10600FFF7D7F803B04C
:108140005DF804FB20B131B103680B60002070477B
:1081500048F20460704748F2046070472B4B1B786C
:10816000002B4CD0F0B583B0044600284AD0122230
:1081700000210AF0D4FE0323238000260FE0238889
:10818000013B23801CE004F11003009304F10E0373
:10819000A21D211D3046FFF7F1F80136B6B2012EBF
:1081A0002AD8374606EB8603194A02EB83031D895A
:1081B0005A891544ADB25868FEF744FF0328DED053
:1081C000134B07EB870203EB8202D26861880A44F3
:1081D000628007EB870703EB87077B8922891344BB
:1081E000238163892B446381C5F58065ADB2A38982
:1081F000AB42C8D2A581C6E7002003B0F0BD48F26B
:108200000160704748F20460F7E700BFB02D00201E
:10821000D42D0020BFF34F8F0549CA6802F4E062F5
:10822000044B1343CB60BFF34F8F00BFFDE700BF8C
:1082300000ED00E00400FA0508B5084B9A6ADB6A15
:10824000002300E00133192BFCD9054B1B6813F008
:10825000010F00D000BEFFF7DDFF08BD00ED00E01C
:10826000F0ED00E010B483B050E8013F9CB2C28949
:1082700014448289944228BFA41A0289944202BFFE
:10828000BFF32F8F002007E0C4EA030440E8014257
:10829000002AE9D14FF001008DF807000093009B00
:1082A0000B609DF8070003B05DF8044B704750E881
:1082B000012FC2EA024240E80123002BF7D17047A8
:1082C00010B483B050E8023F1FFAA3F4C28894426E
:1082D00002BFBFF32F8F00200DE0C28914448289B2
:1082E000944228BFA41AC3EA044440E80242002A88
:1082F000E8D14FF001008DF807000093009B0B6060
:108300009DF8070003B05DF8044B704750E8022F5A
:10831000C2EA224240E80223002BF7D1704782B024
:1083200050E8022FC188B2EB324F4FF0000317BF65
:1083300092B241EA014142EA014104E04268B2EBF3
:10834000324F08BF012340E80212002AE8D18DF81D
:1083500007309DF8070002B0704781B110B40C4699
:10836000B2FBF3F103FB112189B251B90460416002
:1083700081608281C38108465DF8044B70470E20FE
:1083800070470920F8E708B5FFF7C9FF08B10020DA
:1083900008BD1120FCE738B505460C46FFF762FF23
:1083A00018B128682388184438BD0020FCE708B5B8
:1083B0000A884B889A4201D0002008BDFFF777FF5A
:1083C0000120FAE738B505460C46FFF779FF18B1EA
:1083D00028686388184438BD0020FCE708B50A887F
:1083E0004B889A4201D0002008BDFFF78FFF012083
:1083F000FAE708B54B0901F01F01012202FA01F169
:1084000000EB830000F074F808BD10B54B0901F0D3
:108410001F040121A14000EB830000F05BF8E04065
:1084200000F0010010BD08B54A0901F01F01012349
:1084300003FA01F1C94300EB820000F067F808BDC0
:108440004B0950F8230001F01F01C84000F0010063
:1084500070472DE9F04106460F46002518E020231D
:1084600001E0B3FA83F31F2B11D803EB4514A742A5
:108470000DD921463046FFF7C8FFD8B1D8F80030F3
:10848000DB4393FAA3F3002BEBD12023EBE7013579
:108490007B1E5B090133AB420BD906EB850856F80E
:1084A0002530DB4393FAA3F3002BD8D0B3FA83F340
:1084B000D9E73C462046BDE8F08110B4034653E8B6
:1084C000000F0A4643E8002494F0000FF7D15DF84E
:1084D000044B704710B4034653E8000F40EA010212
:1084E00043E8002494F0000FF6D15DF8044B704788
:1084F00010B4034653E8002F42EA010043E80004A9
:1085000094F0000FF6D15DF8044B704710B40346A9
:1085100053E8002F02EA010043E8000494F0000F42
:10852000F6D15DF8044B704710B4034653E8000FD2
:1085300000EB010243E8002494F0000FF6D15DF84F
:10854000044B704710B4034653E8002F02EB0100C0
:1085500043E8000494F0000FF6D15DF8044B704737
:1085600010B4034653E8002FA2EB010043E80004D7
:1085700094F0000FF6D15DF8044B704708B5012167
:10858000FFF7A8FF08BDC3688B4206D81144013924
:108590000369994203D900207047002070470120E9
:1085A000704710F0030F0CBF012000207047436894
:1085B0001B68013B0B420CBF01200020704738B103
:1085C00008B50B4611462BB103601B68984708BDE0
:1085D0000E2070470E20FAE770B32DE9F04182B00B
:1085E0000F4616461C46054642B3D0F80080B8F147
:1085F000000F25D033B343685A68B4FBF2F302FB93
:1086000013430BBB0846FFF7CCFFF8B13046FFF72A
:10861000C8FFE8B1224639462846FFF7B4FFC8B183
:10862000D8F80C80089B00932346324639462846EA
:10863000C04702B0BDE8F0810E2070470E20F8E779
:108640000820F6E70920F4E70920F2E71020F0E718
:108650001020EEE71020ECE7E0B12DE9F04188466C
:1086600014461F4605460668B6B1BAB1FFF79FFF2C
:10867000B0B16B681A6804FB02F241462846FFF766
:1086800082FF78B136693B46224641462846B047CC
:10869000BDE8F0810E2070470820F9E70920F7E7D0
:1086A0001020F5E71020F3E729DF704728DF704737
:1086B00003689B683BB300B587B000230093029327
:1086C00003930493019183680593037943B1012BCC
:1086D00010D003689B686846984707B05DF804FBB4
:1086E00001238DF8003003690293C3680393436943
:1086F0000493EEE702238DF80030C3681B03029356
:1087000043690493E5E7704710B542698369D21A5B
:10871000B2F5805F28BF4FF4805292080469C168A7
:10872000012A38BF012219441819FFF7BDFF10BDF7
:1087300008B5C26800691044FFF7B8FF08BD000023
:10874000114B0022DA6003791BB1012B0FD01046C8
:10875000704742698369D11AB1F5805F94BF5B1895
:1087600003F5805383619A4209D000207047036962
:10877000013303614269934203D000207047012016
:1087800070470120704700BF502F0020064AD36871
:108790000133D360082B01D8002070471346002214
:1087A000DA600120704700BF502F00200846704754
:1087B00000207047024B187A003818BF012070471C
:1087C000502F0020034B01225A74187AB0FA80F01F
:1087D00040097047502F002008B502490248FFF7B2
:1087E000FDFD08BD642F0020402F002008B505497D
:1087F0000548FFF7E7FD054B1860003818BF01205A
:1088000008BD00BF642F0020402F0020682F0020EB
:1088100008B51A4B1B7AA3B1184B02221A72184BD7
:1088200018680379ABB1012B1CD00321144B1868D5
:10883000FFF73EFF114B00221A725A60FFF7CCFF80
:1088400008BDFFF7D3FF0028E6D10C4B00225A6089
:10885000F6E7FFF759FF40B11128E6D1074B012297
:108860001A72EDE7FFF764FFF5E7044B1B7C002B62
:10887000E6D10021022000F005F8E1E7502F0020AA
:10888000682F0020831E012B2DD810B50446164BEF
:108890001B7A53B1022B03D1022807D0032818D02A
:1088A000114B5B7CE3B9FFF7B3FF10BD0F4B1868AA
:1088B000FFF746FF0028F3D00B4B00221A720B4B38
:1088C0001868022C0AD00D21FFF7F2FEFFF784FF93
:1088D000E6E7064B1868FFF759FFEBE71146F3E7A9
:1088E0000AF088F8E1E77047502F0020682F002039
:1088F000012802D0032800D0704708B5054B00229C
:108900005A74012814BF002001201874FFF780FF5B
:1089100008BD00BF502F002008B50548FFF72EFE08
:1089200010B9044B5B7C03B108BDFFF771FFFBE797
:10893000542F0020502F00202DE9F04182B007462F
:10894000884616461D4601A90E48FFF724FDB0B122
:1089500004461C2200210AF0E2FA01232371276059
:10896000A5604FEA1831E160666101A90548FFF78B
:108970001EFDFFF7D1FF002002B0BDE8F08104200A
:10898000FAE700BF402F00202DE9F04383B0804676
:108990000F4691461E4601A90F48FFF7FCFCC0B1E7
:1089A00004461C2200210AF0BAFA00252571C4F8F9
:1089B00000800A9BA3602761C4F80C90666101A93E
:1089C0000548FFF7F4FCFFF7A7FF284603B0BDE812
:1089D000F0830420FAE700BF402F002008B51046BE
:1089E0001A460AF073FA002008BD000008B51422E8
:1089F000002104480AF093FA0348FFF7C4FC002062
:108A000008BD00BF502F0020402F002008B5094BA3
:108A100043600948FFF7B2FD08B1002008BD09F026
:108A2000FDFF054B18741C238C2204490448FFF7F2
:108A300094FCF2E7D45A0300502F0020B42E0020FB
:108A4000402F002041DF704710B50024054B1C70FB
:108A5000054B1C60BFF35F8F0449054800F08AF99D
:108A6000204610BD742F0020782F00207C5B03006F
:108A70006C2F002010B582B000238DF807300DF167
:108A80000700FEF7F5F9F1EE104A24F09F03E1EE3E
:108A9000103ABFF35F8F124B4022C3F884219DF838
:108AA0000700FEF719FA14F0070F07D109F0B6FF17
:108AB00048B920BF40BF20BF02B010BD09497D208A
:108AC00003F0B8FCF2E7FFF7BDFF0028F4D002285E
:108AD000F2D004494FF4B07003F0ACFCECE700BFF7
:108AE00000E100E0005B030002681368526839B1DE
:108AF000934203D880680130801A7047981A7047F3
:108B0000934201D8D01A704780680130C01A70476C
:108B10002DE9F04104468846154603681F68002188
:108B2000FFF7E2FF6168E26807FB0211A8420DD37C
:108B300005FB02F240460AF0C9F93D44A3689D4294
:108B400000D9002523681D60BDE8F081064600FBC2
:108B500002F73A4640460AF0B9F9AD1BE26805FB58
:108B600002F2616808EB07000AF0B0F923681D60A3
:108B7000EAE7000070B5054660B12B681E685C68C6
:108B80006DB1AB689C420FD2601C864214BF0020BE
:108B9000012070BD0549982003F04CFCEDE7034926
:108BA000832003F047FCECE70020EEE7885B03003E
:108BB0002DE9F04383B00D46044600282FD0002D48
:108BC00032D000238DF807300DF10700FEF750F981
:108BD0002046FFF7CFFF814610B1237C002B6BD1DD
:108BE0002768D7F804807E681CB3A3689E4225D20C
:108BF00001367E60B9F1000F07D027683E68FCB1EE
:108C0000A3689E4221D201363E60E268531E072BC4
:108C100046D8DFE803F01C3345384545453D284933
:108C2000A32003F007FCCAE72549A42003F002FCB7
:108C3000C7E72349832003F0FDFBD6E70026D8E7EA
:108C40001F49832003F0F6FBDAE70026DCE76368C0
:108C50002A7803F80820226811685368994226D8B8
:108C60005B1A9168994229D2936000249DF807000D
:108C7000FEF732F9204603B0BDE8F08363682A8826
:108C800023F81820E7E763682A6843F82820E2E71A
:108C9000636803EBC803D5E90001C3E90001DAE723
:108CA0006068294608FB02000AF010F9D3E7A068C3
:108CB0000130411A0B44D4E70424D7E70024D5E758
:108CC000885B030070B582B00D461446064620B19D
:108CD0004DB174B9204602B070BD16494FF4EC7026
:108CE00003F0A8FBF4E7134940F2D91003F0A2FB0C
:108CF000EFE700238DF807300DF10700FEF7B8F815
:108D0000336819685B68994208D85B1A9C420AD993
:108D100005249DF80700FEF7DFF8DBE7B2680132B3
:108D2000521A1344F2E7224629463046FFF7F0FE76
:108D30000024EEE7885B030030B583B0054688B1B8
:108D400000248DF807400DF10700FEF791F80C2282
:108D5000214628680AF0E3F89DF80700FEF7BCF802
:108D600003B030BD02494FF4047003F063FBE7E742
:108D7000885B030038B50C46054638B15CB12C6001
:108D800023686B60626893420AD038BD0649502060
:108D900003F050FBF2E70449512003F04BFBEEE7F0
:108DA00000236B60F1E700BFFC5B030010B50446D5
:108DB00058B1236873B1636833B1226891680B447A
:108DC0006360526893420AD010BD0649632003F0E5
:108DD00031FBEEE70349642003F02CFBEBE70023B3
:108DE0006360F1E7FC5B0300026813461BB18B4232
:108DF00003D01B68FAE70A60016070470346006809
:108E000008B102681A60704708B509F007FE20B97A
:108E1000074BD3F800342BB108BD06497B2003F083
:108E200009FBF5E700F0D0FA034B00229A70F3E754
:108E3000000001408C5C03007C2F002000B17047D3
:108E400008B5064B01225A700548FFF7D7FF18B145
:108E5000436800209847F7E708BD00BF7C2F00203B
:108E6000842F002010B5044610B1012C0CD010BD89
:108E70000C4B01225A700C48FFF7C0FF0028F4D0B9
:108E8000436800209847F6E7064B01229A7002E0FB
:108E90004368012098470548FFF7B0FF0028F7D145
:108EA000E5E700BF7C2F0020842F00208C2F0020BE
:108EB00010B5104B1B784BB185240F4BD3F8003401
:108EC00013B10C4B01229A70204610BD094B0022B1
:108ED0009A605A601A61DA60084800F013FA044692
:108EE00009F09CFD18B1034B01221A70E5E700F070
:108EF00021FAF8E77C2F002000000140658E020077
:108F000010B582B00446224B1B78D3B1204B9B781E
:108F1000E3B114B163680120984700238DF807304E
:108F20000DF10700FDF7A4FF194AD3680133D360A0
:108F30009DF80700FDF7D0FF154BDB680BB302B0BF
:108F400010BD1449F62003F075FADFE700238DF811
:108F500007300DF10700FDF78BFF1CB121460E48CD
:108F6000FFF742FF0A4BDB6843B1094AD36801337C
:108F7000D3609DF80700FDF7AFFFDDE700F0FEF9D5
:108F8000F3E704494FF4897003F054FAD7E700BFC0
:108F90007C2F00208C5C03008C2F002000B583B058
:108FA000144B1B78B3B1134BDB68CBB100238DF8A6
:108FB00007300DF10700FDF75BFF0E4BDA68013A51
:108FC000DA60DB6893B19DF80700FDF785FF03B019
:108FD0005DF804FB084940F2171003F02BFAE2E7B2
:108FE00005494FF48C7003F025FADFE7FFF70CFF1B
:108FF000E9E700BF7C2F00208C5C030000B583B044
:1090000001280ED0032824D010B103B05DF804FB72
:10901000174B0122C3F88020BFF34F8FBFF36F8F30
:10902000F3E700238DF807300DF10700FDF720FF6F
:10903000104B1B7853B10F4BDA680132DA60012212
:109040009A709DF80700FDF747FFDEE7FFF730FF56
:10905000F1E7084B1B7823B100F06CF9FFF79EFF96
:10906000D3E7054940F2522003F0E4F9F4E700BFEA
:1090700000E100E07C2F00208C5C030031DF7047B2
:1090800010B584B08DF8070000238DF80F300DF176
:109090000F00FDF7EDFE09F0C1FC28B19DF80F00AF
:1090A000FDF71AFF04B010BD064C0DF10701204674
:1090B000FFF77EFD2046FFF75DFD0028EED000F0B3
:1090C000B3FDEBE77059030000B583B020B103286E
:1090D0000BD003B05DF804FB134B1B78012BF8D1C8
:1090E00000F0A2FD00F0B8FDF3E700238DF8073093
:1090F0000DF10700FDF7BCFE0B4B1B78012B04D0D4
:109100009DF80700FDF7E8FEE3E70849084800F08E
:1091100017FD10B900F066FDF2E7064940F20710AE
:1091200003F088F9F6E700BFE02F002081900200ED
:10913000E12F0020045D030010B582B0144B1B78B2
:1091400023BBB0B10288124BA3F8012000238DF895
:1091500007300DF10700FDF78BFE09F05FFC50B9F9
:109160000C490D4800F0ECFC044660B900F03AFDF3
:1091700002E00A48E6E70024054B01221A709DF838
:109180000700FDF7A9FE204602B010BD8524FAE7CE
:10919000E02F002081900200E12F0020785D030085
:1091A00000B583B0124B1B78012B16D100238DF82C
:1091B00007300DF10700FDF75BFE09F02FFC88B1C9
:1091C0009DF80700FDF788FE0A48FFF7B5FD084B3C
:1091D00000221A7003B05DF804FB0749902003F0E9
:1091E00029F9E3E700F020FD00F036FDE8E700BFD5
:1091F000E02F002070590300045D0300F0B583B038
:1092000006460F461E4B1B78012B01D100240FE0B0
:109210001C49B72003F00EF9F8E73A4631461A48E0
:10922000FFF750FD044600F0DDFC0DE0022C1BD1E1
:1092300000238DF807300DF10700FDF719FE09F046
:10924000EDFB05460028E8D09DF80700FDF744FE39
:10925000002DEBD039463046FFF710FF044642F2AE
:1092600007039842E2D105240CB1052C02D1204617
:1092700003B0F0BD0349D12003F0DCF8F7E700BFED
:10928000E02F0020045D03007059030070B505460F
:109290000E460C4B1B78012B10D00B49E02003F03D
:1092A000C9F80BE03446402E28BF4024E1B22846DE
:1092B000FFF7A4FF0028F9D1361B2544002EF1D179
:1092C00070BD00BFE02F0020045D03000B4BD96888
:1092D00041F08072DA600A4B186840F001021A60AF
:1092E0005A68074B5B689B1AB3F50A5FF9D3044BC6
:1092F000186003F55D43F033D9607047F0ED00E08E
:10930000001000E010B5044648B1084B1B795BB96A
:10931000064B1C6001221A710020587110BD0449CF
:10932000A42003F087F8F0E78520F7E7E42F00207A
:109330007C5D030008B50D4B1B7953B10C4B1B68CA
:1093400013F0010F0AD04FF080430A4AC3F81825E2
:1093500008BD0949BD2003F06DF8EFE7044BC022BA
:1093600083F8002301221A60EDE700BFE42F0020FC
:1093700000E100E0010003007C5D030000B583B064
:109380000D4B1B7993B10D4B00221A601B680193A2
:10939000019B4FF080430222C3F80423FFF796FF9E
:1093A000074B01221A6003B05DF804FB0549EA206F
:1093B00003F040F8E7E700BFE42F0020040100407D
:1093C000080000407C5D030000B583B0104B1B79A2
:1093D000C3B14FF080430222C3F8082303F5827320
:1093E00000221A601B680193019B0A4B01221A603C
:1093F0004FF08043D3F8183413F4803FF8D103B012
:109400005DF804FB0449F72003F014F8E1E700BF1E
:10941000E42F00200C0000407C5D030000B583B009
:10942000154B1B6893B1144B00221A601B68009304
:10943000009B4FF080430122C3F808230F4B5B7958
:1094400023B90E4B5A711B68002098470C4B1B68C0
:1094500073B10B4B00221A601B680193019B4FF004
:1094600080430222C3F80823044B1B68012098475D
:1094700003B05DF804FB00BF00010040E42F0020B2
:1094800004010040034B034493F9500000F03F00F7
:10949000704700BFEC2F0020034B034493F95000AA
:1094A000C0F38110704700BFEC2F002070B4064657
:1094B000154662B1002365B10824A34218D20E4AB2
:1094C00052F82320B2F1FF3F05D00133F5E708231E
:1094D000F1E70C24F1E758B2074A941984F83000F8
:1094E00042F8231035B9083B134483F8506001E07B
:1094F0004FF0FF3070BC7047EC2F0020064B4FF050
:10950000FF3243F82020072804D908381844FF23E5
:1095100080F85030704700BFEC2F002010B4044694
:1095200000234BB94FF0A042D2F8201544F8041B99
:10953000C2F820150133F4E700231BB100205DF8C9
:10954000044B704750F823200AB90133F5E7012096
:10955000F5E700002DE9F843064691E04FF0FF33B0
:109560003DE049494FF4F67002F064FF3DE04FF0F2
:10957000030946E04FF0FF3346E043494FF4F670ED
:1095800002F058FF46E04FF0FF3356E03E494FF4FB
:10959000F67002F04FFF56E0B8F1010F66D1414678
:1095A000204698470135032D66D8384B2B4493F954
:1095B0005030B3F1FF3FF5D02846FFF763FF044674
:1095C000C20800F0070101238B40B25C1342E9D0CE
:1095D0002846FFF761FF80466309BFD0002304F0EF
:1095E0001F02D34013F0010FBBD004F5E0734FF01E
:1095F000A04252F82370C7F30147022FB7D04FF0B3
:1096000002096309B6D0002304F01F02D34013F00F
:10961000010FB2D04FF0A04304F5E07253F82210CE
:1096200021F4403143F8221053F8221041EA094155
:1096300043F822106309A6D0002304F01F02D34090
:1096400013F0010FA2D00123A3404FF0A042C2F8B3
:1096500020350E4B1A1992F9302053F82230002B86
:10966000A0D0B8F1030F9AD0022F95D0032F99D133
:10967000B8F1020F96D192E73046FFF74FFF08B1DD
:10968000002590E7BDE8F883F05D0300EC2F002093
:1096900010B582B0224B93F85840002C3DD12346A0
:1096A00004E04FF0FF3207E00133DBB21F2B0FD88D
:1096B00018465A09F5D0002203F01F01CA4012F0E3
:1096C000010FF1D0164A0244FF2182F83010EBE777
:1096D0000B2C05D82046FFF711FF0134E4B2F7E761
:1096E0000F4C0422002104F1540009F018FC0D4B2A
:1096F000C02283F8062340221A600B4B002018601A
:109700001B680193019B094B4FF00042C3F80423EF
:10971000012384F8583002B010BD0820FBE700BFD9
:10972000EC2F002000E100E07C6100400060004080
:10973000034B93F85800003818BF0120704700BF52
:10974000EC2F0020F8B504460D46164643090ED00E
:10975000002304F01F02D34013F0010F0AD0484B3E
:10976000234493F93030002B0ADB0820F8BD4FF07A
:10977000FF33EEE743494FF40C7002F05BFEEEE777
:10978000AA78C2F3400231462046FFF78FFE064614
:10979000B0F1FF3F71D0AB7813F0040F1FD113F07D
:1097A000010F43D0630938D0002304F01F02D340D7
:1097B00013F0010F34D04FF0A04204F5E07152F8DD
:1097C000213023F0020342F82130E30804F00701BE
:1097D0002D48012202FA01F1C25C0A43C254AB785F
:1097E00013F0020F3DD02B78284906F5A27651F8E8
:1097F000262022F4473222F4407241F8262051F804
:109800002620240204F4F8541B0403F440331C43C0
:10981000144341F826400020A8E74FF0FF33C4E787
:109820001B494FF4F67002F005FEC4E76F78630938
:109830000ED0002304F01F02D34013F0010F0AD012
:10984000BF0004F5E0734FF0A04242F82370BCE77C
:109850004FF0FF33EEE70E494FF4F67002F0EAFDE9
:10986000EEE7083E2A78064B1E4496F8503043EA4D
:10987000821386F85030002078E7042076E700BF96
:10988000EC2F0020205E03004030002000600040EC
:10989000F05D030070B582B004460D46430936D032
:1098A000002304F01F02D34013F0010F32D0484BC5
:1098B000234493F93030002B32DB454B234493F99A
:1098C0003000072859DD0838FFF7E6FD0546032874
:1098D0002CD0012846D00325630945D0002304F08D
:1098E0001F02D34013F0010F41D04FF0A04304F505
:1098F000E07453F8242022F4403243F8242053F833
:10990000240040EA054543F8245002B070BD4FF0F2
:10991000FF33C6E72F494FF4187002F08BFDC6E7FE
:109920002C4940F2612002F085FDC6E7630910D0A2
:10993000002304F01F02D34013F0010F0CD04FF0AE
:10994000A043D3F81035E34013F0010FC4D1022532
:10995000C2E74FF0FF33ECE71F494FF4F67002F017
:1099600069FDECE70225B7E74FF0FF33B7E71A4987
:109970004FF4F67002F05EFDB7E7C3B2072BC4D810
:1099800000F140039BB29B009BB2144900F5A27604
:1099900051F8262042F0010241F8262003F18043CD
:1099A00003F5C04300221A601B680193019B002D40
:1099B000ABD0074B1C4494F9302053F82230002BD5
:1099C000A3D0012303FA00F0C1F804039DE700BF10
:1099D000EC2F0020205E0300F05D030000600040DB
:1099E00070B584B00025039501204FF4807329469B
:1099F00003E0400004339BB20131072912D803F180
:109A0000804202F5C0421468012CF2D1254CD4F8F2
:109A100004432042EDD00024146012680192019AA0
:109A20000543E6E7204B1B68012B06D015F0FF0F1E
:109A300031D1002D32DB04B070BD1B4A002313600E
:109A400012680292029A45F0004503A808E04FF020
:109A5000A042D2F8201540F8041BC2F820150133AB
:109A6000002BF4D0E2E776000134072CE1D8354230
:109A7000F9D00C4B04F5A27253F82200C0F3042075
:109A800053F82210C1F30141084B53F82430002B46
:109A9000E9D09847E7E701260024E6E703A8FFF7A7
:109AA00059FDC8E7006000407C610040EC2F0020B9
:109AB000034B984201D1034870470020704700BF14
:109AC000002000404830002008B5064B1B681BB141
:109AD000044B1B68984708BD0349512002F0AAFCBB
:109AE000F6E700BF48300020945E030070B582B0F6
:109AF0000C460546B8B12846FFF7DAFF0546B8B16F
:109B000000238DF807300DF10700FDF7B1F92E792C
:109B100016B92C6001232B719DF80700FDF7DCF9C5
:109B20004EB9002005E00549772002F083FCE2E70A
:109B3000002002B070BD1120FBE700BF945E03005F
:109B400038B50C46054600282FD0002C32D01F4BCC
:109B50001B78002B38D11E4B1C602B7813F0010FA3
:109B600006D01C4AD2F8043543F00103C2F804358C
:109B7000184AD2F8003223F00103C2F800326C78A0
:109B8000A31EDBB2012B03D9631FDBB2022B16D855
:109B90006401E4B2104B83F80D434FF400521A6095
:109BA0000A4B01221A70002038BD0C493E2002F0F9
:109BB00041FCCAE709493F2002F03CFCC7E70849DD
:109BC0006B2002F037FCE3E78520EDE754300020FE
:109BD0005030002000D0004000E100E00C5F0300A6
:109BE000805F030000B583B00B4B1B78012B0DD1B8
:109BF0000A4B00221A601B680193019B084B01224B
:109C0000C3F804231A6003B05DF804FB054956202D
:109C100002F010FCECE700BF5430002000D10040FF
:109C200000D000400C5F030008B5084B1B78012BE7
:109C300006D10123064AC2F808330432136008BD76
:109C400004495E2002F0F6FBF3E700BF5430002029
:109C500000D000400C5F030008B50E4B1B78012BB1
:109C600012D101230C4AC2F80833043213600B4BA3
:109C70004FF40052C3F88020BFF34F8FBFF36F8FB4
:109C8000044B00221A7008BD0549652002F0D2FB82
:109C9000E7E700BF5430002000D0004000E100E0C2
:109CA0000C5F030000B583B0074B00221A601B68ED
:109CB0000193019B054BD3F80805054B1B68C0B207
:109CC000984703B05DF804FB00D1004000D000408D
:109CD0005030002038B50446C57FFF2D11D0837F5A
:109CE0000BB36B0916D0002305F01F02D34013F00D
:109CF000010F12D0012303FA05F54FF0A043C3F87A
:109D00000C55002363772372204650F8083B6168A6
:109D1000984738BD4FF0FF33E6E710494FF4F6702F
:109D200002F088FBE6E76B090ED0002305F01F0266
:109D3000D34013F0010F0AD0012303FA05F54FF0C9
:109D4000A043C3F80855DCE74FF0FF33EEE70349C3
:109D50004FF4F67002F06EFBEEE700BFF05D03001B
:109D6000D0F81831B3B110B582B00C460023C0F85A
:109D70001831D0F818310193019B0B6823B12046AC
:109D8000FFF7A8FF02B010BD034940F2972002F090
:109D900051FBF4E7704700BFB05F030008B502490C
:109DA0000248FFF7DDFF08BD5830002000300040BA
:109DB00030B583B00446106820B100F06045B5F1BD
:109DC000005F33D1956825B105F06045B5F1005FBE
:109DD0002CD15568C4F84405C4F848559068D26839
:109DE000C4F83405C4F838250022C4F81821D4F882
:109DF00018210192019A13F0010F1CD00122C4F81E
:109E0000502513F0020F1AD00122C4F8402513F098
:109E1000080F01D1012222610A68A2B113F00400E7
:109E200050D04023C4F80833002002E000234B77D1
:109E3000102003B030BD0022C4F85025E1E7002215
:109E4000C4F84025E3E7D4F81831002BFBD0CC7FD1
:109E5000FF2C3BD08B7FD3B163090FD0002304F0DC
:109E60001F02D34013F0010F0BD0012303FA04F4B7
:109E70004FF0A043C3F80C450020DAE74FF0FF3362
:109E8000EDE713494FF4F67002F0D4FAEDE76309F9
:109E90000FD0002304F01F02D34013F0010F0BD0AA
:109EA000012303FA04F44FF0A043C3F8084500204F
:109EB000BFE74FF0FF33EDE705494FF4F67002F0CE
:109EC000B9FAEDE74023C4F80433B2E70020B0E765
:109ED000F05D03002DE9F84F0646914698460D4681
:109EE000002900F0F580347904EBC403D54901EB77
:109EF00083010B7F002B40F0BE813768D249384682
:109F0000FFF7F4FD8246002840F0B881CD4B04EB0A
:109F1000C40203EB820143F82290C1F804802B7B3A
:109F2000012B40F2DA8095F800805FEA581300F0C8
:109F3000F180034608F01F02D34013F0010F00F038
:109F4000EC80012303FA08F34FF0A042C2F8083571
:109F500095F800805FEA581300F0E580534608F05A
:109F60001F02D34013F0010F00F0E08008F5E07805
:109F70004FF0A043012243F8282095F80180B8F162
:109F8000FF0F40F0D9804FF0FF3995F80280B8F10B
:109F9000FF0F40F007814FF0FF3BA97804EBC403AB
:109FA000A84A02EB830383F8201095F8038083F816
:109FB0001F80B8F1FF0F32D02B79002B00F01781F2
:109FC0005FEA581300F00A81534608F01F02D3409D
:109FD00013F0010F00F00581012303FA08F34FF09D
:109FE000A042C2F80C3595F803805FEA581300F0E0
:109FF0001981534608F01F02D34013F0010F00F0FF
:10A00000148108F5E0734FF0A042032142F82310B9
:10A01000297904EBC4038B4A02EB830399772B78ED
:10A02000C7F80835C7F80C95C7F810B5AB68C7F87E
:10A0300024352A7B6B7B003B18BF0123022A00F0EA
:10A04000FD80032A00F00881012A00F0F480C7F89F
:10A050005435AB79C7F8C0350723C7F8003504EB92
:10A06000C403784A52F8233033B3376847F30737CD
:10A070006D79AB1EDBB2012B04D96B1FDBB2022B57
:10A0800000F2ED80002FC0F2EF806D01EDB207F11C
:10A09000604707F5614787F8005333681A0B43F3AD
:10A0A0000733002B08DB02F01F025B09012101FAD4
:10A0B00002F2664941F82320624B04EBC40203EB31
:10A0C000820200215177012313775046BDE8F88FB3
:10A0D0005F49AD2002F0AEF905E795F800805FEA30
:10A0E00058130ED0034608F01F02D34013F0010F9F
:10A0F0000AD0012303FA08F34FF0A042C2F80C354E
:10A1000026E74FF0FF33EEE752494FF4F67002F0C6
:10A1100091F9EEE74FF0FF330CE74E494FF4F6703C
:10A1200002F088F90DE74FF0FF3318E749494FF483
:10A13000F67002F07FF919E7C1465FEA58131FD0A5
:10A14000534608F01F02D34013F0010F1BD0012328
:10A1500003FA08F34FF0A042C2F80C355FEA581337
:10A1600017D0534608F01F02D34013F0010F13D04D
:10A1700008F5E0784FF0A043032243F8282004E7D5
:10A180004FF0FF33DDE733494FF4F67002F052F938
:10A19000DDE74FF0FF33E5E72E494FF4F67002F0AC
:10A1A00049F9E5E7C3465FEA58130ED0534608F075
:10A1B0001F02D34013F0010F0AD008F5E0784FF0EA
:10A1C000A0430C2243F82820E7E64FF0FF33EEE7E8
:10A1D00020494FF4F67002F02DF9EEE74FF0FF330F
:10A1E000F3E61C494FF4F67002F024F9F4E65FEA56
:10A1F00058130ED0534608F01F02D34013F0010F3E
:10A200000AD0012303FA08F34FF0A042C2F8083540
:10A21000E9E64FF0FF33EEE70E494FF4F67002F037
:10A2200009F9EEE74FF0FF33E4E60A494FF4F67020
:10A2300002F000F9E5E643F0020308E743F0040307
:10A2400005E700BF583000209D9D020000E100E0BE
:10A25000B05F0300F05D030043F00603F7E6094931
:10A260006B2002F0E7F80DE707F00F076D01EDB284
:10A27000054BDD5511E74FF0080A26E74FF0110AAC
:10A2800023E700BF805F030014ED00E02DE9F843F1
:10A2900006460D469046047904EBC4034C4F07EB89
:10A2A00083073B7F002B55D02B68002B58D0AB6821
:10A2B000002B5ED033792BB9EB68FF2B02D86B688B
:10A2C000FF2B04D943494FF40C7002F0B3F804EBB0
:10A2D000C4033F4A02EB83035B7F002B76D104EB80
:10A2E000C40352F8233043B118F0140F05D104EB26
:10A2F000C40302EB830301225A7704EBC40C344BF2
:10A3000003EB8C0C0CF10C0E95E80F008EE80F009F
:10A310009CF81F90B9F1FF0F14D09CF81E30002B51
:10A3200039D05FEA59132DD0002309F01F02D34022
:10A3300013F0010F29D0012303FA09F34FF0A042D3
:10A34000C2F8083543462A4639463068FFF730FDE3
:10A35000BDE8F8831F4940F22D2002F06BF8A3E717
:10A360006B68002BA3D01B4940F22E2002F062F84C
:10A370009DE7EB68002B9DD0164940F22F2002F09C
:10A3800059F897E74FF0FF33CFE713494FF4F670D2
:10A3900002F050F8CFE75FEA59130ED0002309F01E
:10A3A0001F02D34013F0010F0AD0012303FA09F36F
:10A3B0004FF0A042C2F80C35C4E74FF0FF33EEE790
:10A3C00005494FF4F67002F035F8EEE71120BFE7CB
:10A3D00058300020B05F0300F05D0300F0B583B09B
:10A3E00005460F461646002401E00134E4B2B442AB
:10A3F00015D2A00000F5A0704FF48033A3402A5876
:10A40000002AF2D0D5F804231342EED000232B50BB
:10A410002B580193019B3B6879689847E5E703B0A7
:10A42000F0BD000008B5042202490348FFF7D6FF3B
:10A4300008BD00BF7C300020009000402DE9F043B3
:10A4400085B00746894690464FF4A0744FF4803695
:10A45000002503E076000434A4B20135454511D24D
:10A46000D7F804331E42F5D03B59002BF2D000231D
:10A470003B513B590193019B184B53F82930E8B2EB
:10A480009847E7E7D7F8043313F0010F0ED0D7F859
:10A4900000315BB10023C7F80031D7F800310293D7
:10A4A000029B0E4B53F8293004209847D7F8043309
:10A4B00013F0020F0ED0D7F804315BB10023C7F8B8
:10A4C0000431D7F804310393039B044B53F829302C
:10A4D0000520984705B0BDE8F08300BF8C30002010
:10A4E000F8B5044615460E46002940D0002D43D04D
:10A4F00063792E4A42F8235003EB43032C4AD35C82
:10A50000002B50D194F90470B578AB1EDBB2012B4F
:10A5100003D96B1FDBB2022B33D8002F36DB6D0162
:10A52000EDB207F1604303F5614383F8005394F9FA
:10A530000430002B07DB03F01F015B0901228A4076
:10A540001C4941F8232027683588B5F5805F24D25F
:10A55000C7F8085563793079154A03EB4303D118DE
:10A560004870F07888700121D1540020F8BD12495C
:10A57000512001F05FFFB9E70F49522001F05AFF67
:10A58000B6E70E496B2001F055FFC6E707F00F0351
:10A590006D01EDB20A4AD554C9E70A494FF4BE70BD
:10A5A00001F048FFD4E70820E0E700BF8C3000202E
:10A5B0008830002000E100E024600300805F030099
:10A5C00014ED00E09860030010B50446437903EBF6
:10A5D0004303094AD35C012B09D1236801221A6085
:10A5E000637903EB4303044A0221D15410BD0349AC
:10A5F000822001F01FFFF0E7883000202460030074
:10A6000082B003680022C3F80021D3F8003101931F
:10A61000019B03680122C3F8442311B10368C3F806
:10A62000042302B0704702680123C2F8483302686D
:10A63000C2F80833704782B003680022C3F80421CF
:10A64000D3F804310193019B03680222C3F8442329
:10A6500011B10368C3F8042302B0704708B504229F
:10A6600000210248FFF7EAFE08BD00BF004002409B
:10A6700010B50446032815D8114B1C5D630916D08C
:10A68000002304F01F02D34013F0010F12D04FF04B
:10A69000A043D3F81035E34013F0010F0CBF0120A5
:10A6A000002010BD0749AC2001F0C4FEE4E74FF0E4
:10A6B000FF33E6E704494FF4F67001F0BBFEE6E72E
:10A6C00030610300C8600300F05D030008B54FF47B
:10A6D0008C72002108F023FC08BD28B108B54FF4A6
:10A6E0008C7101F021F808BD70470000C02A0FD01E
:10A6F000B2F5807F0FD0802A02D06FF01F00704724
:10A700000A230360F0B400F108034360002515E05C
:10A710000C230360F6E70E230360F3E711F82540EE
:10A7200001EB8506777844EA0724B77844EA0744C2
:10A73000F67844EA066443F825400135B5EB521F2C
:10A74000ECD302680C2A5DD00E2A00F0A0800A2A01
:10A7500002D00020F0BC70470024092C23D81A68CE
:10A760004C4951F824104A40D968C1F307254A489A
:10A77000455D6A40C1F30745455D82EA05220D0E3D
:10A78000455D82EA0542CDB2405D82EA00621A610F
:10A79000586842405A61986842409A614A40DA617A
:10A7A00001341033D9E70020D4E71A68394951F849
:10A7B00020104A405969C1F30725374C655D6A404E
:10A7C000C1F30745655D82EA05220D0E655D82EAEB
:10A7D0000542CDB2645D82EA04629A615C686240BF
:10A7E000DA619C6862401A62DC6862405A621C69E5
:10A7F00062409A624A40DA62013018330728D4D99D
:10A800000020A7E70020F9E71A68224850F8210045
:10A810004240D869C0F307241F4D2C5D6240C0F34D
:10A8200007442C5D82EA0422040E2C5D82EA044275
:10A83000C4B22C5D82EA04621A625C6862405A62A9
:10A840009C6862409A62DC686240DA621C69D6B237
:10A85000AE5D7440C2F30726AE5D84EA0624C2F3FF
:10A860000746AE5D84EA0644120EAA5C84EA0262E0
:10A870001A635C6962405A639C6962409A63424011
:10A88000DA63013120330629BED9002062E70021B6
:10A89000F9E700BF34720300346103002DE9F04F83
:10A8A0008DB0019245680B784A7843EA02238A7892
:10A8B00043EA0243CA7843EA02630A932C1D0B94CD
:10A8C0002A6853400A930B794A7943EA02238A792A
:10A8D00043EA0243CA7943EA0263099305F1080295
:10A8E0000B926D686B4009930B7A4D7A43EA05230E
:10A8F0008D7A43EA0543CD7A43EA0563089304F170
:10A9000008050B956468634008930B7B4C7B43EA16
:10A9100004238C7B43EA0443C97B43EA0163079326
:10A9200002F108050B9552685340079303685B10CA
:10A93000013B9A46BAF1000F40F308810B9A131DB0
:10A940000B931168DDF828C05FFA8CF07B4E56F847
:10A9500020004140099FC7F30720794D55F820009A
:10A9600041400898C0F30740764C54F8200041401D
:10A97000DDF81CE04FEA1E68734850F8288081EA31
:10A980000801069102F10809CDF82C90D2F8048054
:10A99000FAB256F8222088EA020B089AC2F3072876
:10A9A00055F828808BEA0802CEF3074854F828802F
:10A9B00082EA08024FEA1C6850F8288082EA0802FE
:10A9C000059203F10808CDF82C80D3F804B0089B59
:10A9D000DBB256F823308BEA0303CEF3072B55F88E
:10A9E0002BB083EA0B03CCF3074B54F82BB083EA6C
:10A9F0000B034FEA176B50F82BB083EA0B03049359
:10AA000009F1080BCDF82CB0D9F804905FFA8EFE4E
:10AA100056F82EE089EA0E09CCF3072C55F82CE005
:10AA200089EA0E09C7F3074754F8277089EA07092E
:10AA3000089F4FEA176C50F82CE089EA0E0703973D
:10AA400008F1080CCDF82CC0D8F804E05FFA81F8C2
:10AA500056F828808EEA080EC2F3072855F8288099
:10AA60008EEA080EC3F3074854F828808EEA080ED1
:10AA70004FEA176850F828808EEA080ECDF828E0D3
:10AA80000BF1080ECDF82CE0DBF804805FFA82F9B8
:10AA900056F8299088EA0908C3F3072955F8299040
:10AAA00088EA0908C7F3074954F8299088EA090891
:10AAB0004FEA116950F8299088EA0908CDF82480F6
:10AAC0000BF10C08CDF82C80DBF808C05FFA83F995
:10AAD00056F829908CEA090CC7F3072955F82990F4
:10AAE0008CEA090CC1F3074954F829908CEA090C47
:10AAF0004FEA126950F829908CEA090CCDF820C071
:10AB00000EF10808CDF82C80DEF804C0FFB256F82C
:10AB100027608CEA0606C1F3072155F82110714021
:10AB2000C2F3074254F822204A401B0E50F823304B
:10AB3000534007930AF1FF3AFCE600BF346203007A
:10AB400034660300346A0300346E0300DDF82C80A1
:10AB500008F104030B93D8F800200A9CE1B2DFF857
:10AB600078E25EF8211051400998C0F30722DFF81F
:10AB70006CC25CF822205140DDF820B0CBF30742D4
:10AB8000924F57F822205140079D2A0E904E56F8BA
:10AB900022205140069108F10809CDF82C90D8F8F0
:10ABA0000480C2B25EF8222088EA0202CBF30728B2
:10ABB0005CF8288082EA0802C5F3074857F8288025
:10ABC00082EA08024FEA146856F8288082EA0802EE
:10ABD000059203F10808CDF82C80D3F804A05FFAA1
:10ABE0008BF35EF823308AEA0303C5F3072A5CF887
:10ABF0002AA083EA0A03C4F3074A57F82AA083EA83
:10AC00000A034FEA106A56F82AA083EA0A0304935B
:10AC100009F1080ACDF82CA0D9F80490EDB25EF83D
:10AC2000255089EA0509C4F307245CF8244089EA21
:10AC3000040CC0F3074057F820008CEA000C4FEAE0
:10AC40001B6B56F82B008CEA000CCDF80CC008F1F9
:10AC500008050B95D8F80470CCB25E48045D6740D7
:10AC6000C2F30724045D87EA0427C3F30744045DA5
:10AC700087EA04474FEA1C64045D87EA04670A9781
:10AC800008F10C040B94D8F808605FFA82FE10F803
:10AC90000EE086EA0E06C3F3072E10F80EE086EAF1
:10ACA0000E26CCF3074E10F80EE086EA0E464FEA69
:10ACB000116E10F80EE086EA0E66099608F1100E85
:10ACC000CDF82CE0D8F80C505FFA83F810F8088023
:10ACD00085EA0805CCF3072810F8088085EA0825DE
:10ACE000C1F3074810F8088085EA08454FEA126862
:10ACF00010F8088085EA0865089504F1080ECDF87B
:10AD00002CE064685FFA8CFC10F80CC084EA0C0438
:10AD1000C1F30721415C84EA0124C2F30742825C4B
:10AD200084EA02441B0EC35C84EA0363079301991F
:10AD30000F70C7F307224A70C7F307428A70380EB4
:10AD4000C87008460E71C6F307224A71C6F307425F
:10AD50008A71310EC1710572C5F307224272C5F3C3
:10AD6000074282722A0EC2720373C3F30722427330
:10AD7000C3F3074282731B0EC37304210AA800F0B9
:10AD8000D3FC042109A800F0CFFC042108A800F09E
:10AD9000CBFC042107A800F0C7FC042106A800F0A2
:10ADA000C3FC042105A800F0BFFC042104A800F0A6
:10ADB000BBFC042103A800F0B7FC04210BA800F0A1
:10ADC000B3FC00200DB0BDE8F08F00BF346A030073
:10ADD000346E030034610300346203003466030000
:10ADE0002DE9F04F8DB0019245680B784A7843EA1F
:10ADF00002238A7843EA0243CA7843EA02630A9349
:10AE00002C1D0B942A6853400A930B794A7943EA24
:10AE100002238A7943EA0243CA7943EA0263099327
:10AE200005F108020B926D686B4009930B7A4D7A1D
:10AE300043EA05238D7A43EA0543CD7A43EA056365
:10AE4000089304F108050B956468634008930B7B35
:10AE50004C7B43EA04238C7B43EA0443C97B43EAEB
:10AE60000163079302F108050B955268534007935D
:10AE700003685B10013B9A46BAF1000F40F30E8164
:10AE80000B9A111D0B9113680A98C0B27F4E56F8A9
:10AE900020004340DDF81CE0CEF307207C4D55F840
:10AEA00020004340DDF820C0CCF30740794C54F833
:10AEB00020004340099F4FEA1768774850F82880E0
:10AEC00083EA0800069002F10809CDF82C90D2F828
:10AED0000480FAB256F8222088EA02020A9BC3F3E1
:10AEE000072855F8288082EA0802CEF3074854F86C
:10AEF000288082EA08024FEA1C68674B53F82880D2
:10AF000082EA0802059201F10808CDF82C80D1F8F8
:10AF100004B05FFA8CF156F821108BEA0101C7F3F7
:10AF2000072B55F82BB081EA0B010A9BC3F3074BA3
:10AF300054F82BB081EA0B014FEA1E6B564B53F8C5
:10AF40002BB081EA0B01049109F1080BCDF82CB06C
:10AF5000D9F804905FFA8EFE56F82EE089EA0E09C1
:10AF6000CCF3072C55F82CE089EA0E09C7F3074704
:10AF700054F8277089EA07070A9B4FEA136C464B7F
:10AF800053F82CE087EA0E07039708F1080CCDF878
:10AF90002CC0D8F804E05FFA80F856F828808EEAD2
:10AFA000080EC7F3072855F828808EEA080EC1F36B
:10AFB000074854F828808EEA080E4FEA126853F8C2
:10AFC00028808EEA080ECDF828E00BF1080ECDF8A7
:10AFD0002CE0DBF804805FFA82F956F8299088EAC1
:10AFE00009080346C0F3072955F8299088EA09089B
:10AFF000C7F3074954F8299088EA09084FEA11690C
:10B00000254850F8299088EA0908CDF824800BF1EA
:10B010000C08CDF82C80DBF808C05FFA81F956F8EF
:10B0200029908CEA090CC2F3072955F829908CEA7B
:10B03000090CC3F3074954F829908CEA090C4FEA2C
:10B040001769154850F829908CEA090CCDF820C0F2
:10B050000EF10808CDF82C80DEF804C0FFB256F8D7
:10B0600027608CEA0606C1F3072155F821107140CC
:10B07000C2F3074254F822204A401B0E50F82330F6
:10B08000534007930AF1FF3AF6E600BF5C730300F2
:10B090005C7703005C7B03005C7F03000B9A111D4F
:10B0A0000B911368DDF828B05FFA8BF0DFF874E2DB
:10B0B0005EF820004340079DC5F30720DFF868C213
:10B0C0005CF820004340089CC4F30740924F57F8B7
:10B0D0002000434009984FEA1068904E56F82880A7
:10B0E00083EA0803069302F10809CDF82C90D2F800
:10B0F0000480C2B25EF8222088EA0202CBF307285D
:10B100005CF8288082EA0802C5F3074857F82880CF
:10B1100082EA08024FEA146856F8288082EA080298
:10B12000059201F10808CDF82C80D1F804A0E1B215
:10B130005EF821108AEA0101C0F3072A5CF82AA010
:10B1400081EA0A01CBF3074A57F82AA081EA0A01EB
:10B150004FEA156A56F82AA081EA0A01049109F11A
:10B16000080ACDF82CA0D9F80490EDB25EF825506D
:10B1700089EA0509C4F307245CF8244089EA040C31
:10B18000C0F3074057F820008CEA000C4FEA1B6B15
:10B1900056F82B008CEA000CCDF80CC008F108051D
:10B1A0000B95D8F80470DCB25D48045D6740CCF3C1
:10B1B0000724045D87EA0427C1F30744045D87EA96
:10B1C0000447140E045D87EA04670A9708F10C042B
:10B1D0000B94D8F808605FFA82FE10F80EE086EA59
:10B1E0000E06C3F3072E10F80EE086EA0E26CCF307
:10B1F000074E10F80EE086EA0E464FEA116E10F880
:10B200000EE086EA0E66099608F1100ECDF82CE0E5
:10B21000D8F80C505FFA81F810F8088085EA080524
:10B22000C2F3072810F8088085EA0825C3F3074809
:10B2300010F8088085EA08454FEA1C6810F8088075
:10B2400085EA0865089504F1080ECDF82CE06468DD
:10B250005FFA8CFC10F80CC084EA0C04C1F30721DF
:10B26000415C84EA0124C2F30742825C84EA02441E
:10B270001B0EC35C84EA0363079301990F70C7F345
:10B2800007224A70C7F307428A70380EC870084612
:10B290000E71C6F307224A71C6F307428A71310E56
:10B2A000C1710572C5F307224272C5F3074282726B
:10B2B0002A0EC2720373C3F307224273C3F3074219
:10B2C00082731B0EC37304210AA800F02DFA042117
:10B2D00009A800F029FA042108A800F025FA0421A1
:10B2E00007A800F021FA042106A800F01DFA0421A5
:10B2F00005A800F019FA042104A800F015FA0421A9
:10B3000003A800F011FA04210BA800F00DFA0020A8
:10B310000DB0BDE8F08F00BF5C7B03005C7F0300D5
:10B320005C7203005C7303005C77030010B50C468D
:10B3300011461A46012C02D0FFF752FD10BDFFF74F
:10B34000ADFAFBE72DE9F043ADF53F7DB2F5C07FE7
:10B3500000F29F8080460D4616464FF4D0720021C1
:10B3600056A807F0DCFD6846FFF7B0F9330E8DF8FC
:10B370006831330C8DF86931330A8DF86A318DF8F4
:10B380006B6120238DF86F315CAC32462946204634
:10B3900007F09CFD8023A355193600230F2B03DCF7
:10B3A0004AAAD3540133F9E780224AA96846FFF735
:10B3B0009DF9074600284DD18146B9F11F0F2DDCBC
:10B3C0001022002146A807F0AAFD354656AC0BE036
:10B3D0001034102D94BF6D1B103D46AB1A46012151
:10B3E0006846FFF7A3FFA0BB4DB13B460F2BEFDC38
:10B3F000E25C46A9C85C4240CA540133F6E7102219
:10B4000046A94EAB03EB090007F060FD9DF85B31E8
:10B4100001338DF85B3109F11009CEE780224EA986
:10B420006846FFF763F90746A0B9044645461F2C56
:10B4300010DC52AB1A4601216846FFF777FF07463A
:10B4400040B9102252A9284607F040FD10351034AB
:10B45000EDE707466846FFF740F94FF4D07156A86C
:10B4600000F062F920214EA800F05EF910214AA8F0
:10B4700000F05AF9102146A800F056F927B93846CD
:10B480000DF53F7DBDE8F0832021404600F04CF9EA
:10B49000F5E76FF03707F2E72DE9F04188B0044691
:10B4A0000D4620220021684607F039FD00276E4630
:10B4B0000AE033462246012104F12000FFF736FF5F
:10B4C000804618BB103610371F2F0ADC1022002AC6
:10B4D000EFDD013AA35C0133DBB2A354002BF6D0BD
:10B4E000E7E7002308E0EA5C08A9194411F8200CFA
:10B4F000424001F8202C01331F2BF4DD80226946E5
:10B5000004F12000FFF7F2F8804638B120216846A8
:10B5100000F00AF9404608B0BDE8F08110220DEBBA
:10B520000201204607F0D2FCF0E708B54FF4A07204
:10B53000002107F0F4FC08BD50B110B504462030DE
:10B54000FFF7CBF84FF4A071204600F0EDF810BDE6
:10B550007047F0B5E1B08369B3F5C07F38D80446D1
:10B560000E461546C3F5C073934234D34FF4C072F0
:10B570000021684607F0D3FCD4F83831A269694647
:10B58000D4F83C01984748BBA76906B175B93A465B
:10B5900069466846FFF7D6FE054678B14FF4C0719C
:10B5A000684600F0C1F8284661B0F0BD2A46314631
:10B5B0000DEB070007F08AFC2F44E8E769462046B8
:10B5C000FFF76AFF05460028E8D101232361E5E77C
:10B5D0006FF03705E7E76FF03705E4E76FF0330505
:10B5E000E1E72DE9F04184B004460E4615461F46BA
:10B5F00010220021684607F092FC04F12008404622
:10B60000FFF764F8C4F83861C4F83C51A3690BB97A
:10B610002023A3614FF6F073E36180226946404620
:10B62000FFF764F810B104B0BDE8F0810A9A39461A
:10B630002046FFF78EFFF6E72DE9F0418CB0DDF8EC
:10B640004880B2F5806F5FD805460F4616461C4607
:10B65000B8F5807F5BD82022002104A807F05FFCAA
:10B660002A69EB699A4201DC6B693BB1424621468B
:10B670002846FFF76EFF044628B341E0B8F1000FFB
:10B6800021D04246214604A8FFF75CFE044678BB61
:10B6900004A92846FFF700FF0446A0B128E06B4646
:10B6A0002A46012105F12000FFF740FE0446F8B9C3
:10B6B0003446102E28BF102422466946384607F02B
:10B6C00005FC2744361B56B11024002CE7DD013C55
:10B6D0002B5D0133DBB22B55002BF6D0DFE704A93D
:10B6E0002846FFF7D9FE044610B92B6901332B61B8
:10B6F000202104A800F018F81021684600F014F882
:10B7000020460CB0BDE8F0816FF03504F8E76FF02B
:10B710003704F5E700B583B000230093FFF78CFFF3
:10B7200003B05DF804FB000031B108B50A46034BD5
:10B730001B680021984708BD704700BFE42B00201C
:10B74000034620B131B1002008604B60704748F2D9
:10B750001050704748F21350704720B103688B4275
:10B7600004D10020704748F21050704748F2405012
:10B77000704730B141B10B68934207D30A60002093
:10B78000704748F2135070470020704748F2145039
:10B79000704718B1914204D10020704748F2105010
:10B7A000704748F2115070472DE9F04100AF8046D4
:10B7B0000C4615461E4611462046FFF7C1FF10B144
:10B7C000BD46BDE8F08131462046FFF7B9FF0028AD
:10B7D000F6D12379104A52F82340104A32F8133038
:10B7E000BCB1B8F1000F0AD0324629464046A04706
:10B7F0000028E5D10A4B2B60063B3360E0E7002BC5
:10B80000F2D00733DB086A46A2EBC3039D46E84645
:10B81000EAE748F20350D3E7648303005C83030044
:10B820007652464DF8B504460F4615461E46FFF7BC
:10B8300087FF034690B9A27931462846FFF7A9FF52
:10B84000034658B92279084B53F8223043B12946B0
:10B8500038469847034608B9044A3A601846F8BD86
:10B8600048F20353FAE700BF708303007052464D5D
:10B87000F8B506460D4614460E49FFF76EFF03461F
:10B8800008B11846F8BD7768BA7921462846FFF70F
:10B8900070FF03460028F4D13A79074B53F8223061
:10B8A00023B12946304698470346EAE748F2035356
:10B8B000E7E700BF7052464D7C830300F0B430B11F
:10B8C00090F805C0D9B182B948F2135015E09C46F2
:10B8D000F8E70E5D4F5D175556550134013DAC42FA
:10B8E000F7D9A3EB0C0361446244634503D30CF125
:10B8F000FF350024F3E72BB91846F0BC704748F237
:10B900001050FAE748F21150F7E700002DE9F8432C
:10B9100000AF06460C4690461D4621492046FFF7DB
:10B920001CFF014618B10846BD46BDE8F8831D4915
:10B930004046FFF712FF01460028F4D1D4F80490E6
:10B94000D8F80430994502D048F24151EBE799F814
:10B950000520396A2846FFF70CFF01460028E2D18E
:10B9600099F80430104A52F82390104A32F81330F4
:10B97000B9F1000F11D036B12B4642462146304670
:10B98000C8470146CFE7002BF6D00733DB086A46ED
:10B99000A2EBC3039D466E46EEE748F20351C2E7B1
:10B9A0007652464D7052464D8883030090830300C3
:10B9B00038B50C4D0C4BED1AED080C4B01221A70EA
:10B9C0000024AC4207D2084B53F834309847034662
:10B9D00028B90134F5E7054B02221A7000231846F6
:10B9E00038BD00BFBC590300B4590300903000209B
:10B9F000074B1B78DBB2022B08D0054B1B78DBB260
:10BA0000012B01D0002070470120704701207047B2
:10BA100090300020002393420FD230B4C55CCC5C40
:10BA2000A54205D101339342F8D3012030BC7047C1
:10BA300001D90120FAE70020F8E70120704770B52E
:10BA4000064615461C461A46FFF7E4FF20B122467B
:10BA500031462846FFF7DEFF70BD10B404460023D0
:10BA600018468B4204D2E25C1AB908300133F8E779
:10BA7000FF220023072B06D8520032F0FF0102D12B
:10BA800001300133F6E75DF8044B70472DE9F84FBC
:10BA90000446884617461E469DF828A019461046BB
:10BAA000FFF7DBFF84B305468EB3B8F1000F33D048
:10BAB000AFB3324641463846FFF7ACFF48B948F2CB
:10BAC000175926E033463A4641462046FFF7B7FF6E
:10BAD000F8B953463246214612480068FAF784FD09
