:020000022000DC
:1060000000000120756302005D63020039FE02009A
:106010006163020063630200656302000000000028
:1060200000000000000000000000000067630200A4
:1060300069630200000000006B6302006D630200F0
:1060400005A902006F63020035AF0200D5B202005D
:106050006F6302006F630200D9AC02006F6302003D
:106060006F63020059B702006F6302006F630200A2
:106070006F63020009B102006F6302006F630200E8
:106080006F630200957602006F6302006F63020087
:10609000BD7602006F630200796303006F63020044
:1060A0006F6302006F6302006F6302006F630200A0
:1060B0006F6302006F630200000000000000000038
:1060C0006F6302006F6302006F6302006F63020080
:1060D00095B902006F6302006F63020000000000C8
:1060E00000000000000000000000000000000000B0
:1060F00000000000000000000000000000000000A0
:10610000000000000000000000000000000000008F
:10611000000000000000000000000000000000007F
:10612000000000000000000000000000000000006F
:10613000000000000000000000000000000000005F
:10614000000000000000000000000000000000004F
:10615000000000000000000000000000000000003F
:10616000000000000000000000000000000000002F
:10617000000000000000000000000000000000001F
:10618000000000000000000000000000000000000F
:1061900000000000000000000000000000000000FF
:1061A00000000000000000000000000000000000EF
:1061B00000000000000000000000000000000000DF
:1061C00000000000000000000000000000000000CF
:1061D00000000000000000000000000000000000BF
:1061E00000000000000000000000000000000000AF
:1061F000000000000000000000000000000000009F
:10620000354936480A1A02D0072291438D4634494F
:1062100034480A1A06D00722914381F309880222E2
:1062200082F3148830483149314A00F044F831484B
:106230003149324A00F03FF831483249324A00F0E1
:106240003AF832483249334A00F035F83248334997
:10625000334A00F030F833483349344A00F02BF821
:1062600033483449344A00F026F83448344900228F
:1062700000F02CF833483449002200F027F8334866
:106280003349091A082902DB002202604160314AC1
:1062900090471F481F49884205D00268043003B464
:1062A000904703BCF7E700208646EC46002000211B
:1062B000294A9047FEE7884207D0521A05D0037852
:1062C00001300B700131013AF9D17047884202D098
:1062D00002700130FAE7704700000120F0D800207A
:1062E0000000012000000120100C0400E42B00201D
:1062F0003C2C0020D0630200D0630200389D0300D4
:10630000100C0400E42B0020E42B0020249F030049
:10631000249F0300249F0300249F0300249F030065
:10632000249F0300249F0300249F0300100C0400FB
:10633000680C04003C2C00203C2C00203C2C00204D
:106340005C5100205C5100205C5100205C51002019
:106350005C7100209D63020055EB0200FEE7FEE742
:10636000FEE7FEE7FEE7FEE7FEE7FEE7FEE7FEE705
:1063700000F002B8FFF7FCBF0F484FF00701884359
:1063800085460E4880470E48016841F4700101605F
:10639000BFF34F8FBFF36F8FFFF732BF09480A4932
:1063A0000A4A884207D0521A05D0037801300B7090
:1063B0000131013AF9D170470000012001FC0200CF
:1063C00088ED00E0109F0300D02B0020E42B00207C
:1063D00008B5022005F09AFB08BD000010B5084B77
:1063E0001B7853B1002400E00134032C07D8022CA1
:1063F000FAD0204605F038FBF6E705F055FB10BD56
:106400003D2C002038B50446BF4B1B78E3B9172C50
:1064100000F28481DFE814F01E00280028005400F8
:106420008000A300CE00DB00E200EF00FC000901C9
:1064300016011C011C011C011C011C014D01530112
:106440005C01650171017101AF4B00221A70FFF709
:10645000C5FFDCE7FFF7C2FFAC4801F09BF905463A
:10646000AB4B1C70284638BD002005F0B9FAE8B1E6
:10647000002005F0F9FA022C15D04FF47A63A44AF3
:1064800014700024590CD8034FF47A72002310F5CD
:10649000FA70614110F08CF9014622469B4801F0E8
:1064A00057F90546DEE74FF4E163E8E7002005F021
:1064B000BBFA022C02D04FF4C873E0E7C823DEE732
:1064C000002005F08DFAE8B1002005F0CDFA032C8C
:1064D00015D04FF47A638E4A14700024590CD803F7
:1064E0004FF47A72002310F5FA70614110F060F9F0
:1064F00001462246854801F02BF90546B2E74FF4E4
:106500004873E8E7002005F08FFA032C02D04FF41F
:10651000C873E0E7C823DEE7002005F061FAC0B1E8
:10652000002005F0A1FA4FF47A63794A1470002430
:10653000590CD8034FF47A72002310F5FA706141B8
:1065400010F036F901462246704801F001F905467F
:1065500088E7002005F068FA4FF4C873E5E70020EB
:1065600005F03EFAE0B1002005F07EFA052C15D0CA
:106570004FF47A63664A14700024590CD8034FF420
:106580007A72002310F5FA70614110F011F901469A
:1065900022465E4801F0DCF8054663E7C823E9E7D8
:1065A000002005F041FA052C02D04FF4C873E1E752
:1065B000C823DFE7002005F0A9FA554B1C70002224
:1065C00040F6CD41514801F0C3F805464AE70020A6
:1065D00005F02AFA4E4B1C70002543E701204A4B78
:1065E000187005F093FA002240F6CD41474801F0BB
:1065F000AFF8054636E70120434B187005F086FAE0
:1066000000224FF48041414801F0A2F8054629E7F5
:1066100001203D4B187005F079FA002240F6CD417B
:106620003A4801F095F805461CE70120364B1870F2
:1066300005F06CFA00224FF48041344801F088F8EC
:1066400005460FE705F058FA314B1C70002509E7A5
:10665000304801F09FF80546D4F1110422D008BB60
:10666000012C06D8022005F0DFF92B4B01221A700D
:10667000F8E6A4B2C82303FB04F4E317D90341EA04
:106680005441E0034FF47A72002310F5FA7041F19F
:10669000000110F08DF8014600221E4801F058F864
:1066A0000546DFE7022005F0DFF91B4B00221A70D8
:1066B000D8E6FFF793FE164B1C700025D2E6FFF7D5
:1066C0008DFE002005F0B0F9114B1C700025C9E6C5
:1066D000FFF784FE012005F0A7F90D4B1C70002583
:1066E000C0E6FFF77BFE002005F09EF9012005F0D3
:1066F0009BF9074B1C700025B4E605F0FDF9044B2F
:106700001C700025AEE600BFB02C0020802C0020BD
:10671000B82C0020402C00203D2C00200025A1E6B4
:1067200008B5054B1B6813F0010F00D108BD034BE2
:106730001878FFF767FEF9E7AC2C0020B82C002092
:1067400070B506460D4605F02DFA032805D8044617
:10675000012D03D0022D30D015B370BD1A4A00EBC5
:106760004003D118D55C4B787BB904EB4402164B3F
:1067700013449A78154B1A55002DEED0144B1B6814
:10678000002BEAD028469847E7E7124A4FF4004129
:10679000114800F0DDFF0028E7D10E4B1E70E4E742
:1067A0000D4800F0F7FF094B1A5D04EB4404064B5B
:1067B0001C44A578AA42D0D1DEE700EB4004024B8E
:1067C0001C446578D8E700BFA02C0020BC2C00201A
:1067D000B42C00203C2C0020602C002008B50221A5
:1067E0000078FFF7ADFF08BD032801D906207047E8
:1067F00038B5B9B1032505F0E5F904461F2813D8CB
:106800004FF0A04304F5E07053F8202022F440320A
:1068100043F8202053F8202042EA054243F8202084
:10682000002038BD0025E6E7024940F2CD1008F00F
:106830005FF9E5E7249F0300032801D90020704792
:1068400008B505F08BF908BD08B50246044B186879
:1068500010F0010000D108BD1046FFF7D3FDFAE7A4
:10686000AC2C0020032824D8012A06D001290CD002
:10687000022910D0B1B107207047012901D00022B0
:10688000F4E700F10E02D2B2F0E700EB40000A4B51
:106890001A540020704700EB4000074B1844427028
:1068A0000020704700EB4000034B1844827000202A
:1068B00070470720704700BFA02C002070B5064627
:1068C000224B1860224B196010F002041AD116F006
:1068D000010F26D1204670BD012211462846FFF740
:1068E000C1FF04460135032D01D8002CF4D064B15A
:1068F0009CB1002CEBD1174A0021174800F012FF81
:106900000446E4E700252C46EDE740F266620421E8
:10691000124800F04FFA0446EAE700F0A3FA0446F2
:10692000E7E7012005F05EF944B1002CD2D10C4A12
:1069300001210C4800F0F6FE0446CBE70A4A00218C
:106940000A4800F0EFFE0446EFE700BFAC2C002041
:10695000B42C0020DD670200789F0300549F0300E1
:10696000D1630200749F0300216702007C9F030033
:1069700008B50121FFF738FF08BD08B50122002145
:106980000846FFF76FFF10B10346072812D1072210
:1069900002210120FFF766FF034608B1072809D14D
:1069A000042202210020FFF75DFF034610B10728F3
:1069B00000D10023184608BD08B50122022100209D
:1069C000FFF750FF10B10346072812D1072202211A
:1069D0000120FFF747FF034608B1072809D10A2223
:1069E00000210846FFF73EFF034610B1072800D1FB
:1069F0000023184608BD000008B50388102B02D0FC
:106A0000112B12D008BD114B1B6823B10F4A13681C
:106A100001331360F6E7FFF7B0FF0028F6D00C4B08
:106A20001B68002BF2D09847F0E7084A1368013B37
:106A30001360002BE6D1FFF7BFFF0028E2D0044B24
:106A40001B68002BDED09847DCE700BFC42C002079
:106A5000C02C002010B504460120FFF7EDFE10B158
:106A60000223237010BD0020FFF7E6FE10B10B23B8
:106A70002370F7E700232370F4E708B50020FFF741
:106A800077FF10B10346062807D10120FFF770FFFA
:106A9000034610B1062800D10023184608BD0000A7
:106AA00008B5074B186011B10846FFF7D3FF054B37
:106AB0001B680BB1002008BDFFF77EFFFBE700BF9E
:106AC000C02C0020C42C002008B507F0ABF908BD8D
:106AD00008B50021084607F055F908BD10F1360F3A
:106AE00009D058B110F1380F02D048F21650704753
:106AF00048F21150704748F2145070470020704718
:106B000008B50846114603F047FE002008BD000006
:106B100010B582B0041D002003F094FD08B102B04E
:106B200010BD204606F046FE00220092134603499F
:106B3000204606F0BBFEFFF7D1FFF0E7016B020035
:106B400008B5043006F03DFE03F0B0FD002008BD9E
:106B500008B5043006F011FFFFF7C0FF08BD08B507
:106B600011461A46043006F039FEFFF7B7FF08BD9C
:106B70004308054AD35C10F0010F01D01809704793
:106B800003F00F00704700BFF82C002010B410F085
:106B900001020CD00F230AB10901C9B24008054A0D
:106BA000145C2340194311545DF8044B7047F023E3
:106BB000F1E700BFF82C002008B5014600230A4A7F
:106BC00012789A4209DD094A126802EBC30012F8F2
:106BD00033208A4206D00133F1E70549882007F0C7
:106BE00087FF002008BD00BFC82C0020082D002012
:106BF000809F030038B504460D46FFF7DDFF20B146
:106C0000436813B129462046984738BD08B5044B60
:106C1000196800224908034800F09AFD08BD00BF2A
:106C2000CC2C0020D02C002010B5C0B2FFF7C4FF40
:106C30000446007804F032F86378012B14BF002377
:106C40000123834200D010BD034BD3E9002313433B
:106C5000F9D1FFF7DBFFF6E7F02C002030B583B069
:106C600004460D46FFF784FF04282ED8DFE800F025
:106C700003272F3E450045B301212046FFF786FF3D
:106C800000238DF807300DF1070000F0B3FD01225D
:106C9000A4F12003C4F1200102FA03F322FA01F166
:106CA0000B4302FA04F42C490A684868144303436E
:106CB0000C604B609DF8070000F0D0FD05E005B1C9
:106CC000022529462046FFF761FF03B030BD45B1DC
:106CD00003212046FFF75AFF01212046FFF78AFFD4
:106CE000F3E701212046FFF751FFEEE7002DECD13D
:106CF00004212046FFF74AFFE7E725B1032120469C
:106D0000FFF744FFE1E700212046FFF73FFF0021A6
:106D10002046FFF76FFF00238DF807300DF10700C5
:106D200000F068FD0120A4F12003C4F1200200FA64
:106D300003F320FA02F21343A040074A1468516893
:106D400024EA000021EA0303106053609DF8070065
:106D500000F084FDB9E700BFF02C002070B50024DE
:106D6000114B1B78A34216DD104B1D6805EBC406C2
:106D700015F8340003F092FF7378012B14BF002341
:106D80000123834214BF0021012115F83400FFF7CD
:106D900065FF0134E4E7064BD3E90023134300D138
:106DA00070BDFFF733FFFBE7C82C0020082D002043
:106DB000F02C0020092A41D970B582B006460D4654
:106DC000144603F04BFE18B903F008FE034690BBCF
:106DD0001C4B1E601C4B1D701C4B1C6010220021A4
:106DE0001B480FF006FE1B4B00200021C3E90001E9
:106DF0006C1EE4B2CDB106EBC40203238DF804305F
:106E00009DF8063003F0FC036FF382038DF8063023
:106E100093788DF80530104A01A916F8340003F074
:106E200027FE034638B92546E2E70C4A00210C4804
:106E300000F078FC0346184602B070BD07231846E0
:106E4000704700BF082D0020C82C0020CC2C00204B
:106E5000F82C0020F02C0020296C02005D6D02004F
:106E6000F89F030010B50C4B1B686BB100240B4B53
:106E70001B78A3420ED9084B1B68012113F834007C
:106E800003F080FE0134F2E7054940F2351007F0C7
:106E90002FFEEBE7002010BD082D0020C82C00209D
:106EA000809F030082B001238DF807309DF80730E2
:106EB000134B186059609A6044F20103984213D052
:106EC00044F20203984207D10D4BDA60DA68128867
:106ED0009A61DA685268DA6172B69DF80730002B61
:106EE000FBD162B602B07047054B1A611A6992680D
:106EF0005A611A6912689A611A695268DA61EBE795
:106F00000C2D002000B583B002900091019244F254
:106F1000010071466A4600F003F803B000BD0000AE
:106F20002DE9F04184B004460E46154672B605F0D0
:106F300069FD05F03DF80028FBD144F201039C42B5
:106F40003AD010D8012C1FD041F201039C424FD1FE
:106F50002D482E4BC01AC00800042D4940F00100F6
:106F600005F066F91AE044F202039C4240D126483B
:106F7000264BC01AC00800042B886A68254940F0D7
:106F8000010005F083FA09E01F48204BC01AC00831
:106F90000004214940F0010005F04AF91F4B1B682D
:106FA00013F0010F00D000BE2A4631462046FFF7FD
:106FB00079FF04B0BDE8F081134F144BFF1AFF08AE
:106FC0003F0447F00107D5F80880404603F09AF9DE
:106FD00003466A6829680296019100924246104968
:106FE000384605F045FC0F49384605F021F9D5E74C
:106FF0000548064BC01AC008000432460A4940F052
:10700000010005F0A3F9C9E7409E0300F89D0300C5
:107010001CA0030040A00300FC9F0300F0ED00E073
:107020005CA0030084A0030098A003002D4B1B88E4
:107030008B4201D2092070472DE9F04182B005460C
:107040000C46164600238DF807300DF1070000F0BE
:10705000D1FB254B1A78D2B2244B1978CBB22448F5
:107060000088814224D20133DBB29A4224D01F4BE4
:107070001F781A78D3B290421CD90133DBB21B4A75
:1070800013709DF8070000F0E9FB4FF6FF739F4275
:1070900026D04FEAC708174B1B6803EBC70243F81B
:1070A000376005B15CB90020908002B0BDE8F08186
:1070B0000023DAE70023E2E74FF6FF77E1E70E4B24
:1070C0001B68084A10882246294607FB00300FF04B
:1070D00067FC084B1B689844A8F804400020E4E7CC
:1070E0000420E2E7382D00203C2D00202C2D00202C
:1070F0003A2D0020342D0020302D0020034BC3F802
:107100000805034BC02283F811237047001001408B
:1071100000E100E010B50B4B4FF48032C3F844237C
:10712000C3F80423084A4FF40031C2F880111160FB
:1071300001241C604FF43C60044B23439847044BEC
:107140001C7010BD0010014000E100E0B0A0030081
:107150004D2E002070B50E4B4FF40032C3F8802046
:107160000C4D4FF48033C5F84833C5F80833012679
:107170006E60094C34434FF43C60A047AE6000257C
:10718000064B1D604FF43C60A047054B1D7070BD61
:1071900000E100E000100140B0A003005C2E0020E0
:1071A0004D2E002010B4114B1C685CB1026823689E
:1071B0009A4218D89A1A2260C4610C4B18605DF884
:1071C000044B70471860FAE7521A1C46DB6913B18A
:1071D00019689142F8D313B11968891A19600260CD
:1071E000C361E061EBE72346F1E700BF602E0020BA
:1071F00070B5184B1E683446354624B1844202D01F
:107200002546E469F9E714B3A5420CD02168E36987
:10721000EB6113B11A680A441A600E4B1868801BA0
:1072200018BF012070BDF3690A4A1360002BEDD12D
:107230000123094A9360094A00211160084A13702A
:107240004FF43C60074B43F001039847DEE7002012
:10725000E8E700BF602E0020001001405C2E0020F7
:107260004C2E0020B0A00300024B4FF40032C3F8B4
:107270000021704700E100E0024B4FF48012C3F898
:107280000021704700E100E008B543698069984734
:1072900008BD00001B4B1868002832D070B51A4B8F
:1072A000D3F80445194B1B68E41A24F07F440025E9
:1072B00004E000230374FFF7E7FF304648B103689A
:1072C000A34206D8E41A1D44C669037C002BF4D0FF
:1072D000EFE70F4B1A780F4B1B789A4207D00D4BF4
:1072E0001A780D4B43F82250FFF7C6FF70BD0133EB
:1072F000DBB2084A1370022BF1D1134600221A7038
:10730000EDE77047602E0020001001405C2E002049
:10731000582E0020592E0020502E0020104B1B7894
:10732000104A1278934217D00133DBB20C4A137023
:10733000022B0DD00A4B1A780B4B53F82230036006
:107340000A4A11680B4423F07F4313600120704701
:10735000134600221A70EDE70023036018467047B9
:10736000582E0020592E0020502E00205C2E002088
:1073700070B400250E4B1B68BBB11C68844212D848
:10738000001B254400241C60DE69094C2660DC6873
:10739000002CEFD06E1826F07F465E609C6014686B
:1073A000DC611360E6E7241A1C6070BC704700BF04
:1073B000602E0020F8B50546404B1F68002658E0B7
:1073C0003F4A11784B1CDBB213709278934227D05E
:1073D00001EB41033A4A02EBC3039C681B79022B81
:1073E00022D0032B2FD0012B43D1237C002B40D163
:1073F000334A01EB410302EBC303D86860601869AC
:10740000A0605B69E36001EB410102EBC1018B69A4
:10741000A3612C4B1B78002B30D0002363602DE040
:10742000274B00221A70D3E72046FFF7E1FE034600
:1074300000B93346002222741E461AE000221A7454
:10744000DA691E4B1A601D4B1B68002BF6D110E049
:10745000521A22F07F42A36893421CD99A1A2260E2
:1074600000236360A36001222274E3612046FFF7DA
:1074700099FE9DB1002DA3D02C46ED696168124B99
:107480001A688B1A23F07F4310488342E0D8A26821
:1074900013442360E4E700232360E1E7084B1A78F4
:1074A0005B789A42E6D12EB9044B1B68BB4203D0ED
:1074B000012000E00120F8BD0020FCE7602E002044
:1074C000402D00204C2E00205C2E0020FEFF7F006F
:1074D000F8B51C4B1B688BB31F681B4BD3F80455C6
:1074E0001A4B1C682E1B26F07F460336184B1B7860
:1074F0000BB3B7422CBFE419A41924F07F44124BFC
:10750000C3F84045D3F804355B1B23F07F430333B6
:10751000641B24F07F44A3420CD90B4BD3F8042501
:10752000C3F840254FF43C600A4B43F001039847F1
:10753000FFF79AFEF8BDFFF7EDFDDAE7FFF70AFE69
:10754000F8E700BF602E0020001001405C2E0020F4
:107550004D2E0020B0A0030070B582B0002301932F
:107560000D4B1E680D4B1D686846FFF7D7FE04469D
:1075700060B90198FFF71EFF00B914B12846FFF764
:10758000A7FF074B00221A7002B070BD01AA314656
:107590000098FFF7EDFEECE75C2E0020602E002047
:1075A0004C2E0020014B5870704700BF402D00202A
:1075B0000B4A53780133DBB292789A420CD0084AD6
:1075C00012789A420AD003700548437803EB4303CC
:1075D00000EBC300043070470023F0E70020704741
:1075E000402D00202DE9F04182B007460E4690461E
:1075F0001D4600248DF806400DF1060000F0FAF853
:107600000DF10700FFF7D4FFC0B1012303704760FD
:107610000D4BD3F804358360C660C0F81080456117
:107620009DF80700FFF7BEFF00249DF8060000F05C
:1076300015F92CB1204602B0BDE8F0810424F4E72E
:10764000FFF71AFEF6E700BF0010014030B583B027
:1076500004460D4600238DF806300DF1060000F0BB
:10766000C9F80DF10700FFF7A3FF70B10570446082
:107670009DF80700FFF796FF00249DF8060000F034
:10768000EDF824B1204603B030BD0424F5E7FFF740
:10769000F3FDF7E708B5084B0022C3F84021C3F813
:1076A0004421C3F84821C3F84C21C3F80021C3F892
:1076B0000421FFF7EFFD08BD0010014008B5FFF7FA
:1076C0004BFF08BD10B5FFF745FD0F4B00241C70A4
:1076D0005C700B229A700D4B1C600D4B1C700D4B97
:1076E0001C700D4B4FF48012C3F88021C02183F829
:1076F00014131A602046FFF701FD084BD3F8042548
:10770000074B1A60204610BD402D0020602E00203F
:10771000582E0020592E002000E100E0001001400A
:107720005C2E0020094B9B7843B14AB150B10368ED
:10773000187C48B9187459745A617047082070470A
:10774000072070470720704708207047402D002011
:1077500013460E4A927882B188B110B54C1F0C4A7C
:1077600094420ED8426972B1427C012A03D00022B1
:10777000FFF738FF10BD0A46FAE7082070470820D7
:1077800070470720F6E70820F4E700BF402D0020EF
:10779000FAFFFF0008B5094B9B7843B148B1436934
:1077A0004BB1002303740221FFF750FF08BD0820EE
:1077B000FCE70820FAE70820F8E700BF402D00208A
:1077C000014BD3F80405704700100140401A20F027
:1077D0007F407047EFF30583C3F308033BB9EFF332
:1077E000148313F0010F0CBF01200020704701200B
:1077F0007047000038B50446FFF7ECFF01281CD1A4
:10780000EFF3108272B6114B9B68DBB90F4901236D
:107810008B600F4BD3F880000E4D28400860C3F8F2
:107820008050D3F8840048604FF0FF31C3F88410D3
:107830000023237002B962B638BD0749432007F020
:1078400057F9DDE701232370F4E700BF642E002021
:1078500000E100E0FC06FFBDB8A0030010B504463F
:10786000FFF7B8FF012811D10B4B9B686BB164B9CE
:10787000EFF3108172B6084B1868084A1060586818
:10788000506000229A6001B962B610BD04495120CF
:1078900007F02EF9E8E700BF642E002000E100E0C9
:1078A000B8A0030038B50546002400E00134032CDD
:1078B00007D8044B53F82430002BF7D028469847BC
:1078C000F4E738BD7C2E00200378013B052B34D82B
:1078D000DFE803F003061120293100230B70704705
:1078E00001230B7003898B818388CB81C3688B60F4
:1078F00000230B74704702230B7003898B818388EC
:10790000CB81C3688B60837D062B14BF00230123CA
:107910000B74704703230B70C3888B810389CB8161
:10792000C3688B60704704230B70C3888B8100236E
:10793000CB818B60704705230B707047884207D25C
:107940000368B3F1FF3F01D001207047002070476A
:10795000002070474388033300EB8300704738B53D
:1079600004460D46FFF7F6FF85420CD3A2884FF67A
:10797000FF739A4209D023884BB1A368B3F1FF3F4C
:1079800007D0002038BD0220FCE70120FAE70120E3
:10799000F8E70120F6E7000060B10A4AD2688242A7
:1079A0000AD8084A1269824208D310F0030F07D19F
:1079B000012070470020704700207047002070476A
:1079C00000207047D02B002060B10168094A914225
:1079D0000AD14368084A934208D00132934207D142
:1079E0000120704703207047032070470020704734
:1079F00003207047DEC0ADDEFE011EF10368B3F167
:107A0000FF3F04D00A4A93420ED1012300E0012334
:107A1000B3F5806F06D250F82320B2F1FF3F05D1B5
:107A20000133F5E7012070470020704700207047C0
:107A3000DEC0ADDE10B4094A00EB800402EB840422
:107A400023890B44608910FA83F080B2B0F5806F0F
:107A50008CBF002001205DF8044B7047B02E002041
:107A60000023012B19D810B403E001339BB2012B82
:107A70000ED803EB83020A4C04EB820252688A425E
:107A8000F3D202F580528A42EFD90380002001E050
:107A900048F209605DF8044B704748F2096070478E
:107AA000B02E0020F8B50D46174600F5805600F1BF
:107AB000080402230B800DE00FB101223A70022B63
:107AC0001CD063882A88134403332B802046FFF799
:107AD00041FF044631462046FFF730FF88B131466A
:107AE0002046FFF73CFF03460028E5D1A368054A7E
:107AF00012689342E5D9034A1360E2E74FF48063CA
:107B00002B80F8BDA82E00208B7D022B04D9CB88BA
:107B10000289134403330381CA8843899B1A033BB8
:107B200043817047F8B5033086B240F2FE339E427F
:107B300021D80D46002401E00134A4B2012C17D84D
:107B400004EB84030D4A12F82330002BF4D13146A4
:107B50002046FFF76FFF0028EED02C80074B04EB88
:107B6000840203EB8202508930445081002001E0FE
:107B700048F20660F8BD48F20860FBE7B02E00202E
:107B800010B4064A01EB810402EB840463891B1ADA
:107B9000033B63815DF8044B704700BFB02E0020AB
:107BA000F8B50E4600EB8000134B03EB80004468F1
:107BB00004F580550868A0B1FFF7CCFE04462946BD
:107BC0002046FFF7BBFE074698B129462046FFF73F
:107BD000C6FE012807D002280AD00028EFD1346061
:107BE00007E00834EBE72046FFF7B4FE0446E6E77B
:107BF00000273846F8BD00BFB02E002070B582B017
:107C000006460D464068FFF7C7FE20B13289174B84
:107C10001B899A4218D000232B802B88012B23D854
:107C20000023019301A92888FFF7BAFF0146B8B1E4
:107C3000019B9C6832689442F4D173600B4B1B89A2
:107C40003381084602B070BD326871688B689A4211
:107C5000E1D12846FFF704FFB0FA80F14909F0E7C7
:107C60002B8801332B80D8E70021EAE7942E0020EF
:107C7000F8B51C461F4B1B78002B34D005460F4629
:107C80001646002A32D03CB948F2046027E00023AF
:107C90002360A3880133A380A388012B20D803EBA2
:107CA0008303154A12F82330002BF2D12146A08815
:107CB000FFF776FF0028EAD023681DB199882A884B
:107CC0009142F3D11FB119883A889142EED19B6855
:107CD000336023687360094B1B8933810020F8BD32
:107CE00048F20960FBE748F20160F8E748F20460F7
:107CF000F5E700BF8C2E0020B02E0020942E00202F
:107D00002DE9F041884617461E4600EB80001D4BCA
:107D100003EB8000456805F1080405F58055294608
:107D20002046FFF70BFE58B329462046FFF717FE03
:107D300001280DD0022818D00028F0D1B8F8003062
:107D40000133A8F800302046FFF704FE0446E6E7BA
:107D50003B8801333B80638832881344033333808C
:107D60002046FFF7F7FD0446D9E73B8801333B8007
:107D70002C1B358805EBA4043480069B01221A7065
:107D8000BDE8F081B02E00202DE9F0470024A14687
:107D90004FF003082546274653E03046FFF72EFEF6
:107DA000C8B1424A126882B1414B05EB850103EB31
:107DB0008100022203F82120466002813D4B5D8054
:107DC0000135ADB247F0010739E0384A16600221AB
:107DD00091808146F6E708F1FF381FFA88F8344AA7
:107DE00005EB850302EB83035E6005EB850303214E
:107DF00002F823100135ADB221E0B9F1000F0FD028
:107E00002B4B05EB850103EB8100022203F82120B7
:107E10002649096841600281264B5D800135ADB27B
:107E2000DFF888A0514641F8046B00223046FFF786
:107E300039FEBAF80430022B2DD008231F43013439
:107E4000A4B2022C29D81C4BDE6806EB043630465F
:107E5000FFF7BAFD0128D0D003289ED00028EED12C
:107E6000134905EB85039A0001EB83030020885436
:107E70005E6005EB85029200103205EB85039B00E6
:107E800008330A4419443046FFF70CFE47F0020756
:107E90000135ADB2D3E70423D0E7B8F1010F02D921
:107EA000F8B2BDE8F0870027FAE700BF782F00207E
:107EB000B02E0020942E0020D02B00200B4A1389D6
:107EC000013313810023538013730CE003EB830110
:107ED0008A0007498A5CB2FA82F2520903491944BE
:107EE0008A7201339BB2012BF0D97047942E002087
:107EF000B02E002030B40546002301E001339BB2D0
:107F0000012B19D80E4A1A44927A002AF6D00C4A4C
:107F10001A440021917203EB83020A4901EB8202A9
:107F2000D268002AEAD103EB830401EB8404207CAD
:107F30000028E3D02B8000E0002030BC704700BF59
:107F4000942E0020B02E0020044B5B685B88033326
:107F5000034A918811FA83F393807047942E00208E
:107F6000782F002030B40B490D680B4B5B880B4811
:107F700003EB8304A200024454680C6055608C88B3
:107F800003EB83039A001044048102238B8030BCEE
:107F9000704700BF782F0020942E0020B02E0020C4
:107FA00008B5124B1B78072B0AD8DFE803F0040949
:107FB000090A1016161AFFF781FF0C4B01221A70DE
:107FC00008BDFFF7C1FF094B02221A70F8E7FFF75F
:107FD000C9FF064B06221A70F2E7044B07221A70FB
:107FE000EEE7024B01221A70EAE700BF942E002050
:107FF00040F6F8731868B0F1FF3F07D04FF0805398
:108000001A695B69B0F1FF3F03D07047024B1868F3
:10801000F4E703FB02F0F8E71410001008B5FFF7CF
:10802000E7FF034B1861A0F54050D86008BD00BFC2
:10803000D02B002008B50146014800F011FF08BD13
:10804000642F002008B5064B05221A70054902234B
:108050008B80002301220968034801F017FC08BD4A
:10806000942E0020782F0020D02B002008B50D4B37
:108070005B8803EB83010C4A02EB8102D26872B980
:10808000084A0421117003EB8303074901EB8301C4
:10809000002301224968054801F0F8FB08BDFFF7FD
:1080A000D1FFFBE7942E0020B02E0020D02B002023
:1080B00000B583B0002300930823044A04490968EB
:1080C000044801F013FB03B05DF804FB94A1030026
:1080D000782F0020D02B002008B5044B07221A70FF
:1080E00000225A60FFF7E4FF08BD00BF942E002075
:1080F00000B583B00146002300930823034A0448D7
:1081000001F0F4FA03B05DF804FB00BF8CA103009A
:10811000D02B0020F8B530B90B79032B5FD8DFE8FE
:1081200003F0081E3944314B00225A604FF40640D8
:1081300005E001230B71FFF7BBFF00284FD1F8BD0D
:108140000B4600EB800292000021995400EB800066
:1081500003EB80004068FFF7CBFF012310E0002312
:10816000012B0AD8184603EB8302214911F822207B
:10817000022AE5D001339BB2F2E7002348F20E60F9
:10818000002BDAD1194B01221A7000225A6041F6F5
:108190001D50D4E700230B71164902228A80012268
:1081A0000968154801F072FBC7E700250D71114CF5
:1081B0002068FFF79DFF114B5B8826680C4903EB95
:1081C000830201EB8202576827605660A6881681F9
:1081D0000222A28003EB83039340CD54ADE7034B0F
:1081E00000225A6048F20D60A9E700BF8C2E0020E3
:1081F000B02E0020782F0020D02B0020942E0020BD
:1082000008B5064B06221A705B8803EB83039A00BD
:10821000034B13445868FFF76BFF08BD942E0020F2
:10822000B02E002000B583B0022383750023009395
:108230000423C218044801F059FA10B903B05DF8DC
:1082400004FB48F20D60F9E7D02B002000B583B0A5
:10825000036973B10323837500230093042300F1A2
:108260000C020831054801F041FA20B903B05DF86D
:1082700004FB0123EFE748F20D60F7E7D02B002065
:1082800000B583B001238375C388002200929B0050
:1082900002690C31044801F029FA10B903B05DF805
:1082A00004FB48F20D60F9E7D02B002000B583B045
:1082B0000378032B0ED00623837500230093042339
:1082C00000F108021944064801F010FA20B903B081
:1082D0005DF804FB0523EFE748F20D60F7E700BF08
:1082E000D02B002010B582B00C460023009304234D
:1082F000084A0146084801F0F9F940B904EB840442
:10830000064901EB84040123237402B010BD48F236
:108310000D60FAE788A10300D02B0020B02E0020CA
:1083200070B50C468B8A03EB83022D4E06EB82065A
:10833000A8B92B4A03EB830102EB8101496803EBE7
:10834000830302EB83031D8901EB8505A37D062BC7
:108350000BD8DFE803F0162E22280D343E003046FD
:10836000FFF7D2FB4FF4064515E048F20E650EE02C
:108370001C4800234360A36903601B49FFF73EFCD0
:1083800050B329462046FFF74DFF05461DB1214653
:108390003046FFF7B9FB284670BD29462046FFF757
:1083A00055FF0546F2E729462046FFF769FF0546D7
:1083B000ECE729462046FFF779FF0546E6E7062366
:1083C000A375094B1988074B5868FFF78BFF0546C3
:1083D000DCE741F61D55DAE748F20965DBE700BF47
:1083E000B02E0020702E0020842F002010B584B005
:1083F0000446002301930293C36800930DF10E011C
:108400006846FFF7FBFB18B948F2096004B010BDDD
:1084100001988388E38003882381BDF80E10FFF75D
:1084200061FFF3E730B583B009484268094B19682A
:108430009C88538803339BB203250570002000906D
:108440009B0001EB8401044801F050F903B030BDFA
:10845000942E0020782F0020D02B002008B5064B4A
:10846000191D5888FFF79CFB10B1FFF7DBFF08BD13
:10847000FFF7FCFDFBE700BF942E002008B507487E
:10848000FFF738FD10B1FFF7E9FF08BD044B0022EC
:108490001A705A805A6041F61D50F6E7962E002059
:1084A000942E002030BB08B5154B1B7B6BB1144BD1
:1084B00000221A73124B1B78013B062B1DD8DFE8F4
:1084C00003F0070A0D101C131600FFF769FDF1E712
:1084D000FFF7D4FF08BDFFF7C1FFFBE7FFF7A2FFDF
:1084E000F8E7FFF7C3FDF5E7FFF78AFEF2E7FFF7CE
:1084F000F3FDEFE74FF40640704748F20E60E9E7FE
:10850000942E002010B584B00B4B01AA0021063038
:10851000FFF7AEFB40B9084B99880298FFF7E2FEDF
:108520000446204604B010BD04460822002102483B
:108530000EF05FFAF5E700BF882F0020C8B908B534
:108540000B79012B0BD0022B16D013B148F20E6021
:1085500008BD02230B710846FFF748FFF8E70846FD
:10856000FFF7D0FF48F209639842F1D141F61D5060
:10857000EEE74FF40640704741F61D50E8E7000073
:1085800008B50146014800F077FC08BD642F0020C3
:1085900008B5084B1B683BB10121064800F036FDC9
:1085A000003818BF012008BD03494FF4247006F0BD
:1085B0009FFAF1E7742F002028A1030010B586B0C0
:1085C00004462BE02E48FFF735FD2E4B186029E0BE
:1085D0002D4940F29B5006F08BFA27E02046FFF72A
:1085E00099FD002849D00023019303930493059338
:1085F00041F61D5398423ED00290224C01A92068BA
:10860000FFF762F901A8FFF74DF9002323601C482A
:10861000FFF7B6FFFFF7BCFF78B30024194B1B68C8
:10862000002BCFD0174B1B68002BD1D0154B1968EE
:108630000B78013B052B1BD801A252F823F000BF99
:10864000DD8502005986020059860200618602001B
:1086500061860200698602002046FFF761FEC0E7DE
:108660002046FFF76BFFBCE72046FFF71BFFB8E78C
:1086700048F20E60B7E70020BEE706B010BD00BFAD
:10868000A42E0020AC2E002028A1030008B54068CD
:10869000FFF794FF08BD000008B50121014800F074
:1086A000A7FC08BDA82E002008B5FFF7B7FC0022E4
:1086B0000249034800F0E2FF08BD00BF68AB0300B9
:1086C000D02B002008B51C238C220249024800F060
:1086D00092FB08BDD82E0020642F002010B5014663
:1086E000044800F0A6FB04461C2200210EF081F98C
:1086F000204610BD642F002008B50146014800F057
:10870000A4FB08BD642F002008B50121034800F038
:1087100061FC00B108BDFFF751FFFBE7742F00209B
:108720002DE9F04383B00C463849097800295DD023
:1087300005469846002C5CD021884FF6FF7399427D
:108740005AD06388002B5AD0676817F0030759D1B5
:10875000002A33D01388ADF80630B2F8029068468C
:10876000FFF7BCFF0646002833D080F800800023C6
:108770008375BDF80630838263680361FFF78CFF61
:10878000F060238833816388B380A6F80690B8F13F
:10879000030F26D0002373816846FFF7ADFF3DB17C
:1087A00000236B60F2682A60AB72194B1B892B8126
:1087B000FFF7AAFF384603B0BDE8F083B4F808908D
:1087C0000DF106014846FFF7ADF90028C7D007466E
:1087D000F0E7BDF806104846FFF7D2F948F2076700
:1087E000E8E70423B3752B68B361D3E748F2016768
:1087F000E0E748F20467DDE748F20367DAE748F2AA
:108800000367D7E748F20267D4E700BF8C2E002049
:10881000942E0020094A1268042A0BD008B503469A
:1088200006480168064A42F82130012100F0E0FBC9
:10883000002008BD48F20B60704700BF802F002069
:108840007C2E002030B587B0002301930293039360
:1088500004930593294B1B782BB9294800F0E4FBBE
:1088600040B1002403E001A8FFF71CF800242046D3
:1088700007B030BDFFF718FF04460028F7D1FFF717
:1088800021FFFFF781FA054602282DD0062811D0D6
:1088900068B36846FFF722FF60B301220270013D12
:1088A0000A2D12D8DFE805F00F110F111D111D114F
:1088B000171A1700114B01221A7000225A6001A8E2
:1088C000FEF7F0FFD3E7002202716846FFF714FFBE
:1088D000FFF71AFFCBE703220271F6E702220271CB
:1088E000F3E701220271F0E748F20A64BFE748F2B9
:1088F0000A64BCE748F20764B9E700BF8C2E002089
:10890000902E002010B370B582B00C46054601B31E
:108910000DF10601FFF772F918B948F2096002B0CB
:1089200070BD6E68BDF8063003EB83008000083030
:10893000094B18440121043000F05AFB26606B6893
:108940000C3363600123AB720020E8E748F2046057
:10895000704748F20460E2E7B02E0020F8B110B58D
:1089600082B004460DF10601FFF748F9D0B1BDF819
:10897000063003EB8301104A02EB8102D268AAB1F0
:10898000A27AB2B10C4A02EB8101C968013903EB4A
:10899000830302EB8303D9600020A07204E048F255
:1089A0000460704748F2096002B010BD48F20560EB
:1089B000FAE748F20560F7E7B02E002008B5022379
:1089C0000022FFF7ADFE08BD28B110B50323002239
:1089D000FFF7A6FE10BD48F204607047114B1B78EC
:1089E000BBB110B582B004464FF6FF73984213D066
:1089F00001A8FFF773FE90B10522027001220271F7
:108A0000C48001A8FFF778FEFFF77EFE002002B0C9
:108A100010BD48F20160704748F20360F7E748F282
:108A20000760F4E78C2E00200F4B1B78B3B100B524
:108A300083B001A8FFF752FE98B10622027001A888
:108A4000FFF75AFE094B1B7813B1084B01221A732A
:108A5000FFF75AFE002003B05DF804FB48F2016006
:108A6000704748F20760F6E78C2E0020942E002015
:108A700000B583B0ADF80600ADF8041001A90DF102
:108A80000600FFF7F5F803B05DF804FB00B583B00E
:108A90001346ADF806000A460DF106010020FFF767
:108AA000E7F803B05DF804FB00B583B01346ADF8FA
:108AB00006000A4600210DF10600FFF7D9F803B0C1
:108AC0005DF804FB20B131B103680B6000207047F2
:108AD00048F20460704748F2046070472B4B1B78E3
:108AE000002B4CD0F0B583B0044600284AD01222A7
:108AF00000210DF07EFF0323238000260FE0238852
:108B0000013B23801CE004F11003009304F10E03E9
:108B1000A21D211D3046FFF7F3F80136B6B2012E33
:108B20002AD8374606EB8603194A02EB83031D89D0
:108B30005A891544ADB25868FEF746FF0328DED0C7
:108B4000134B07EB870203EB8202D26861880A4469
:108B5000628007EB870703EB87077B892289134431
:108B6000238163892B446381C5F58065ADB2A389F8
:108B7000AB42C8D2A581C6E7002003B0F0BD48F2E1
:108B80000160704748F20460F7E700BF8C2E0020B8
:108B9000B02E0020BFF34F8F0549CA6802F4E0628F
:108BA000044B1343CB60BFF34F8F00BFFDE700BF03
:108BB00000ED00E00400FA0570B582B0064603F04F
:108BC00021FF03F0F5F90028FBD1404B9D6A26B345
:108BD0003F4B404CE41AE408240444F00104B26919
:108BE0003D49204603F0B2FBB368F268019200935E
:108BF000736832683949204603F092FDF3690093A7
:108C0000736932693649204603F0E4FC2F4BDB6A76
:108C100013F0020F0CD1002420E02D4B2D48C01A78
:108C2000C00800042F4940F0010003F001FBEDE70C
:108C3000274B2848C01AC00800042B4940F0010007
:108C400003F0F6FAE7E7224B2248C01AC0080004F6
:108C5000264940F0010003F079FB0134192C09D8B2
:108C60000123A3402B42F8D0214B53F82420002AA3
:108C7000E9D1F2E715F0800F0DD115F4004F17D1AF
:108C80001C4B1B6813F0010F00D000BE3046FFF7ED
:108C900081FF02B070BD0E4B0E48C01AC008000420
:108CA0000A4B5A6B144940F0010003F04FFBE4E714
:108CB000074B0848C01AC0080004044B9A6B0F49C0
:108CC00040F0010003F042FBDAE700BF00ED00E0F6
:108CD000F89D0300609E03009CA10300B4A1030063
:108CE000ECA1030014A2030048A203008CA203001D
:108CF000B4A70300F0ED00E098A20300B8A20300BF
:108D000010B483B050E8013F9CB2C28914448289F8
:108D1000944228BFA41A0289944202BFBFF32F8F46
:108D2000002007E0C4EA030440E80142002AE9D138
:108D30004FF001008DF807000093009B0B609DF839
:108D4000070003B05DF8044B704750E8012FC2EAFA
:108D5000024240E80123002BF7D1704710B483B0E2
:108D600050E8023F1FFAA3F4C288944202BFBFF347
:108D70002F8F00200DE0C28914448289944228BFBD
:108D8000A41AC3EA044440E80242002AE8D14FF0A2
:108D900001008DF807000093009B0B609DF8070011
:108DA00003B05DF8044B704750E8022FC2EA22423C
:108DB00040E80223002BF7D1704782B050E8022F21
:108DC000C188B2EB324F4FF0000317BF92B241EAB5
:108DD000014142EA014104E04268B2EB324F08BF70
:108DE000012340E80212002AE8D18DF807309DF8EF
:108DF000070002B0704781B110B40C46B2FBF3F12A
:108E000003FB112189B251B9046041608160828104
:108E1000C38108465DF8044B70470E207047092057
:108E2000F8E708B5FFF7C9FF08B1002008BD112019
:108E3000FCE738B505460C46FFF762FF18B1286815
:108E40002388184438BD0020FCE708B50A884B8801
:108E50009A4201D0002008BDFFF777FF0120FAE712
:108E600038B505460C46FFF779FF18B128686388C6
:108E7000184438BD0020FCE708B50A884B889A42A0
:108E800001D0002008BDFFF78FFF0120FAE708B5E9
:108E90004B0901F01F01012202FA01F100EB8300EE
:108EA00000F06EF808BD10B54B0901F01F04012158
:108EB000A14000EB830000F055F8E04000F0010015
:108EC00010BD08B54A0901F01F01012303FA01F1A1
:108ED000C94300EB820000F06FF808BD4B0950F861
:108EE000230001F01F01C84000F0010070472DE988
:108EF000F04106460F46002516E0D8F80030DB4367
:108F000093FAA3F3B3FA83F31F2B0CD803EB4514A6
:108F1000A74208D921463046FFF7C5FF0028ECD10B
:108F20002046BDE8F08101357B1E5B090133AB4271
:108F300009D906EB850856F82530DB4393FAA3F3ED
:108F4000B3FA83F3E0E73C46EAE710B4034653E89C
:108F5000000F0A4643E8002494F0000FF7D15DF8B3
:108F6000044B704710B4034653E8000F40EA010277
:108F700043E8002494F0000FF6D15DF8044B7047ED
:108F800010B4034653E8002F42EA010043E800040E
:108F900094F0000FF6D15DF8044B704710B403460F
:108FA00053E8000F00EA010243E8002494F0000FA8
:108FB000F6D15DF8044B704710B4034653E8002F18
:108FC00002EA010043E8000494F0000FF6D15DF8D6
:108FD000044B704710B4034653E8000F00EB010246
:108FE00043E8002494F0000FF6D15DF8044B70477D
:108FF00010B4034653E8002F02EB010043E80004DD
:1090000094F0000FF6D15DF8044B704710B403469E
:1090100053E8002FA2EB010043E8000494F0000F96
:10902000F6D15DF8044B704708B50121FFF79AFFB0
:1090300008BD08B50121FFF7A3FF08BD08B5002151
:10904000FFF7ACFF08BD000038B50C46054620B15F
:10905000EB68288A00FB043038BD0249E82005F09F
:1090600047FDF5E728A8030038B50C46054630B1A2
:10907000E868241A288AB4FBF0F0C0B238BD02496F
:10908000F52005F035FDF3E728A8030000283DD0C2
:1090900010B50446036873B163688BB1A368ABB1C4
:1090A000E368CBB1238AEBB1A2686368D21AD2B26B
:1090B00021680B6022E01649FF2005F019FDEBE75F
:1090C00013494FF4807005F013FDE7E7104940F2B3
:1090D000011005F00DFDE3E70D494FF4817005F037
:1090E00007FDDFE70A4940F2031005F001FDDBE769
:1090F00021680A68501C086013701A46531EDBB2C0
:10910000002AF5D123680020187110BD0E20704789
:1091100028A8030030B583B00446E8B100238DF8D9
:1091200007300DF10700FEF765FB226813686168E0
:109130008B4217D9591E116013F8011C2046FFF706
:1091400083FF0546A368226811685B1ADBB21179B8
:10915000994208D2137106E006494FF4927005F067
:10916000C7FCDBE700259DF80700FEF777FB2846E4
:1091700003B030BD28A8030070B582B00C46064687
:10918000B0B1DCB100238DF807300DF10700FEF718
:1091900031FB33681D686A1C1A6021463046FFF7B0
:1091A00063FF28709DF80700FEF758FB02B070BD02
:1091B000054940F2471005F09BFCE2E702494FF4F5
:1091C000A47005F095FCDDE728A8030010B504465F
:1091D00040B1A2682AB163692168206998470023D9
:1091E000A36010BD0249312005F082FCF1E700BF09
:1091F00094A803000EB430B582B0059D044690B12A
:109200006369ABB12368C3B16368DBB135B106AB49
:10921000019301AA2946204600F022F902B0BDE8D8
:10922000304003B070470A49422005F061FCE7E78F
:109230000749432005F05CFCE4E70549442005F0BC
:1092400057FCE1E70249452005F052FCDEE700BF8C
:1092500094A8030010B5026883685C1C8460D15434
:10926000826843689A4200D210BDFFF7AFFFFBE768
:109270002DE9F84F82460F4615461E46DDF8289028
:109280000B9A0B464FF0010803E0B3FBF5F308F12E
:109290000108AB42F9D2B04500D2B04612F0010B42
:1092A00013D1B9F1000F10D012F0020F0FD086B118
:1092B000202405E009F1FF3921465046FFF7CAFF97
:1092C000B9F1000F01D0C145F4D8012409E02024F0
:1092D000F6E73024F4E7B7FBF4F39D4205D805FB2D
:1092E00004F4012EF7D9013EF9E7B7FBF4F304FBD0
:1092F00013770F4AD15C5046FFF7ACFF2346B4FB0F
:10930000F5F4AB42F1D2BBF1000F02D0B9F1000F7E
:1093100007D1BDE8F88F09F1FF3920215046FFF74A
:1093200099FFB9F1000FF4D0C145F4D8F1E700BFBF
:109330005CA903002DE9F04F83B0814688461546AD
:109340009A460C9FDDF834B081EAE174A4EBE17435
:109350000126A54203DC94FBF5F40136F9E75645F6
:1093600000D2564637B1B8F1000F02DB1BF0040FF4
:1093700000D0013F1BF0020F02D0BAF1000F03D062
:109380001BF0010F00D1D7B9B8F1000F1CDB1BF0A7
:10939000040F20D10BF00303022B21D0CDF804B031
:1093A000009753462A4641464846FFF761FF03B0FF
:1093B000BDE8F08F013F20214846FFF74BFF002F0B
:1093C000E2D0B742F6D8DFE7C8F100082D214846C1
:1093D000FFF740FFDEE72B214846FFF73BFFD9E7C9
:1093E000BAF1000FDAD12FB9D8E7013F3021484652
:1093F000FFF730FF002FD1D0B742F6D8CEE7F8B54F
:1094000006460D46144613F001070DD119B1084662
:109410000DF044FB0746BC4219D9C4B1013C2021E0
:109420003046FFF717FFF6E70027297851B10135DD
:1094300001373046FFF70EFFF7E7013C20213046A9
:10944000FFF708FFBC4201D9002CF6D1F8BD2978FE
:109450000029FBD001353046FFF7FCFEF7E700009E
:10946000F0B583B00C461646054648B16B696BB142
:109470002B688BB16B68ABB1002C40F08980D8E0D1
:109480006F4940F2522005F033FBEFE76C494FF48F
:10949000157005F02DFBEBE7694940F2552005F00A
:1094A00027FBE7E7664940F2562005F021FBE3E79A
:1094B0000027012203E047F00107013482B121783F
:1094C0002D29F8D0302903D02B2905D00022F5E72B
:1094D00047F002070134F1E747F004070134EDE7F4
:1094E0002A290CD02178A1F13000C0B209280CD86B
:1094F000013402EB820201EB4202303AF0E73368BA
:10950000191D31601B681A44013423782E2B02D0B8
:109510000023217810E0013400232178A1F13000EC
:10952000C0B20928F5D8013403EB830301EB4303F0
:10953000303BF2E714F8011F6C29FBD06829F9D001
:1095400025296FD020D378291ED858291CD3583903
:10955000202919D8DFE801F03C1818181818181835
:109560001818181126181818182618181818181866
:1095700050181847183118183C0033681A1D32600B
:1095800019782846FFF766FE01342378002B4ED069
:1095900014F8011B00294AD0252989D02846FFF755
:1095A00059FEF2E73168081D3060096801970092A2
:1095B0000A222846FFF7BEFEE6E73168081D306044
:1095C0000968019700920A222846FFF751FEDBE75F
:1095D0003168081D30600968019700921022284602
:1095E000FFF746FED0E731680B1D33603B46096844
:1095F0002846FFF704FFC7E733681A1D32601F686B
:1096000030212846FFF726FE78212846FFF722FE64
:109610000023019308230093102239462846FFF7C0
:1096200027FEB1E725212846FFF714FEACE72B7B88
:109630000BB903B0F0BD2846FFF7C8FDF9E700BF3E
:10964000F4A80300C3688B4206D8114401390369AA
:10965000994203D9002070470020704701207047CD
:1096600010F0030F0CBF01200020704743681B68F7
:10967000013B0B420CBF01200020704710B582B0A7
:1096800038B10B461146A3B103601B68984702B07E
:1096900010BD104B1048C01AC00800040E240094DE
:1096A0000E4B0F4A0F4940F0010002F093FF204695
:1096B000EDE7084B0848C01AC00800040E240094C7
:1096C000064B094A074940F0010002F083FF20469B
:1096D000DDE700BFF89D0300809E030020AB030080
:1096E0006CA9030074A90300A0A903002DE9F041AF
:1096F00082B0002831D00E4615461C460746002A87
:109700003BD0D0F80080B8F1000F46D0002B54D0E9
:1097100043685A68B4FBF2F302FB1343002B5CD19D
:109720000846FFF79DFF002867D02846FFF798FFFF
:10973000002872D0224631463846FFF783FF0028C2
:109740007BD0D8F80C80089B009323462A463146EC
:109750003846C04702B0BDE8F081404B4048C01ACF
:10976000C00800040E2400943E4B3F4A3F4940F09D
:10977000010002F02FFF2046ECE7384B3848C01AB2
:10978000C00800040E240094364B394A374940F093
:10979000010002F01FFF2046DCE7304B3048C01AC2
:1097A000C0080004082400942E4B324A2F4940F090
:1097B000010002F00FFF2046CCE7284B2848C01AD2
:1097C000C008000409240094264B2B4A274940F086
:1097D000010002F0FFFE2046BCE7204B2048C01AE3
:1097E000C0080004092400941E4B244A1F4940F07D
:1097F000010002F0EFFE2046ACE7184B1848C01AF3
:10980000C008000410240094164B1D4A174940F06C
:10981000010002F0DFFE20469CE7104B1048C01A02
:10982000C0080004102400940E4B164A0F4940F063
:10983000010002F0CFFE20468CE7084B0848C01A12
:10984000C008000410240094064B0F4A074940F05A
:10985000010002F0BFFE20467CE700BFF89D030038
:10986000809E030034AB03006CA9030074A90300BD
:1098700000AA0300A8A90300BCA9030008AA0300CA
:1098800034AA03004CAA030070AA03002DE9F0419A
:1098900082B0F0B1884614461F460546066846B3B6
:1098A000002A36D0FFF7E2FE002842D06B681A6823
:1098B00004FB02F241462846FFF7C4FE002848D0C8
:1098C00036693B46224641462846B04702B0BDE8CD
:1098D000F081284B2848C01AC00800040E240094C8
:1098E000264B274A274940F0010002F073FE20462C
:1098F000ECE7204B2048C01AC0080004082400945C
:109900001E4B214A1F4940F0010002F063FE204631
:10991000DCE7184B1848C01AC0080004092400945A
:10992000164B1A4A174940F0010002F053FE204638
:10993000CCE7104B1048C01AC00800041024009453
:109940000E4B134A0F4940F0010002F043FE20463F
:10995000BCE7084B0848C01AC00800041024009453
:10996000064B0C4A074940F0010002F033FE204646
:10997000ACE700BFF89D0300809E030048AB0300E6
:109980006CA9030074A90300A8A90300BCA90300E3
:1099900098AA0300C0AA030029DF704728DF704798
:1099A00003689B683BB300B587B000230093029324
:1099B00003930493019183680593037943B1012BC9
:1099C00010D003689B686846984707B05DF804FBB1
:1099D00001238DF8003003690293C3680393436940
:1099E0000493EEE702238DF80030C3681B03029353
:1099F00043690493E5E7704710B542698369D21A59
:109A0000B2F5805F28BF4FF4805292080469C168A4
:109A1000012A38BF012219441819FFF7BDFF10BDF4
:109A200008B5C26800691044FFF7B8FF08BD000020
:109A3000114B0022DA6003791BB1012B0FD01046C5
:109A4000704742698369D11AB1F5805F94BF5B1892
:109A500003F5805383619A4209D00020704703695F
:109A6000013303614269934203D000207047012013
:109A700070470120704700BF2C300020064AD36891
:109A80000133D360082B01D8002070471346002211
:109A9000DA600120704700BF2C3000200846704774
:109AA00000207047024B187A003818BF0120704719
:109AB0002C300020034B01225A74187AB0FA80F03F
:109AC000400970472C30002008B502490248FFF7D2
:109AD000D3F908BD403000201C30002008B50549EE
:109AE0000548FFF7BDF9054B1860003818BF012085
:109AF00008BD00BF403000201C3000204430002052
:109B000008B51A4B1B7AA3B1184B02221A72184BD4
:109B100018680379ABB1012B1CD00321144B1868D2
:109B2000FFF73EFF114B00221A725A60FFF7CCFF7D
:109B300008BDFFF7D3FF0028E6D10C4B00225A6086
:109B4000F6E7FFF759FF40B11128E6D1074B012294
:109B50001A72EDE7FFF764FFF5E7044B1B7C002B5F
:109B6000E6D10021022000F005F8E1E72C300020CA
:109B700044300020831E012B2DD810B50446164B0F
:109B80001B7A53B1022B03D1022807D0032818D027
:109B9000114B5B7CE3B9FFF7B3FF10BD0F4B1868A7
:109BA000FFF746FF0028F3D00B4B00221A720B4B35
:109BB0001868022C0AD00D21FFF7F2FEFFF784FF90
:109BC000E6E7064B1868FFF759FFEBE71146F3E7A6
:109BD0000CF0A4FBE1E770472C300020443000205B
:109BE000012802D0032800D0704708B5054B002299
:109BF0005A74012814BF002001201874FFF780FF59
:109C000008BD00BF2C30002008B50548FFF70CFA4E
:109C100010B9044B5B7C03B108BDFFF771FFFBE794
:109C2000303000202C3000202DE9F04182B0074672
:109C3000884616461D4601A90E48FFF7FAF8B0B14E
:109C400004461C2200210CF0D4FE0123237127605E
:109C5000A5604FEA1831E160666101A90548FFF788
:109C6000F4F8FFF7D1FF002002B0BDE8F081042036
:109C7000FAE700BF1C3000202DE9F04383B0804696
:109C80000F4691461E4601A90F48FFF7D2F8C0B112
:109C900004461C2200210CF0ACFE00252571C4F8FE
:109CA00000800A9BA3602761C4F80C90666101A93B
:109CB0000548FFF7CAF8FFF7A7FF284603B0BDE83D
:109CC000F0830420FAE700BF1C30002008B51046DE
:109CD0001A460CF065FE002008BD000008B51422ED
:109CE000002104480CF085FE0348FFF79AF8002095
:109CF00008BD00BF2C3000201C30002008B5094BE7
:109D000043600948FFF790F908B1002008BD0CF046
:109D100019FB054B18741C238C2204490448FFF7D7
:109D20006AF8F2E75CAB03002C300020902F002093
:109D30001C3000202DE9F04F83B0884601929B46ED
:109D40009DF830900446E8B1E38894F805A00AFB3A
:109D500003FAAAF1040ADA4519D9E7880BF10403DA
:109D6000B3FBF7F607FB1633019A156805EB0B02F8
:109D7000524501D9AAEB0B05019A156066B124681A
:109D8000013EFBE71749B62004F0B2FEDCE71549B7
:109D9000C42004F0ADFEE0E7A7EB030AAA4528BF04
:109DA000AA46B3460DE05246014618460CF0F8FDAF
:109DB0002468A5EB0A05D344BA46AF4228BFAA4699
:109DC00033465DB108EB0B0023440433B9F1000FB7
:109DD000E9D0524619460CF0E3FDE9E703B0BDE8CF
:109DE000F08F00BF88AB030008B5FFF74FF908BD3F
:109DF000F8B501464679701E0A460023834202D216
:109E000012680133FAE71768002405E00D68384648
:109E1000FFF7B2F901342946A642F7D8F8BD2DE97B
:109E2000F8430746048AA4F1040841440331B1FB16
:109E3000F8F8FFF76FF90646F8B100250571012320
:109E40004371043CC4805FFA88F808F1FF3807606A
:109E50008146454511D23846FFF75CF9044640B1CA
:109E6000737901337371C9F80000076001358146C9
:109E7000EFE73046FFF7BCFF26463046BDE8F883E3
:109E800008B501210430FFF7B3F808BD10B504464A
:109E900001210430FFF7BAF810F0FF0F00D010BD19
:109EA0002046FFF7A5FFFAE710B584B014460392E9
:109EB0000022009203AAFFF73DFF039BA34201D1BA
:109EC00004B010BD0249F62004F012FEF8E700BF0E
:109ED00088AB030010B584B01446039201220092AF
:109EE00003AAFFF727FF039BA34201D104B010BDD3
:109EF00002494FF4807004F0FBFDF7E788AB0300E4
:109F000041DF704710B50024054B1C70054B1C60E9
:109F1000BFF35F8F0449054800F098F9204610BD53
:109F2000503000205430002070AC03004830002036
:109F300010B582B000238DF807300DF10700FDF752
:109F400059FCF1EE104A24F09F03E1EE103ABFF302
:109F50005F8F124B4022C3F884219DF80700FDF764
:109F60007DFC14F0070F07D10CF0ECF948B920BFC5
:109F700040BF20BF02B010BD09497D2004F0B8FDEC
:109F8000F2E7FFF7BDFF0028F4D00228F2D0044921
:109F90004FF4B07004F0ACFDECE700BF00E100E06E
:109FA000F4AB030002681368526839B1934203D8D6
:109FB00080680130801A7047981A7047934201D820
:109FC000D01A704780680130C01A70472DE9F041FF
:109FD00004468846154603681F680021FFF7E2FF24
:109FE0006168E26807FB0211A8420DD305FB02F28B
:109FF00040460CF0D5FC3D44A3689D4200D90025A5
:10A0000023681D60BDE8F081064600FB02F73A4672
:10A0100040460CF0C5FCAD1BE26805FB02F261682E
:10A0200008EB07000CF0BCFC23681D60EAE70000A9
:10A0300070B5054660B12B681E685C686DB1AB6891
:10A040009C420FD2601C864214BF0020012070BDCC
:10A050000549982004F04CFDEDE70349832004F006
:10A0600047FDECE70020EEE77CAC03002DE9F04370
:10A0700083B00D46044600282FD0002D32D0002397
:10A080008DF807300DF10700FDF7B4FB2046FFF710
:10A09000CFFF814610B1237C002B6BD12768D7F806
:10A0A00004807E681CB3A3689E4225D201367E6080
:10A0B000B9F1000F07D027683E68FCB1A3689E4243
:10A0C00021D201363E60E268531E072B46D8DFE8F6
:10A0D00003F01C3345384545453D2849A32004F08D
:10A0E00007FDCAE72549A42004F002FDC7E723497C
:10A0F000832004F0FDFCD6E70026D8E71F49832023
:10A1000004F0F6FCDAE70026DCE763682A7803F857
:10A110000820226811685368994226D85B1A916812
:10A12000994229D2936000249DF80700FDF796FB21
:10A13000204603B0BDE8F08363682A8823F818201E
:10A14000E7E763682A6843F82820E2E7636803EBDF
:10A15000C803D5E90001C3E90001DAE760682946D0
:10A1600008FB02000CF01CFCD3E7A0680130411A88
:10A170000B44D4E70424D7E70024D5E77CAC0300E4
:10A1800070B582B00D461446064620B14DB174B983
:10A19000204602B070BD16494FF4EC7004F0A8FCE4
:10A1A000F4E7134940F2D91004F0A2FCEFE70023D2
:10A1B0008DF807300DF10700FDF71CFB33681968B7
:10A1C0005B68994208D85B1A9C420AD905249DF81D
:10A1D0000700FDF743FBDBE7B2680132521A134474
:10A1E000F2E7224629463046FFF7F0FE0024EEE76C
:10A1F0007CAC030030B583B0054688B100248DF8EF
:10A2000007400DF10700FDF7F5FA0C2221462868FA
:10A210000CF0EFFB9DF80700FDF720FB03B030BD0D
:10A2200002494FF4047004F063FCE7E77CAC0300E0
:10A230008268002393608268136182685361826838
:10A24000D3608268536082681360704738B50C46EB
:10A25000054638B15CB12C6023686B60626893423C
:10A260000AD038BD0649502004F042FCF2E7044908
:10A27000512004F03DFCEEE700236B60F1E700BFE6
:10A28000E4AC030010B5044658B1236873B16368A9
:10A2900033B1226891680B446360526893420AD0DC
:10A2A00010BD0649632004F023FCEEE70349642057
:10A2B00004F01EFCEBE700236360F1E7E4AC03006D
:10A2C0000F4A02F594718A4218D210B48C1AE30F27
:10A2D00003EBE4035B1002EBC30452F83330834218
:10A2E00006D921468A42F1D300205DF8044B70471D
:10A2F00002D204F10802F5E76068F6E70020704733
:10A3000068B1030008B5FFF7DBFF00B108BD0148E5
:10A31000FCE700BF54B10300026813461BB18B4237
:10A3200003D01B68FAE70A600160704703460068C3
:10A3300008B102681A60704708B50CF003F828B934
:10A3400000F0C6FA044B00229A7008BD0349792038
:10A3500004F0CEFBF4E700BF5830002090B20300B9
:10A3600000B1704708B5064B01225A700548FFF747
:10A37000DDFF18B1436800209847F7E708BD00BF2C
:10A38000583000206030002010B5044610B1012C78
:10A390000CD010BD0C4B01225A700C48FFF7C6FFC1
:10A3A0000028F4D0436800209847F6E7064B0122C6
:10A3B0009A7002E04368012098470548FFF7B6FF0E
:10A3C0000028F7D1E5E700BF5830002060300020BA
:10A3D0006830002010B50D4B1B7813B18524204642
:10A3E00010BD0A4B00229A605A601A61DA60084870
:10A3F00000F00EFA04460BF0A5FF18B1034B012242
:10A400001A70ECE700F01CFAF8E700BF58300020A3
:10A4100089A3020010B582B00446224B1B78D3B149
:10A42000204B9B78E3B114B1636801209847002367
:10A430008DF807300DF10700FDF7DCF9194AD368F4
:10A440000133D3609DF80700FDF708FA154BDB6870
:10A450000BB302B010BD1449E92004F049FBDFE75B
:10A4600000238DF807300DF10700FDF7C3F91CB18B
:10A4700021460E48FFF750FF0A4BDB6843B1094AFB
:10A48000D3680133D3609DF80700FDF7E7F9DDE7F6
:10A4900000F0F8F9F3E7044940F2051004F028FB56
:10A4A000D7E700BF5830002090B20300683000208A
:10A4B00000B583B0144B1B78B3B1134BDB68CBB141
:10A4C00000238DF807300DF10700FDF793F90E4BCF
:10A4D000DA68013ADA60DB6893B19DF80700FDF7AE
:10A4E000BDF903B05DF804FB08494FF4857004F032
:10A4F000FFFAE2E7054940F20B1004F0F9FADFE752
:10A50000FFF71AFFE9E700BF5830002090B20300C0
:10A5100000B583B001280AD0032820D010B103B0C1
:10A520005DF804FB154B0122C3F88020F7E70023F8
:10A530008DF807300DF10700FDF75CF9104B1B7823
:10A5400053B10F4BDA680132DA6001229A709DF83C
:10A550000700FDF783F9E2E7FFF73CFFF1E7084B5F
:10A560001B7823B100F06CF9FFF7A2FFD7E705498C
:10A5700040F2452004F0BCFAF4E700BF00E100E03F
:10A580005830002090B2030031DF704710B584B01E
:10A590008DF8070000238DF80F300DF10F00FDF747
:10A5A00029F90BF0CFFE28B19DF80F00FDF756F901
:10A5B00004B010BD064C0DF107012046FFF756FD13
:10A5C0002046FFF735FD0028EED000F063FDEBE7F5
:10A5D000989D030000B583B020B103280BD003B0D1
:10A5E0005DF804FB134B1B78012BF8D100F052FDF2
:10A5F00000F068FDF3E700238DF807300DF1070048
:10A60000FDF7F8F80B4B1B78012B04D09DF80700E1
:10A61000FDF724F9E3E70849084800F0C7FC10B942
:10A6200000F016FDF2E7064940F2071004F060FA68
:10A63000F6E700BFBC3000208DA50200BD30002031
:10A6400004B3030010B582B0144B1B7823BBB0B128
:10A650000288124BA3F8012000238DF807300DF17A
:10A660000700FDF7C7F80BF06DFE50B90C490D4817
:10A6700000F09CFC044660B900F0EAFC02E00A48E5
:10A68000E6E70024054B01221A709DF80700FDF74C
:10A69000E5F8204602B010BD8524FAE7BC30002062
:10A6A0008DA50200BD30002070B3030000B583B05B
:10A6B000124B1B78012B16D100238DF807300DF1BA
:10A6C0000700FDF797F80BF03DFE88B19DF80700F5
:10A6D000FDF7C4F80A48FFF78DFD084B00221A70F9
:10A6E00003B05DF804FB0749902004F001FAE3E7AA
:10A6F00000F0D0FC00F0E6FCE8E700BFBC30002032
:10A70000989D030004B30300F0B583B006460F46DE
:10A710001E4B1B78012B01D100240FE01C49B720F0
:10A7200004F0E6F9F8E73A4631461A48FFF728FD03
:10A73000044600F08DFC0DE0022C1BD100238DF8A7
:10A7400007300DF10700FDF755F80BF0FBFD05464E
:10A750000028E8D09DF80700FDF780F8002DEBD029
:10A7600039463046FFF710FF044642F2070398428D
:10A77000E2D105240CB1052C02D1204603B0F0BD76
:10A780000349D12004F0B4F9F7E700BFBC30002042
:10A7900004B30300989D030070B505460E460C4BAC
:10A7A0001B78012B10D00B49E02004F0A1F90BE03D
:10A7B0003446402E28BF4024E1B22846FFF7A4FFCC
:10A7C0000028F9D1361B2544002EF1D170BD00BF01
:10A7D000BC30002004B303000B4BD96841F08072F9
:10A7E000DA600A4B186840F001021A605A68074B99
:10A7F0005B689B1AB3F50A5FF9D3044B186003F545
:10A800005D43F033D9607047F0ED00E0001000E0E8
:10A8100010B5044648B1084B1B795BB9064B1C6068
:10A8200001221A710020587110BD0449A42004F0BF
:10A830005FF9F0E78520F7E7C030002074B303002C
:10A8400008B50D4B1B7953B10C4B1B6813F0010F6E
:10A850000AD04FF080430122C3F8182508BD0849EB
:10A86000BD2004F045F9EFE7044BC02283F8002334
:10A8700001221A60EDE700BFC030002000E100E0D7
:10A8800074B3030000B583B00D4B1B7993B10D4B2E
:10A8900000221A601B680193019B4FF08043022243
:10A8A000C3F80423FFF798FF074B01221A6003B097
:10A8B0005DF804FB0549EA2004F01AF9E7E700BF58
:10A8C000C0300020040100400800004074B30300C1
:10A8D00008B5094B1B7953B1084B01221A604FF0A0
:10A8E0008043D3F8183413F4803FF8D108BD0449ED
:10A8F000F72004F0FDF8EFE7C03000200C00004026
:10A9000074B3030000B583B0154B1B6893B1144BAF
:10A9100000221A601B680093009B4FF080430122C5
:10A92000C3F808230F4B5B7923B90E4B5A711B6890
:10A93000002098470C4B1B6873B10B4B00221A6028
:10A940001B680193019B4FF080430222C3F8082348
:10A95000044B1B680120984703B05DF804FB00BF5F
:10A9600000010040C03000200401004070B40646E1
:10A97000154662B1002365B10824A34218D20E4ADD
:10A9800052F82320B2F1FF3F05D00133F5E7082349
:10A99000F1E70C24F1E758B2074A941984F8300023
:10A9A00042F8231035B9083B134483F8506001E0A6
:10A9B0004FF0FF3070BC7047C8300020064B4FF09E
:10A9C000FF3243F82020072804D908381844FF2311
:10A9D00080F85030704700BFC830002010B582B0FA
:10A9E0001A4B93F858407CBB23461F2B07D8174AB5
:10A9F0001A44FF2182F830100133DBB2F5E70B2C4B
:10AA000005D82046FFF7DAFF0134E4B2F7E70F4C30
:10AA10000422002104F154000BF0EBFF0C4BC02288
:10AA200083F8062340221A600A4B002018601B6836
:10AA30000193019B084B4FF00042C3F8042301230C
:10AA400084F8583002B010BD0820FBE7C830002061
:10AA500000E100E07C61004000600040034B93F89F
:10AA60005800003818BF0120704700BFC8300020D0
:10AA7000F8B504460D4616461F2807D83C4B23441C
:10AA800093F93030002B07DB0820F8BD394940F23C
:10AA9000072004F02DF8F1E7AA78C2F3400231460E
:10AAA0002046FFF763FF0646B0F1FF3F5DD0AB786D
:10AAB00013F0040F18D113F0010F39D01F2C31D827
:10AAC0004FF0A04204F5E07152F8213023F0020368
:10AAD00042F82130E30804F007012748012202FA76
:10AAE00001F1C25C0A43C254AB7813F0020F30D0BC
:10AAF0002B78224906F5A27651F8262022F4473217
:10AB000022F4407241F8262051F82620240204F451
:10AB1000F8541B0403F440331C43144341F826400B
:10AB20000020B2E7164940F2CD1003F0E1FFC7E77D
:10AB30006F781F2C07D8BF0004F5E0734FF0A042D8
:10AB400042F82370C6E70E4940F2CD1003F0D0FF63
:10AB5000F1E7083E2A78064B1E4496F8503043EA47
:10AB6000821386F8503000208FE704208DE700BF65
:10AB7000C8300020E4B303001C3100200060004016
:10AB8000249F030070B582B004460D461F282CD8C0
:10AB90003E4B234493F93030002B2CDB3B4B2344BA
:10ABA00093F93030072B46DDA3F10802374B1344ED
:10ABB00093F95020C2F38115032D22D0012D32D0FC
:10ABC00003251F2C31D84FF0A04304F5E07453F84F
:10ABD000242022F4403243F8242053F8242042EA6F
:10ABE000054243F8242002B070BD294940F23720C5
:10ABF00003F07EFFCCE726494FF40E7003F078FF98
:10AC0000CCE71F2C09D84FF0A043D3F81035E34010
:10AC100013F0010FD5D10225D3E71E4940F2CD1024
:10AC200003F066FFEFE70225CBE71A4940F2CD10AB
:10AC300003F05EFFC7E7DAB2072AD4D803F1400277
:10AC400092B2920092B2144803F5A27650F8261000
:10AC500041F0010140F8261002F1804202F5C042A5
:10AC60000021116012680192019A002DBBD0074AA1
:10AC7000144494F9301052F82120002AB3D0012254
:10AC800002FA03F3C0F80433ADE700BFC830002078
:10AC9000E4B30300249F03000060004010B50446A5
:10ACA0001F2809D81F2C0DD84FF0A043D3F810054A
:10ACB000E04000F0010010BD05494FF4227003F0A0
:10ACC00017FFEFE7034940F2CD1003F011FFEBE768
:10ACD000E4B30300249F03002DE9F04786B000256C
:10ACE000059501204FF48073294603E040000433AA
:10ACF0009BB20131072912D803F1804202F5C0420C
:10AD00001468012CF2D1814CD4F804432042EDD0D8
:10AD10000024146012680392039A0543E6E77C4B13
:10AD20001B68012B07D015F0FF0F30D1002D31DB50
:10AD300006B0BDE8F087764A0023136012680492DB
:10AD4000049A45F0004505AA06E04FF0A041D1F86D
:10AD5000101542F8041B0133002BF6D0E3E7760010
:10AD60000134072CE2D82E42F9D0684B04F5A272C8
:10AD700053F82200C0F3042053F82210C1F301411C
:10AD8000644B53F82430002BE9D09847E7E70126BD
:10AD90000024E6E70023009313B100273C460CE0B3
:10ADA00006AA02EB83024FF0FF3142F8141C013374
:10ADB000F2E7B8F1030F24D00134032C70D8554BBF
:10ADC000234493F95030DAB203F03F06B3F1FF3F6A
:10ADD000F2D04FEAD60902F0070301259D4006ABE9
:10ADE00003EBD60313F8143C1D42E5D04FEA92184A
:10ADF000484B9A1992F9302053F822A0BAF1000F6B
:10AE0000D7D0B8F1030F1FD01F2E23D806F5E0735B
:10AE10004FF0A04252F82330C3F3014306AA9144F5
:10AE200019F8042C154001D0022B03D0002DC3D1FA
:10AE3000032BC1D1B8F1030F12D0BAF1000FBBD070
:10AE400041463046D047B7E71DF809302B430DF88F
:10AE50000930D9E7304940F2CD1003F049FED5E77B
:10AE6000022B15D002251F2E14D84FF0A04306F553
:10AE7000E07253F8221021F4403143F8221053F8C5
:10AE8000221041EA054143F822100137FFB2D4E70E
:10AE90004546E8E7204940F2CD1003F029FEE4E7FB
:10AEA000A7B9002F3FF444AF77E74FF0A041D1F8A6
:10AEB000101542F8041B0133002BF6D0002343B1D8
:10AEC0000123002B7FF434AF00231BE0002302AAF0
:10AED000F2E706AA02EB830252F8101C52F8042C87
:10AEE000914201D10133EAE70023EAE706AA02EB27
:10AEF000830252F8101C42F8041C52F8181C42F845
:10AF0000141C0133002BF1D0CBE700BF00600040E0
:10AF10007C610040C8300020249F0300034B98420E
:10AF200001D1034870470020704700BF0020004057
:10AF30002431002008B5064B1B681BB1044B1B686D
:10AF4000984708BD0349512003F0D2FDF6E700BF42
:10AF50002431002054B4030070B582B00C4605467D
:10AF6000B8B12846FFF7DAFF0546B8B100238DF8DF
:10AF700007300DF10700FCF73DFC2E7916B92C6067
:10AF800001232B719DF80700FCF768FC4EB90020E7
:10AF900005E00549772003F0ABFDE2E7002002B0B1
:10AFA00070BD1120FBE700BF54B4030038B50C4658
:10AFB000054600282FD0002C32D01F4B1B78002BC9
:10AFC00038D11E4B1C602B7813F0010F06D01C4AA1
:10AFD000D2F8043543F00103C2F80435184AD2F818
:10AFE000003223F00103C2F800326C78A31EDBB2FA
:10AFF000012B03D9631FDBB2022B16D86401E4B224
:10B00000104B83F80D434FF400521A600A4B012293
:10B010001A70002038BD0C493E2003F069FDCAE7D4
:10B0200009493F2003F064FDC7E708496B2003F09E
:10B030005FFDE3E78520EDE7303100202C31002073
:10B0400000D0004000E100E0C4B403002CB50300D0
:10B0500000B583B00B4B1B78012B0DD10A4B00229E
:10B060001A601B680193019B084B0122C3F804235B
:10B070001A6003B05DF804FB0549562003F038FD63
:10B08000ECE700BF3031002000D1004000D000408C
:10B09000C4B4030008B5084B1B78012B06D101236B
:10B0A000064AC2F808330432136008BD04495E2022
:10B0B00003F01EFDF3E700BF3031002000D0004058
:10B0C000C4B4030008B50C4B1B78012B0ED101232F
:10B0D0000A4AC2F8083304321360094B4FF4005295
:10B0E000C3F88020044B00221A7008BD0549652072
:10B0F00003F0FEFCEBE700BF3031002000D0004041
:10B1000000E100E0C4B4030000B583B0074B0022A7
:10B110001A601B680193019B054BD3F80805054B8A
:10B120001B68C0B2984703B05DF804FB00D1004033
:10B1300000D000402C31002030B583B004461068A8
:10B1400020B100F06045B5F1005F33D1956825B1BD
:10B1500005F06045B5F1005F2CD15568C4F8440591
:10B16000C4F848559068D268C4F83405C4F8382546
:10B170000022C4F81821D4F818210192019A13F082
:10B18000010F1CD00122C4F8502513F0020F1AD071
:10B190000122C4F8402513F0080F01D101222261D9
:10B1A0000A68A2B113F004003CD04023C4F808336D
:10B1B000002002E000234B77102003B030BD0022B6
:10B1C000C4F85025E1E70022C4F84025E3E7D4F8AD
:10B1D0001831002BFBD0CC7FFF2C27D08B7F83B185
:10B1E0001F2C08D8012303FA04F44FF0A043C3F83E
:10B1F0000C450020E1E70E4940F2CD1003F078FC49
:10B20000F0E71F2C08D8012303FA04F44FF0A04301
:10B21000C3F808450020D0E7054940F2CD1003F0FF
:10B2200067FCF0E74023C4F80433C6E70020C4E716
:10B23000249F030038B50446C57FFF2D0AD0837FC5
:10B24000BBB11F2D0FD8012303FA05F54FF0A04322
:10B25000C3F80C55002363772372204650F8083B4F
:10B260006168984738BD0B4940F2CD1003F040FCAF
:10B27000E9E71F2D07D8012303FA05F54FF0A04396
:10B28000C3F80855E6E7034940F2CD1003F030FC5F
:10B29000F1E700BF249F0300D0F81831B3B110B517
:10B2A00082B00C460023C0F81831D0F81831019351
:10B2B000019B0B6823B12046FFF7BCFF02B010BD15
:10B2C000034940F29D2003F013FCF4E7704700BFF0
:10B2D00070B5030008B502490248FFF7DDFF08BD5D
:10B2E00034310020003000402DE9F84F06469146E9
:10B2F00098460D46002900F0F580347904EBC4032C
:10B30000B24901EB83010B7F002B40F05981376874
:10B31000AF493846FFF720FE8246002840F05381AF
:10B32000AA4B04EBC40203EB820143F82290C1F85C
:10B3300004802B7B012B40F2DA8095F80080B8F175
:10B340001F0F00F2E780012303FA08F34FF0A04239
:10B35000C2F8083595F80080B8F11F0F00F2E080C0
:10B3600008F5E0784FF0A043012243F8282095F833
:10B370000180B8F1FF0F00F0E580C146B8F11F0F62
:10B3800000F2D480012303FA08F34FF0A042C2F880
:10B390000C35B8F11F0F00F2CF8008F5E0784FF0C0
:10B3A000A043032243F8282095F80280B8F1FF0F4C
:10B3B00000F0D180C346B8F11F0F00F2C68008F537
:10B3C000E0784FF0A0430C2243F82820A97804EB42
:10B3D000C4037E4A02EB830383F8201095F80380B0
:10B3E00083F81F80B8F1FF0F22D02B79002B00F0DB
:10B3F000BB80B8F11F0F00F2B180012303FA08F3FC
:10B400004FF0A042C2F80C3595F80380B8F11F0F39
:10B4100000F2BB8008F5E0784FF0A043032243F828
:10B420002820297904EBC403684A02EB8303997747
:10B430002B78C7F80835C7F80C95C7F810B5AB6876
:10B44000C7F824352A7B6B7B003B18BF0123022AF7
:10B4500000F0A480032A00F0A480012A00F09B8061
:10B46000C7F85435AB79C7F8C03504EBC403574A65
:10B4700052F8233013B14022C7F804230722C7F83B
:10B4800000251BB3376847F307376D79AB1EDBB276
:10B49000012B04D96B1FDBB2022B00F28580002F39
:10B4A000C0F287806D01EDB207F1604707F5614793
:10B4B00087F80053336843F30732C3F30433520968
:10B4C000012101FA03F3434941F822303F4B04EBD9
:10B4D000C40203EB82020021517701231377504607
:10B4E000BDE8F88F3C49AD2003F002FB05E795F875
:10B4F0000080B8F11F0F07D8012303FA08F34FF0BB
:10B50000A042C2F80C3525E7344940F2CD1003F0D3
:10B51000EFFAF1E7314940F2CD1003F0E9FA12E712
:10B520002E4940F2CD1003F0E3FA19E72B4940F21F
:10B53000CD1003F0DDFA25E7284940F2CD1003F0E5
:10B54000D7FA2AE74FF0FF392EE7244940F2CD1011
:10B5500003F0CEFA33E74FF0FF3B37E71F4940F2E5
:10B56000CD1003F0C5FA48E7B8F11F0F07D8012343
:10B5700003FA08F34FF0A042C2F8083544E7174930
:10B5800040F2CD1003F0B4FAF1E7144940F2CD10C7
:10B5900003F0AEFA3EE743F0020361E743F0040331
:10B5A0005EE743F006035BE70D496B2003F0A0FA6A
:10B5B00075E707F00F076D01EDB20A4BDD5579E72E
:10B5C0004FF0080A8BE74FF0110A88E7343100206A
:10B5D000D5B2020000E100E070B50300249F030033
:10B5E0002CB5030014ED00E02DE9F84306460D46A6
:10B5F0009046047904EBC403424F07EB83073B7F7B
:10B60000002B4DD02B68002B50D0AB68002B56D0B0
:10B6100033792BB9EB68FF2B02D86B68FF2B04D969
:10B62000394940F2362003F063FA04EBC403354A8B
:10B6300002EB83035B7F002B61D104EBC40352F860
:10B64000233043B118F0140F05D104EBC40302EB0F
:10B65000830301225A7704EBC40C2A4B03EB8C0CB6
:10B660000CF10C0E95E80F008EE80F009CF81F906F
:10B67000B9F1FF0F0CD09CF81E307BB3B9F11F0F4E
:10B6800026D8012303FA09F34FF0A042C2F8083587
:10B6900043462A4639463068FFF74EFDBDE8F88339
:10B6A000194940F2332003F023FAABE76B68002B13
:10B6B000ABD015494FF40D7003F01AFAA5E7EB680B
:10B6C000002BA5D0104940F2352003F011FA9FE776
:10B6D0000E4940F2CD1003F00BFAD2E7B9F11F0F7B
:10B6E00007D8012303FA09F34FF0A042C2F80C3542
:10B6F000CEE7064940F2CD1003F0FAF9F1E7112048
:10B70000CCE700BF3431002070B50300249F030054
:10B71000F0B583B005460F461646002401E001341B
:10B72000E4B2B44215D2A00000F5A0704FF480330B
:10B73000A3402A58002AF2D0D5F804231342EED0B1
:10B7400000232B502B580193019B3B687968984745
:10B75000E5E703B0F0BD000008B504220249034844
:10B76000FFF7D6FF08BD00BF583100200090004011
:10B770002DE9F04385B00746894690464FF4A07402
:10B780004FF48035002603E06D000434A4B2013686
:10B79000B04515D9D7F804331D42F5D03B59002BDD
:10B7A000F2D0C7F84853C7F8085300233B513B5920
:10B7B0000193019B184B53F82930F0B29847E3E707
:10B7C000D7F8043313F0010F0ED0D7F800315BB176
:10B7D0000023C7F80031D7F800310293029B0E4BCB
:10B7E00053F8293004209847D7F8043313F0020F98
:10B7F0000ED0D7F804315BB10023C7F80431D7F875
:10B8000004310393039B044B53F8293005209847D8
:10B8100005B0BDE8F08300BF68310020F8B50446EC
:10B8200015460E4600293ED0002D41D063792D4AA1
:10B8300042F8235003EB43032B4AD35C002B4ED139
:10B8400094F90470B578AB1EDBB2012B03D96B1FE2
:10B85000DBB2022B31D8002F34DB6D01EDB207F1E2
:10B86000604707F5614787F8005394F9043003F007
:10B870001F015B0901228A401C4941F823202768E7
:10B880003588B5F5805F24D2C7F8085563793079DB
:10B89000154A03EB4303D1184870F07888700121F2
:10B8A000D1540020F8BD1249512003F021F9BBE723
:10B8B0000F49522003F01CF9B8E70E496B2003F042
:10B8C00017F9C8E707F00F076D01EDB20A4BDD5518
:10B8D000CBE70A494FF4BE7003F00AF9D4E7082019
:10B8E000E0E700BF683100206431002000E100E0A3
:10B8F000E8B503002CB5030014ED00E050B60300DA
:10B9000010B50446437903EB4303094AD35C012B8A
:10B9100009D1236801221A60637903EB4303044AC7
:10B920000221D15410BD0349822003F0E1F8F0E771
:10B9300064310020E8B5030082B003680022C3F838
:10B940000021D3F800310193019B03680122C3F861
:10B95000442311B10368C3F8042302B0704702689E
:10B960000123C2F848330268C2F80833704782B036
:10B9700003680022C3F80421D3F804310193019B2A
:10B9800003680222C3F8442311B10368C3F80423F7
:10B9900002B0704708B5042200210248FFF7E8FE14
:10B9A00008BD00BF0040024038B500250CE00A4940
:10B9B00040F2CD1003F09CF804F5E0744FF0A04382
:10B9C0000C2243F824200135032D04D8034B5C5D81
:10B9D0001F2CF1D9EBE738BD249F0300E0B603002C
:10B9E00010B5044603280ED80C4B1C5D1F2C0FD835
:10B9F0004FF0A043D3F80435E34013F0010F0CBF20
:10BA00000120002010BD06493A2003F071F8EBE751
:10BA1000044940F2CD1003F06BF8E9E7E4B6030007
:10BA200084B60300249F030010B5044603280AD8F7
:10BA30000A4B1C5D1F2C0BD80123A3404FF0A042E2
:10BA4000C2F80C3510BD0649412003F051F8EFE76C
:10BA5000044940F2CD1003F04BF8EDE7E4B60300E3
:10BA600084B60300249F030010B5044603280AD8B7
:10BA70000A4B1C5D1F2C0BD80123A3404FF0A042A2
:10BA8000C2F8083510BD0649472003F031F8EFE74A
:10BA9000044940F2CD1003F02BF8EDE7E4B60300C3
:10BAA00084B60300249F030010B5002403E0204661
:10BAB000FFF7DAFF0134032CF9D910BD38B50025A2
:10BAC0000CE00B4940F2CD1003F012F804F5E074DD
:10BAD0004FF0A043032243F824200135032D04D85E
