:020000022000DC
:1060000000000120756302005D63020065CD02009F
:106010006163020063630200656302000000000028
:1060200000000000000000000000000067630200A4
:1060300069630200000000006B6302006D630200F0
:10604000ED9002006F63020019960200A198020011
:106050006F6302006F6302002D9502006F63020000
:106060006F630200719B02006F6302006F630200A6
:106070006F6302002D9702006F6302006F630200DE
:106080006F630200D96C02006F6302006F6302004D
:10609000016D02006F6302004D2003006F63020078
:1060A0006F6302006F6302006F6302006F630200A0
:1060B0006F6302006F630200000000000000000038
:1060C0006F6302006F6302006F6302006F63020080
:1060D000319D02006F6302006F6302000000000048
:1060E00000000000000000000000000000000000B0
:1060F00000000000000000000000000000000000A0
:10610000000000000000000000000000000000008F
:10611000000000000000000000000000000000007F
:10612000000000000000000000000000000000006F
:10613000000000000000000000000000000000005F
:10614000000000000000000000000000000000004F
:10615000000000000000000000000000000000003F
:10616000000000000000000000000000000000002F
:10617000000000000000000000000000000000001F
:10618000000000000000000000000000000000000F
:1061900000000000000000000000000000000000FF
:1061A00000000000000000000000000000000000EF
:1061B00000000000000000000000000000000000DF
:1061C00000000000000000000000000000000000CF
:1061D00000000000000000000000000000000000BF
:1061E00000000000000000000000000000000000AF
:1061F000000000000000000000000000000000009F
:10620000354936480A1A02D0072291438D4634494F
:1062100034480A1A06D00722914381F309880222E2
:1062200082F3148830483149314A00F044F831484B
:106230003149324A00F03FF831483249324A00F0E1
:106240003AF832483249334A00F035F83248334997
:10625000334A00F030F833483349344A00F02BF821
:1062600033483449344A00F026F83448344900228F
:1062700000F02CF833483449002200F027F8334866
:106280003349091A082902DB002202604160314AC1
:1062900090471F481F49884205D00268043003B464
:1062A000904703BCF7E700208646EC46002000211B
:1062B000294A9047FEE7884207D0521A05D0037852
:1062C00001300B700131013AF9D17047884202D098
:1062D00002700130FAE7704700000120F0D800207A
:1062E00000000120000001204880030064300020ED
:1062F0009C300020D0630200D0630200104F0300E6
:10630000488003006430002064300020D04F030038
:10631000D04F0300D04F0300D04F0300D04F0300F5
:10632000D04F0300D04F0300D04F0300488003003C
:10633000808003009C3000209C3000209C30002096
:10634000444D0020444D0020444D0020444D002089
:10635000446D00209D630200A9BA0200FEE7FEE73B
:10636000FEE7FEE7FEE7FEE7FEE7FEE7FEE7FEE705
:1063700000F002B8FFF7FCBF0F484FF00701884359
:1063800085460E4880470E48016841F4700101605F
:10639000BFF34F8FBFF36F8FFFF732BF09480A4932
:1063A0000A4A884207D0521A05D0037801300B7090
:1063B0000131013AF9D170470000012025CB0200DC
:1063C00088ED00E0BC4F0300503000206430002016
:1063D000032801D90020704708B503F0B3FC08BDBD
:1063E000032824D8012A06D001290CD0022910D074
:1063F000B1B107207047012901D00022F4E700F174
:106400000E02D2B2F0E700EB40000A4B1A54002013
:10641000704700EB4000074B184442700020704763
:1064200000EB4000034B18448270002070470720A7
:10643000704700BF9C30002008B5012200210846AB
:10644000FFF7CEFF10B10346072812D10722022121
:106450000120FFF7C5FF034608B1072809D1042230
:1064600002210020FFF7BCFF034610B1072800D12E
:106470000023184608BD08B5012202210020FFF7BD
:10648000AFFF10B10346072812D1072202210120D5
:10649000FFF7A6FF034608B1072809D10A22002109
:1064A0000846FFF79DFF034610B1072800D10023DF
:1064B000184608BD08B50388102B02D0112B12D046
:1064C00008BD114B1B6823B10F4A136801331360D9
:1064D000F6E7FFF7B1FF0028F6D00C4B1B68002B46
:1064E000F2D09847F0E7084A1368013B1360002B8D
:1064F000E6D1FFF7C0FF0028E2D0044B1B68002B59
:10650000DED09847DCE700BFAC300020A830002088
:1065100010B504460120FFF75BFF10B10223237082
:1065200010BD0020FFF754FF10B10B232370F7E7D5
:1065300000232370F4E7000008B5074B186011B181
:106540000846FFF7E5FF054B1B680BB1002008BDAF
:10655000FFF791FFFBE700BFA8300020AC30002020
:1065600008B504F07DFE08BD08B50021084604F01A
:1065700037FE08BD10F1360F09D058B110F1380FB1
:1065800002D048F21650704748F21150704748F256
:10659000145070470020704708B50846114602F0B5
:1065A00021FD002008BD000010B582B0041D0020B0
:1065B00002F090FC08B102B010BD204604F0FCFAD5
:1065C0000022009213460349204604F051FBFFF7D6
:1065D000D1FFF0E79965020008B5043004F0F3FA42
:1065E00002F0ACFC002008BD08B5043004F0DEFB6E
:1065F000FFF7C0FF08BD08B511461A46043004F085
:10660000EFFAFFF7B7FF08BD00B585B00021019193
:106610000291039001AA44F2010000F003F805B0D2
:106620005DF804FB72B60A4BD3F8F03013F0010F9B
:1066300000D000BEBFF34F8F0549CA6802F4E06284
:10664000044B1343CB60BFF34F8F00BFFDE700BF88
:1066500000ED00E00400FA052D4B1B888B4201D2AF
:10666000092070472DE9F04182B005460C461646D8
:1066700000238DF807300DF1070000F0CDFB254B0E
:106680001A78D2B2244B1978CBB2244800888142C0
:1066900024D20133DBB29A4224D01F4B1F781A78E0
:1066A000D3B290421CD90133DBB21B4A13709DF860
:1066B000070000F0DDFB4FF6FF739F4226D04FEA44
:1066C000C708174B1B6803EBC70243F8376005B1D7
:1066D0005CB90020908002B0BDE8F0810023DAE7C9
:1066E0000023E2E74FF6FF77E1E70E4B1B68084A0D
:1066F00010882246294607FB00300BF0E3FE084BCA
:106700001B689844A8F804400020E4E70420E2E76E
:10671000BC300020C0300020B0300020BE3000204F
:10672000B8300020B4300020034BC3F80805034BF9
:10673000C02283F8112370470010014000E100E0FF
:1067400010B50B4B4FF48032C3F84423C3F8042335
:10675000084A4FF40031C2F88011116001241C6016
:106760004FF43C60044B23439847044B1C7010BD0E
:106770000010014000E100E0D04F0300D1310020C3
:1067800070B5104B4FF40032C3F88020BFF34F8F29
:10679000BFF36F8F0C4D4FF48033C5F84833C5F805
:1067A000083301266E60094C34434FF43C60A04727
:1067B000AE600025064B1D604FF43C60A047054BC2
:1067C0001D7070BD00E100E000100140D04F0300DB
:1067D000E0310020D131002010B4114B1C684CB1C5
:1067E000026823689A4218D89B1A2360C4610C4B34
:1067F00018600FE018600DE0521A1C46DB6913B1F7
:1068000019689142F8D313B11968891A19600260A6
:10681000C361E0615DF8044B70472346EFE700BFBA
:10682000E431002070B5184B1E683446354601E04F
:106830002546E4690CB18442FAD114B3A5420CD0C8
:106840002168E369EB6113B11A680A441A600E4BC0
:106850001868801B18BF012070BDF3690A4A1360D5
:10686000002BEDD10123094A9360094A00211160F0
:10687000084A13704FF43C60074B43F001039847FC
:10688000DEE70020E8E700BFE4310020001001400F
:10689000E0310020D0310020D04F0300024B4FF4F4
:1068A0000032C3F80021704700E100E0024B4FF4D2
:1068B0008012C3F80021704700E100E008B5436989
:1068C0008069984708BD00001B4B1868002832D02B
:1068D00070B51A4BD3F80445194B1B68E41A24F021
:1068E0007F44002500E0304668B10368A3420AD81F
:1068F000E41A1D44C669037C002BF4D00023037402
:10690000FFF7DCFFEFE70F4B1A780F4B1B789A422B
:1069100007D00D4B1A780D4B43F82250FFF7C6FFF6
:1069200070BD0133DBB2084A1370022BF1D113465C
:1069300000221A70EDE77047E4310020001001409A
:10694000E0310020DC310020DD310020D431002096
:10695000114B1B78114A1278934218D00133DBB2E5
:106960000D4A1370022B0ED00B4B1A780C4B53F8B8
:10697000223003600B4A11680B44136023F07F43FD
:10698000136001207047134600221A70ECE70023C1
:1069900003601846704700BFDC310020DD31002065
:1069A000D4310020E03100204FF0000C124B1B6866
:1069B00003B330B407E0241A1C6030BC70470E4BA0
:1069C0001B68002BF9D01C688442F4D8001BA44437
:1069D00000241C60084CDD692560DC68002CEED0CA
:1069E0000CEB010525F07F455D609C601468DC615F
:1069F0001360E4E7704700BFE4310020F8B50546B6
:106A0000404B1F68002658E03F4A11784B1CDBB210
:106A100013709278934227D001EB41033A4A02EB7C
:106A2000C3039C681B79022B22D0032B2FD0012B90
:106A300043D1237C002B40D1334A01EB410302EBCD
:106A4000C303D86860601869A0605B69E36001EB0C
:106A5000410102EBC1018B69A3612C4B1B78002B18
:106A600030D0002363602DE0274B00221A70D3E75B
:106A70002046FFF7D7FE034600B9334600222274B2
:106A80001E461AE000221A74DA691E4B1A601D4B6A
:106A90001B68002BF6D110E0521A22F07F42A36847
:106AA00093421CD99A1A226000236360A3600122DA
:106AB0002274E3612046FFF78FFE9DB1002DA3D025
:106AC0002C46ED696168124B1A688B1A23F07F43DC
:106AD00010488342E0D8A26813442360E4E700230F
:106AE0002360E1E7084B1A785B789A42E6D12EB929
:106AF000044B1B68BB4203D0012000E00120F8BD1D
:106B00000020FCE7E4310020C4300020D031002018
:106B1000E0310020FEFF7F00F8B51C4B1B688BB3F3
:106B20001F681B4BD3F804551A4B1C682E1B26F00C
:106B30007F460336184B1B780BB3B7422CBFE419C2
:106B4000A41924F07F44124BC3F84045D3F8043510
:106B50005B1B23F07F430333641B24F07F44A34279
:106B60000CD90B4BD3F80425C3F840254FF43C60F7
:106B70000A4B43F001039847FFF790FEF8BDFFF77B
:106B8000DFFDDAE7FFF7FCFDF8E700BFE4310020A6
:106B900000100140E0310020D1310020D04F03002F
:106BA00070B582B0002301930D4B1E680D4B1D681C
:106BB0006846FFF7CDFE044660B90198FFF71EFF57
:106BC00000B914B12846FFF7A7FF074B00221A703F
:106BD00002B070BD01AA31460098FFF7E5FEECE770
:106BE000E0310020E4310020D0310020014B58700A
:106BF000704700BFC43000200B4A53780133DBB22A
:106C000092789A420CD0084A12789A420AD00370BD
:106C10000548437803EB430300EBC300043070479F
:106C20000023F0E700207047C43000202DE9F04138
:106C300082B007460E4690461D4600248DF8064059
:106C40000DF1060000F0E8F80DF10700FFF7D4FFA2
:106C5000B8B10123037047600C4BD3F8043583604F
:106C6000C660C0F8108045619DF80700FFF7BEFFC1
:106C70009DF8060000F0FCF82CB1204602B0BDE8FB
:106C8000F0810424F4E7FFF711FEF6E7001001405D
:106C900030B583B004460D4600238DF806300DF163
:106CA000060000F0B9F80DF10700FFF7A5FF70B17D
:106CB000057044609DF80700FFF798FF00249DF8D9
:106CC000060000F0D5F824B1204603B030BD0424FE
:106CD000F5E7FFF7EBFDF7E708B5084B0022C3F82F
:106CE0004021C3F84421C3F84821C3F84C21C3F81C
:106CF0000021C3F80421FFF7E7FD08BD00100140A3
:106D000008B5FFF74DFF08BD10B5FFF739FD0F4B74
:106D100000241C705C700B229A700D4B1C600D4B94
:106D20001C700D4B1C700D4B4FF48012C3F880216A
:106D3000C02183F814131A602046FFF7F5FC084BB6
:106D4000D3F80425074B1A60204610BDC43000203C
:106D5000E4310020DC310020DD31002000E100E0E2
:106D600000100140E0310020094B9B7843B14AB14B
:106D700050B10368187C48B9187459745A61704747
:106D80000820704707207047072070470820704789
:106D9000C430002008B513460D4A927882B188B1FC
:106DA000A1F1050C0B4A94450ED8426972B1427CA0
:106DB000012A03D00022FFF739FF08BD0A46FAE78F
:106DC0000820FAE70820F8E70720F6E70820F4E7AC
:106DD000C4300020FAFFFF0008B5094B9B7843B18F
:106DE00048B143694BB1002303740221FFF750FF00
:106DF00008BD0820FCE70820FAE70820F8E700BFF4
:106E0000C4300020014BD3F8040570470010014046
:106E1000401A20F07F407047EFF3108272B6114B9A
:106E20009B68C3B930B40F4901238B600E4BD3F874
:106E300080400E4D2C400C60C3F88050D3F8844045
:106E40004C604FF0FF31C3F884100023037002B987
:106E500062B630BC7047012303700AB962B670474E
:106E6000704700BFE831002000E100E0FC06FFBDF4
:106E7000084B9B686BB160B9EFF3108172B6054B9C
:106E80001868054A10605868506000229A6001B97D
:106E900062B67047E831002000E100E038B50546F1
:106EA000002402E0284698470134032C05D8034B00
:106EB00053F82430002BF5D1F6E738BD003200201E
:106EC0000378013B052B34D8DFE803F003061120DB
:106ED000293100230B70704701230B7003898B81CC
:106EE0008388CB81C3688B6000230B7470470223B7
:106EF0000B7003898B818388CB81C3688B60837D12
:106F0000062B14BF002301230B74704703230B705F
:106F1000C3888B810389CB81C3688B60704704234E
:106F20000B70C3888B810023CB818B607047052356
:106F30000B707047884207D20368B3F1FF3F01D05E
:106F400001207047002070470020704743880333BA
:106F500000EB8300704738B504460D46FFF7F6FF97
:106F600085420CD3A2884FF6FF739A4209D023883A
:106F70004BB1A368B3F1FF3F07D0002038BD02201A
:106F8000FCE70120FAE70120F8E70120F6E700001E
:106F900060B10A4AD26882420AD8084A126982421B
:106FA00008D310F0030F07D101207047002070476D
:106FB00000207047002070470020704750300020AC
:106FC00060B10168094A91420AD14368084A934274
:106FD00008D00132934207D1012070470320704747
:106FE000032070470020704703207047DEC0ADDEED
:106FF000FE011EF10368B3F1FF3F04D00A4A934239
:107000000ED1012300E00123B3F5806F06D250F8C2
:107010002320B2F1FF3F05D10133F5E7012070478E
:107020000020704700207047DEC0ADDE094A00EB4B
:10703000800C02EB8C0CBCF808300B44BCF80A0046
:1070400010FA83F080B2B0F5806F8CBF0020012071
:10705000704700BF343200200023012B19D810B430
:1070600003E001339BB2012B0ED803EB83020A4CE1
:1070700004EB820252688A42F3D202F580528A42BD
:10708000EFD90380002001E048F209605DF8044B6D
:10709000704748F20960704734320020F8B50D4659
:1070A000174600F5805600F1080402230B800DE01E
:1070B0000FB101223A70022B1CD063882A88134436
:1070C00003332B802046FFF741FF0446314620461C
:1070D000FFF730FF88B131462046FFF73CFF0346FB
:1070E0000028E5D1A368054A12689342E5D9034A0E
:1070F0001360E2E74FF480632B80F8BD2C32002050
:107100008B7D022B04D9CB8802891344033303817E
:10711000CA8843899B1A033B43817047F8B5033003
:1071200086B240F2FE339E4221D80D46002401E093
:107130000134A4B2012C17D804EB84030D4A12F8D1
:107140002330002BF4D131462046FFF76FFF002893
:10715000EED02C80074B04EB840203EB82025089B3
:1071600030445081002001E048F20660F8BD48F24A
:107170000860FBE734320020054A01EB810C02EB8A
:107180008C0CBCF80A301B1A033BACF80A30704771
:1071900034320020F8B50E4600EB8000134B03EBB1
:1071A0008000446804F580550868A0B1FFF7CEFE62
:1071B000044629462046FFF7BDFE074698B12946FA
:1071C0002046FFF7C8FE012807D002280AD0002871
:1071D000EFD1346007E00834EBE72046FFF7B6FE56
:1071E0000446E6E700273846F8BD00BF34320020E9
:1071F00030B583B005460C464068FFF7C9FE20B1A4
:107200002A89174B1B899A4218D000232380238890
:10721000012B23D80023019301A92088FFF7BAFF8F
:107220000146B8B1019B2A6898689042F4D16B601E
:107230000B4B1B892B81084603B030BD2A68696857
:107240008B689A42E1D12046FFF706FFB0FA80F141
:107250004909F0E7238801332380D8E70021EAE7D2
:1072600018320020F8B51C461F4B1B78002B34D079
:1072700005460F461646002A32D03CB948F2046053
:1072800027E000232360A3880133A380A388012B78
:1072900020D803EB8303154A12F82330002BF2D1D8
:1072A0002146A088FFF776FF0028EAD023681DB1A9
:1072B00099882A889142F3D11FB119883A8891425E
:1072C000EED19B68336023687360094B1B8933815F
:1072D0000020F8BD48F20960FBE748F20160F8E7DA
:1072E00048F20460F5E700BF10320020343200207D
:1072F000183200202DE9F041884617461E4600EB63
:1073000080001D4B03EB8000456805F1080405F57E
:10731000805529462046FFF70DFE58B329462046E2
:10732000FFF719FE01280DD0022818D00028F0D14F
:10733000B8F800300133A8F800302046FFF706FE09
:107340000446E6E73B8801333B8063883288134478
:10735000033333802046FFF7F9FD0446D9E73B8825
:1073600001333B802C1B358805EBA4043480069B3D
:1073700001221A70BDE8F081343200202DE9F04777
:107380000024A1464FF003082546274653E0304627
:10739000FFF730FEC8B1424A126882B1414B05EB9B
:1073A000850103EB8100022203F82120466002815F
:1073B0003D4B5D800135ADB247F0010739E0384AF9
:1073C0001660022191808146F6E708F1FF381FFA26
:1073D00088F8344A05EB850302EB83035E6005EB16
:1073E0008503032102F823100135ADB221E0B9F184
:1073F000000F0FD02B4B05EB850103EB8100022220
:1074000003F821202649096841600281264B5D80EE
:107410000135ADB2DFF888A0514641F8046B002277
:107420003046FFF73BFEBAF80430022B2DD008237C
:107430001F430134A4B2022C29D81C4BDE6806EB92
:1074400004363046FFF7BCFD0128D0D003289ED07B
:107450000028EED1134905EB85039A0001EB830365
:10746000002088545E6005EB85029200103205EB27
:1074700085039B0008330A4419443046FFF70EFE8B
:1074800047F002070135ADB2D3E70423D0E7B8F1E6
:10749000010F02D9F8B2BDE8F0870027FAE700BF74
:1074A000FC320020343200201832002050300020FE
:1074B0000B4A1389013313810023538013730CE0AB
:1074C00003EB83018A0007498A5CB2FA82F252090F
:1074D000034919448A7201339BB2012BF0D97047DA
:1074E000183200203432002000B58646002301E027
:1074F00001339BB2012B1BD80F4A1A44927A002AFF
:10750000F6D00D4A1A440021917203EB83020B4915
:1075100001EB8202D268002AEAD103EB830C01EB73
:107520008C0C9CF810000028E2D0AEF8003000E08F
:1075300000205DF804FB00BF183200203432002028
:10754000044B5B685B880333034A918811FA83F329
:107550009380704718320020FC32002030B40E486F
:1075600004680E4B5B880E4903EB830C4FEA8C02D8
:107570000A44556805605460B0F804C0A2F808C019
:107580000222828003EB830303FA02F211440023F8
:107590000B7430BC704700BFFC3200201832002052
:1075A0003432002008B5124B1B78072B0AD8DFE8CD
:1075B00003F00409090A1016161AFFF779FF0C4B9D
:1075C00001221A7008BDFFF7BBFF094B02221A7097
:1075D000F8E7FFF7C3FF064B06221A70F2E7044BE9
:1075E00007221A70EEE7024B01221A70EAE700BF89
:1075F000183200200023D3F8F80FB0F1FF3F07D076
:107600004FF080531A695B69B0F1FF3F04D07047B7
:107610004FF010235869F3E703FB02F0F7E700008F
:1076200008B5FFF7E7FF034B1861A0F54050D8609D
:1076300008BD00BF5030002008B50146014800F0E9
:107640006AFE08BDE832002008B5064B05221A7014
:10765000054902238B80002301220968034800F0BA
:107660008FFF08BD18320020FC320020503000206F
:1076700008B50D4B5B8803EB83010C4A02EB8102DA
:10768000D26872B9084A0421117003EB83030749D9
:1076900001EB8301002301224968054800F070FFD7
:1076A00008BDFFF7D1FFFBE718320020343200207D
:1076B0005030002000B583B0002300930823044A13
:1076C00004490968044800F01BFF03B05DF804FB9F
:1076D000E44F0300FC3200205030002008B5044B7A
:1076E00007221A7000225A60FFF7E4FF08BD00BFAE
:1076F0001832002000B583B0014600230093082310
:10770000034A044800F0FCFE03B05DF804FB00BF30
:10771000DC4F030050300020F8B530B90B79032B53
:1077200061D8DFE803F0081E3944324B00225A606A
:107730004FF4064005E001230B71FFF7BBFF002863
:1077400051D1F8BD0B4600EB800292000021995404
:1077500000EB800003EB80004068FFF7CBFF0123C4
:1077600010E00023012B0AD8184603EB83022249BC
:1077700011F82220022AE5D001339BB2F2E7002360
:1077800048F20E60002BDAD11A4B01221A70002247
:107790005A6041F61D50D4E700230B7117490222AD
:1077A0008A8001220968164800F0EAFEC7E7002532
:1077B0000D71124C2068FFF79DFF124B5B88266805
:1077C0000D4903EB830201EB820257682760566084
:1077D000B4F804C0A2F808C00222A28003EB83031D
:1077E0009340CD54ABE7034B00225A6048F20D6042
:1077F000A7E700BF1032002034320020FC32002006
:10780000503000201832002008B5064B06221A70AE
:107810005B8803EB83039A00034B13445868FFF71C
:1078200069FF08BD183200203432002000B583B053
:1078300002238375002300930423C218044800F038
:107840005FFE10B903B05DF804FB48F20D60F9E784
:107850005030002000B583B0036973B103238375F2
:1078600000230093042300F10C020831054800F0C6
:1078700047FE20B903B05DF804FB0123EFE748F2AF
:107880000D60F7E75030002000B583B00123837509
:10789000C388002200929B0002690C31044800F06A
:1078A0002FFE10B903B05DF804FB48F20D60F9E754
:1078B0005030002000B583B00378032B0ED0062390
:1078C000837500230093042300F10802194406483D
:1078D00000F016FE20B903B05DF804FB0523EFE7C6
:1078E00048F20D60F7E700BF5030002010B582B0BD
:1078F0000C46002300930423084A0146084800F080
:10790000FFFD40B904EB8404064901EB8404012324
:10791000237402B010BD48F20D60FAE7D84F03009F
:10792000503000203432002070B50C468B8A03EBB7
:1079300083022D4E06EB8206A8B92B4A03EB830186
:1079400002EB8101496803EB830302EB83031D898A
:1079500001EB8505A37D062B0BD8DFE803F0162E7F
:1079600022280D343E003046FFF7CAFB4FF406458F
:1079700015E048F20E650EE01C4800234360A36941
:1079800003601B49FFF734FC50B329462046FFF73C
:107990004DFF05461DB121463046FFF7B1FB284695
:1079A00070BD29462046FFF755FF0546F2E72946F8
:1079B0002046FFF769FF0546ECE729462046FFF71A
:1079C00079FF0546E6E70623A375094B1988074B9F
:1079D0005868FFF78BFF0546DCE741F61D55DAE7EF
:1079E00048F20965DBE700BF34320020F4310020A3
:1079F0000833002010B584B004460023009301939F
:107A00000293C36800930DF10E016846FFF7F0FB87
:107A100018B948F2096004B010BD01988388E3806A
:107A200003882381BDF80E10FFF760FFF3E7000025
:107A300000B583B00B4842680B4B1968B3F804C01B
:107A4000538803339BB24FF0030E80F800E0002010
:107A500000909B0001EB8C01044800F051FD03B045
:107A60005DF804FB18320020FC320020503000206A
:107A700008B5064B191D5888FFF78CFB10B1FFF7AE
:107A8000D7FF08BDFFF7F4FDFBE700BF1832002069
:107A900008B50748FFF728FD10B1FFF7E9FF08BD5B
:107AA000044B00221A705A805A6041F61D50F6E7C6
:107AB0001A3200201832002030BB08B5154B1B7B52
:107AC0006BB1144B00221A73124B1B78013B062B2F
:107AD0001DD8DFE803F0070A0D101C131600FFF78E
:107AE00061FDF1E7FFF7D4FF08BDFFF7C1FFFBE73A
:107AF000FFF79EFFF8E7FFF7BBFDF5E7FFF784FE12
:107B0000F2E7FFF7EBFDEFE74FF40640704748F26E
:107B10000E60E9E71832002010B584B00B4B01AAC3
:107B200000210630FFF79EFB40B9084B9988029868
:107B3000FFF7DCFE0446204604B010BD04460822D0
:107B4000002102480AF0E7FCF5E700BF0C330020F3
:107B5000C8B908B50B79012B0BD0022B16D013B185
:107B600048F20E6008BD02230B710846FFF742FF82
:107B7000F8E70846FFF7D0FF48F209639842F1D1D1
:107B800041F61D50EEE74FF40640704741F61D5098
:107B9000E8E7000008B50146014800F0C8FB08BD51
:107BA000E832002008B50121034800F070FC0038DD
:107BB00018BF012008BD00BFF832002010B586B004
:107BC000044626E02948FFF737FD294B186024E0DA
:107BD0002046FFF7A1FD002845D000230193029322
:107BE00003930493059341F61D53984239D00290B4
:107BF0001F4C01A92068FFF763F901A8FFF74EF9B0
:107C0000002323601948FFF7C5FFFFF7CBFF50B3F0
:107C10000024174B1B68002BD4D0154B19680B7828
:107C2000013B052B1AD801A252F823F0D17B0200A8
:107C3000457C0200457C02004D7C02004D7C020028
:107C4000557C02002046FFF76FFEC4E72046FFF791
:107C50007FFFC0E72046FFF72FFFBCE748F20E602A
:107C6000BBE70020C3E706B010BD00BF28320020EC
:107C70003032002008B54068FFF7A0FF08BD0000C3
:107C800008B50121014800F0F7FB08BD2C320020A7
:107C900008B5FFF7C5FC00220249034800F023FCA9
:107CA00008BD00BFF84F03005030002008B51C236A
:107CB0008C220249024800F0F9FA08BD5C3200202B
:107CC000E832002010B50146044800F00DFB0446E0
:107CD0001C2200210AF01FFC204610BDE8320020C3
:107CE00008B50146014800F00BFB08BDE832002052
:107CF00008B50121034800F0B4FB00B108BDFFF74F
:107D00005DFFFBE7F83200202DE9F04383B00C461D
:107D10003849097800295DD005469846002C5CD08A
:107D200021884FF6FF7399425AD06388002B5AD0AE
:107D3000676817F0030759D1002A33D01388ADF8CC
:107D40000630B2F802906846FFF7BCFF06460028EE
:107D500033D080F8008000238375BDF8063083821D
:107D600063680361FFF78CFFF060238833816388C9
:107D7000B380A6F80690B8F1030F26D000237381D4
:107D80006846FFF7ADFF3DB100236B60F2682A60E3
:107D9000AB72194B1B892B81FFF7AAFF384603B042
:107DA000BDE8F083B4F808900DF106014846FFF7EE
:107DB000B5F90028C7D00746F0E7BDF806104846D9
:107DC000FFF7DAF948F20767E8E70423B3752B6891
:107DD000B361D3E748F20167E0E748F20467DDE703
:107DE00048F20367DAE748F20367D7E748F2026729
:107DF000D4E700BF1032002018320020094A126870
:107E0000042A0BD008B5034606480168064A42F822
:107E10002130012100F030FB002008BD48F20B604A
:107E2000704700BF043300200032002030B587B017
:107E3000002301930293039304930593294B1B782A
:107E40002BB9294800F02EFB40B1002403E001A823
:107E5000FFF724F80024204607B030BDFFF718FFD5
:107E600004460028F7D1FFF721FFFFF787FA054600
:107E700002282DD0062811D068B36846FFF722FFEC
:107E800060B301220270013D0A2D12D8DFE805F02F
:107E90000F110F111D111D11171A1700114B01227F
:107EA0001A7000225A6001A8FEF7F8FFD3E70022FB
:107EB00002716846FFF714FFFFF71AFFCBE70322B2
:107EC0000271F6E702220271F3E701220271F0E784
:107ED00048F20A64BFE748F20A64BCE748F2076464
:107EE000B9E700BF103200201432002010B370B583
:107EF00082B00C46054601B30DF10601FFF778F993
:107F000018B948F2096002B070BD6E68BDF806305D
:107F100003EB830080000830094B18440121043032
:107F200000F0AAFA26606B680C3363600123AB7221
:107F30000020E8E748F20460704748F20460E2E796
:107F400034320020F8B110B582B004460DF10601BC
:107F5000FFF74EF9D0B1BDF8063003EB8301104AAC
:107F600002EB8102D268AAB1A27AB2B10C4A02EB4A
:107F70008101C968013903EB830302EB8303D960F4
:107F80000020A07204E048F20460704748F20960E3
:107F900002B010BD48F20560FAE748F20560F7E765
:107FA0003432002008B502230022FFF7ADFE08BDE1
:107FB00028B108B503230022FFF7A6FE08BD48F24A
:107FC00004607047114B1B78BBB110B582B00446FA
:107FD0004FF6FF73984213D001A8FFF773FE90B1DC
:107FE0000522027001220271C48001A8FFF778FE09
:107FF000FFF77EFE002002B010BD48F2016070471E
:1080000048F20360F7E748F20760F4E71032002017
:108010000F4B1B78B3B100B583B001A8FFF752FE38
:1080200098B10622027001A8FFF75AFE094B1B788F
:1080300013B1084B01221A73FFF75AFE002003B058
:108040005DF804FB48F20160704748F20760F6E70C
:10805000103200201832002000B583B0ADF80600C1
:10806000ADF8041001A90DF10600FFF7FBF803B00D
:108070005DF804FB00B583B01346ADF806000A4670
:108080000DF106010020FFF7EDF803B05DF804FBE9
:1080900000B583B01346ADF806000A4600210DF185
:1080A0000600FFF7DFF803B05DF804FB20B131B143
:1080B00003680B600020704748F20460704748F284
:1080C000046070472B4B1B78002B4CD0F0B583B06D
:1080D000044600284AD0122200210AF01CFA032389
:1080E000238000260FE02388013B23801CE004F15D
:1080F0001003009304F10E03A21D211D3046FFF76B
:10810000F9F80136B6B2012E2AD8374606EB8603B7
:10811000194A02EB83031D895A891544ADB2586888
:10812000FEF74EFF0328DED0134B07EB870203EB6D
:108130008202D26861880A44628007EB870703EBFA
:1081400087077B8922891344238163892B446381B8
:10815000C5F58065ADB2A389AB42C8D2A581C6E79B
:10816000002003B0F0BD48F20160704748F204609F
:10817000F7E700BF1032002034320020BFF34F8FEA
:108180000549CA6802F4E062044B1343CB60BFF3B5
:108190004F8F00BFFDE700BF00ED00E00400FA05CF
:1081A00008B5054B9A6ADB6A002300E00133192BFE
:1081B000FCD9FFF7E3FF08BD00ED00E082B050E816
:1081C000013F1FFA83FCC28994448289944528BFE9
:1081D000ACEB020C0289944502BFBFF32F8F002045
:1081E00007E0CCEA030C40E801C2002AE7D14FF0D7
:1081F00001008DF807000093009B0B609DF80700BD
:1082000002B0704750E8012FC2EA024240E8012361
:10821000002BF7D1704782B050E8023F1FFAA3FC51
:10822000C288944502BFBFF32F8F00200EE0C289A1
:1082300094448289944528BFACEB020CC3EA0C4CF1
:1082400040E802C2002AE7D14FF001008DF8070094
:108250000093009B0B609DF8070002B0704750E848
:10826000022FC2EA224240E80223002BF7D17047D6
:1082700082B050E8022FC188B2EB324F4FF00003BA
:1082800017BF92B241EA014142EA014104E042686B
:10829000B2EB324F08BF012340E80212002AE8D1B6
:1082A0008DF807309DF8070002B0704781B110B417
:1082B0000C46B2FBF3F103FB112189B251B9046002
:1082C000416081608281C38108465DF8044B70473C
:1082D0000E2070470920F8E708B5FFF7C9FF08B17D
:1082E000002008BD1120FCE738B505460C46FFF715
:1082F00065FF18B128682388184438BD0020FCE7C2
:1083000008B50A884B889A4201D0002008BDFFF7C3
:1083100079FF0120FAE738B505460C46FFF77BFFE9
:1083200018B128686388184438BD0020FCE708B5F8
:108330000A884B889A4201D0002008BDFFF78FFFC2
:108340000120FAE708B54B0901F01F01012202FAEA
:1083500001F100EB830000F06EF808BD10B54B0989
:1083600001F01F040121A14000EB830000F058F848
:10837000E04000F0010010BD08B54A0901F01F01FE
:10838000012303FA01F1C94300EB820000F05EF81B
:1083900008BD4B0950F8230001F01F01C84000F050
:1083A000010070472DE9F04106460F46002518E010
:1083B000202300E020231F2B12D803EB4514A742F3
:1083C0000ED921463046FFF7C9FFE0B1D8F800309A
:1083D000DB4393FAA3F3002BECD0B3FA83F3EAE781
:1083E00001357B1E5B090133AB420BD906EB8508D7
:1083F00056F82530DB4393FAA3F3002BD8D0B3FA19
:1084000083F3D8E73C462046BDE8F081034653E8B5
:10841000000F0A4643E8002C9CF0000FF7D170478C
:10842000034653E8000F40EA010243E8002C9CF0A9
:10843000000FF6D17047034653E8002F42EA0100CF
:1084400043E8000C9CF0000FF6D17047034653E858
:10845000002F02EA010043E8000C9CF0000FF6D167
:108460007047034653E8000F00EB010243E8002C7D
:108470009CF0000FF6D17047034653E8002F02EB43
:10848000010043E8000C9CF0000FF6D17047034652
:1084900053E8002FA2EB010043E8000C9CF0000F12
:1084A000F6D1704708B50121FFF7BAFF08BDC368D0
:1084B0008B4206D8114401390369994203D900203F
:1084C0007047002070470120704710F0030F0CBF69
:1084D00001200020704743681B68013B0B420CBF22
:1084E00001200020704738B108B50B4611462BB16A
:1084F00003601B68984708BD0E2070470E20FAE7FE
:1085000070B32DE9F04182B00F4616461C46054671
:1085100042B3D0F80080B8F1000F25D033B34368E0
:108520005A68B4FBF2F302FB13430BBB0846FFF798
:10853000CCFFF8B13046FFF7C8FFE8B12246394614
:108540002846FFF7B4FFC8B1D8F80C80089B009309
:108550002346324639462846C04702B0BDE8F0817E
:108560000E2070470E20F8E70820F6E70920F4E710
:108570000920F2E71020F0E71020EEE71020ECE7EA
:10858000E0B12DE9F041884614461F4605460668CD
:10859000B6B1BAB1FFF79FFFB0B16B681A6804FBC0
:1085A00002F241462846FFF782FF78B136693B4622
:1085B000224641462846B047BDE8F0810E2070476C
:1085C0000820F9E70920F7E71020F5E71020F3E786
:1085D00029DF704728DF704703689B68002B29D08C
:1085E00000B587B000230093019302930393049393
:1085F0000593019183680593037943B1012B10D052
:1086000003689B686846984707B05DF804FB012340
:108610008DF8003003690293C368039343690493A0
:10862000EEE702238DF80030C3681B030293436911
:108630000493E5E7704710B542698369D21AB2F531
:10864000805F28BF4FF4805292080469C168012AF4
:1086500038BF012219441819FFF7BAFF10BD08B539
:10866000C26800691044FFF7B5FF08BD114B002236
:10867000DA6003791BB1012B0FD0104670474269B5
:108680008369D11AB1F5805F94BF5B1803F58053FD
:1086900083619A4209D00020704703690133036166
:1086A0004269934203D000207047012070470120A7
:1086B000704700BFB0330020064AD3680133D3604F
:1086C000082B01D80020704713460022DA600120F1
:1086D000704700BFB0330020084670470020704745
:1086E000024B187A003818BF01207047B0330020C1
:1086F000034B01225A74187AB0FA80F0400970478F
:10870000B033002008B502490248FFF710FE08BD4B
:10871000C4330020A033002008B505490548FFF701
:10872000FAFD054B1860003818BF012008BD00BFD6
:10873000C4330020A0330020C833002008B51A4BF2
:108740001B7AA3B1184B02221A72184B18680379CE
:10875000ABB1012B1CD00321144B1868FFF73CFF71
:10876000114B00221A725A60FFF7CCFF08BDFFF7C9
:10877000D3FF0028E6D10C4B00225A60F6E7FFF742
:108780005AFF40B11128E6D1074B01221A72EDE7DA
:10879000FFF765FFF5E7044B1B7C002BE6D10021BA
:1087A000022000F005F8E1E7B0330020C8330020D4
:1087B000831E012B2DD810B50446164B1B7A53B1DE
:1087C000022B03D1022807D0032818D0114B5B7C61
:1087D000E3B9FFF7B3FF10BD0F4B1868FFF746FF73
:1087E0000028F3D00B4B00221A720B4B1868022C96
:1087F0000AD00D21FFF7F0FEFFF784FFE6E7064BF6
:108800001868FFF759FFEBE71146F3E709F0EEFBB5
:10881000E1E77047B0330020C8330020012802D0C0
:10882000032800D0704708B5054B00225A74012870
:1088300014BF002001201874FFF780FF08BD00BF9F
:10884000B033002008B50548FFF72CFE10B9044BE3
:108850005B7C03B108BDFFF771FFFBE7B433002079
:10886000B03300202DE9F04182B007468846164615
:108870001D4601A90E48FFF737FDB0B104461C2282
:10888000002109F048FE012323712760A5604FEA0B
:108890001831E160666101A90548FFF731FDFFF776
:1088A000D1FF002002B0BDE8F0810420FAE700BF4C
:1088B000A03300202DE9F04383B080460F46914657
:1088C0001E4601A90F48FFF70FFDC0B104461C2248
:1088D000002109F020FE00252571C4F800800A9BC4
:1088E000A3602761C4F80C90666101A90548FFF7F1
:1088F00007FDFFF7A7FF284603B0BDE8F08304207B
:10890000FAE700BFA033002008B510461A4609F068
:10891000D9FD002008BD000008B51422002104483C
:1089200009F0F9FD0348FFF7D7FC002008BD00BFA0
:10893000B0330020A033002008B5094B436009483C
:10894000FFF7B0FD08B1002008BD09F063FB054B3F
:1089500018741C238C2204490448FFF7A7FCF2E793
:10896000EC4F0300B033002014330020A03300206C
:1089700041DF704710B50024054B1C70054B1C608F
:10898000BFF35F8F0449054800F02CF9204610BD65
:10899000D4330020D833002018500300CC330020FB
:1089A00000B583B000238DF807300DF10700FEF706
:1089B00033FAF1EE103A23F09F03E1EE103ABFF3E1
:1089C0005F8F0A4B4022C3F884219DF80700FEF711
:1089D0004FFA09F01FFB28B920BF40BF20BF03B0EA
:1089E0005DF804FBFFF7C4FFF9E700BF00E100E01A
:1089F00002681368526839B1934203D88068013025
:108A0000801A7047981A7047934201D8D01A70475D
:108A100080680130C01A70472DE9F041044688464D
:108A2000154603681F680021FFF7E2FF6168E268EE
:108A300007FB0211A8420DD305FB02F2404609F0E4
:108A400041FD3D44A3689D4200D9002523681D6077
:108A5000BDE8F081064600FB02F73A46404609F0C1
:108A600031FDAD1BE26805FB02F2616808EB07000F
:108A700009F028FD23681D60EAE703681A685B684F
:108A800081688B4205D2581C824214BF002001200D
:108A900070470020F8E770B582B004460D46002309
:108AA0008DF807300DF10700FEF7B6F92046FFF705
:108AB000E4FF014610B1237C002B4AD122685068A4
:108AC0005368A668B34201D2013300E0002353602B
:108AD00031B122681368A1688B420BD20133136055
:108AE000E268531E072B28D8DFE803F00615271A83
:108AF0002727271F0023F2E763682A781A54226881
:108B00001168536899421FD85B1A9168994222D222
:108B10009360002420E063682A8823F81020EEE7A1
:108B200063682A6843F82020E9E7636803EBC00024
:108B3000D5E90023C0E90023E1E76368294600FB8B
:108B4000023009F0BFFCDAE7A0680130411A0B449B
:108B5000DBE7042400E000249DF80700FEF788F915
:108B6000204602B070BD70B582B0144612B92046DE
:108B700002B070BD06460D4600238DF807300DF19A
:108B80000700FEF749F9336819685B68994208D80D
:108B90005B1A9C420AD905249DF80700FEF768F984
:108BA000E5E7B2680132521A1344F2E72246294639
:108BB0003046FFF731FF0024EEE730B583B00446BE
:108BC00000258DF807500DF10700FEF725F90C225E
:108BD0002946206809F09FFC9DF80700FEF748F938
:108BE00003B030BD01600B6843604A68934200D017
:108BF000704700234360FBE7436833B10268916824
:108C00000B4443605268934200D070470023436096
:108C1000FBE70268134600E01B6813B18B42FBD1EF
:108C200001E00A60016070470346006808B102680D
:108C30001A60704708B5054BD3F8003403B108BD7E
:108C400000F03CFA024B00229A70F8E70000014065
:108C5000DC33002000B1704708B5064B01225A7082
:108C600002E04368002098470348FFF7DDFF002833
:108C7000F7D108BDDC330020E433002010B50446F2
:108C800010B1012C0DD010BD0C4B01225A7002E026
:108C90004368002098470A48FFF7C6FF0028F7D12D
:108CA000EFE7064B01229A7002E0436801209847E3
:108CB0000448FFF7B9FF0028F7D1E4E7DC330020D0
:108CC000E4330020EC33002010B5104B1B784BB17F
:108CD00085240F4BD3F8003413B10C4B01229A704A
:108CE000204610BD094B00229A605A601A61DA6072
:108CF000084800F0ABF9044609F08CF918B1034BB1
:108D000001221A70E5E700F0AFF9F8E7DC33002044
:108D1000000001407D8C020010B582B00446194B62
:108D20009B78A3B110B143680120984700238DF8C8
:108D300007300DF10700FEF76FF8124AD3680133D0
:108D4000D3609DF80700FEF793F802B010BD002332
:108D50008DF807300DF10700FEF75EF81CB12146D3
:108D60000948FFF756FF074BDB6843B1054AD36854
:108D70000133D3609DF80700FEF77AF8E5E700F0CD
:108D800089F9F3E7DC330020EC33002000B583B031
:108D900000238DF807300DF10700FEF73DF8084B72
:108DA000DA68013ADA60DB6833B19DF80700FEF754
:108DB0005FF803B05DF804FBFFF73CFFF5E700BF89
:108DC000DC33002000B583B001280ED0032824D066
:108DD00010B103B05DF804FB124B0122C3F88020F0
:108DE000BFF34F8FBFF36F8FF3E700238DF807308A
:108DF0000DF10700FEF710F80B4B1B7853B10A4B2F
:108E0000DA680132DA6001229A709DF80700FEF7F5
:108E10002FF8DEE7FFF758FFF1E700F025F9FFF73D
:108E2000B5FFD6E700E100E0DC33002031DF70471A
:108E300010B584B08DF8070000238DF80F300DF1C8
:108E40000F00FDF7E9FF09F0E5F828B19DF80F00E4
:108E5000FEF70EF804B010BD064C0DF107012046D8
:108E6000FFF719FE2046FFF708FE0028EED000F0BD
:108E70003DFCEBE7704F030000B583B020B1032841
:108E80000BD003B05DF804FB0F4B1B78012BF8D11E
:108E900000F02CFC00F032FCF3E700238DF80730E3
:108EA0000DF10700FDF7B8FF074B1B78012B04D02D
:108EB0009DF80700FDF7DCFFE3E70449044800F0F4
:108EC000D3FB00F001FCF3E740340020318E0200B8
:108ED0004134002010B582B0144B1B7823BBB0B1D5
:108EE0000288124BA3F8012000238DF807300DF102
:108EF0000700FDF791FF09F08DF850B90C490D48B6
:108F000000F0B2FB044660B900F0DEFB02E00A4864
:108F1000E6E70024054B01221A709DF80700FDF7D3
:108F2000A7FF204602B010BD8524FAE74034002098
:108F3000318E0200413400202450030000B583B07C
:108F400000238DF807300DF10700FDF765FF09F0EC
:108F500061F860B19DF80700FDF78AFF0648FFF74A
:108F60002CFE064B00221A7003B05DF804FB00F0E3
:108F7000BDFB00F0C3FBEDE7704F03004034002061
:108F8000F0B583B007460E4600240AE03246394663
:108F90001348FFF7E8FD044600F096FB0DE0022CB5
:108FA0001BD100238DF807300DF10700FDF734FFCA
:108FB00009F030F805460028E8D09DF80700FDF7D5
:108FC00057FF002DEBD031463846FFF72FFF044600
:108FD00042F207039842E2D10524204603B0F0BDD7
:108FE000704F030070B505460E460BE03446402E28
:108FF00028BF4024E1B22846FFF7C2FF0028F9D17C
:10900000361B2544002EF1D170BD00000D4BD3F866
:10901000FC1041F08072C3F8FC20A3F55D43186892
:1090200040F001021A605A68074B5B689B1AB3F55F
:109030000A5FF9D3044B186003F55D43C3F8FC10D5
:10904000704700BF00ED00E0001000E0054B1B7909
:1090500033B9044B186001221A710020587170470F
:109060008520704744340020084B1B6813F0010F23
:1090700005D04FF08043064AC3F818257047034BCC
:10908000C02283F8002301221A60F2E700E100E029
:109090000100030010B582B04FF080440023C4F8F3
:1090A0000431D4F804310193019B0223C4F8043342
:1090B000FFF7ACFF0123A36002B010BD82B04FF0F8
:1090C00080430222C3F808230022C3F80421D3F806
:1090D00004210192019A0122DA604FF08043D3F813
:1090E000183413F4803FF8D102B0704700B583B054
:1090F0004FF08043D3F800319BB14FF08043002202
:10910000C3F80021D3F800210092009A0122C3F88D
:109110000823104B5B7923B90E4B5A711B68002052
:1091200098474FF08043D3F804317BB14FF0804330
:109130000022C3F80421D3F804210192019A0222EB
:10914000C3F80823034B1B680120984703B05DF860
:1091500004FB00BF44340020034B034493F9500048
:1091600000F03F00704700BF4C340020034B034425
:1091700093F95000C0F38110704700BF4C340020B9
:1091800010B58646144622B1002324B14FF0080CD6
:1091900005E00823F9E74FF00C0C00E001336345CC
:1091A00013D20B4A52F82320B2F1FF3FF6D158B246
:1091B000074A02EB0E0C8CF8300042F8231034B949
:1091C000083B134483F850E001E04FF0FF3010BD3E
:1091D0004C340020064B4FF0FF3243F82020072884
:1091E00004D908381844FF2380F85030704700BF76
:1091F0004C3400208446002308E04FF0A042D2F80F
:1092000020154CF8041BC2F820150133002BF4D0B4
:1092100000230BB10020704750F823200AB9013316
:10922000F7E701207047000070B5064658E04FF0A0
:10923000030E2AE0012949D1204698470135032D24
:109240004AD8294B2B4493F95030B3F1FF3FF5D066
:109250002846FFF781FF0446C20800F007010123FA
:109260008B40B25C1342E9D02846FFF77FFF0146EE
:1092700004F5E0734FF0A04252F82330C3F3014CE1
:10928000BCF1020FD3D04FF0020E4FF0A04304F513
:10929000E07253F8220020F4403043F8220053F8E3
:1092A000220040EA0E4043F822000122A240C3F807
:1092B00020250D4B1A1992F9302053F82230002B3B
:1092C000BCD00329B8D0BCF1020FB3D0BCF1030F5E
:1092D000B4D10229B2D1AFE73046FFF78BFF08B116
:1092E0000025ACE770BD00BF4C34002010B582B043
:1092F000224B93F85840002C3DD1234604E04FF018
:10930000FF3207E00133DBB21F2B14D818465A098D
:10931000F5D0002203F01F01CA4012F0010FF1D076
:10932000164A0244FF2182F83010EBE72046FFF78F
:1093300051FF0134E4B20B2CF8D9104C0422002167
:1093400004F1540009F0E7F80D4BC02283F806231E
:1093500040221A600B4B0020C3F87C01D3F87C211B
:109360000192019A4FF00042C3F80423012384F8CC
:10937000583002B010BD0820FBE700BF4C3400207D
:1093800000E100E000600040034B93F85800003813
:1093900018BF0120704700BF4C340020314B0344FC
:1093A00093F93030002B01DB0820704770B504467C
:1093B0000D461146AA78C2F34002FFF7E1FEB0F174
:1093C000FF3F4DD0AB7813F0040F16D113F0010F0F
:1093D00023D04FF0A04204F5E07152F8213023F081
:1093E000020342F82130E30804F007011E4E012277
:1093F00002FA01F1F25C0A43F254AB7813F0020F67
:1094000014D108382A78174B184490F8503043EAA2
:10941000821380F85030002070BD6A78920004F505
:10942000E0734FF0A04141F82320DCE72B780F498F
:1094300000F5A27051F8202022F4473222F4407245
:1094400041F8202051F82020240204F4F8541B0491
:1094500003F440331C43144341F820400020DBE771
:109460000420D9E74C340020A034002000600040E4
:1094700030B583B004462B4B034493F930000728E2
:1094800025DD0838FFF772FE032814D001281CD010
:1094900003204FF0A04304F5E07453F8242022F495
:1094A000403243F8242053F8242042EA004043F895
:1094B000240003B030BD4FF0A043D3F81035E34093
:1094C00013F0010FE5D10220E3E70220E1E7C3B288
:1094D000072BEED800F140039BB29B009BB2124DCC
:1094E00000F5A27C55F82C2042F0010245F82C2012
:1094F00003F1804303F5C04300221A601B68019307
:10950000019B0029D5D0074B1C4494F9302053F817
:109510002230002BCDD0012303FA00F0C5F804035C
:10952000C7E700BF4C3400200060004070B584B035
:109530000025039501204FF48073294603E0400085
:1095400004339BB20131072912D803F1804202F59E
:10955000C0421468012CF2D1274CD4F804432042B5
:10956000EDD00024146012680192019A0543E6E7E9
:10957000214BD3F87C31012B06D015F0FF0F33D1EE
:10958000002D34DB04B070BD1B4A0023C2F87C31CF
:10959000D2F87C210292029A45F0004503A808E027
:1095A0004FF0A042D2F8201540F8041BC2F8201555
:1095B0000133002BF4D0E0E776000134072CDFD82C
:1095C0003542F9D00C4B04F5A27253F82200C0F3D7
:1095D000042053F82210C1F30141084B53F8243002
:1095E000002BE9D09847E7E701260024E6E703A827
:1095F000FFF71AFEC6E700BF006000404C340020B1
:10960000034B984201D1034870470020704700BFC8
:1096100000200040A834002008B5024B1B68984782
:1096200008BD00BFA834002070B582B00C46FFF71B
:10963000E7FF98B1054600238DF807300DF10700CC
:10964000FDF7EAFB2E7916B92C6001232B719DF8EA
:109650000700FDF70DFC26B9002000E0002002B055
:1096600070BD1120FBE70000134B1B780BBB134BA5
:109670001960037813F0010F06D0114AD2F80435AF
:1096800043F00103C2F804350D4AD2F8003223F04A
:109690000103C2F8003243785B01DBB2094A82F869
:1096A0000D334FF400531360034B01221A70002056
:1096B00070478520704700BFB4340020B0340020CC
:1096C00000D0004000E100E082B0074B0022C3F868
:1096D0000021D3F800210192019A0122C3F804234A
:1096E0001A6002B0704700BF00D00040024B012258
:1096F000C3F808235A60704700D00040084B01228D
:10970000C3F808235A60074B4FF40052C3F8802077
:10971000BFF34F8FBFF36F8F034B00221A70704758
:1097200000D0004000E100E0B434002000B583B078
:10973000084B0022C3F80021D3F800210192019ABE
:10974000D3F80805044B1B68C0B2984703B05DF816
:1097500004FB00BF00D00040B034002008B5034631
:10976000C27FFF2A08D0817F79B1012101FA02F27C
:109770004FF0A041C1F80C2500225A771A72184602
:1097800050F8082B5968904708BD012101FA02F2F0
:109790004FF0A041C1F80825EEE710B483B084462D
:1097A000106820B100F06044B4F1005F34D19468D7
:1097B00024B104F06044B4F1005F2DD15468CCF8BA
:1097C0004405CCF848459068D268CCF83405CCF80C
:1097D00038250022CCF81821DCF818210192019AD2
:1097E00013F0010F1FD00122CCF8502513F0020F07
:1097F0001DD00122CCF8402513F0080F02D1012220
:10980000CCF810200A68B2B113F004002ED0402327
:10981000CCF80833002002E000234B77102003B07F
:109820005DF8044B70470022CCF85025DEE700229B
:10983000CCF84025E0E7DCF81831002BFBD0CB7FDB
:10984000FF2B17D08A7F42B1012202FA03F34FF0B7
:10985000A042C2F80C350020E1E7012202FA03F32E
:109860004FF0A042C2F808350020D8E74023CCF8DA
:109870000433D4E70020D2E7D0F8182102B97047AA
:1098800000B583B00022C0F81821D0F81831019338
:10989000019B0846FFF762FF03B05DF804FB000080
:1098A00008B502490248FFF7E7FF08BDB8340020B9
:1098B000003000402DE9F8430C469846057905EB49
:1098C000C503734901EB83010B7F002B40F0DB8064
:1098D0000646914607686F493846FFF7A5FE0028FF
:1098E00040F0D3806A4B05EBC50203EB820143F8DD
:1098F0002290C1F80480237B012B40F29E802278C5
:10990000012393404FF0A042C2F80835237803F5B5
:10991000E0734FF0A042012142F823106378FF2B3F
:1099200000F09380194601229A404FF0A04CCCF8E9
:109930000C2503F5E07303224CF82320A378FF2BBA
:1099400000F086809C4603F5E0734FF0A0424FF094
:109950000C0E42F823E094F802E005EBC5034C4AF4
:1099600002EB830383F820E0E278DA77FF2A1BD04A
:109970002379002B6FD0012303FA02F24FF0A043AA
:10998000C3F80C25E37803F5E0734FF0A0424FF0E5
:10999000030E42F823E094F804E005EBC5033C4ACB
:1099A00002EB830383F81EE02378C7F80835C7F875
:1099B0000C15C7F810C5A368C7F82435227B637B54
:1099C000003B18BF0123022A50D0032A51D0012A9C
:1099D00049D0C7F85435A379C7F8C0350723C7F86D
:1099E000003505EBC5032A4A52F82330D3B133685A
:1099F00043F307336279002B3EDB5201D2B203F10D
:109A0000604303F5614383F80023336843F307336E
:109A1000002B07DB03F01F015B0901228A401E496E
:109A200041F823201A4B05EBC50203EB820200210B
:109A3000517701231377BDE8F883227801239340FF
:109A40004FF0A042C2F80C3560E74FF0FF3175E7E8
:109A50004FF0FF3C7FE7012303FA02F24FF0A043EF
:109A6000C3F808258EE743F00203B2E743F004038E
:109A7000AFE743F00603ACE703F00F035201D2B2A5
:109A80000649CA54C1E70820D5E71120D3E700BF33
:109A9000B8340020A198020000E100E014ED00E0DD
:109AA0002DE9F04190F804C00CEBCC031D4D05EB03
:109AB00083056B7FA3BB04468E4616460CEBCC0396
:109AC000184A52F8233023B116F0140F01D10122A5
:109AD0006A770CEBCC07134B03EB870707F10C08F5
:109AE0009EE80F0088E80F00FB7FFF2B08D0BA7FAD
:109AF00072B1012202FA03F34FF0A042C2F8083516
:109B00003346724629462068FFF747FEBDE8F081DC
:109B1000012202FA03F34FF0A042C2F80C35EFE73E
:109B20001120F3E7B8340020F0B583B005460F46A6
:109B30001646002401E00134E4B2B44215D2A0007C
:109B400000F5A0704FF48033A3402A58002AF2D0C9
:109B5000D5F804231342EED000232B502B58019349
:109B6000019B3B6879689847E5E703B0F0BD0000CA
:109B700008B5042202490348FFF7D6FF08BD00BF1D
:109B8000DC340020009000402DE9F04385B007460A
:109B9000894690464FF4A0744FF48036002503E0C8
:109BA00076000434A4B20135454511D2D7F8043308
:109BB0001E42F5D03B59002BF2D000233B513B59BC
:109BC0000193019B184B53F82930E8B29847E7E717
:109BD000D7F8043313F0010F0ED0D7F800315BB182
:109BE0000023C7F80031D7F800310293029B0E4BD7
:109BF00053F8293004209847D7F8043313F0020FA4
:109C00000ED0D7F804315BB10023C7F80431D7F880
:109C100004310393039B044B53F8293005209847E4
:109C200005B0BDE8F08300BFEC34002010B44379E8
:109C30001E4C44F8232003EB43031D4AD35C93BB23
:109C400090F904308A78002B26DB5201D2B203F15E
:109C5000604303F5614383F8002390F90430002B3F
:109C600007DB03F01F045B090122A240114C44F8FA
:109C7000232003680A88C3F8082543790C790C4A25
:109C800003EB4303D0184470C97881700121D1548B
:109C900000205DF8044B704703F00F035201D2B26D
:109CA000054CE254D9E70820F3E700BFEC3400206C
:109CB000E834002000E100E014ED00E00368012238
:109CC0001A60437903EB4303014A0221D1547047E0
:109CD000E834002082B003680022C3F80021D3F8E2
:109CE00000310193019B03680122C3F8442311B1A1
:109CF0000368C3F8042302B0704702680123C2F866
:109D000048330268C2F80833704782B00368002203
:109D1000C3F80421D3F804310193019B03680222A4
:109D2000C3F8442311B10368C3F8042302B0704799
:109D300008B5042200210248FFF726FF08BD00BF36
:109D400000400240064B1A5C4FF0A043D3F8103598
:109D5000D34013F0010F0CBF01200020704700BF5B
:109D60002850030008B54FF48C72002108F0D3FB93
:109D700008BD28B108B54FF48C7101F021F808BD79
:109D800070470000C02A10D0B2F5807F10D0802A22
:109D900002D06FF01F0070470A23036030B500F156
:109DA000080343604FF0000C19E00C230360F5E753
:109DB0000E230360F2E711F82C4001EB8C0E9EF8A5
:109DC000015044EA05249EF8025044EA05449EF8F6
:109DD000035044EA056443F82C400CF1010CBCEB41
:109DE000521FE8D302680C2A5CD00E2A00F0A4802F
:109DF0000A2A28D0002030BD1A68504951F8241092
:109E00004A40D968C1F307254D48455D6A40C1F312
:109E10000745455D82EA05220D0E455D82EA054251
:109E2000CDB2405D82EA00621A61586842405A61D0
:109E3000986842409A614A40DA6101341033092C33
:109E4000DAD90020D7E70024F9E71A683B4951F82E
:109E500020104A405969C1F30725394C655D6A40B5
:109E6000C1F30745655D82EA05220D0E655D82EA54
:109E70000542CDB2645D82EA04629A615C68624028
:109E8000DA619C6862401A62DC6862405A621C694E
:109E900062409A624A40DA62013018330728D4D906
:109EA0000020A8E70020F9E71A68244850F82100AC
:109EB0004240D869C0F30724214D2C5D6240C0F3B5
:109EC00007442C5D82EA0422040E2C5D82EA0442DF
:109ED000C4B22C5D82EA04621A625C6862405A6213
:109EE0009C6862409A62DC686240DA621C695FFAD0
:109EF00082FC15F80CC084EA0C04C2F3072C15F898
:109F00000CC084EA0C24C2F3074C15F80CC084EA98
:109F10000C44120EAA5C84EA02621A635C69624015
:109F20005A639C6962409A634240DA63013120338C
:109F30000629B9D900205EE70021F9E72C6103006A
:109F40002C5003002DE9F04F8DB0019245680B9520
:109F50000B784A7843EA02238A7843EA0243CA78B4
:109F600043EA02630A932C1D0B942A6853400A9318
:109F70000B794A7943EA02238A7943EA0243CA7990
:109F800043EA0263099305F108020B926D686B4086
:109F900009930B7A4D7A43EA05238D7A43EA054308
:109FA000CD7A43EA0563089304F108050B956468CC
:109FB000634008930B7B4C7B43EA04238C7B43EA8E
:109FC0000443C97B43EA0163079302F108050B953B
:109FD00052685340079303685B10013B9A46FDE0CB
:109FE0000B9A131D0B931168DDF828C05FFA8CF0F3
:109FF000E94E56F820004140099FC7F30720E74D7E
:10A0000055F8200041400898C0F30740E44C54F84C
:10A0100020004140DDF81CE04FEA1E68E14850F89E
:10A02000288081EA0801069102F10809CDF82C90F8
:10A03000D2F80480FAB256F8222088EA020B089A75
:10A04000C2F3072855F828808BEA0802CEF30748A8
:10A0500054F8288082EA08024FEA1C6850F82880E9
:10A0600082EA0802059203F10808CDF82C80D3F8A3
:10A0700004B0089BDBB256F823308BEA0303CEF31F
:10A08000072B55F82BB083EA0B03CCF3074B54F89E
:10A090002BB083EA0B034FEA176B50F82BB083EA1F
:10A0A0000B03049309F1080BCDF82CB0D9F80490F8
:10A0B0005FFA8EFE56F82EE089EA0E0ECCF3072CDE
:10A0C00055F82C908EEA090EC7F3074754F827700D
:10A0D0008EEA0709089F4FEA176C50F82CE089EACE
:10A0E0000E07039708F1080CCDF82CC0D8F804E04F
:10A0F0005FFA81F856F828808EEA080EC2F3072826
:10A1000055F828808EEA080EC3F3074854F82880D3
:10A110008EEA080E4FEA176850F828808EEA080E7B
:10A12000CDF828E00BF1080ECDF82CE0DBF8048028
:10A130005FFA82F956F8299088EA0908C3F30729DB
:10A1400055F8299088EA0908C7F3074954F8299077
:10A1500088EA09084FEA116950F8299088EA090845
:10A16000CDF824800BF10C08CDF82C80DBF808C06A
:10A170005FFA83F956F829908CEA090CC7F307298E
:10A1800055F829908CEA090CC1F3074954F8299035
:10A190008CEA090C4FEA126950F829908CEA090CF4
:10A1A000CDF820C00EF10808CDF82C80DEF804C0F0
:10A1B000FFB256F827608CEA0606C1F3072155F86E
:10A1C00021107140C2F3074254F822204A401B0E6E
:10A1D00050F82330534007930AF1FF3ABAF1000FC9
:10A1E0003FF7FEAEDDF82C8008F104030B93D8F89E
:10A1F00000200A9CE1B2DFF8A0E15EF82110514096
:10A200000998C0F30722DFF894C15CF8222051407E
:10A21000DDF820B0CBF30742614F57F822205140C0
:10A22000079D2A0E5F4E56F822205140069108F1F4
:10A230000809CDF82C90D8F80480C2B25EF822202C
:10A2400088EA0202CBF307285CF8288082EA080239
:10A25000C5F3074857F8288082EA08024FEA1468D5
:10A2600056F8288082EA0802059203F10808CDF822
:10A270002C80D3F804A05FFA8BF35EF823308AEACF
:10A280000303C5F3072A5CF82AA083EA0A03C4F390
:10A29000074A57F82AA083EA0A034FEA106A56F8D9
:10A2A0002AA083EA0A03049309F1080ACDF82CA036
:10A2B000D9F80490EDB25EF8255089EA0509C4F397
:10A2C00007245CF8244089EA040CC0F3074057F8DF
:10A2D00020008CEA000C4FEA1B6B56F82B008CEA2E
:10A2E000000CCDF80CC008F108050B95D8F80470E7
:10A2F000CCB22D48045D6740C2F30724045D87EAB1
:10A300000427C3F30744045D87EA04474FEA1C644B
:10A31000045D87EA04670A9708F10C040B94D8F8E7
:10A3200008605FFA82FE10F80EE086EA0E06C3F3BC
:10A33000072E10F80EE086EA0E26CCF3074E10F832
:10A340000EE086EA0E464FEA116E10F80EE086EA3D
:10A350000E66099608F1100ECDF82CE0D8F80C50D6
:10A360005FFA83F810F8088085EA0805CCF307281F
:10A3700010F8088085EA0825C1F3074810F808801E
:10A3800085EA08454FEA126810F8088085EA0865F2
:10A39000089504F1080E09E02C5103002C55030028
:10A3A0002C5903002C5D03002C500300CDF82CE049
:10A3B00064685FFA8CFC10F80CC084EA0C04C1F3EA
:10A3C0000721415C84EA0124C2F30742825C84EAEB
:10A3D00002441B0EC35C84EA0363079301990F7068
:10A3E000C7F307224A70C7F307428A70380EC87055
:10A3F00008460E71C6F307224A71C6F307428A71F6
:10A40000310EC1710572C5F307224272C5F30742CE
:10A4100082722A0EC2720373C3F307224273C3F31C
:10A42000074282731B0EC37304210AA800F0C8FC04
:10A43000042109A800F0C4FC042108A800F0C0FC15
:10A44000042107A800F0BCFC042106A800F0B8FC19
:10A45000042105A800F0B4FC042104A800F0B0FC1D
:10A46000042103A800F0ACFC04210BA800F0A8FC18
:10A4700000200DB0BDE8F08F2DE9F04F8DB00192B6
:10A4800045680B950B784A7843EA02238A7843EAB9
:10A490000243CA7843EA02630A932C1D0B942A688C
:10A4A00053400A930B794A7943EA02238A7943EAB3
:10A4B0000243CA7943EA0263099305F108020B9249
:10A4C0006D686B4009930B7A4D7A43EA05238D7AC8
:10A4D00043EA0543CD7A43EA0563089304F108058E
:10A4E0000B956468634008930B7B4C7B43EA042321
:10A4F0008C7B43EA0443C97B43EA0163079302F17F
:10A5000008050B9552685340079303685B10013BA5
:10A510009A4603E10B9A111D0B9113680A98C0B279
:10A52000E74E56F820004340DDF81CE0CEF307204C
:10A53000E44D55F820004340DDF820C0CCF307403F
:10A54000E14C54F820004340099F4FEA1768DF4868
:10A5500050F8288083EA0800069002F10809CDF837
:10A560002C90D2F80480FAB256F8222088EA02022F
:10A570000A9BC3F3072855F8288082EA0802CEF325
:10A58000074854F8288082EA08024FEA1C68CF4B3B
:10A5900053F8288082EA0802059201F10808CDF8F4
:10A5A0002C80D1F804B05FFA8CF156F821108BEAB8
:10A5B0000101C7F3072B55F82BB081EA0B010A9B69
:10A5C000C3F3074B54F82BB081EA0B014FEA1E6B23
:10A5D000BE4B53F82BB081EA0B01049109F1080B33
:10A5E000CDF82CB0D9F804905FFA8EFE56F82EE024
:10A5F00089EA0E0ECCF3072C55F82C908EEA090E42
:10A60000C7F3074754F827708EEA07070A9B4FEAFB
:10A61000136CAE4B53F82CE087EA0E07039708F152
:10A62000080CCDF82CC0D8F804E05FFA80F856F892
:10A6300028808EEA080EC7F3072855F828808EEA8E
:10A64000080EC1F3074854F828808EEA080E4FEA36
:10A65000126853F828808EEA080ECDF828E00BF136
:10A66000080ECDF82CE0DBF804805FFA82F956F88A
:10A67000299088EA09080346C0F3072955F829906C
:10A6800088EA0908C7F3074954F8299088EA0908B5
:10A690004FEA11698D4850F8299088EA0908CDF8E9
:10A6A00024800BF10C08CDF82C80DBF808C05FFA91
:10A6B00081F956F829908CEA090CC2F3072955F85C
:10A6C00029908CEA090CC3F3074954F829908CEAC5
:10A6D000090C4FEA17697D4850F829908CEA090C5B
:10A6E000CDF820C00EF10808CDF82C80DEF804C0AB
:10A6F000FFB256F827608CEA0606C1F3072155F829
:10A7000021107140C2F3074254F822204A401B0E28
:10A7100050F82330534007930AF1FF3ABAF1000F83
:10A720003FF7F8AE0B9A111D0B911368DDF828B0B6
:10A730005FFA8BF0DFF888E15EF820004340079D68
:10A74000C5F30720DFF87CC15CF820004340089C7B
:10A75000C4F307405C4F57F82000434009984FEA84
:10A7600010685A4E56F8288083EA0803069302F1CF
:10A770000809CDF82C90D2F80480C2B25EF82220ED
:10A7800088EA0202CBF307285CF8288082EA0802F4
:10A79000C5F3074857F8288082EA08024FEA146890
:10A7A00056F8288082EA0802059201F10808CDF8DF
:10A7B0002C80D1F804A0E1B25EF821108AEA0101F0
:10A7C000C0F3072A5CF82AA081EA0A01CBF3074A02
:10A7D00057F82AA081EA0A014FEA156A56F82AA01A
:10A7E00081EA0A01049109F1080ACDF82CA0D9F8F0
:10A7F0000490EDB25EF8255089EA0509C4F30724F8
:10A800005CF8244089EA040CC0F3074057F82000A4
:10A810008CEA000C4FEA1B6B56F82B008CEA000CFC
:10A82000CDF80CC008F108050B95D8F80470DCB21F
:10A830002748045D6740CCF30724045D87EA0427BA
:10A84000C1F30744045D87EA0447140E045D87EAF8
:10A8500004670A9708F10C040B94D8F808605FFAB3
:10A8600082FE10F80EE086EA0E06C3F3072E10F8FB
:10A870000EE086EA0E26CCF3074E10F80EE086EACC
:10A880000E464FEA116E10F80EE086EA0E66099643
:10A8900008F1100ECDF82CE0D8F80C505FFA81F8D2
:10A8A00010F8088085EA0805C2F3072810F8088028
:10A8B00085EA0825C3F3074810F808800AE000BFBE
:10A8C0005462030054660300546A0300546E03008C
:10A8D0005461030085EA08454FEA1C6810F80880B7
:10A8E00085EA0865089504F1080ECDF82CE0646847
:10A8F0005FFA8CFC10F80CC084EA0C04C1F3072149
:10A90000415C84EA0124C2F30742825C84EA024487
:10A910001B0EC35C84EA0363079301990F70C7F3AE
:10A9200007224A70C7F307428A70380EC87008467B
:10A930000E71C6F307224A71C6F307428A71310EBF
:10A94000C1710572C5F307224272C5F307428272D4
:10A950002A0EC2720373C3F307224273C3F3074282
:10A9600082731B0EC37304210AA800F029FA042184
:10A9700009A800F025FA042108A800F021FA042112
:10A9800007A800F01DFA042106A800F019FA042116
:10A9900005A800F015FA042104A800F011FA04211A
:10A9A00003A800F00DFA04210BA800F009FA00201A
:10A9B0000DB0BDE8F08F00BF08B58C4611461A46B1
:10A9C000BCF1010F02D0FFF757FD08BDFFF7BAFA3F
:10A9D000FBE72DE9F043ADF53F7DB2F5C07F00F216
:10A9E0009F8080460D4616464FF4D072002156A82F
:10A9F00007F091FD6846FFF7B5F9330E8DF8683121
:10AA0000330C8DF86931330A8DF86A318DF86B613A
:10AA100020238DF86F315CAC32462946204607F082
:10AA200051FD8023A3551936002302E04AAAD354CE
:10AA300001330F2BFADD80224AA96846FFF7A2F9FD
:10AA4000074600284DD18146B9F11F0F2DDC102299
:10AA5000002146A807F05FFD354656AC13E0E25CE6
:10AA600046A9C85C4240CA5401330F2BF7DD1034AD
:10AA7000102D94BF6D1B103D46AB1A460121684650
:10AA8000FFF79AFF60BB0DB13B46EEE7102246A9E7
:10AA90004EAB03EB090007F015FD9DF85B31013368
:10AAA0008DF85B3109F11009CEE780224EA9684686
:10AAB000FFF768F90746A0B9044645461F2C10DC8D
:10AAC00052AB1A4601216846FFF776FF074640B9A8
:10AAD000102252A9284607F0F5FC10351034EDE796
:10AAE00007466846FFF745F94FF4D07156A800F0C5
:10AAF00067F920214EA800F063F910214AA800F060
:10AB00005FF9102146A800F05BF927B938460DF52A
:10AB10003F7DBDE8F0832021404600F051F9F5E784
:10AB20006FF03707F2E72DE9F04188B004460D4693
:10AB300020220021684607F0EEFC00276E460AE05E
:10AB400033462246012104F12000FFF735FF8046FD
:10AB500018BB103610371F2F0ADC1022002AEFDD39
:10AB6000013AA35C0133DBB2A354002BF6D0E7E734
:10AB7000002308E0EA5C08A9194411F8200C4240BF
:10AB800001F8202C01331F2BF4DD8022694604F1EB
:10AB90002000FFF7F7F8804638B12021684600F022
:10ABA0000FF9404608B0BDE8F08110220DEB02011C
:10ABB000204607F087FCF0E708B54FF4A0720021AB
:10ABC00007F0A9FC08BD50B110B504462030FFF7CE
:10ABD000D0F84FF4A071204600F0F2F810BD704795
:10ABE000F0B5E1B08369B3F5C07F38D804460E46AE
:10ABF0001546C3F5C073934234D34FF4C07200219D
:10AC0000684607F088FCD4F83831A2696946D4F860
:10AC10003C01984748BBA76906B175B93A466946F1
:10AC20006846FFF7D6FE054678B14FF4C071684616
:10AC300000F0C6F8284661B0F0BD2A4631460DEB5B
:10AC4000070007F03FFC2F44E8E769462046FFF77E
:10AC50006AFF05460028E8D101232361E5E76FF08C
:10AC60003705E7E76FF03705E4E76FF03305E1E715
:10AC70002DE9F04184B004460E4615461F461022C9
:10AC80000021684607F047FC04F120084046FFF722
:10AC900069F8C4F83861C4F83C51A3690BB92023A2
:10ACA000A3614FF6F073E361802269464046FFF7E7
:10ACB00069F810B104B0BDE8F0810A9A394620461F
:10ACC000FFF78EFFF6E72DE9F0418CB0DDF8488004
:10ACD000B2F5806F64D804460F4615461E46B8F597
:10ACE000807F60D82022002104A807F014FC22698C
:10ACF000E3699A4201DC63693BB142463146204632
:10AD0000FFF76EFF064628B346E0B8F1000F21D0EA
:10AD10004246314604A8FFF75CFE0646A0BB04A9E4
:10AD20002046FFF700FF0646A0B12DE06B46224605
:10AD3000012104F12000FFF73FFE064620BB2E460E
:10AD4000102D28BF102632466946384607F0BAFB58
:10AD50003744AD1B7DB14FF0100CBCF1000FE5DDA9
:10AD60000CF1FF3C14F80C300133DBB204F80C306A
:10AD7000002BF2D0DAE704A92046FFF7D4FE0646FE
:10AD800010B9236901332361202104A800F018F8C9
:10AD90001021684600F014F830460CB0BDE8F08190
:10ADA0006FF03506F8E76FF03706F5E700B583B0CA
:10ADB00000230093FFF787FF03B05DF804FB00005A
:10ADC00031B108B50A46034B1B680021984708BDFE
:10ADD000704700BF64300020034620B131B100202D
:10ADE00008604B60704748F21050704748F21350AB
:10ADF000704720B103688B4204D10020704748F2AD
:10AE00001050704748F24050704730B141B10B6864
:10AE1000934207D30A600020704748F213507047EE
:10AE20000020704748F21450704718B1914204D185
:10AE30000020704748F21050704748F21150704798
:10AE40002DE9F04100AF80460C4615461E461146DE
:10AE50002046FFF7C1FF10B1BD46BDE8F081314685
:10AE60002046FFF7B9FF0028F6D12379104A52F89F
:10AE70002340104A32F81330BCB1B8F1000F0AD0A9
:10AE8000324629464046A0470028E5D10A4B2B60B0
:10AE9000063B3360E0E7002BF2D00733DB086A465D
:10AEA000A2EBC3039D46E846EAE748F20350D3E726
:10AEB0005C720300547203007652464DF8B50446A6
:10AEC0000F4615461E46FFF787FF034690B9A27945
:10AED00031462846FFF7A9FF034658B92279084BA7
:10AEE00053F8223043B1294638469847034608B9FB
:10AEF000044A3A601846F8BD48F20353FAE700BF27
:10AF0000687203007052464DF8B506460D46144669
:10AF10000E49FFF76EFF034608B11846F8BD776883
:10AF2000BA7921462846FFF770FF03460028F4D17E
:10AF30003A79074B53F8223023B1294630469847D7
:10AF40000346EAE748F20353E7E700BF7052464D75
:10AF50007472030030B51D4628B1447901B3AAB913
:10AF600048F213501BE01C46F8E711F80C0011F8EA
:10AF70000E3002F80C3002F80E000CF1010C0EF14C
:10AF8000FF3EF445F1D92D1B21442244A54204D3B0
:10AF900004F1FF3E4FF0000CF3E725B9284630BD21
:10AFA00048F21050FBE748F21150F8E72DE9F8435A
:10AFB00000AF06460C4690461D4621492046FFF745
:10AFC00018FF014618B10846BD46BDE8F8831D4983
:10AFD0004046FFF70EFF01460028F4D1D4F8049054
:10AFE000D8F80430994502D048F24151EBE799F87E
:10AFF0000520396A2846FFF708FF01460028E2D1FC
:10B0000099F80430104A52F82390104A32F813305D
:10B01000B9F1000F11D036B12B46424621463046D9
:10B02000C8470146CFE7002BF6D00733DB086A4656
:10B03000A2EBC3039D466E46EEE748F20351C2E71A
:10B040007652464D7052464D80720300887203005E
:10B0500038B50D4D0D4BED1AED080D4B01221A7050
:10B06000002400E00134AC4207D2084B53F83430DE
:10B07000984703460028F5D003E0054B02221A70DA
:10B080000023184638BD00BFBC4F0300B44F030077
:10B09000F0340020074B1B78DBB2022B08D0054BA5
:10B0A0001B78DBB2012B01D00020704701207047D4
:10B0B00001207047F03400200023934211D200B5E4
:10B0C00010F803E011F803C0E64505D101339342BF
:10B0D000F6D301205DF804FB01D90120FAE7002036
:10B0E000F8E70120704770B5064615461C461A461B
:10B0F000FFF7E2FF20B1224631462846FFF7DCFF8A
:10B1000070BD84460023184601E0083001338B42AD
:10B1100004D21CF80320002AF7D000E0FF2200230D
:10B12000072B06D8520032F0FF0102D10130013363
:10B13000F6E770472DE9F84F0446884617461E4645
:10B140009DF828A019461046FFF7DBFF84B305469B
:10B150008EB3B8F1000F33D0AFB332464146384614
:10B16000FFF7AAFF48B948F2175926E033463A4696
:10B1700041462046FFF7B7FFF8B95346324621460D
:10B1800012480068FBF730FA8146B0B94FEAD50B98
:10B190005A460021204607F0BEF915F00701E5D018
:10B1A00014F90B30FF220A41134004F80B30DDE79D
:10B1B00048F2135901E048F214594846BDE8F88FA7
:10B1C00048F21059F9E748F21059F6E740360020E6
:10B1D00010B582B001240094FFF7ACFF02B010BD9F
:10B1E00038B56A46174B9A4220D305460C46FFF7FE
:10B1F00051FFF0B1144B1B6823B1144B1A68144B68
:10B200009A4219D0D5B914B148F2175010E011483C
:10B210000D4B18601049FBF7C7F948B90B4B0C4AA6
:10B220001A60094B1B680D4A1A6001E048F2195078
:10B2300038BD4FF40540FBE70020F9E748F217500E
:10B24000F6E700BFF0D80020403600203836002056
:10B250006572E54BF43400203C3600206169614D95
:10B2600008B50C4B1A680C4B9A420FD10B4B18685F
:10B2700002680B4B9A4202D048F2025008E00023C9
:10B280000360044A1360FBF7A7F901E048F202509B
:10B2900008BD00BF383600206572E54B40360020FF
:10B2A0006169614DEC46104B9C4513D302B1A1B1CD
:10B2B00010B50E4B1C680E4B9C4211D110B148F2D8
:10B2C000175010BD13460A460A490B480068FBF7A1
:10B2D00092F9F6E748F21950704748F2105070475B
:10B2E00048F20250EDE700BFF0D8002038360020C9
:10B2F0006572E54B3C3600204036002030B370B517
:10B300000C461546064621B3134B1A68134B9A4256
:10B3100002D048F2025070BD2B460A460146104842
:10B320000068FBF761F948F271539842F3D10022AB
:10B3300011461046FFF7B6FF0028ECD12B462246F7
:10B34000314607480068FBF74FF9E4E748F213502D
:10B35000704748F21450DEE7383600206572E54B3E
:10B360004036002008B50122FFF7C8FF08BD3FDFC7
:10B3700070474CDF704776DF704778DF70477ADFC1
:10B3800070477CDF70478FDF704769DF704767DF8A
:10B3900070470000014B00221A707047883B002064
:10B3A000014B01221A7070472C3B0020014B0122F7
:10B3B0001A707047383B002008B5FBF725F908BD27
:10B3C00008B5FBF721F908BD08B5037803B108BD3E
:10B3D0003B21044B1888FFF7CEFF0028F7D0FBF77E
:10B3E00013F9F4E76C30002008B505F061FA00B9F4
:10B3F00008BDFBF709F9FBE708B5FBF785FC60B969
:10B400000A4A01210A48FBF7AFFC48B9094A002162
:10B410000948FBF7A9FC30B908BDFBF7F5F8EFE7E1
:10B42000FBF7F2F8F2E7FBF7EFF8F5E73DB40200BF
:10B430006073030095B302005C73030030B583B002
:10B440000D4D2846FFF795FF0C4C2B6823800C4DC3
:10B4500002222146284607F035F8009501231A46B6
:10B460001946084800F086FEB4F90020064900207D
:10B4700001F018FA03B030BDC8360020CE3B0020E2
:10B48000CC3B0020143B00208C72030008B5FDF774
:10B490001BFC18B90020FDF73FFC08BDFBF7B4F812
:10B4A000F8E7000030B583B0164B00221A70164B37
:10B4B00000200021C3E90001144B47F23570002140
:10B4C000C3E90001124B93E803000090ADF80410AB
:10B4D000104A69461048FEF7A9FB80B901250F4BB9
:10B4E0009D600D4C29462046FEF70FFC294620465C
:10B4F000FEF7F0FB2046FEF7E1FB03B030BDFBF7A3
:10B5000083F8EBE76C3B0020703B0020583B0020A9
:10B510004873030021B50200547303000040024049
:10B5200010B582B0052803D0042812D002B010BD97
:10B53000104A13685168013341F1000113605160F2
:10B540000D4B0022C3F80421D3F804310093009B73
:10B55000ECE7094C0023C4F80031D4F80031019322
:10B56000019B0648FEF7C9FB0123A360044A137040
:10B57000DCE700BF703B0020004002405473030032
:10B580006C3B002010B582B004460DF1070100208D
:10B59000FAF7D2FF40B99DF80730022B14BF002301
:10B5A0000123237002B010BDFBF72EF8F3E708B5B6
:10B5B000FDF7E0F900B908BDFBF726F8FBE700B599
:10B5C00087B006F09DFC68BB0023059305A9012008
:10B5D00006F086FD48BB0C22002102A806F09BFF66
:10B5E00022208DF8080014238DF80A30059A02A94C
:10B5F000FFF7CBFEE0B905A806F0E0FDD8B90822B8
:10B600000021684606F087FF9DF8003043F00103F3
:10B610008DF8003069460220FFF7B9FE70B907B017
:10B620005DF804FBFAF7F0FFCEE7FAF7EDFFD2E79B
:10B63000FAF7EAFFDFE7FAF7E7FFE0E7FAF7E4FFF8
:10B64000EDE7000010B582B004460388212B41D0FD
:10B650000CD93B2B4BD0562B3AD113218088FFF7C6
:10B660008AFE002834D0FAF7CFFF31E0102B0BD040
:10B67000112B2DD1224B4FF6FF721A80027A2149ED
:10B68000002001F00FF923E081881D4B19801E482E
:10B6900004F080FA60B90023012B0CD81B4A02EB9E
:10B6A000C30200200021C2E900010133DBB2F3E74D
:10B6B000FAF7AAFFEFE7164B1B89ADF8043001A992
:10B6C000A088FFF760FE02461249002001F0EAF868
:10B6D00002B010BD0E4B1B89ADF8043001A9808863
:10B6E000FFF751FE0028F3D0FAF78EFFF0E71321A1
:10B6F0008088FFF740FE0028EAD0FAF785FFE7E7E9
:10B700006C300020AC720300603B0020783B0020CE
:10B71000487303009472030010B584B09DF80430A0
:10B72000012262F303038DF80430DBB262F30713E6
:10B730008DF80430174C204606F042FF82B22146B5
:10B7400001A8FFF71EFEE0B940F24130FFF715FEF9
:10B75000D0B9082200210DEB020006F0DCFE062322
:10B76000ADF808304FF4C873ADF80A300022ADF8D8
:10B770000C20ADF80E3002A8FFF701FE38B904B076
:10B7800010BDFAF741FFDFE7FAF73EFFE1E7FAF70E
:10B790003BFFF4E7C072030008B50449044803F016
:10B7A000E2FF00B908BDFAF72FFFFBE7B5B70200CB
:10B7B000443B002008B5024806F022FB08BD00BF4C
:10B7C000143B002000B585B000230193104B01937A
:10B7D00001A9104804F0CAF9A0B9082200210DEB14
:10B7E000020006F098FE0023029301238DF80C302E
:10B7F0008DF80D3002A9084800F048FC28B905B0C2
:10B800005DF804FBFAF700FFE7E7FAF7FDFEF6E75D
:10B81000B9B30200603B0020143B002000B5ADB07E
:10B82000AC22002101A806F076FE02238DF8043038
:10B8300001238DF8063006228DF80720ADF814306C
:10B840000E4A0692ADF848300D4A13928DF88030BA
:10B850004FF496732393002324930A4B2A9301A950
:10B86000094802F03CF830B90121074802F034F8E9
:10B870002DB05DF804FBFAF7C7FEF5E7683000204D
:10B88000703000208DB80200CC36002000B1704727
:10B8900008B5034A00210846FAF7DEFE08BD00BFDE
:10B8A00081BA020000B589B01C22002101A806F06F
:10B8B00032FE002301934FF4203202924FF47022A3
:10B8C0000392E8228DF810208DF81430064B069371
:10B8D000064B079301A802F0C7FA10B909B05DF84A
:10B8E00004FBFAF791FEF9E7C9B30200C1B3020005
:10B8F00000B583B004F060FF00284BD10522002181
:10B90000684606F008FE9DF8003043F001038DF80C
:10B910000030DBB26FF341038DF80030DBB243F04F
:10B9200004038DF80030DBB26FF3C3038DF80030F1
:10B93000DBB2032262F306138DF80030DBB26FF343
:10B94000C7138DF8003007238DF8013010238DF8D0
:10B9500002309DF8033043F001038DF80330DBB271
:10B9600043F002038DF803309DF8043043F00103E7
:10B970008DF80430DBB243F002038DF804306846E2
:10B9800004F062FF48B9084804F044FF40B903B02E
:10B990005DF804FBFAF738FEB0E7FAF735FEF2E798
:10B9A000FAF732FEF3E700BF8BBA020070B582B03F
:10B9B00005460E46694600F0ADF9009B13F4000FF2
:10B9C0002CD0002401A9284600F04AFA019B43F339
:10B9D0000F2CDA08C3F3C20306EB4401174820F822
:10B9E00011C00134E4B212F0060FEBD0072B0DD0DA
:10B9F0006946284600F08EF9009B13F4800F14D19D
:10BA0000BEB90F4B01221A7002B070BD284600F07B
:10BA10003BFA0C49002000F045FFE9E713F4800FE2
:10BA2000E6D0284600F030FAE2E7284600F02CFA8B
:10BA3000E6E7054B01221A70E6E700BF4836002012
:10BA400044360020C87203004536002008B503F0D4
:10BA5000DFFF10B9FCF7A4FF08BDFAF7D5FDF9E741
:10BA600008B510B1FFF7C0FC08BD0321034801F081
:10BA7000AFFF0028F8D0FAF7C7FDF5E7CC36002075
:10BA800008B50020FFF7ECFF08BD10B5044605F02F
:10BA90003EF9204605F04CF923780C2B00D010BD60
:10BAA0000020FFF7DDFFFAE7F0B585B0FFF7A4FC53
:10BAB000FFF7ECFC574B01221A7000224FF4803143
:10BAC0005548FBF767F920B1FAF79EFD01E0FFF753
:10BAD000BDFF504B1B78002BF9D1FFF7E3FC0DF1B4
