:020000022000DC
:1060000000000120756302005D6302005F6302000F
:106010006163020063630200656302000000000028
:1060200000000000000000000000000067630200A4
:1060300069630200000000006B6302006D630200F0
:10604000899B02006F630200999F02006F63020048
:106050006F6302006F6302004D9E02006F630200D7
:106060006F6302006F6302006F6302006F630200E0
:106070006F630200A9A002006F6302006F63020059
:106080006F630200617302006F6302006F630200BE
:106090006F6302006F630200A92E03006F630200AA
:1060A0006F6302006F6302006F6302006F630200A0
:1060B0006F6302006F630200000000000000000038
:1060C0006F6302006F6302006F6302006F63020080
:1060D0006F6302006F6302006F6302000000000044
:1060E00000000000000000000000000000000000B0
:1060F00000000000000000000000000000000000A0
:10610000000000000000000000000000000000008F
:10611000000000000000000000000000000000007F
:10612000000000000000000000000000000000006F
:10613000000000000000000000000000000000005F
:10614000000000000000000000000000000000004F
:10615000000000000000000000000000000000003F
:10616000000000000000000000000000000000002F
:10617000000000000000000000000000000000001F
:10618000000000000000000000000000000000000F
:1061900000000000000000000000000000000000FF
:1061A00000000000000000000000000000000000EF
:1061B00000000000000000000000000000000000DF
:1061C00000000000000000000000000000000000CF
:1061D00000000000000000000000000000000000BF
:1061E00000000000000000000000000000000000AF
:1061F000000000000000000000000000000000009F
:10620000354936480A1A02D0072291438D4634494F
:1062100034480A1A06D00722914381F309880222E2
:1062200082F3148830483149314A00F044F831484B
:106230003149324A00F03FF831483249324A00F0E1
:106240003AF832483249334A00F035F83248334997
:10625000334A00F030F833483349344A00F02BF821
:1062600033483449344A00F026F83448344900228F
:1062700000F02CF833483449002200F027F8334866
:106280003349091A082902DB002202604160314AC1
:1062900090471F481F49884205D00268043003B464
:1062A000904703BCF7E700208646EC46002000211B
:1062B000294A9047FEE7884207D0521A05D0037852
:1062C00001300B700131013AF9D17047884202D098
:1062D00002700130FAE770470000012000E0002062
:1062E000000001200000012088C203002C2B0020A8
:1062F00070310020D0630200D06302000067030009
:1063000088C203002C2B00202C2B002028690300BE
:10631000286903002869030028690300286903002D
:1063200028690300286903002869030088C2030064
:10633000CCC8030070310020703100207031002083
:10634000105800201058002010580020105800202D
:10635000107800209D63020081CE0200FEE7FEE778
:10636000FEE7FEE7FEE7FEE7FEE7FEE7FEE7FEE705
:1063700000F002B8FFF7FCBF0F484FF00701884359
:1063800085460E4880470E48016841F4700101605F
:10639000BFF34F8FBFF36F8FFFF732BF09480A4932
:1063A0000A4A884207D0521A05D0037801300B7090
:1063B0000131013AF9D170470000012059D602009D
:1063C00088ED00E014690300182B00202C2B00201E
:1063D000022004F065BB00002DE9F04780460D4621
:1063E00004F07EFB0328044610D8012D10D0022DA6
:1063F00030D05DB91A4800F070FD1A4B04EB44022E
:1064000013449D78184B1B5DAB4219D0BDE8F08753
:10641000144E00EB4003F218F55C5378470053B17B
:10642000DFF84C900E484A464FF4804100F03DFDA5
:1064300008B989F8008027443E440B4BB2781A55BE
:10644000002DE3D0094B1B68002BDFD02846BDE8A8
:10645000F047184700EB4004024804446578EFE732
:1064600098310020D8310020F1310020EC3100209B
:106470007031002000780221FFF7AEBF08B5094B4C
:106480001B7853B1002004F0E1FA012004F0DEFA99
:10649000BDE80840032004F0D9BABDE8084004F084
:1064A000E1BA00BF71310020F8B57A4C2378054677
:1064B0001BB100232370FFF7E1FF172D00F2878047
:1064C000DFE805F00C1717425364757F878C878CC3
:1064D000949999999999C3C8D0D8E3E3FFF7CEFF6F
:1064E0006D4800F0FAFC6D4B002204461A702046FD
:1064F000F8BD002004F090FAF0B1002004F0A6FAF4
:10650000022D0CBF4FF4E1644FF47A64634B1D70AD
:1065100000254FF400464FF47A7029464FF4FA6292
:106520000023E4FB06010CF0E1FE2A460146BDE82B
:10653000F840594800F0B9BC04F07CFA022D0CBFB9
:10654000C8244FF4C874E1E7002004F065FA40B1B4
:10655000002004F07BFA4FF44874504B03221A7069
:10656000D6E704F067FAC824F7E7002004F054FAED
:1065700038B1002004F06AFA4FF47A64474B0422E1
:10658000EDE704F057FA4FF4C874F7E7002004F081
:1065900043FA48B1002004F059FA404B05221A7022
:1065A00040F6CD410022C2E704F044FAF5E70020AE
:1065B00004F076FA394B06221A70002240F2666126
:1065C000B5E7002004F036FA344B07221A70002495
:1065D0008DE70120207004F063FAEEE701202070BF
:1065E00004F05EFA00224FF40051A0E704F049FAEB
:1065F0002A4B0C22EAE72A482A4E00F06EFCD5F11D
:10660000110504461CD0D8B9012D13D0C82045432C
:1066100021464FF400474FF47A704FF4FA6200239A
:10662000C5FB07010CF062FE224601461C4800F043
:106630003CFC0446022004F0FDF90123337056E7C8
:10664000022004F003FA0023F8E7FFF717FF134BCB
:106650001222BBE7FFF712FF002004F0EBF90F4B0B
:106660001322B3E7FFF70AFF012004F0E3F90B4B15
:106670001422ABE7FFF702FF002004F0DBF9012052
:1066800004F0D8F9054B1522A0E704F0FAF9034B02
:106690001D709CE7E8310020B8310020F031002067
:1066A0007831002071310020044B1B68DB0703D5D3
:1066B000034B1878FFF7F8BE704700BFE4310020A5
:1066C000F031002010B5002914BF0324002404F089
:1066D00019FA800000F1A040D0F8002722F44032DF
:1066E000C0F80027D0F8003743EA0443C0F8003769
:1066F000002010BD032801D804F0E4B90020704741
:10670000044B1B6813F0010301D0FFF7CDBE184600
:10671000704700BFE431002038B51C4B18601C4B9B
:1067200010F00204054619601AD01A4B1A480E22BE
:106730001A700F22DA7010229A7111225A720421F3
:1067400040F2333200F048FA044648B900F09CFAAF
:10675000044628B90146114A114800F09BFB044643
:10676000EB0711D5012004F0D3F96CB921460D4A8D
:106770000D4800F08FFB044630B9BDE838400B4AA5
:106780000B48012100F086BB204638BDE4310020D3
:10679000EC310020D8310020286903007564020024
:1067A0004C690300A966020050690300D16302002E
:1067B00048690300032811D8012A0AD101290FD101
:1067C00000F10E02D2B20D4B00EB40001A54002033
:1067D00070470129F7D0022904D049B1072070473A
:1067E0000022F8E7054B00EB400018444270EEE74A
:1067F000024B00EB400018448270E8E7D8310020DB
:10680000032802D80121FFF75DBF0620704708B5B5
:10681000012202210020FFF7CDFF08B1072810D187
:10682000072202210120FFF7C5FF08B1072808D180
:1068300000210A220846FFF7BDFF10B1072808BF54
:10684000002008BD0388102B10B502D0112B1ED0DC
:1068500010BD1A4C2168B1B901220846FFF7AAFF02
:1068600008B1072824D1072202210120FFF7A2FF47
:1068700008B107281CD1042202210020FFF79AFF4B
:1068800008B1072814D1236801332360E0E70B4ADD
:106890001368013B1360002BDAD1FFF7B8FF002823
:1068A000D6D0074B1B68002BD2D0BDE8104018474C
:1068B000034B1B68002BE6D09847E4E7FC3100202F
:1068C000F831002008B50020FFF79AFF08B106282C
:1068D00006D10120FFF794FF10B1062808BF002061
:1068E00008BD00000D4B10B518600C4629B1012001
:1068F000FFF700FF40B102232370094B1B6853B917
:10690000BDE81040FFF783BFFFF7F4FE08B10B238B
:10691000F2E72070F1E7002010BD00BFF831002041
:10692000FC31002005F08EBE0021084605F03EBE79
:1069300010F1360F0AD060B148F2165348F21152E6
:1069400010F1380F08BF13461846704748F2145329
:10695000FAE70346F8E708B50846114603F054F88D
:10696000002008BD30B5044685B0002002F0CEFFFF
:10697000054678B9201D039005F058FB0649039899
:1069800000952B462A4605F0A6FB05B0BDE8304031
:10699000FFF7CEBF05B030BD5769020008B504301F
:1069A00005F049FB02F0DEFF002008BD08B5043009
:1069B00005F028FCBDE80840FFF7BABF08B511464E
:1069C00004301A4605F045FBBDE80840FFF7B0BFAC
:1069D000C30710B507D4F023054A4008145C2340D0
:1069E0001943115410BD0901C9B20F23F4E700BFC8
:1069F0003032002030B5094B1C78094B1968002350
:106A00009C4202DC0022104630BD11F83350854212
:106A100001EBC302F7D00133F2E700BF00320020E0
:106A20004032002013B504460191FFF7E3FF38B16F
:106A300043682BB10199204602B0BDE810401847C9
:106A400002B010BD034B044819680022490800F049
:106A50002CBA00BF043200200832002010B5C0B2AA
:106A6000FFF7C8FF0446007803F0E6F963785A1E82
:106A700053425341834208D1044BD3E900231343CB
:106A800003D1BDE81040FFF7DDBF10BD2832002064
:106A900037B54308374AD35CC2074CBF1B0903F024
:106AA0000F0304460D46042B25D8DFE803F0032628
:106AB0002F3C4000F9B10121FFF78AFF00230DF1BF
:106AC00007008DF8073000F0DDFA0120A4F1200363
:106AD000C4F12001284A20FA01F100FA03F30B4324
:106AE000A040D2E9004120430B43C2E900039DF8D6
:106AF000070000F0EBFA03B030BD002918BF0221F7
:106B0000204603B0BDE83040FFF762BF49B1032122
:106B1000FFF75EFF0121204603B0BDE83040FFF7DC
:106B200081BF0121ECE70029E5D10421E8E709B1A3
:106B30000321E5E7FFF74CFF29462046FFF772FFE8
:106B40000DF107008DF8075000F09CFA0120A4F128
:106B50002003C4F12001084A20FA01F100FA03F3EE
:106B60000B43A040D2E9004124EA000021EA0303DC
:106B7000BBE700BF30320020283200202DE9F04171
:106B8000124E134F00243378A34208DC114BD3E993
:106B90000023134318D0BDE8F041FFF753BF3D6811
:106BA00005EBC40815F8340003F046F998F80130F5
:106BB0005A1E53425341181A4142414115F83400BC
:106BC000FFF766FF0134DEE7BDE8F0810032002008
:106BD0004032002028320020092AF7B505460C462D
:106BE00016463ED903F060F8E8B11F4B1F481D6000
:106BF0001F4B204F1C70204B002110221E600CF0F8
:106C00003CFD1E4B00200021C3E90001013CE4B221
:106C10000326FF2C0DD11A4A1A48002103B0BDE803
:106C2000F04000F037B903F001F80028DDD003B0E0
:106C3000F0BD9DF8063015F834008DF8046005EBC2
:106C4000C40223F007038DF8063001A993788DF86C
:106C500005303A4603F032F8013CE4B20028D8D0BF
:106C6000E5E70720E3E700BF403200203032002094
:106C7000003200205D6A0200043200202832002029
:106C80007D6B02006069030070B5084D084E00245A
:106C90002B789C4201D3002070BD3368012113F88A
:106CA000340003F083F80134F2E700BF0032002023
:106CB000403200201FB50021039001AA44F20100D8
:106CC000CDE9011100F004F805B05DF804FB000007
:106CD00038B572B604F096FA04F0E6F80028FBD155
:106CE000104B114C114D1249E41AE408240444F0ED
:106CF000010004F023FAD5F8F030DB0700D500BE20
:106D00000C4944F0020004F019FABFF34F8FEA680F
:106D1000094B02F4E0621343EB60BFF34F8F00BFF7
:106D2000FDE700BF94670300C467030000ED00E0C7
:106D300064690300706903000400FA0510B5D0E926
:106D40000243D1E90202A04272EB03032CBF0120EF
:106D5000002010BD08B50A4800F0EBFA094AD2E954
:106D60000031C018084BD3E9002341F100019042E3
:106D700071EB030303D210F1807041F1000108BDF3
:106D80002C2B002048320020C032002037B50546A9
:106D90000C460A4801A901F08AFA60B10570446006
:106DA00001A9064801F0ADFA18B1054800F0C6FA8D
:106DB000002003B030BD0420FBE700BFAC32002050
:106DC0002C2B002038B5184B1B78044613B900252E
:106DD000284638BD0028FAD0037F03F0FF05002BBA
:106DE000F5D0FFF7B7FFD4E90223904271EB03031C
:106DF00014D3236903B92377D4E90530984721696F
:106E00000029E4D0237F03F0FF05002BDFD0D4E975
:106E100002325B1842F10002C4E902320348214603
:106E200002F00CFBD4E700BF503200208C69030055
:106E300013B5114B114918680190082310485822C6
:106E400001F000FA044698B90E4A0F4801A900F073
:106E500061F9044660B90C48012100F04DFA0123A4
:106E60000A4A0948194600F0AFF9094B01221A7085
:106E7000204602B010BD00BF8869030054320020D4
:106E8000AC320020F56E02002C2B0020FFFF7F00AB
:106E9000503200203AB103685A614A1E51425141B2
:106EA0001961002070470720704738B5037F0446FA
:106EB0000D4683B98261FFF74DFF2369281841F120
:106EC0000001C4E9020103B1256121460020BDE8AB
:106ED0003840FFF75BBF002038BD00230146037731
:106EE0000120FFF753BF0000014800F022BA00BFA5
:106EF0002C2B00202DE9F347064600F005FA40B19F
:106F0000584AD2E9003113F1807341F10001C2E91E
:106F100000310021304600F006FA38B1524C2368A7
:106F200023B12068FFF74EFF002323600121304684
:106F300000F0F9F920B1FFF70DFF4C4BC3E9000158
:106F40004B48494D4B4C4C4F01A901F0EAF9002840
:106F500042D1DFF82081444CDFF82491404602F012
:106F600083FA2368002872D07BB12368D0E90252EB
:106F7000D3E902138D4272EB03032AD223681B7FED
:106F80001BB12168404602F059FA404602F066FA09
:106F9000D0E9027A0546FFF7DDFE381A6AEB010AEE
:106FA00001287AF1000345DBB0F5350F40D3FFF738
:106FB0009BFF324A02444FF496030021484600F0FA
:106FC00023F900283ED1236813B9304600F0F4F8C5
:106FD000256002B0BDE8F0870378012B1DD0022B9D
:106FE00009D14FF00008204602F038FA002836D0C8
:106FF00080F81C80F7E73BB941680B7F23B9012378
:107000000B77204602F01AFA01A9194801F0B4F9E9
:1070100001A9174801F085F999E741682B68994261
:1070200002D100232B60EFE7204602F020FAEBE7C5
:10703000AA68C0E70021484600F06BF92846FFF730
:10704000C1FE01E00D28F9D00023236086E7002B64
:10705000BFD1304602B0BDE8F04700F0B1B801231F
:107060003B70D1E748320020C8320020C0320020F7
:10707000AC3200208C69030050320020FFFFB400C6
:107080002C2B002070B5EFF3108672B60C4A946872
:1070900001239CB993600B4B0B4DD3F88010294012
:1070A0001160C3F88050D3F8841051604FF0FF3264
:1070B000C3F88420047006B962B670BD0370FAE7A5
:1070C000CC32002000E100E0FC06FFBD084B9A68CE
:1070D00010B55AB150B9EFF3108172B6054A1C6869
:1070E00014605C685460986001B962B610BD00BF5E
:1070F000CC32002000E100E0435882B03BB10023D5
:10710000435043580193019B012002B07047184639
:10711000FBE70000F8B5204B4479204E43F82420CB
:107120001F4A204B06EBC4049B1A2279DB081B0480
:1071300032B143F002001C4904F000F80820F8BD09
:1071400002680C88C2F8084590F904508A780479DE
:107150005201002DD2B219DB14494F1987F80023D0
:1071600001226D0904F01F0402FA04F441F82540DD
:10717000427906EBC201012446F832000C7143F05B
:1071800003000B4903F0DAFF0020D8E7094904F0B7
:107190000F040A55ECE700BFE0320020D83200208F
:1071A00094670300D46703009869030000E100E0DE
:1071B000BA69030014ED00E0036801221A60704709
:1071C000036801225A60704773B501F15005AD00A4
:1071D0000068ADB24FF480348C400026C0F80843FC
:1071E000C0F84843465101F5A8714559019522F070
:1071F0007F42019D40F82120C0F844430BB1C0F804
:10720000044302B070BD00002DE9F74F0D4622F097
:107210007F4402684FF4803705F150068F40804666
:10722000B60002EB8500C2F84873B6B2C2F8087324
:10723000D2F8041599464FF0000BD0F84035C0F84D
:10724000401542F806B05B1A9259009223F07F4332
:10725000012B009A4FEA850A0CD1264B4FF480602F
:1072600043F001039847D8F8003043F806B09B5923
:107270000193019BD8F80010D1F80465C1F844735C
:10728000A31B23F07F43012B1CD11A4B05F5A875D6
:10729000013443F0010341F825404FF480609847E2
:1072A000D8F80030D3F804359E4209D1D8F8003020
:1072B0000020C3F84473C3F8047303B0BDE8F08F33
:1072C0000D20FAE78A44C9F1FF13CAF84045D1F806
:1072D0000405221A013A22F07F4203F57F439342CC
:1072E000EED3002AE2D10134CAF84045D1F8043582
:1072F0009842DAE7D069030003680222C3F8442306
:1073000009B1C3F80423704700684FF48271FFF796
:10731000F3BE4FF4803303FA01F10368C3F8481356
:10732000C3F80813704750318900006889B2FFF72D
:10733000E3BE0368D3F804057047000090F90430F9
:10734000002B09DB5A09012103F01F0301FA03F3A3
:107350004032024941F82230704700BF00E100E0AE
:10736000024B034A1B681068184700BFE032002038
:10737000D832002070B5064D0646002455F8043B6F
:107380000BB1304698470134042CF7D170BD00BFD3
:10739000F03200204388033300EB830399420BD380
:1073A00082884FF6FF739A4208D0038833B1806811
:1073B000431C5842584170470220704701207047D3
:1073C000033080B240F2FE33984230B51FD8134BE1
:1073D0001A783AB91C895D892C440444A4B2B4F5E6
:1073E000806F0AD91A7DAAB99A8BDC8B2244024499
:1073F00092B2B2F5806F0DD801220A801446142291
:1074000002FB04335A8910445881002030BD48F2F1
:107410000860FBE748F20660F8E700BF243300206D
:107420000B4A0C495388142000FB0311CB6833B975
:107430000420496810700122074801F061BB074928
:107440000523137002238B80012209680023F3E7D0
:107450000833002024330020182B0020EC330020B8
:1074600007B5002305490093054A09680548082324
:1074700001F0ACFA03B05DF804FB00BFEC33002070
:10748000E4690300182B002007B500230146009390
:10749000034A0448082301F099FA03B05DF804FB9D
:1074A000DC690300182B002013B500230C46009361
:1074B0000146084A0848042301F088FA38B9074B06
:1074C000142101FB043101230B7402B010BD48F2FA
:1074D0000D60FAE7D8690300182B00202433002040
:1074E00037B50A480A4B42689C88196853880325B7
:1074F000033305709BB2002000909B0001EB8401D8
:10750000044801F063FA03B030BD00BF0833002027
:10751000EC330020182B002010B50146044800F081
:10752000C6FE1C22044600210CF0A7F8204610BD20
:10753000D833002068B10268084B9A4209D14068EC
:10754000074B984207D00133984214BF0320012013
:107550007047032070470020704700BFDEC0ADDEDB
:10756000FE011EF12DE9F0410D460223154F2B803F
:10757000164600F5805100F108044FF001088C42D6
:107580000ED2236801330BD02046FFF703FF48B12A
:107590000EB186F80080022809D14FF480632B8059
:1075A000BDE8F081A3683A68934200D93B602B881C
:1075B0006288033313442B806388033304EB830412
:1075C000DDE700BF1C33002038B5144B14220D46F4
:1075D00002FB00302B68446804F58051A3B15C883D
:1075E000033403EB84048C4215D22368013312D098
:1075F0002046FFF7CFFE012808D002280BD0002834
:10760000F1D12C60012038BD0834ECE763880333E6
:1076100004EB8304E7E70020F5E700BF24330020F4
:10762000426873B504460D466AB3234BD9688A4253
:1076300029D31B699A4226D812F0030323D11F498C
:107640000089098988421ED12068916888421AD130
:107650001B4841688A4203D901F580518A420DD303
:1076600081698A420CD901F580518A4208D20122EF
:107670002A80B3FA83F0400902B070BD1A46F7E7DA
:1076800048F20963F5E700262E800196288801A9B3
:10769000FFF79AFF30B92B8801339BB2012B2B8067
:1076A000F3D9E9E7019B226899689142EED16360C2
:1076B000024B1B892381DFE7182B002008330020B1
:1076C000243300202DE9F8431C461D4B1B78064649
:1076D0000F46154673B382B37CB3DFF86C804FF06E
:1076E0001409A388012B02D948F2096020E009FBA4
:1076F00003F318F803302BB9A0882146FFF764FF85
:1077000020B92060A3880133A380EAE723681EB173
:10771000998832889142EFD11FB119883A889142F5
:10772000EAD19A68C5E90023064B1B892B8100200A
:10773000BDE8F88348F20160FAE748F20460F7E731
:1077400000330020083300202433002008B5074B05
:107750005888191DFFF738FF18B1BDE80840FFF73A
:10776000BFBEBDE80840FFF75BBE00BF0833002086
:107770002DE9F047A24FDFF8AC8288B006463B689F
:1077800023B9A048414600F0CCFD38603D68297817
:107790004B1E052B07D8DFE813F020007A007A0093
:1077A0000C010C01640148F20E641422002103A8AC
:1077B0000BF063FF41F61D539C4208BF00243B6859
:1077C00004941A78023A042A00F20282DFE812F0E6
:1077D000E301EF011102190220022EB18A4B0022AF
:1077E0005A604FF40644E0E72B79032B1CD8DFE8FE
:1077F00003F014022A35854A1378022B1AD0137D20
:10780000022B4FF0010317D114214B43D118002054
:10781000D0544868FFF738FE03E001232B71FFF7CF
:107820001FFE002800F0BF80774B00225A6048F20C
:107830000D64BAE70023E7E7734A1370002353602F
:1078400041F61D54B1E772497248002302222B71A0
:107850008A800968012201F053F9E2E76C4C0026A6
:107860002E712068FFF710FE6B4BDFF8A0C15B881C
:107870002568142253430CEB03020CF80360516893
:107880005560A588158102222160A280C9E7B5F85C
:1078900014A0AA7DDFF87491AEB1022AEB8806D954
:1078A000142101FB0A91DA1C088902440A8114227E
:1078B00002FB0A99C3F57F43B9F80A20FD3313444C
:1078C000A9F80A308DE7142303FB0A9318895C6832
:1078D00004EB8004062A69D8DFE802F0274E36441C
:1078E0001D5A040041F61D54AA7DEB88022A06D9D0
:1078F000142101FB0A91DA1C088902440A8114222E
:1079000002FB0A99C3F57F43B9F80A20FD331344FB
:10791000A9F80A3049E74148414900234360AB696F
:107920000360FFF77DFE00285BD00223AB750023C8
:1079300000930423EA182146364801F047F800284E
:1079400031D048F20D64CFE72B69002B14BF03231D
:107950000123AB750023009305F10C02042304F10D
:107960000801E9E70123AB750022EB8800922A6940
:107970009B0004F10C01DFE703290CBF052306235C
:10798000AB7500230093042305F10802E118D3E747
:107990000623AB75224B1988204B5868FFF784FDEE
:1079A00004460028A0D108B0BDE8F08748F20E6474
:1079B0009AE7002E7FF415AF2B79012B34D0022BE0
:1079C0003FF43EAF002B7FF4EEAE02232B710DF19E
:1079D0000A01EB68039303A8CDE90466FFF720FED4
:1079E00010B948F20964E0E60498BDF80A108388EB
:1079F000EB8003882B81FFF757FD044627E000BF8B
:107A000020330020D833002000330020243300200E
:107A1000EC330020182B002008330020E432002033
:107A2000F8330020183300207B4B03AA3146A81DF1
:107A3000FFF748FE784B044668B999880498FFF729
:107A400033FD044648F209639C423FF4F9AE002C32
:107A50007FF4ABAEA7E70822314618460BF00DFEC7
:107A6000F0E7002E7FF4BDAE6C4B1A7BB2B11E73F3
:107A70001A78013A062A3FF696AE01A151F822F093
:107A80002B7B0200517B02006F7B0200757B0200A2
:107A9000A77702007B7B02008D7B02001A78072A01
:107AA000E6D801A151F822F0C97A0200717A0200E9
:107AB000717A0200EF7A0200037B0200277B02004A
:107AC000277B0200EB7A02001A89554901321A819C
:107AD00000225A801A730A78B2FA82F252099A7214
:107AE0000A7DB2FA82F25209DA72012207E04D49A8
:107AF00058688A884088033202448A8002221A70B9
:107B0000B6E75C88464A4749142505FB0422086805
:107B1000546850608888108102200C6088800021A1
:107B200011740622EBE70722E9E79A7A32B9DA7A8A
:107B30008AB900221A705A805A6081E638490022B8
:107B40009A72CA68002AF2D1097C0029EFD05A80C3
:107B5000FFF7FCFD51E70022DA72314A116A002971
:107B6000E7D192F82420002AE3D00122EFE7FFF7C3
:107B7000B7FC42E7FFF754FC3FE75A88284B142133
:107B800001FB02335868FFF77FFC36E700225A609A
:107B9000FFF766FC31E701228DF80C201A89ADF859
:107BA00018209A88DB68ADF81A20059310E00222AD
:107BB0008DF80C201A89ADF818209A88ADF81A2093
:107BC000DA689B7D05929A1F534253418DF81C3011
:107BD00003A8FFF7CFFB0026414613483E6000F0A4
:107BE000CBFB1248012100F081FC00287FF4C7ADD7
:107BF000D9E603228DF80C20DA88ADF818201A890E
:107C0000D0E704228DF80C20DB88ADF81830DFE7D0
:107C100005238DF80C30DBE7FC330020083300200F
:107C200024330020EC330020D8330020E833002038
:107C30004068FFF79DBD000008B50548012100F030
:107C40003DFC18B9BDE80840FFF792BD08BD00BF74
:107C5000E83300202DE9F3419846374B1B78064660
:107C60000D46002B5CD000295DD009884FF6FF73CC
:107C700099425BD06B88002B58D06B689B0758D11A
:107C80004AB92F890DF102013846FFF799FB30B14F
:107C900002B0BDE8F08113885788ADF8023001A822
:107CA000FFF73AFC044660B9BDF80220234B1421CB
:107CB00001FB023358890338C01B588148F2076022
:107CC000E6E780F8008000238375BDF802308382E8
:107CD0006B68036101211A4800F0FCFB2B882381AB
:107CE000B8F1030F6B88A38004BF0423A3754FF082
:107CF000000508BF3368E06008BFA3611148E78052
:107D0000658101A900F0FDFA36B1E36833600E4BDE
:107D100075601B89B5723381FFF78EFF0020B7E7CE
:107D200048F20160B4E748F20460B1E748F203604A
:107D3000AEE748F20260ABE70033002024330020B6
:107D40001C330020D83300200833002008B5034638
:107D500007480268042A08D00168064A42F8213020
:107D6000012100F0B7FB002008BD48F20B60FBE7E3
:107D7000F4330020F03200202DE9F04F89B01422B6
:107D8000002103A80BF079FC7A4B1B7803F0FF0B62
:107D90003BB103A8FFF7EEFA0027384609B0BDE86B
:107DA000F08F744B181D00F0ADFB0028F4D1DBF808
:107DB000F83FDFF8E0A15C1C08BF4FF010234FF044
:107DC000805208BF5B6911695269581C08BF02FBE9
:107DD00001F3CAF810306849A3F540530022504619
:107DE000CAF80C3000F0C0FD07460028D5D11C238E
:107DF00062496348DFF8A0918C2200F023FA032344
:107E0000B8463D4601933C46DAF80C60464430469D
:107E1000FFF790FB012862D0032817D000283DD13E
:107E200058494FF0140C0CFB04FC01EB0C0201F858
:107E30000C0056600CF110020CF1080C0A4430469C
:107E40006144FFF78FFB45F0020545E03268531CA3
:107E500002D04D4B9A4234D1321D06F58051106844
:107E600001302ED104329142F9D1D9F800203AB92B
:107E70000222C9F80060A9F804204FF0010B0BE0C2
:107E8000142262433F4B0220991898543F4A4E6097
:107E9000548001340881A4B245F0010508F58058EA
:107EA000B8F5405FB0D1019B012B98BF0025EDB222
:107EB000022D03D0062D32D0002D39D148F20A67A9
:107EC0006BE7019B2F495A1E93B214226243881814
:107ED00001934660032088540134A4B2DEE7BBF16D
:107EE000000F0DD0274B142262439918022098549A
:107EF000D9F800204A60254A088154800134A4B290
:107F000000222349C9F800603046FFF72BFBB9F87F
:107F10000420022A0CBF042208221543BEE7154A9A
:107F20000123137003A800235360FFF723FA34E7FB
:107F300002A8FFF7F1FAC8B10123013D03700A2D31
:107F400009D8DFE805F006080608070807080F113A
:107F50000F000023037102A9094800F0D2F9FFF7CE
:107F60006BFE1AE70323F5E70223F3E748F20767FE
:107F700013E700BF00330020E06B03004C33002008
:107F8000D833002024330020DEC0ADDE08330020CB
:107F9000F0330020182B0020EC33002073B50D4681
:107FA0000446C8B1C1B10DF10601FFF739FBB0B10C
:107FB000BDF806300B486668142202FB030001215D
:107FC0000C3000F087FA63682E600C336B6001237D
:107FD000A372002002B070BD48F20460FAE748F2D4
:107FE0000960F7E72433002013B50446A8B10DF16A
:107FF0000601FFF715FB98B1BDF806200B4B1421C5
:1080000001FB0233DA6872B1A27A62B1DA68002049
:10801000013ADA60A07202B010BD48F20460FAE7DB
:1080200048F20960F7E748F20560F4E724330020DE
:1080300002230022FFF70EBE18B103230022FFF730
:1080400009BE48F204607047114B1B7813B5044613
:10805000ABB14FF6FF73984214D001A8FFF75CFA5A
:1080600098B10523037001230371C48001A9094855
:1080700000F047F9FFF7E0FD002002B010BD48F224
:108080000160FAE748F20360F7E748F20760F4E7B7
:1080900000330020D83300200F4B1B7807B5A3B165
:1080A00001A8FFF739FA98B10623037001A90B481C
:1080B00000F027F90A4B1A780AB101221A73FFF768
:1080C000BBFD002003B05DF804FB48F20160F9E756
:1080D00048F20760F6E700BF00330020D8330020E5
:1080E0000833002007B5ADF80600ADF804100DF117
:1080F000060001A9FFF7E6FA03B05DF804FB07B537
:108100001346ADF806000A4600200DF10601FFF700
:10811000D9FA03B05DF804FB07B51346ADF80600C5
:108120000A460DF106000021FFF7CCFA03B05DF816
:1081300004FB20B119B103680B600020704748F2BE
:10814000046070472DE9F84F3C4B1B780446002B28
:108150006DD000286ED0DFF8E890122200210BF0DD
:108160008CFA032323804FF0000A4F4614264FF069
:108170000108D9F80410B9F80AB0B9F8085008464F
:10818000FFF7D8F9032808BF2388628804BF03F1EA
:10819000FF33238006FB0A735D44DB68134463806E
:1081A00023899B446389A4F808B0ADB22B44638152
:1081B000C5F58065A389ADB2AB4238BFA58101F199
:1081C000080501F58051A94229D92B68013326D031
:1081D0002846FFF7DFF801280AD0022815D000282A
:1081E000F1D1A3880133A3800AE04FF0010AC0E770
:1081F000E3880133E380E3896A8803331344E3812E
:108200006B88033305EB8305DDE7E38884F8108092
:108210004D1BE189013301EBA501E380E18109F107
:108220001409BAF1000FE0D00020BDE8F88F48F241
:108230000160FAE748F20460F7E700BF003300206E
:108240002433002010B561B1B2FBF3F403FB142416
:10825000A4B244B9C0E9001484608281C38120467D
:1082600010BD0E20FCE70920FAE782B050E8022F8B
:10827000C188B2EB324F4FF0000317BF92B241EA10
:10828000014142EA014104E04268B2EB324F08BFCB
:10829000012340E80212002AE8D18DF807309DF84A
:1082A0000730002B0CBF1120002002B0704737B5FB
:1082B00050E8013F9DB2C48925448489A54228BF66
:1082C0002D1B0489A54202BFBFF32F8F002207E0B8
:1082D000C5EA030540E80154002CE9D14FF0010242
:1082E0008DF803200193019A0A609DF8031001F0B4
:1082F000FF0321B1006810FA82F003B030BD1846C8
:10830000FBE70A884B889A4209D150E8012FC2EA5C
:10831000024240E80123002BF7D1012070470020E2
:10832000704737B550E8023F1FFAA3F5C488A5424D
:1083300002BFBFF32F8F00220DE0C489254484893A
:10834000A54228BF2D1BC3EA054540E80254002C76
:10835000E8D14FF001028DF803200193019A0A60E1
:108360009DF8031001F0FF0321B1006800EB1240FB
:1083700003B030BD1846FBE70A884B889A4209D102
:1083800050E8022FC2EA224240E80223002BF7D134
:10839000012070470020704701F01F024B090121A6
:1083A000914000EB830000F065B84B0910B501F077
:1083B0001F040121A14000EB830000F04FF8E040D2
:1083C00000F0010010BD01F01F0301229A404B098B
:1083D00000EB8300D14300F065B84B0901F01F01A9
:1083E00050F82300C84000F0010070472DE9F04725
:1083F0004F1E7F0980460E460137002558F825405C
:1084000008EB8509E44394FAA4F4B4FA84F44FEA3F
:10841000451A202C06D10135AF42EFD8344620460C
:10842000BDE8F0875444A642F5D921464046FFF7FF
:10843000BCFF0028F3D0D9F80040E44394FAA4F438
:10844000B4FA84F4E5E710B5034653E8000F0A4692
:1084500043E8002494F0000FF7D110BD10B5034697
:1084600053E8000F40EA010243E8002494F0000FB3
:10847000F6D110BD10B5034653E8002F42EA0100C3
:1084800043E8000494F0000FF6D110BD10B5034688
:1084900053E8000F00EA010243E8002494F0000FC3
:1084A000F6D110BD10B5034653E8002F02EA0100D3
:1084B00043E8000494F0000FF6D110BD10B5034658
:1084C00053E8000F00EB010243E8002494F0000F92
:1084D000F6D110BD10B5034653E8002F02EB0100A2
:1084E00043E8000494F0000FF6D110BD10B5034628
:1084F00053E8002FA2EB010043E8000494F0000FC2
:10850000F6D110BD0121FFF7A9BF0121FFF7B2BFCE
:108510000021FFF7BBBF10B590B1D0E9012301687E
:108520009B1ADBB20A60013BDBB2FF2B026802D16F
:108530000020107110BD11684C1C14600B70F2E724
:108540000E20F7E737B5054600240DF107008DF83A
:108550000740FEF797FD2A686B68116899420ED9AB
:10856000481E106011F8013CEC68298A01FB0344A5
:10857000AB6811791B1ADBB2994238BF13719DF8B1
:108580000700FEF7A3FD204603B030BD37B5054612
:1085900000230DF107000C468DF80730FEF772FD41
:1085A0002A681368591C1160E968641A298AB4FBA7
:1085B000F1F41C709DF80700FEF788FD03B030BD94
:1085C000826810B504462AB143690168006998477A
:1085D0000023A36010BD0EB403B5039921B104AB11
:1085E00001AA019300F076F802B05DF804EB03B045
:1085F00070470A2938B504460D4602D10D21FFF710
:10860000F8FFA3682268591CA160D554D4E901324F
:108610009A4204D32046BDE83840FFF7D1BF38BDA9
:108620002DE9F84F9846DDE90A43154682460F4684
:108630000A464FF00109AA420FD2C14538BFC146D0
:1086400013F0010B01D16CB900240126B8F1010F20
:108650001BD908F1FF386E43F8E709F10109B2FBB5
:10866000F5F2E8E79B070ED5B8F1000F0CBF3026F6
:108670002026A145E9D2013C31465046FFF7B9FF1B
:10868000002CF6D1E0E72026F3E7B7FBF6F39D4296
:10869000E1D9DFF83C80B7FBF6F3504618F8031039
:1086A00006FB1377FFF7A5FF3346AB42B6FBF5F6A3
:1086B000F1D2BBF1000F02D00CB1A14501D3BDE84E
:1086C000F88F20215046013CFFF793FFF4E700BFED
:1086D000F56903002DE9F74F05461746884600293E
:1086E00000F03E8118F8011B49B92B7B002B00F0EC
:1086F0003781284603B0BDE8F04FFFF761BF252959
:1087000040F0B780002698F800302D2B424608F143
:10871000010823D0302B24D02B2B25D000242A2B4A
:1087200002F1010123D13B681A1D1B683A601C4409
:108730000A4613782E2B26D101324FF0000A10463C
:1087400010F8011BA1F1300CBCF1090F1DD80A2350
:1087500003FB0A13A3F1300A0246F0E746F00106D4
:10876000D1E746F00206CEE746F00406CBE711F863
:10877000013CA3F130000928DBD80A2202FB0434B3
:10878000303C0A46CBE74FF0000A12F8011B01F01B
:10879000FB0068289046F8D0782909D86F290CD8B2
:1087A000632962D022D8252963D0582900F0888017
:1087B00098F80030002B95D197E770390829F7D841
:1087C00001A353F821F000BF3B890200B1870200EA
:1087D000B1870200D1880200B1870200AF88020091
:1087E000B1870200B1870200C1880200642901D06C
:1087F0006929DDD13A68D2F80090111D89EAE97241
:108800003960A2EBE9724FF0010B092A35DCD34540
:1088100038BFD3462CB1B9F1000F01DB720700D588
:10882000013CB30702D5BAF1000F03D0F00701D421
:108830004CBB0024B9F1000F2DDAC9F100092D213C
:108840002846FFF7D6FE06F00302022A04D1BAF149
:10885000000F01D11CBB0024CDE9004653460A227B
:1088600049462846FFF7DCFEA2E73B681A1D197847
:108870003A602846FFF7BDFE9AE70A230BF1010B89
:10888000B2FBF3F2C1E7A345D4D220212846013C34
:10889000FFF7AFFECCE77107D5D52B21D0E7A34575
:1088A000DAD230212846013CFFF7A3FED2E739682F
:1088B000CDE900460A1D3A6053460A220968D0E70E
:1088C00039680A1D3A60CDE9004653461022F5E7A3
:1088D0003B681A1D3A6016F00106D3F8009024D1C7
:1088E000B9F1000F03D048460AF043FF0646B442F0
:1088F0001DD809F1FF3919F8011F00293FF458AFBD
:108900002846FFF776FEF6E728460136FFF771FEA8
:1089100019F806100029F7D1A642BFF449AF20216B
:108920002846013CFFF765FEF6E70026F0E7202128
:108930002846013CFFF75DFED9E73B681A1D3A6007
:10894000302128461C68FFF754FE78212846FFF79F
:1089500050FE00220823CDE900322146102280E794
:1089600003B0BDE8F08F00BF13B50B46114680B9C8
:10897000104B1148114AC01A0E23C0080093104B27
:108980000004104940F0010002F0EFFB0E2002B09D
:1089900010BD4BB9074B08480B4AC01AC0080E233C
:1089A00000930004064BECE703601B6802B0BDE8CF
:1089B000104018479467030024680300056A030009
:1089C000C16B03000A6A0300396A03002DE9F7430B
:1089D000DDF8288088B93E4B3E483F4AC01AC0089F
:1089E0000E243E4B009400043D4940F0010002F08B
:1089F000BCFB204603B0BDE8F0834AB9344B354890
:108A0000384AC01AC0080E24344B00940004EBE727
:108A1000D0F800E0BEF1000F09D12D4B2D48324AAD
:108A2000C01AC00808242D4B00940004DCE74BB9A1
:108A3000274B28482D4AC01AC0080924274B009408
:108A40000004D1E74568D5F80490B3FBF9F509FBBC
:108A500015354DB11E4B1F48254AC01AC0080924C0
:108A60001E4B00940004BFE78D0709D0184B19482E
:108A7000204AC01AC0081024184B00940004B3E721
:108A800012F0030F09D0124B12481B4AC01AC0083B
:108A90001024124B00940004A6E7C568A9420DD328
:108AA0004D1EEC180569AC4208D8CDF82880DEF8D8
:108AB0000C40A44603B0BDE8F0436047044B0548B2
:108AC0000E4AC01AC0081024044B009400048BE71F
:108AD0009467030024680300056A0300AE6B03007B
:108AE0000A6A0300876A0300336A0300466A0300C8
:108AF0008D6A0300B76A0300CF6A0300F26A0300BD
:108B0000F7B580B92A4B2B482B4AC01AC0080E244F
:108B10002A4B009400042A4940F0010002F025FB92
:108B2000204603B0F0BDD0F800C0BCF1000F09D161
:108B30001F4B2048234AC01AC00808241F4B00942A
:108B40000004E8E74AB91A4B1A481F4AC01AC0087D
:108B500009241A4B00940004DDE74568D5F800E0CD
:108B60000EF1FF350D4209D0114B1248174AC01AB9
:108B7000C0081024114B00940004CCE7C568A9423A
:108B80000CD34D1E0EFB02540569AC4206D8DCF82E
:108B90001040A44603B0BDE8F0406047044B0548D0
:108BA0000B4AC01AC0081024044B00940004B2E71A
:108BB0009467030024680300056A03009B6B0300AD
:108BC0000A6A0300336A0300466A0300196B030054
:108BD0003F6B030070B550B90E4D0F4C0026641B5F
:108BE0001423B4FBF3F4B44208D1002010E003686E
:108BF000002BF1D0BDE87040DB6918472B6813B932
:108C000001361435EFE7DB69284698470028F7D08E
:108C100070BD00BF182B00202C2B002029DF7047CF
:108C200028DF704770B503689E6886B004460D461D
:108C30006EB11422002168460AF01FFDA368059357
:108C4000237901952BB1012B0DD06846B04706B0B2
:108C500070BD01238DF8003023690293E36803930C
:108C600063690493F1E702238DF80030E3681B0386
:108C70000293F5E70846704700207047024B187AC8
:108C8000003818BF01207047A0340020034B187A29
:108C90000122B0FA80F05A7440097047A0340020D5
:108CA00008B510461A460AF0BFFC002008BD0000B7
:108CB00008B51422002104480AF0DFFC0348FFF73E
:108CC000D4FA002008BD00BFA0340020903400205A
:108CD00010B5094C094B43602046FFF713FC40B91F
:108CE0000AF0C8F8064920741C2306488C22FFF7B6
:108CF000A9FA002010BD00BFA0340020D46B0300EF
:108D0000043400209034002038B5234D234C2B7AB6
:108D10003BB923492348FFF704FB206008B968608A
:108D200038BD022324682B72237973B1012B24D020
:108D300020460321FFF776FF00232B726B60184952
:108D40001848BDE83840FFF717BBD4E90523D21A0D
:108D5000B2F5805FD4E9031028BF4FF48052920827
:108D6000012A38BF012219441844FFF757FF50B1B8
:108D70001128DDD101232B72D2E7D4E90303184473
:108D8000FFF74EFFF3E72B7C002BC9D1BDE838403D
:108D9000022000F009B800BFA0340020B834002041
:108DA000B43400209034002038B5234C237A002BB3
:108DB00041D0022B09D1032830D0204B00221B6860
:108DC000E2601A793AB1012A22D0637C7BBBBDE80C
:108DD0003840FFF799BFD3E905128D1AB5F5805FCA
:108DE00094BF521902F580529A619142EDD1022846
:108DF0004FF0000308BF19462372104B18BF0D2116
:108E00001868FFF70FFF0E490E48FFF7B5FADCE7C9
:108E10001A6901321A615B699A42E7E7E368013334
:108E2000082B01D8E360D0E70023E360DFE7BDE86B
:108E300038400AF00FB838BDA0340020B834002004
:108E4000B434002090340020831E012B01D8FFF79A
:108E5000ABBF704700F0FD03012B08D1044B00228B
:108E60005A74421E504250411874FFF74DBF70476C
:108E7000A034002010B5064C201DFFF743FB28B995
:108E8000637C1BB9BDE81040FFF73EBF10BD00BFBB
:108E9000A03400202DE9F34180460D460F4801A97A
:108EA00016461F46FFF703FA0446A8B11C2200210C
:108EB0000AF0E3FB2D0B0123237101A90748C4F835
:108EC0000080A760E5606661FFF71BFAFFF7D2FF3D
:108ED000002002B0BDE8F0810420FAE790340020C1
:108EE0002DE9F74381468846104801A917461E46DA
:108EF000FFF7DDF90446B0B11C2200210AF0BDFBEA
:108F000000250A9BA36001A9C4E9037807482571DD
:108F1000C4F800906661FFF7F4F9FFF7ABFF28464D
:108F200003B0BDE8F0830420FAE700BF90340020CE
:108F30002DE9F84FB0F806A04579D2F800B09DF8B9
:108F400028900AFB05F5043D88460BEB0301A94276
:108F500003F1040488BFA5EB030BB4FBFAF6074644
:108F60000AFB1644C2F800B04EB9AAEB04055D45F1
:108F700028BF5D46BBF1000F04D1BDE8F88F3F6804
:108F8000013EF1E7043408EB06003C442A46B9F1FF
:108F9000000F0DD02146ABEB050B0AF045FBDA457F
:108FA0002E443F6855464FF0000428BF5D46E1E778
:108FB00001462046EFE7FFF7AEBAF8B5467901461D
:108FC000721E0546002393422D6803D30024A64257
:108FD00002D8F8BD0133F6E70F682846FFF7D6FA46
:108FE00001343946F3E72DE9F843068ACD1C0746DC
:108FF000FFF7A8FA043E35440446B5FBF6F5F0B198
:109000004FF48073EDB28380C680013D07608146D6
:109010004FF00008A84512D23846FFF793FA0646EB
:1090200048B163790133637108F10108C9F80000A0
:1090300007608146EEE72046FFF7BFFF3446204633
:10904000BDE8F88301210430FFF744BA10B50121CF
:1090500004460430FFF74AFAC0B220B92046BDE802
:109060001040FFF7AABF10BD1FB503920022009267
:1090700003AAFFF75DFF05B05DF804FB1FB503927F
:109080000122009203AAFFF753FF05B05DF804FB2D
:1090900033DF704741DF7047064B10B500241C706A
:1090A000054B1C60BFF35F8F0449054800F0B0F921
:1090B000204610BDC5340020C83400200C6C0300CD
:1090C000BC34002007B500230DF107008DF80730F0
:1090D000FDF7D8FFF1EE103A23F09F03E1EE103ACE
:1090E000BFF35F8F0A4B4022C3F884219DF807002D
:1090F000FDF7ECFF09F0BEFE20B103B05DF804EB14
:10910000FFF7C8BF20BF40BF20BF03B05DF804FB1E
:1091100000E100E070B5244D044601212846FFF728
:1091200092F9BFF35F8F38B9042C0AD01F4B1A781D
:109130001AB1BFF35F8F286070BD1D4A1470012201
:109140001A701C4C1A4E6368BBB902F05BF801F050
:10915000ABFE0028FBD1164B1B78023B012B15D828
:10916000BFF34F8F1449154BCA6802F4E0621343F2
:10917000CB60BFF34F8F00BFFDE71B683078984787
:109180000028D6D0204600F04DF9DCE709F072FE49
:1091900008B1FFF77DFF4FF080430122C3F800259F
:1091A000BFF34F8F20BFFDE7C8340020C534002037
:1091B000C4340020BC34002000ED00E00400FA05B7
:1091C000026813685268934291BFD01A80680130D8
:1091D000801888BFC01A704703682DE9F0411F68E6
:1091E0001E6815465A68964286BF83680133961BEF
:1091F0008846C268416888BF9E1BB542044607FB8B
:1092000002110CD86A4340460AF00EFAA3683D44A6
:109210009D4288BF002523681D60BDE8F08106FBE4
:1092200002F73A4640460AF0FFF9E2686168AD1B72
:109230006A4308EB07000AF0F7F9ECE70368816876
:109240001A685B688B4234BF01330023D31A58423B
:109250005841704773B5002304460DF107000D46D1
:109260008DF80730FDF70EFF2046FFF7E7FF10B13E
:10927000237C002B3BD12368A1685E685A688A4230
:1092800034BF013200225A6028B11A688A4234BFC2
:10929000013200221A60E2686368511E072920D853
:1092A000DFE801F004101F141F1F1F182A789A55B9
:1092B0002046FFF785FF23689A68824200D29860B3
:1092C000002415E02A8823F81620F1E72A6843F8DD
:1092D0002620EDE7D5E9000103EBC603C3E9000151
:1092E000E6E7294602FB06300AF09EF9E0E704248F
:1092F0009DF80700FDF7EAFE204602B070BD7FB57D
:10930000054601911446AAB10DF10F0000268DF813
:109310000F60FDF7B7FE2846FFF752FFA042019904
:109320000BD322462846FFF757FF34469DF80F001F
:10933000FDF7CCFE204604B070BD0524F6E737B536
:10934000044600250DF107008DF80750FDF79AFE41
:109350000C22294620680AF090F99DF80700FDF7D5
:10936000B5FE03B030BD036818685B68C31A584285
:109370005841704773B5002305460DF107000C46B0
:1093800016468DF80730FDF77DFE2846FFF7EBFF08
:10939000002832D12B6819682EB91A68A868824251
:1093A00038BF561C1E60EA686B68501E07281ED81E
:1093B000DFE800F0040E1D121D1D1D165B5C2370FE
:1093C00000249DF80700FDF781FE204602B070BD25
:1093D00033F811302380F3E753F821302360EFE7AF
:1093E00003EBC103D3E90023C4E90023E8E701FB51
:1093F000023120460AF018F9E2E70524E1E7836824
:1094000000225A60C3E904229A60DA601A60704749
:109410000B684A684360934208BF0023016008BF9D
:1094200043607047436843B10268916852680B44D7
:109430009342436004BF00234360704770B54468A3
:1094400006460D46206818B1B3682946984718B9F2
:1094500023682B60256070BD2468F3E743681868B3
:1094600008B102681A60704743681868704743681B
:10947000186800B97047884203D102681A60012059
:10948000704703460068F4E710B50D49A1F59472E2
:10949000914201D800200FE08C1AE30F03EBE403A4
:1094A0005B1002EBC30452F83330834205D802D27A
:1094B00004F10802ECE7606810BD2146E8E700BF50
:1094C0001871030008B5FFF7DFFF024B002808BF43
:1094D000184608BDDB6F03000648074A03780749B2
:1094E000D35C012213B1043001F02ABA0C3000F031
:1094F000EDBF00BF342B002068350020F43400207D
:109500000648074A03780749D35C012213B10430A7
:1095100001F0C8B90C3000F089BF00BF342B002027
:1095200068350020F534002037B50578012D0DD0C1
:10953000022D30D075B91F491F4800F0E6F8002809
:1095400034D103B0BDE83040FFF7DABF037A1BB96E
:10955000FFF7C2FF03B030BD4368184C19782046AE
:1095600000F0C1F880B18DF800500190144B6846AE
:109570001B689847A168E368A2885B1A9A42E7D201
:10958000104B01221A70E5E7A268E3689A42F1D015
:109590008DF80000EAE7C3688DF800500193FFF7EB
:1095A0009BFF074B68461B689847D3E703238DF85A
:1095B0000030F6E7F5340020E4340020D0340020F9
:1095C000CC340020E0340020F0B51F46234B89B096
:1095D00004461A600D4600293DD08A882048096853
:1095E00000F072F8002834D1AA89A9681D4800F05B
:1095F0006BF800282DD11C4E0FCE6D460FC596E896
:109600000F0085E80F0063690693237C174A18480A
:109610008DF81C70003B18BF01238DF81430637C5B
:10962000002B14BF0E2300238DF81530E36802933E
:10963000A36803932368019369466368009300F06D
:109640002BFA30B90B4B18702368013301D0FFF7A8
:1096500043FF09B0F0BD0720FBE700BFCC3400207A
:10966000D0340020E4340020187103002995020052
:10967000342B0020E034002010B501460E4800F0E5
:1096800032F80446A8B90D480D4A0378D35C63B19B
:10969000043001F0FBF860B90A49074800F035F8DA
:1096A00038B9BDE81040FFF72BBF0C3000F0B2FE18
:1096B000F1E7204610BD00BFE4340020342B002029
:1096C00068350020F534002049B152B1531E1A40CC
:1096D00007D1826001608380C260104670470E200F
:1096E00070470920704710B58468C2688388121BD0
:1096F000934208D3C26813400268D154C36801334F
:10970000C360002010BD0420FCE78268C3689A4251
:109710000AD08268838813400268D35C0B70836828
:1097200001338360002070470520704738B5074C2F
:10973000051E04F1080318BF1C4623682BB11A68E4
:1097400022605B6828469847F7E738BD003500205F
:1097500020B9054B01225A70FFF7E8BF012802D15A
:10976000014A9070F8E77047F834002020B9034BA5
:1097700001225A70FFF7DABF704700BFF8340020AB
:1097800038B50E4C2378B3B90D486360A3602361EC
:10979000E36000F0C9F9054609F06CFB08B900F078
:1097A000CFF901232370074BD3F800340BB1012309
:1097B000A370284638BD8525F5E700BFF8340020A2
:1097C000519702000000014037B50D4C00230DF108
:1097D00007008DF80730FDF755FCE368013BE360B7
:1097E000E36833B9074BD3F8005415B900F0BAF960
:1097F000A5709DF80700FDF769FC03B030BD00BF00
:10980000F834002000000140012813B50CD00328D3
:1098100020D038B9134B0122C3F88020BFF34F8FFB
:10982000BFF36F8F02B010BD0F4C00230DF1070086
:109830008DF80730FDF726FC23780BB9FFF7A0FF62
:10984000E3689DF807000133E3600123A370FDF78F
:109850003DFCE7E700F074F902B0BDE81040FFF707
:10986000B3BF00BF00E100E0F834002031DF7047F3
:109870001FB500238DF807000DF10F008DF80F3094
:10988000FDF700FC09F0F6FA50B909480DF107019F
:10989000FFF7E0FC0648FFF7D1FC08B100F0E4FB5D
:1098A0009DF80F00FDF712FC05B05DF804FB00BF4A
:1098B0006C67030007B520B103280DD003B05DF835
:1098C00004FB104B1B78012BF8D100F0CDFB03B04B
:1098D0005DF804EB00F0D0BB00230DF107008DF81C
:1098E0000730FDF7CFFB07480378012B05D1064968
:1098F000013000F079FB00F0A5FB9DF80700FDF7B3
:10990000E5FBDBE75C3500207198020013B5124CD3
:109910002378FBB9114A8DF80730002808BF10469C
:109920000288A4F801200DF10700FDF7ABFB09F058
:10993000A1FA30B90A49601C00F056FB40B900F0AA
:1099400081FB9DF8070001232370FDF7BFFB00207A
:1099500002B010BD8520FBE75C350020427103009A
:109960007198020007B500230DF107008DF807304C
:10997000FDF788FB09F07EFA18B900F075FB00F0DE
:109980007BFB9DF80700FDF7A1FB0448FFF7D7FC20
:10999000034B00221A7003B05DF804FB6C670300F0
:1099A0005C3500202DE9F7430024DFF85890054688
:1099B0000E46A0460DF107008DF80780FDF762FB0B
:1099C00009F058FA074638B9324629464846FFF7A3
:1099D00096FC044600F036FB9DF80700FDF776FB89
:1099E00047B131462846FFF741FF42F2070398424C
:1099F000044605D0022CDDD0204603B0BDE8F0833C
:109A00000524F9E76C670300F8B505460C4604B970
:109A1000F8BD402C264628BF4026F7B239462846D6
:109A2000FFF7C0FF0028F9D1A41B3544EFE7000081
:109A30001FB503788DF800304368019383688DF873
:109A40000830C368054A0393054B684653F8213034
:109A500052F82110984705B05DF804FB60350020EE
:109A6000643500201FB503788DF8003043680193FA
:109A700083688DF80830C368054A0393054B684630
:109A800053F8213052F82110984705B05DF804FBD7
:109A90006035002064350020F0B5194B90F800C007
:109AA00091F81DE043F82C20164B16460A6943F83E
:109AB0002C20154B03F80CE00C4607460FCC89B060
:109AC0006D460FC594E80F0085E80F00CDF810C073
:109AD000BEF1000F09D0002E0C4A694608BF32467D
:109AE000381D00F011FE09B0F0BD002E084A69468D
:109AF00008BF324607F10C0000F0D8FBF3E700BFC7
:109B0000643500206035002068350020319A02005D
:109B1000659A020000F18040002382B00360036870
:109B20000193019B02B07047044A137923B90121C4
:109B30001060918018467047852070476C35002072
:109B4000074B1A68D20704D4C02283F800230122ED
:109B50001A604FF080430122C3F81825704700BFF8
:109B600000E100E04FF0804208B50223C2F808335C
:109B70004FF48270FFF7CEFF0123D360D2F8183480
:109B8000DB03FBD408BD00004FF0804110B5D1F8D5
:109B9000003163B14FF48070FFF7BCFF0D4B587973
:109BA0000122C1F8082310B95A711B6898474FF079
:109BB0008042D2F8043163B14FF48270FFF7AAFFFC
:109BC0000223C2F80833034BBDE810401B68012094
:109BD000184710BD6C35002000F1804000F5C040F2
:109BE000002382B0036003680193019B02B07047B9
:109BF000800000F1A040D0F8002722F44032C0F8E5
:109C00000027D0F8003743EA0141C0F80017704739
:109C1000054B4FF0FF32072843F8202084BFC018BF
:109C200080F84820704700BF7435002010B51A4CEA
:109C300094F858306BBB4FF0FF3222FA03F1C9079A
:109C400048BFE11803F1010348BF81F83020202B01
:109C5000F3D10021C8B20131FFF7DAFF0C29F9D1A5
:109C6000042200210D4809F008FD0D4BC02283F8A5
:109C7000062340221A604FF4BE70FFF7ADFF094B78
:109C80004FF00042C3F80423012384F85830002029
:109C900010BD0820FCE700BF74350020C835002047
:109CA00000E100E000600040034B93F858000038EA
:109CB00018BF0120704700BF74350020F0B5394E41
:109CC000331893F93030002B69DA8D78C5F34005ED
:109CD000002D0BBF082300230C240824A34201D12C
:109CE0000420F0BD56F82370013743D137185CB219
:109CF00046F8232087F8304015B9F21882F848005A
:109D00008A78550716D4D70736D5820002F1A042CB
:109D1000D2F8005725F00205C2F80057224FC508B7
:109D200000F0070C012202FA0CF217F805C042EA13
:109D30000C027A558A780D7812F0020225D09B0029
:109D400003F1804303F5C0430002D3F8102522F449
:109D5000473222F44072C3F810252D04D3F81025A1
:109D600000F4F85005F4403528431043C3F81005BB
:109D70000020B6E70133B1E74D7800F5E0724FF00F
:109D8000A047AD0047F82250C8E7083C46FA84F4E3
:109D900094F8500040EA851584F85050E8E7082010
:109DA0009FE700BF74350020C835002038B5204C2F
:109DB000251895F93020072A18DD083A44FA82F46C
:109DC00094F850309B09032B0BD14FF0A043D3F8EC
:109DD0001015C14001F001010231BDE83840FFF724
:109DE00007BF012B0CBF02210321F6E7D3B2072BDB
:109DF0001DD8930003F1804303F5C043D3F8100549
:109E000040F00100C3F8100502F1400040B28000AC
:109E100080B2FFF7E1FE51B195F9303054F82330AC
:109E20002BB1012303FA02F2024BC3F8042338BD1D
:109E300074350020006000404FF0A043D3F8103587
:109E400023FA00F000F00100704700002DE9F74F01
:109E500000244E4D01944FF48072012102F18043A1
:109E600003F5C04390B21B68012B06D1D5F804332B
:109E70000B4202D0FFF7B0FE0C430432B2F5907FE4
:109E80004FEA4101EAD1414BD3F87C31012B0CD18F
:109E90004FF4BE70FFF7A0FE4FF0A04344F0004423
:109EA000D3F820250192C3F82025E3B2D3B1384F6F
:109EB00000250126344210D0AB0003F1804303F5A6
:109EC000C043D3F81005D3F8101557F8253023B147
:109ED000C1F30141C0F3042098470135082D4FEA32
:109EE0004606E7D1002C48DA294D4FF0A048294E0C
:109EF0004FF00009012716F9013B5A1C31D0C3F37A
:109F0000C20202A90A44DCB212F8042C03F03F0A90
:109F100003F0070307FA03F31A4222D00AF5E073AD
:109F2000504658F82330C3F3014BBBF1020F0CBF6E
:109F300003210221FFF75CFE07FA0AF3C8F8203577
:109F400005EB0A0393F9303055F823304BB1A109E2
:109F5000032904D0BBF1020F12D1012901D15046CF
:109F6000984709F10109B9F1040FC4D1D8F8203597
:109F70000193C8F82035002BB9D103B0BDE8F08FAC
:109F8000BBF1030FEDD10229E8E700BF00600040FC
:109F900074350020C4350020014B1B68184700BFF2
:109FA000D03500200E4B984237B50C4602D0002029
:109FB00003B030BD00230DF107008DF80730FDF729
:109FC00061F8084B1D7915B901221C601A719DF8C2
:109FD0000700FDF77BF8002DE9D01120E8E700BF6E
:109FE00000200040D035002010B5124C2378FBB97A
:109FF000114B1960037813F0010F104B1EBFD3F8FB
:10A00000042542F00102C3F80425D3F8002222F00F
:10A010000102C3F800224378094A5B01DBB282F8EF
:10A020000D334FF40053136001232370002010BD43
:10A030008520FCE7DC350020D835002000D000402A
:10A0400000E100E0074B0022C3F8002182B0D3F802
:10A0500000210192019A0122C3F804231A6002B080
:10A06000704700BF00D00040024B0122C3F8082314
:10A070005A60704700D00040084B0122C3F8082303
:10A080005A60074B4FF40052C3F88020BFF34F8F44
:10A09000BFF36F8F034B00221A70704700D000404F
:10A0A00000E100E0DC350020074B0022C3F800216E
:10A0B00082B0D3F800210192019AD3F80805034B2E
:10A0C0001B68C0B202B0184700D00040D83500204D
:10A0D0000023435082B043580193019B02B0704764
:10A0E0000A4610B54FF48E71FFF7F2FF136A9168BC
:10A0F000C95C136A01331362C0F81C1510BD024617
:10A1000008B500684FF49271FFF7E2FF10684FF452
:10A110008471FFF7DDFF136801221A6008BD8B69A7
:10A120000A4610B54FF4847123B9FFF7D1FFD0F878
:10A13000183510BDFFF7CCFF536AD168D0F8180569
:10A14000C854536A01335362F3E700001FB501237B
:10A150008DF80030044BCDE90110D3E900126846B8
:10A16000904705B05DF804FBE035002030B54D4D5B
:10A17000D5F804339A0585B051D5D5F82431002B94
:10A180004DD04FF492712846FFF7A2FF4FF40173B0
:10A19000C5F80833444B93F829200AB901226A60B4
:10A1A000404902228DF80020D1F88024C1F8802493
:10A1B00003929A690292DA6801920022C3E90622A8
:10A1C0006846D3E9001290473648D0F81C315BB19D
:10A1D000354A5169136A99424DD992F82830002BBB
:10A1E00049D11146FFF77CFF2E48D0F84431002BAF
:10A1F00056D04FF4A271FFF76BFF2B4B93F8292039
:10A200000AB1012202609A69002A49D0586AD968C5
:10A2100000229A6105B0BDE83040FFF797BFD5F83E
:10A2200004335B07D0D5D5F80831002BCCD01E4CB9
:10A230001C482146FFF773FF636AA2699A42C3D1A3
:10A24000E369E1684BB1A3612369E3600023606ABD
:10A25000E3616362FFF77AFFB6E794F829300BB940
:10A2600001236B600F4B4FF40172C3F808230023E6
:10A27000606AA361EEE70B484FF48E71FFF728FF89
:10A280005369002BB0D051690291002391688DF879
:10A290000030019153616846D2E900139847A3E763
:10A2A00005B030BD00200040E03500202DE9F84326
:10A2B000534D90F804802C2303FB0853064693F873
:10A2C0002A300C469146002B40F096804D4900689C
:10A2D000FFF768FE0746002840F09080226830684B
:10A2E000511C0BD04FF0A04101239340C1F8083519
:10A2F00002F5E0734FF0030C41F823C061684B1C7A
:10A300001FBF01F5E0734FF0A04C4FF0000E4CF86A
:10A3100023E0A369C0F8243594F814C0637DBCF130
:10A32000010F4CEA0303C0F86C35C0F81415C0F8EF
:10A330000C251DD1A268531C1FBF02F5E0734FF01E
:10A34000A0414FF0000C41F823C0E368591C0BD02A
:10A350004FF0A04C01219940CCF8081503F5E071AD
:10A360004FF0030E4CF821E0C0F80835C0F8102576
:10A370002C2202FB08F2AB18C3F804902369AB50FF
:10A38000B9F1000F20D04FF48E71247FFFF7A0FEAB
:10A390004FF4A2713068FFF79BFE32681A4BC2F887
:10A3A0000433130B42F307326101002AC9B21EDBEA
:10A3B0001648841884F800130121520903F01F0382
:10A3C00001FA03F340F8223033680422C3F8002571
:10A3D0002C2303FB08530022C3E9062283F829201B
:10A3E0005A61012283F82A203846BDE8F883084ADA
:10A3F00003F00F03D154E7E70827F5E71127F3E748
:10A40000E03500206DA102008000020000E100E0C4
:10A4100014ED00E00279044B2C2101FB0233586952
:10A42000003818BF01207047E03500202DE9F84FB3
:10A43000064690F8048089469246FFF7EBFF0446F3
:10A4400000283CD1204F2C2508FB057B4FF48E7152
:10A45000CBF814A0CBF80890CBF820008BF828009C
:10A460003068FFF735FE3068012383605946FFF7F7
:10A4700037FEDBF804305D461BBB3068DBF8144068
:10A480002B6A9C4211D83368D3F81C21002AFBD0D8
:10A490000122DA6000202C2303FB087700237B6174
:10A4A000BDE8F88F95F828303BB9D0F81C31002B67
:10A4B000F8D05946FFF714FEE2E70F20EBE7112032
:10A4C000EEE72046ECE700BFE03500202DE9F0473D
:10A4D0003A4D07792C2303FB075306465C6824B1E9
:10A4E00003684FF40170C3F808032C2303FB0753E0
:10A4F000986950B1D869002841D024B133684FF42D
:10A500000172C3F80423112436E09A61D9605862BD
:10A51000D8612C2303FB075393F829301BB910B9DA
:10A520003046FFF7ECFD4FF02C0808FB075A306867
:10A53000DAF80430002B37D14FF4A271D046FFF780
:10A54000C7FD3068D0F82491D0F80831D0F84441E4
:10A55000CBB914B9B9F1000FF3D02C2303FB075585
:10A560000023AB61B9F1000F24D12CBB95F8291061
:10A5700033680122B1B11A602046BDE8F087196145
:10A58000DA610120C5E7B9F1000FE6D1002CE4D172
:10A590004146FFF7C4FDDAF82430DAF818209A4271
:10A5A000CFD8DAE75A60E7E74FF40173C0F8043315
:10A5B0000024E1E70324DFE70F24DDE7E035002096
:10A5C0000023435082B043580193019B02B070476F
:10A5D0001FB501238DF80030044BCDE90110D3E9FC
:10A5E00000126846904705B05DF804FB0C36002069
:10A5F0007FB5434AD2F82461002E60D010464FF454
:10A600009271FFF7DDFF02238DF80030D2F880341D
:10A61000C2F880340393D2F83C350293394BDA68A0
:10A6200001920022C3E906226846D3E9001290474E
:10A630003348D0F8443173B14FF4A271FFF7C0FF33
:10A64000304B9A693AB10022C3E90622D968D0F8A2
:10A650003C05FFF7BDFF2A48D0F82031ABB14FF4DD
:10A660009071FFF7ADFF0123C360264B5A6962B1B9
:10A67000D0F84C150291002299688DF800200191C4
:10A680005A616846D3E9001290471D48D0F8583106
:10A690009BB14FF4AC71FFF793FF1A4B5A6962B14B
:10A6A000D0F84C150291002299688DF80020019194
:10A6B0005A616846D3E90012904704B070BDD2F8E1
:10A6C0001031002BB4D04FF488711046FFF778FF9B
:10A6D0000C4BD2F83C0599698842A9D1DC69D9684C
:10A6E00064B1D2F8005225F02005C2F800521A6970
:10A6F0009C61DA60DE61FFF76BFF99E79C61FAE726
:10A70000002000400C3600202DE9F8435A4E90F806
:10A710000480242303FB0863044693F820300D468D
:10A720009146002B40F0A38054490068FFF73AFCA3
:10A730000746002840F09D802A682068511C0BD0F5
:10A740004FF0A04101239340C1F8083502F5E073B2
:10A750004FF0030C41F823C069684B1C1FBF01F583
:10A76000E0734FF0A04C4FF0000E4CF823E0AB69C3
:10A77000C0F8243595F814C06B7DBCF1010F4CEA8C
:10A780000303C0F86C35C0F80C25C0F814151DD1B2
:10A79000AA68531C1FBF02F5E0734FF0A0414FF0B1
:10A7A000000C41F823C0EB68591C0BD04FF0A04CB3
:10A7B00001219940CCF8081503F5E0714FF0030E24
:10A7C0004CF821E0C0F80835C0F81025242202FB1F
:10A7D00008F2B318C3F804902B69B350B9F1000F15
:10A7E0002FD04FF488712A7FFFF7EAFE20684FF4DC
:10A7F0009071FFF7E5FE20684FF49271FFF7E0FEDD
:10A8000020684FF4A271FFF7DBFE4FF4AC712068B3
:10A81000FFF7D6FE23681A49C3F80413190B43F354
:10A8200007335201002BD2B21CDB1648C51885F83D
:10A83000002301225B0901F01F0102FA01F140F837
:10A84000231023680822C3F80025242303FB08668D
:10A850000023C6E906337361012386F820303846A9
:10A86000BDE8F883084B01F00F015A54E9E70827C7
:10A87000F5E71127F3E700BF0C360020F1A5020031
:10A880001003420000E100E014ED00E00279044B07
:10A89000242101FB02335869003818BF012070479A
:10A8A0000C36002001F06043B3F1005F2DE9F04762
:10A8B0000646884692463BD190F80490FFF7E6FFA3
:10A8C0000446002836D11D4F3068242505FB097544
:10A8D0004FF49071C5F814A0C5F80880FFF770FE1A
:10A8E0004FF4AC713068FFF76BFE33686A69A96892
:10A8F000C3F84415C3F8482501229A606A68DAB99A
:10A90000D3F82021D3F858011AB90028F8D00F2025
:10A9100007E00028FBD10122DA60D3F85821002A91
:10A92000FBD0242303FB097700237B61BDE8F0877C
:10A930001020FBE71120F9E72046F7E70C3600204E
:10A94000F8B501F06043B3F1005F04460F465ED1F5
:10A950000379304D242101FB0351496821B100687E
:10A960004FF40476C0F80863242000FB03539E696B
:10A9700056B1D869002839D021B123684FF4047248
:10A98000C3F80423112030E09A61DF60DE612068A3
:10A990004FF48871FFF714FE20684FF4A271FFF79F
:10A9A0000FFE2368C3F83475C3F8382516BB01229F
:10A9B0001A602479242202FB045252680ABBD3F89D
:10A9C0001011D3F84421D3F82401114302D10028F7
:10A9D000F5D00A46242303FB04550023984218BFF0
:10A9E00003209A42AB6118BF0F20F8BD1F61DA61E6
:10A9F0000126CCE7D3F8002242F02002C3F800225F
:10AA0000D7E74FF40472C3F804230020EDE71020C9
:10AA1000EBE700BF0C360020054A4FF0A043105C66
:10AA2000D3F8043523FA00F0C04300F0010070476A
:10AA300068710300044B1A5C012393404FF0A0425D
:10AA4000C2F80C35704700BF68710300044B1A5CF4
:10AA5000012393404FF0A042C2F80835704700BF71
:10AA60006871030008B50020FFF7F0FF0120FFF731
:10AA7000EDFF0220FFF7EAFFBDE808400320FFF7E3
:10AA8000E5BF08B50020FFF7D5FF0120FFF7D2FF93
:10AA90000220FFF7CFFFBDE808400320FFF7CABF41
:10AAA000074A4FF0A041105CD1F8043501228240E2
:10AAB00022EA03001340C1F80805C1F80C357047BD
:10AAC00068710300054A4FF0A043105CD3F81035BD
:10AAD00023FA00F0C04300F00100704764710300E6
:10AAE0000D2809D00E2809D00F2809D010280CBF36
:10AAF00003204FF0FF30704700207047012070475F
:10AB000002207047014B185C704700BF647103005E
:10AB1000C20708B501460CD54FF0A0430322C3F885
:10AB20004427C3F84827C3F84C27C3F85027FFF73A
:10AB300099FF8B070AD54FF0A0430C22C3F83427A6
:10AB4000C3F83827C3F83C27C3F8402708BD70472F
:10AB500007B5044B0093044A402300F032F803B0D9
:10AB60005DF804FB6DAB0200313600202DE9F8439F
:10AB700088461446B2B10F4B0F4E0325002743F011
:10AB80000109224608EB0701002002F021FB0744DF
:10AB9000241A48B933782BB14FF47A40C847013DA5
:10ABA00002D13570BDE8F88301233370002CE8D161
:10ABB000F8E700BF7071030030360020704702F0E4
:10ABC00057BBF0B595B01D46164608460C46FEF735
:10ABD00039FA1A9B0D93CDE9086500252B4608220A
:10ABE00005A920460A958DF82C500C95FEF746FADB
:10ABF000079B0293069B03939DF814308DF8115028
:10AC000003F00302012A1DD1BDF81420059DC3F3F2
:10AC1000C203C2F383168DF81030B20008230EA9C8
:10AC20002046FEF72BFAC5F3952508AB0093324674
:10AC300002AB0EA9284600F059FB2046FEF706FAA3
:10AC400015B0F0BD022AF8D1BDF81650C3F3C20307
:10AC5000C5F389158DF810300827082D2E4628BF1A
:10AC600008263B4632460EA92046FEF707FAAD1BE2
:10AC700008AB02AA31460EA8374400F09BFB002D1A
:10AC8000EBD1DAE708B5FFF79AFF0448042100F09A
:10AC900097FA034B01225A7108BD00BF04690300F3
:10ACA000482B0020037813F0040216D003F00303AE
:10ACB000012B03D0022B09D0012070470A680088BD
:10ACC0000232C0F3831002440A60F5E70B68428841
:10ACD000023303EB92130B60EEE71046704700005F
:10ACE0002DE9F04FDFF81CA187B00F460023044682
:10ACF000861C0DF1070015468DF80730FCF7C2F9E8
:10AD0000DAF804203A60DAF8083003F580739B1A09
:10AD10000AF21C470AF583690AF21448B3421AD3AF
:10AD20000020002D69D004F00F039B0143F00503C0
:10AD300063F30F00DAF80430DAB2033233444AF82E
:10AD400022009DF80700CAF80430FCF7BFF9012083
:10AD500007B0BDE8F08F01213846FDF7BBFB484640
:10AD6000FDF7D3FB4046FDF7D0FBDAF80800029070
:10AD7000C0B203300AEB800002A9FFF793FF029BE9
:10AD800030BBDAB20AEB8202D16803919A1C01331C
:10AD9000DBB20AEB83030292D3F80CB001F0030399
:10ADA000012B22D0022B15D083464046FDF7B0FB85
:10ADB00010B1029BCAF8083059463846FDF78AFBA5
:10ADC000DAF80830DAF8042003F580739B1AA5E757
:10ADD000D8B2CEE7BDF80E30C3F3891303334FEA80
:10ADE0001B4B02EB93030293DFE7BDF80C30C3F378
:10ADF00083134FEA1B4B1344F5E7A40544F0060008
:10AE000098E700BF44370020064B074810B50022E2
:10AE10001A70FEF7D0F8044610B90448FEF7EFFAAE
:10AE2000204610BD44370020A4680300AC71030025
:10AE300030B50A4C71B10A4A0A49121BD2080023E4
:10AE40009A4201D1002030BD31F82350854202D012
:10AE50000133F5E7034654F83300F4E79467030041
:10AE6000A4680300182B0020094B013903EBC00034
:10AE7000032909D8DFE801F00A020406042070471C
:10AE80000079704740797047002070470220704772
:10AE900094670300034BD3E90130C31A5842584169
:10AEA000704700BF443700202DE9F04186B0FFF71E
:10AEB000F1FF0546002840F0ED80774CC4F81804F7
:10AEC000BFF34F8FA3680293DBB2033304EB83001D
:10AED00002A9FFF7E7FE029B18B1D4F81824002A54
:10AEE0005AD0DAB2991C013304EB8202DBB204EBD4
:10AEF0008303D268DB68049302F00303022B0392FE
:10AF0000029154D1BDF80E306448C3F38917502F15
:10AF10003E4628BF502606F1080166F38F13C1F3A1
:10AF20000901ADF80E30FEF75EF80546002800F086
:10AF30009C80FEF787F80023082203A92846FEF725
:10AF400093F80299CB43DBB20133C9B20331B6EBBC
:10AF5000830F4FEA830204EB810125D95FFA82F85F
:10AF60000823A6EB08062846FEF77EF8F6B208F19D
:10AF700008034B4903F0FC0332462846FEF774F8F9
:10AF8000029B033703EB97070297D4F81834002B82
:10AF900043D1D4F8106453E062689A4294D8A26016
:10AFA000284606B0BDE8F08108233246E5E7012BCC
:10AFB0005BD1BDF80C303948C3F38311062928BF93
:10AFC000062161F38913023101F00F018900ADF808
:10AFD0000C30FEF708F80546002846D0FEF732F898
:10AFE0000023082203A92846FEF73EF80026BDF8F4
:10AFF0000C20C2F38312B300964203F10803C4D2BB
:10B0000002994A1CC9B20331029204EB8101042265
:10B010002846FEF729F80136E9E72846FEF716F834
:10B02000FFF738FF80F00100C5B2B9E7F3685B793C
:10B0300023B1336829461B6830469847F3681E6879
:10B04000002EF3D12846FEF701F80DF107008DF828
:10B050000760FCF717F8D4F818340BB9029BA3600B
:10B060009DF80700FCF732F8DAE7D4F8104454B939
:10B070000C4B0D480D49C01AC008000440F00200F6
:10B0800000F05CF8CCE7236820469B689847E368AB
:10B090001C68ECE7002583E744370020A468030020
:10B0A0005037002094670300C467030094710300C5
:10B0B0002DE9F34704460E46924601A9012218469F
:10B0C0009946FFF70DFE1B4F10B3019D4FF000088E
:10B0D000AA1CC84508EB020123D117480021FDF73F
:10B0E000B2F980F31000000440EA1440E4006B1C45
:10B0F00004F03804DBB2EDB244F0010407EB830343
:10B10000033544EA881444EA8624D86047F8254089
:10B110003B781BB1FFF7C8FE0028FBD102B0BDE8A9
:10B12000F087C9B207EB81015AF82830CB6008F1EB
:10B130000108CEE744370020603B002000231A4678
:10B14000FFF7B6BF07B50123019201AAFFF7B0FFD1
:10B1500003B05DF804FB07B5CDE9002302236A467E
:10B16000FFF7A6FF03B05DF804FB1FB5CDE901238F
:10B17000069B039301AA0323FFF79AFF05B05DF82E
:10B1800004FB1FB5CDE90023069B0293079B0393A5
:10B190006A460423FFF78CFF05B05DF804FB7FB51A
:10B1A000CDE90123089B0393099B04930A9B059314
:10B1B00001AA0523FFF77CFF07B05DF804FB000040
:10B1C00030B50F4CD4F8102403460020114631B995
:10B1D000D96808714AB9C4F810340A6030BDC9682A
:10B1E0000D79854206D00968F1E7D26814680C60D1
:10B1F0001360F3E701300A28E8D14FF0FF30EDE7A4
:10B200004437002038B5084B0125D3F810441D7091
:10B2100004B938BDE3685D71236820465B689847D0
:10B22000E3681C68F4E700BF4437002030B5C388EA
:10B2300085B004460D4633B1144A00921449154AAC
:10B240002846FDF7C8F9217A05291DD0637A4BB14C
:10B25000A088FFF709FE104B104953F8202028461C
:10B26000FDF7B9F9227A0E4BA08853F822200392F9
:10B270000021FFF7DDFD039A0A490346284605B081
:10B28000BDE83040FDF7A7B905B030BDD871030067
:10B29000C0710300B8710300447203000FAA0300D9
:10B2A00068720300DD71030007B503460846197A8A
:10B2B000052911D05B7A2BB1094A0A490190FDF7A3
:10B2C0008AF9019808490190FDF785F9019803B0C2
:10B2D0005DF804EBFDF774B9002AF8D0F2E700BF7F
:10B2E000D87103000FAA0300D57103002DE9F043C4
:10B2F00085B01F460C9D002395F80C902B730646D5
:10B300000C46904629463846FFF790FFB8F1060FE5
:10B3100009D8DFE808F00412181F2833400031462E
:10B320002846FDF758F9002229463846FFF7BCFFAA
:10B3300085F80C9005B0BDE8F083226831462846B8
:10B34000FDF749F9EFE7D4E9002331462846FDF738
:10B3500042F9E8E7A36800933146D4E90023284680
:10B36000FDF739F9DFE7E3680193A36800933146FD
:10B37000D4E900232846FDF72EF9D4E72369029388
:10B38000E3680193A36800933146D4E9002328467B
:10B39000FDF721F9C7E76369039323690293E36823
:10B3A0000193A36800933146D4E900232846FDF7B2
:10B3B00012F9B8E708292DE9F74F80460E461746DF
:10B3C0001C463CD8002593F80C901D731946104676
:10B3D000FFF72CFFDFF888A0DFF888B0AE4231D944
:10B3E00018F8052059462046FDF7F5F80135082DD7
:10B3F000F4D11949194DDFF870A02046FDF7EBF89C
:10B400004FF0000B5E4522D918F80B207E2A05D894
:10B410001046019208F060F8019A00B92E225146B8
:10B420002046FDF7D8F80BF1010BBBF1080FE9D16D
:10B43000012221463846FFF737FF84F80C9003B00D
:10B44000BDE8F08F51462046FDF7C5F8CEE7294606
:10B450002046FDF7C0F8E6E7F1710300EF71030045
:10B46000ED710300E7710300F37103004FF48C7278
:10B47000002108F002B918B14FF48C7100F0CABE77
:10B4800070470000C02AF0B541D0B2F5807F40D0AF
:10B49000802A40F0C5800A230446036000F10803B7
:10B4A000520944F8043F01EB82028A4233D1036817
:10B4B0000C2B3ED00E2B6CD00A2B26D15A4D5B495B
:10B4C00000F1A006426955F8044B8768C2F30723D0
:10B4D0007C40CB5C6340140E10300C5D83EA044367
:10B4E000D4B20C5D83EA0463C2F307440C5D83EAC3
:10B4F000042350F8044C836063400468C3606340D5
:10B500000361534043618642DCD100208AE00C2372
:10B51000C2E70E23C0E78B784D781B0443EA05236E
:10B520000D782B43CD7843EA056344F8043F04319A
:10B53000BBE73D4C3D4900F1C005C26954F8046BBE
:10B540008768C2F307237E40CB5C7340160E183029
:10B550008E5D83EA0643D6B28E5D83EA0663C2F34C
:10B5600007468E5D83EA062350F80C6C83607340B7
:10B5700050F8086CC360734050F8046C036173406A
:10B5800006684361734083615340C3618542D4D1EF
:10B59000BBE7254D254900F1E006446A55F8042B28
:10B5A0008768C4F307237A40CB5C87695340220E37
:10B5B00020308A5C83EA0243E2B28A5C83EA026357
:10B5C000C4F307428A5C83EA022350F8142C836098
:10B5D000534050F8102CC360534050F80C2C0361BA
:10B5E0005340DAB243618A5C7A401F0ECF5D82EA33
:10B5F0000762C3F30727C3F30743CF5DCB5C82EA3F
:10B60000072282EA034350F8042C83615340026806
:10B61000C36153400362634043628642BDD174E715
:10B620006FF01F00F0BD00BF7C8303007C7203003D
:10B630002DE9F04F97B043680D680E951C68A84F30
:10B64000A84E6C400E945D684C686C400F949D68E9
:10B650008C68C9686C40109403F11004DB68A24D3B
:10B6600000944B40119303680D945B100393013BCE
:10B6700004930193002320460293DDE90EE1C1F318
:10B680000723DDF840C057F823300693CCF3074377
:10B69000CCF3072856F823300793119B57F828401E
:10B6A0000894C3F307484FEA1C6956F828400994E8
:10B6B000C3F307285FFA8CFC57F828400A94CEF3AE
:10B6C0000748203056F828400B94CEF3072857F847
:10B6D00028400594C1F30748844C56F828B054F824
:10B6E00029A05FFA83F84FEA116955F82880C9B29A
:10B6F00088EA0A0A55F82C8054F829C055F8211018
:10B700004FEA1E6988EA0C0854F829C05FFA8EFED9
:10B7100081EA0C014FEA136C55F82E3054F82C9046
:10B7200083EA0909019B002BDDE9063483EA04035F
:10B73000089CA446099C8CEA040C0A9CA6460B9C17
:10B740008EEA040E00F3D680039C0498002C009C23
:10B750004FEA4010D8BF002004442046029C04B1A8
:10B760000D900D9E3068B5687468434083EA090700
:10B77000F36812978BEA0A0B8BEA030B059B8EEAA0
:10B78000050585EA08088BEA030B594DCDF854B03E
:10B79000FBB28CEA040CEC5C3369CDF850805C4061
:10B7A0004FEA1B638CEA0101EB5C139184EA0364AA
:10B7B000C1F30723C7F30729EB5C84EA0324C8F32A
:10B7C0000743EB5C84EA0344CBB20E94E85C7369F4
:10B7D00058403B0EEB5C80EA0360C8F30723EB5C48
:10B7E00080EA0320CBF30743EB5C80EA03405FFA77
:10B7F00088F34FEA186815F803A0B3690F908AEA36
:10B80000030A0B0EC1F30741EB5C8AEA036ACBF330
:10B8100007235FFA8BFBEB5C8AEA032AC7F3074333
:10B82000EB5C8AEA034A06F120030D93F66915F8EA
:10B830000B30CDF840A0734015F8086083EA06632A
:10B8400015F80960695C147083EA062383EA0143F2
:10B85000210A5170210C9170010A5171010C9171F2
:10B860004FEA1A2151724FEA1A4191724FEA1A6156
:10B87000D172190A1071137351731193190C240E9C
:10B880001B0E000ED0719173D47082F808A0D37390
:10B890000EA8042100F0BEFC0FA8042100F0BAFCA1
:10B8A00010A8042100F0B6FC11A8042100F0B2FC9D
:10B8B00012A8042100F0AEFC13A8042100F0AAFC99
:10B8C00014A8042100F0A6FC15A8042100F0A2FC95
:10B8D0000DA8042100F09EFC002017B0BDE8F08FF9
:10B8E0007C7703007C7B03007C7303007C7F030078
:10B8F0007C72030050F8204C634083EA09031293E2
:10B9000050F81C4C8CEA040C8CEA010CCDF84CC0AD
:10B9100050F8181C059C8EEA010181EA0801149177
:10B9200084EA0B0B50F8144C8BEA040B8BEA0A0ADE
:10B930003C4CCDF854A05FFA83F84FEA1A6E55F8E4
:10B94000288054F82EE050F8104C88EA0E0ECCF304
:10B9500007288EEA040E57F82880324C8EEA080E2B
:10B96000C1F3074856F828808EEA080ECDF838E073
:10B970005FFA8CF84FEA136E55F8288054F82EE0E1
:10B9800050F80C4C88EA0E0EC1F307288EEA040E1C
:10B9900057F82880234C8EEA080ECAF3074856F859
:10B9A00028808EEA080ECDF83CE05FFA81F84FEA75
:10B9B0001C6E55F8288054F82EE050F8084C88EAA0
:10B9C0000E0ECAF307288EEA040E57F82880154C8D
:10B9D0008EEA080EC3F307485FFA8AFA56F8288001
:10B9E0008EEA080E4FEA1168CDF840E055F82A10AB
:10B9F00054F828E0C3F3072381EA0E0E50F8041C24
:10BA000057F82330CCF3074C8EEA0101594056F821
:10BA10002C3059401191019B013B0193012302936A
:10BA20002BE600BF7C7F03002DE9F04F97B0436801
:10BA30000D680E951C68DFF8A8E2DFF8A8C2A54FD4
:10BA40006C400E945D684C686C400F949D688C68E7
:10BA5000C9686C40109403F11004DB6800944B40FB
:10BA6000119303680D945B100293013B25460393E9
:10BA700001930024DDF8448010980E99C8F3072341
:10BA8000C1F307295EF823300693C0F307435EF83D
:10BA900029605CF823300793C8F307490F9B089689
:10BAA0005CF829600996C3F307294FEA116A5EF82A
:10BAB00029600A96C1F30749C9B25CF829600B9660
:10BAC000C0F3072920355EF829600496C3F30749BF
:10BAD0005CF8296005965FFA88F97F4E57F829903F
